{
	"tenderly/flashloan/contracts/Multiswap.sol": {
		"MultiSwapContract": {
			"abi": [
				{
					"inputs": [],
					"payable": false,
					"stateMutability": "nonpayable",
					"type": "constructor"
				},
				{
					"payable": true,
					"stateMutability": "payable",
					"type": "fallback"
				},
				{
					"constant": true,
					"inputs": [],
					"name": "BNB_ADDRESS",
					"outputs": [
						{
							"internalType": "address",
							"name": "",
							"type": "address"
						}
					],
					"payable": false,
					"stateMutability": "view",
					"type": "function"
				},
				{
					"constant": false,
					"inputs": [
						{
							"internalType": "uint256",
							"name": "_amount",
							"type": "uint256"
						}
					],
					"name": "UnwrapBNB",
					"outputs": [],
					"payable": true,
					"stateMutability": "payable",
					"type": "function"
				},
				{
					"constant": true,
					"inputs": [],
					"name": "addressesProvider",
					"outputs": [
						{
							"internalType": "contract ILendingPoolAddressesProvider",
							"name": "",
							"type": "address"
						}
					],
					"payable": false,
					"stateMutability": "view",
					"type": "function"
				},
				{
					"constant": false,
					"inputs": [
						{
							"internalType": "bytes[]",
							"name": "paths",
							"type": "bytes[]"
						},
						{
							"internalType": "address",
							"name": "sourcetoken",
							"type": "address"
						},
						{
							"internalType": "uint256",
							"name": "amountToken",
							"type": "uint256"
						}
					],
					"name": "executeArbi",
					"outputs": [],
					"payable": false,
					"stateMutability": "nonpayable",
					"type": "function"
				},
				{
					"constant": false,
					"inputs": [
						{
							"internalType": "address",
							"name": "_reserve",
							"type": "address"
						},
						{
							"internalType": "uint256",
							"name": "_amount",
							"type": "uint256"
						},
						{
							"internalType": "uint256",
							"name": "_fee",
							"type": "uint256"
						},
						{
							"internalType": "bytes",
							"name": "_params",
							"type": "bytes"
						}
					],
					"name": "executeOperation",
					"outputs": [],
					"payable": false,
					"stateMutability": "nonpayable",
					"type": "function"
				},
				{
					"constant": true,
					"inputs": [],
					"name": "owner",
					"outputs": [
						{
							"internalType": "address payable",
							"name": "",
							"type": "address"
						}
					],
					"payable": false,
					"stateMutability": "view",
					"type": "function"
				},
				{
					"constant": true,
					"inputs": [],
					"name": "receiver",
					"outputs": [
						{
							"internalType": "address",
							"name": "",
							"type": "address"
						}
					],
					"payable": false,
					"stateMutability": "view",
					"type": "function"
				},
				{
					"constant": false,
					"inputs": [
						{
							"internalType": "uint256",
							"name": "amount",
							"type": "uint256"
						}
					],
					"name": "rescueBNB",
					"outputs": [],
					"payable": false,
					"stateMutability": "nonpayable",
					"type": "function"
				},
				{
					"constant": false,
					"inputs": [
						{
							"internalType": "uint256",
							"name": "_amount",
							"type": "uint256"
						},
						{
							"internalType": "address",
							"name": "token",
							"type": "address"
						}
					],
					"name": "rescuetoken",
					"outputs": [],
					"payable": false,
					"stateMutability": "nonpayable",
					"type": "function"
				},
				{
					"constant": true,
					"inputs": [],
					"name": "reserve",
					"outputs": [
						{
							"internalType": "address",
							"name": "",
							"type": "address"
						}
					],
					"payable": false,
					"stateMutability": "view",
					"type": "function"
				}
			],
			"devdoc": {
				"methods": {}
			},
			"evm": {
				"assembly": "    /* \"tenderly/flashloan/contracts/Multiswap.sol\":421:4409  contract MultiSwapContract is FlashLoanReceiverBase {... */\n  mstore(0x40, 0x80)\n    /* \"tenderly/flashloan/contracts/base/FlashLoanReceiverBase.sol\":513:652  ILendingPoolAddressesProvider public addressesProvider = ILendingPoolAddressesProvider(address(0xCc0479a98cC66E85806D0Cd7970d6e07f77Fd633)) */\n  0x00\n  dup1\n  sload\n  not(sub(shl(0xa0, 0x01), 0x01))\n  swap1\n  dup2\n  and\n    /* \"tenderly/flashloan/contracts/base/FlashLoanReceiverBase.sol\":608:650  0xCc0479a98cC66E85806D0Cd7970d6e07f77Fd633 */\n  0xcc0479a98cc66e85806d0cd7970d6e07f77fd633\n    /* \"tenderly/flashloan/contracts/base/FlashLoanReceiverBase.sol\":513:652  ILendingPoolAddressesProvider public addressesProvider = ILendingPoolAddressesProvider(address(0xCc0479a98cC66E85806D0Cd7970d6e07f77Fd633)) */\n  or\n  swap1\n  swap2\n  sstore\n  0x01\n    /* \"tenderly/flashloan/contracts/Multiswap.sol\":511:550  address public receiver = address(this) */\n  dup1\n  sload\n  dup3\n  and\n    /* \"tenderly/flashloan/contracts/Multiswap.sol\":545:549  this */\n  address\n    /* \"tenderly/flashloan/contracts/Multiswap.sol\":511:550  address public receiver = address(this) */\n  or\n  swap1\n  sstore\n    /* \"tenderly/flashloan/contracts/Multiswap.sol\":791:851  WBNB wbnb = WBNB(0xbb4CdB9CBd36B01bD1cBaEBF2De08d9173bc095c) */\n  0x04\n  dup1\n  sload\n  swap1\n  swap2\n  and\n    /* \"tenderly/flashloan/contracts/Multiswap.sol\":808:850  0xbb4CdB9CBd36B01bD1cBaEBF2De08d9173bc095c */\n  0xbb4cdb9cbd36b01bd1cbaebf2de08d9173bc095c\n    /* \"tenderly/flashloan/contracts/Multiswap.sol\":791:851  WBNB wbnb = WBNB(0xbb4CdB9CBd36B01bD1cBaEBF2De08d9173bc095c) */\n  or\n  swap1\n  sstore\n    /* \"tenderly/flashloan/contracts/Multiswap.sol\":918:990  constructor() public {... */\n  callvalue\n    /* \"--CODEGEN--\":5:7   */\n  dup1\n  iszero\n  tag_1\n  jumpi\n    /* \"--CODEGEN--\":30:31   */\n  0x00\n    /* \"--CODEGEN--\":27:28   */\n  dup1\n    /* \"--CODEGEN--\":20:32   */\n  revert\n    /* \"--CODEGEN--\":5:7   */\ntag_1:\n  pop\n    /* \"tenderly/flashloan/contracts/Multiswap.sol\":953:958  owner */\n  0x02\n    /* \"tenderly/flashloan/contracts/Multiswap.sol\":953:971  owner = msg.sender */\n  dup1\n  sload\n  not(sub(shl(0xa0, 0x01), 0x01))\n  and\n    /* \"tenderly/flashloan/contracts/Multiswap.sol\":961:971  msg.sender */\n  caller\n    /* \"tenderly/flashloan/contracts/Multiswap.sol\":953:971  owner = msg.sender */\n  or\n  swap1\n  sstore\n    /* \"tenderly/flashloan/contracts/Multiswap.sol\":421:4409  contract MultiSwapContract is FlashLoanReceiverBase {... */\n  dataSize(sub_0)\n  dup1\n  dataOffset(sub_0)\n  0x00\n  codecopy\n  0x00\n  return\nstop\n\nsub_0: assembly {\n        /* \"tenderly/flashloan/contracts/Multiswap.sol\":421:4409  contract MultiSwapContract is FlashLoanReceiverBase {... */\n      mstore(0x40, 0x80)\n      jumpi(tag_1, lt(calldatasize, 0x04))\n      shr(0xe0, calldataload(0x00))\n      dup1\n      0xcd3293de\n      gt\n      tag_12\n      jumpi\n      dup1\n      0xcd3293de\n      eq\n      tag_7\n      jumpi\n      dup1\n      0xebca6480\n      eq\n      tag_8\n      jumpi\n      dup1\n      0xee872558\n      eq\n      tag_9\n      jumpi\n      dup1\n      0xf7260d3e\n      eq\n      tag_10\n      jumpi\n      dup1\n      0xf8a4b3fa\n      eq\n      tag_11\n      jumpi\n      jump(tag_1)\n    tag_12:\n      dup1\n      0x441b1d30\n      eq\n      tag_2\n      jumpi\n      dup1\n      0x70de629f\n      eq\n      tag_3\n      jumpi\n      dup1\n      0x8da5cb5b\n      eq\n      tag_4\n      jumpi\n      dup1\n      0xc72c4d10\n      eq\n      tag_5\n      jumpi\n      dup1\n      0xc734aa06\n      eq\n      tag_6\n      jumpi\n    tag_1:\n      stop\n        /* \"tenderly/flashloan/contracts/Multiswap.sol\":3159:3241  function rescueBNB(uint256 amount) external{... */\n    tag_2:\n      callvalue\n        /* \"--CODEGEN--\":8:17   */\n      dup1\n        /* \"--CODEGEN--\":5:7   */\n      iszero\n      tag_15\n      jumpi\n        /* \"--CODEGEN--\":30:31   */\n      0x00\n        /* \"--CODEGEN--\":27:28   */\n      dup1\n        /* \"--CODEGEN--\":20:32   */\n      revert\n        /* \"--CODEGEN--\":5:7   */\n    tag_15:\n      pop\n        /* \"tenderly/flashloan/contracts/Multiswap.sol\":3159:3241  function rescueBNB(uint256 amount) external{... */\n      tag_1\n      tag_17\n      calldatasize\n      0x04\n      jump(tag_18)\n    tag_17:\n      tag_19\n      jump\t// in\n        /* \"tenderly/flashloan/contracts/Multiswap.sol\":556:636  address public constant BNB_ADDRESS = 0xEeeeeEeeeEeEeeEeEeEeeEEEeeeeEeeeeeeeEEeE */\n    tag_3:\n      callvalue\n        /* \"--CODEGEN--\":8:17   */\n      dup1\n        /* \"--CODEGEN--\":5:7   */\n      iszero\n      tag_20\n      jumpi\n        /* \"--CODEGEN--\":30:31   */\n      0x00\n        /* \"--CODEGEN--\":27:28   */\n      dup1\n        /* \"--CODEGEN--\":20:32   */\n      revert\n        /* \"--CODEGEN--\":5:7   */\n    tag_20:\n        /* \"tenderly/flashloan/contracts/Multiswap.sol\":556:636  address public constant BNB_ADDRESS = 0xEeeeeEeeeEeEeeEeEeEeeEEEeeeeEeeeeeeeEEeE */\n      pop\n      tag_21\n      tag_22\n      jump\t// in\n    tag_21:\n      mload(0x40)\n      tag_23\n      swap2\n      swap1\n      jump(tag_24)\n    tag_23:\n      mload(0x40)\n      dup1\n      swap2\n      sub\n      swap1\n      return\n        /* \"tenderly/flashloan/contracts/Multiswap.sol\":643:671  address payable public owner */\n    tag_4:\n      callvalue\n        /* \"--CODEGEN--\":8:17   */\n      dup1\n        /* \"--CODEGEN--\":5:7   */\n      iszero\n      tag_25\n      jumpi\n        /* \"--CODEGEN--\":30:31   */\n      0x00\n        /* \"--CODEGEN--\":27:28   */\n      dup1\n        /* \"--CODEGEN--\":20:32   */\n      revert\n        /* \"--CODEGEN--\":5:7   */\n    tag_25:\n        /* \"tenderly/flashloan/contracts/Multiswap.sol\":643:671  address payable public owner */\n      pop\n      tag_21\n      tag_27\n      jump\t// in\n        /* \"tenderly/flashloan/contracts/base/FlashLoanReceiverBase.sol\":513:652  ILendingPoolAddressesProvider public addressesProvider = ILendingPoolAddressesProvider(address(0xCc0479a98cC66E85806D0Cd7970d6e07f77Fd633)) */\n    tag_5:\n      callvalue\n        /* \"--CODEGEN--\":8:17   */\n      dup1\n        /* \"--CODEGEN--\":5:7   */\n      iszero\n      tag_30\n      jumpi\n        /* \"--CODEGEN--\":30:31   */\n      0x00\n        /* \"--CODEGEN--\":27:28   */\n      dup1\n        /* \"--CODEGEN--\":20:32   */\n      revert\n        /* \"--CODEGEN--\":5:7   */\n    tag_30:\n        /* \"tenderly/flashloan/contracts/base/FlashLoanReceiverBase.sol\":513:652  ILendingPoolAddressesProvider public addressesProvider = ILendingPoolAddressesProvider(address(0xCc0479a98cC66E85806D0Cd7970d6e07f77Fd633)) */\n      pop\n      tag_31\n      tag_32\n      jump\t// in\n    tag_31:\n      mload(0x40)\n      tag_23\n      swap2\n      swap1\n      jump(tag_34)\n        /* \"tenderly/flashloan/contracts/Multiswap.sol\":3316:3958  function executeArbi( bytes[] memory paths, address sourcetoken, uint amountToken) public{... */\n    tag_6:\n      callvalue\n        /* \"--CODEGEN--\":8:17   */\n      dup1\n        /* \"--CODEGEN--\":5:7   */\n      iszero\n      tag_35\n      jumpi\n        /* \"--CODEGEN--\":30:31   */\n      0x00\n        /* \"--CODEGEN--\":27:28   */\n      dup1\n        /* \"--CODEGEN--\":20:32   */\n      revert\n        /* \"--CODEGEN--\":5:7   */\n    tag_35:\n      pop\n        /* \"tenderly/flashloan/contracts/Multiswap.sol\":3316:3958  function executeArbi( bytes[] memory paths, address sourcetoken, uint amountToken) public{... */\n      tag_1\n      tag_37\n      calldatasize\n      0x04\n      jump(tag_38)\n    tag_37:\n      tag_39\n      jump\t// in\n        /* \"tenderly/flashloan/contracts/Multiswap.sol\":677:699  address public reserve */\n    tag_7:\n      callvalue\n        /* \"--CODEGEN--\":8:17   */\n      dup1\n        /* \"--CODEGEN--\":5:7   */\n      iszero\n      tag_40\n      jumpi\n        /* \"--CODEGEN--\":30:31   */\n      0x00\n        /* \"--CODEGEN--\":27:28   */\n      dup1\n        /* \"--CODEGEN--\":20:32   */\n      revert\n        /* \"--CODEGEN--\":5:7   */\n    tag_40:\n        /* \"tenderly/flashloan/contracts/Multiswap.sol\":677:699  address public reserve */\n      pop\n      tag_21\n      tag_42\n      jump\t// in\n        /* \"tenderly/flashloan/contracts/Multiswap.sol\":4171:4278  function UnwrapBNB(uint _amount) public payable{... */\n    tag_8:\n      tag_1\n      tag_45\n      calldatasize\n      0x04\n      jump(tag_18)\n    tag_45:\n      tag_46\n      jump\t// in\n        /* \"tenderly/flashloan/contracts/Multiswap.sol\":2268:3153  function executeOperation(... */\n    tag_9:\n      callvalue\n        /* \"--CODEGEN--\":8:17   */\n      dup1\n        /* \"--CODEGEN--\":5:7   */\n      iszero\n      tag_47\n      jumpi\n        /* \"--CODEGEN--\":30:31   */\n      0x00\n        /* \"--CODEGEN--\":27:28   */\n      dup1\n        /* \"--CODEGEN--\":20:32   */\n      revert\n        /* \"--CODEGEN--\":5:7   */\n    tag_47:\n      pop\n        /* \"tenderly/flashloan/contracts/Multiswap.sol\":2268:3153  function executeOperation(... */\n      tag_1\n      tag_49\n      calldatasize\n      0x04\n      jump(tag_50)\n    tag_49:\n      tag_51\n      jump\t// in\n        /* \"tenderly/flashloan/contracts/Multiswap.sol\":511:550  address public receiver = address(this) */\n    tag_10:\n      callvalue\n        /* \"--CODEGEN--\":8:17   */\n      dup1\n        /* \"--CODEGEN--\":5:7   */\n      iszero\n      tag_52\n      jumpi\n        /* \"--CODEGEN--\":30:31   */\n      0x00\n        /* \"--CODEGEN--\":27:28   */\n      dup1\n        /* \"--CODEGEN--\":20:32   */\n      revert\n        /* \"--CODEGEN--\":5:7   */\n    tag_52:\n        /* \"tenderly/flashloan/contracts/Multiswap.sol\":511:550  address public receiver = address(this) */\n      pop\n      tag_21\n      tag_54\n      jump\t// in\n        /* \"tenderly/flashloan/contracts/Multiswap.sol\":4282:4402  function rescuetoken(uint256 _amount, address token) external{... */\n    tag_11:\n      callvalue\n        /* \"--CODEGEN--\":8:17   */\n      dup1\n        /* \"--CODEGEN--\":5:7   */\n      iszero\n      tag_56\n      jumpi\n        /* \"--CODEGEN--\":30:31   */\n      0x00\n        /* \"--CODEGEN--\":27:28   */\n      dup1\n        /* \"--CODEGEN--\":20:32   */\n      revert\n        /* \"--CODEGEN--\":5:7   */\n    tag_56:\n      pop\n        /* \"tenderly/flashloan/contracts/Multiswap.sol\":4282:4402  function rescuetoken(uint256 _amount, address token) external{... */\n      tag_1\n      tag_58\n      calldatasize\n      0x04\n      jump(tag_59)\n    tag_58:\n      tag_60\n      jump\t// in\n        /* \"tenderly/flashloan/contracts/Multiswap.sol\":3159:3241  function rescueBNB(uint256 amount) external{... */\n    tag_19:\n        /* \"tenderly/flashloan/contracts/Multiswap.sol\":3212:3217  owner */\n      sload(0x02)\n        /* \"tenderly/flashloan/contracts/Multiswap.sol\":3212:3234  owner.transfer(amount) */\n      mload(0x40)\n      sub(shl(0xa0, 0x01), 0x01)\n        /* \"tenderly/flashloan/contracts/Multiswap.sol\":3212:3217  owner */\n      swap1\n      swap2\n      and\n      swap1\n        /* \"tenderly/flashloan/contracts/Multiswap.sol\":3212:3234  owner.transfer(amount) */\n      dup3\n      iszero\n      0x08fc\n      mul\n      swap1\n        /* \"tenderly/flashloan/contracts/Multiswap.sol\":3227:3233  amount */\n      dup4\n      swap1\n        /* \"tenderly/flashloan/contracts/Multiswap.sol\":3212:3217  owner */\n      0x00\n        /* \"tenderly/flashloan/contracts/Multiswap.sol\":3212:3234  owner.transfer(amount) */\n      dup2\n        /* \"tenderly/flashloan/contracts/Multiswap.sol\":3212:3217  owner */\n      dup2\n        /* \"tenderly/flashloan/contracts/Multiswap.sol\":3212:3234  owner.transfer(amount) */\n      dup2\n        /* \"tenderly/flashloan/contracts/Multiswap.sol\":3227:3233  amount */\n      dup6\n        /* \"tenderly/flashloan/contracts/Multiswap.sol\":3212:3217  owner */\n      dup9\n        /* \"tenderly/flashloan/contracts/Multiswap.sol\":3212:3234  owner.transfer(amount) */\n      dup9\n      call\n      swap4\n      pop\n      pop\n      pop\n      pop\n      iszero\n        /* \"--CODEGEN--\":8:17   */\n      dup1\n        /* \"--CODEGEN--\":5:7   */\n      iszero\n      tag_62\n      jumpi\n        /* \"--CODEGEN--\":45:61   */\n      returndatasize\n        /* \"--CODEGEN--\":42:43   */\n      0x00\n        /* \"--CODEGEN--\":39:40   */\n      dup1\n        /* \"--CODEGEN--\":24:62   */\n      returndatacopy\n        /* \"--CODEGEN--\":77:93   */\n      returndatasize\n        /* \"--CODEGEN--\":74:75   */\n      0x00\n        /* \"--CODEGEN--\":67:94   */\n      revert\n        /* \"--CODEGEN--\":5:7   */\n    tag_62:\n        /* \"tenderly/flashloan/contracts/Multiswap.sol\":3212:3234  owner.transfer(amount) */\n      pop\n        /* \"tenderly/flashloan/contracts/Multiswap.sol\":3159:3241  function rescueBNB(uint256 amount) external{... */\n      pop\n      jump\t// out\n        /* \"tenderly/flashloan/contracts/Multiswap.sol\":556:636  address public constant BNB_ADDRESS = 0xEeeeeEeeeEeEeeEeEeEeeEEEeeeeEeeeeeeeEEeE */\n    tag_22:\n        /* \"tenderly/flashloan/contracts/Multiswap.sol\":594:636  0xEeeeeEeeeEeEeeEeEeEeeEEEeeeeEeeeeeeeEEeE */\n      0xeeeeeeeeeeeeeeeeeeeeeeeeeeeeeeeeeeeeeeee\n        /* \"tenderly/flashloan/contracts/Multiswap.sol\":556:636  address public constant BNB_ADDRESS = 0xEeeeeEeeeEeEeeEeEeEeeEEEeeeeEeeeeeeeEEeE */\n      dup2\n      jump\t// out\n        /* \"tenderly/flashloan/contracts/Multiswap.sol\":643:671  address payable public owner */\n    tag_27:\n      and(sub(shl(0xa0, 0x01), 0x01), sload(0x02))\n      dup2\n      jump\t// out\n        /* \"tenderly/flashloan/contracts/base/FlashLoanReceiverBase.sol\":513:652  ILendingPoolAddressesProvider public addressesProvider = ILendingPoolAddressesProvider(address(0xCc0479a98cC66E85806D0Cd7970d6e07f77Fd633)) */\n    tag_32:\n      and(sub(shl(0xa0, 0x01), 0x01), sload(0x00))\n      dup2\n      jump\t// out\n        /* \"tenderly/flashloan/contracts/Multiswap.sol\":3316:3958  function executeArbi( bytes[] memory paths, address sourcetoken, uint amountToken) public{... */\n    tag_39:\n        /* \"tenderly/flashloan/contracts/Multiswap.sol\":3413:3426  data1 = paths */\n      dup3\n      mload\n      tag_64\n      swap1\n        /* \"tenderly/flashloan/contracts/Multiswap.sol\":3413:3418  data1 */\n      0x05\n      swap1\n        /* \"tenderly/flashloan/contracts/Multiswap.sol\":3413:3426  data1 = paths */\n      0x20\n      dup7\n      add\n      swap1\n      tag_65\n      jump\t// in\n    tag_64:\n      pop\n      sub(shl(0xa0, 0x01), 0x01)\n        /* \"tenderly/flashloan/contracts/Multiswap.sol\":3456:3474  sourcetoken==WBNB_ */\n      dup3\n      and\n        /* \"tenderly/flashloan/contracts/Multiswap.sol\":741:783  0xbb4CdB9CBd36B01bD1cBaEBF2De08d9173bc095c */\n      0xbb4cdb9cbd36b01bd1cbaebf2de08d9173bc095c\n        /* \"tenderly/flashloan/contracts/Multiswap.sol\":3456:3474  sourcetoken==WBNB_ */\n      eq\n        /* \"tenderly/flashloan/contracts/Multiswap.sol\":3453:3669  if(sourcetoken==WBNB_)... */\n      iszero\n      tag_66\n      jumpi\n        /* \"tenderly/flashloan/contracts/Multiswap.sol\":3497:3504  reserve */\n      0x03\n        /* \"tenderly/flashloan/contracts/Multiswap.sol\":3497:3518  reserve = BNB_ADDRESS */\n      dup1\n      sload\n      not(sub(shl(0xa0, 0x01), 0x01))\n      and\n        /* \"tenderly/flashloan/contracts/Multiswap.sol\":594:636  0xEeeeeEeeeEeEeeEeEeEeeEEEeeeeEeeeeeeeEEeE */\n      0xeeeeeeeeeeeeeeeeeeeeeeeeeeeeeeeeeeeeeeee\n        /* \"tenderly/flashloan/contracts/Multiswap.sol\":3497:3518  reserve = BNB_ADDRESS */\n      or\n      swap1\n      sstore\n        /* \"tenderly/flashloan/contracts/Multiswap.sol\":3453:3669  if(sourcetoken==WBNB_)... */\n      jump(tag_67)\n    tag_66:\n        /* \"tenderly/flashloan/contracts/Multiswap.sol\":3582:3589  reserve */\n      0x03\n        /* \"tenderly/flashloan/contracts/Multiswap.sol\":3582:3603  reserve = sourcetoken */\n      dup1\n      sload\n      not(sub(shl(0xa0, 0x01), 0x01))\n      and\n      sub(shl(0xa0, 0x01), 0x01)\n      dup5\n      and\n      or\n      swap1\n      sstore\n        /* \"tenderly/flashloan/contracts/Multiswap.sol\":3453:3669  if(sourcetoken==WBNB_)... */\n    tag_67:\n        /* \"tenderly/flashloan/contracts/Multiswap.sol\":3679:3703  ILendingPool lendingPool */\n      0x00\n        /* \"tenderly/flashloan/contracts/Multiswap.sol\":3728:3745  addressesProvider */\n      dup1\n      0x00\n      swap1\n      sload\n      swap1\n      0x0100\n      exp\n      swap1\n      div\n      sub(shl(0xa0, 0x01), 0x01)\n      and\n      sub(shl(0xa0, 0x01), 0x01)\n        /* \"tenderly/flashloan/contracts/Multiswap.sol\":3728:3760  addressesProvider.getLendingPool */\n      and\n      0x0261bf8b\n        /* \"tenderly/flashloan/contracts/Multiswap.sol\":3728:3762  addressesProvider.getLendingPool() */\n      mload(0x40)\n      dup2\n      0xffffffff\n      and\n      0xe0\n      shl\n      dup2\n      mstore\n      0x04\n      add\n      0x20\n      mload(0x40)\n      dup1\n      dup4\n      sub\n      dup2\n      dup7\n      dup1\n      extcodesize\n      iszero\n        /* \"--CODEGEN--\":8:17   */\n      dup1\n        /* \"--CODEGEN--\":5:7   */\n      iszero\n      tag_68\n      jumpi\n        /* \"--CODEGEN--\":30:31   */\n      0x00\n        /* \"--CODEGEN--\":27:28   */\n      dup1\n        /* \"--CODEGEN--\":20:32   */\n      revert\n        /* \"--CODEGEN--\":5:7   */\n    tag_68:\n        /* \"tenderly/flashloan/contracts/Multiswap.sol\":3728:3762  addressesProvider.getLendingPool() */\n      pop\n      gas\n      staticcall\n      iszero\n        /* \"--CODEGEN--\":8:17   */\n      dup1\n        /* \"--CODEGEN--\":5:7   */\n      iszero\n      tag_69\n      jumpi\n        /* \"--CODEGEN--\":45:61   */\n      returndatasize\n        /* \"--CODEGEN--\":42:43   */\n      0x00\n        /* \"--CODEGEN--\":39:40   */\n      dup1\n        /* \"--CODEGEN--\":24:62   */\n      returndatacopy\n        /* \"--CODEGEN--\":77:93   */\n      returndatasize\n        /* \"--CODEGEN--\":74:75   */\n      0x00\n        /* \"--CODEGEN--\":67:94   */\n      revert\n        /* \"--CODEGEN--\":5:7   */\n    tag_69:\n        /* \"tenderly/flashloan/contracts/Multiswap.sol\":3728:3762  addressesProvider.getLendingPool() */\n      pop\n      pop\n      pop\n      pop\n      mload(0x40)\n      returndatasize\n        /* \"--CODEGEN--\":101:105   */\n      0x1f\n        /* \"--CODEGEN--\":97:106   */\n      not\n        /* \"--CODEGEN--\":90:94   */\n      0x1f\n        /* \"--CODEGEN--\":84:88   */\n      dup3\n        /* \"--CODEGEN--\":80:95   */\n      add\n        /* \"--CODEGEN--\":76:107   */\n      and\n        /* \"--CODEGEN--\":69:74   */\n      dup3\n        /* \"--CODEGEN--\":65:108   */\n      add\n        /* \"--CODEGEN--\":126:132   */\n      dup1\n        /* \"--CODEGEN--\":120:124   */\n      0x40\n        /* \"--CODEGEN--\":113:133   */\n      mstore\n        /* \"--CODEGEN--\":0:138   */\n      pop\n        /* \"tenderly/flashloan/contracts/Multiswap.sol\":3728:3762  addressesProvider.getLendingPool() */\n      tag_70\n      swap2\n      swap1\n      dup2\n      add\n      swap1\n      jump(tag_71)\n    tag_70:\n        /* \"tenderly/flashloan/contracts/Multiswap.sol\":3784:3806  bytes memory data = \"\" */\n      0x40\n      dup1\n      mload\n      0x20\n      dup2\n      add\n      dup3\n      mstore\n      0x00\n      dup2\n      mstore\n        /* \"tenderly/flashloan/contracts/Multiswap.sol\":3914:3922  receiver */\n      sload(0x01)\n        /* \"tenderly/flashloan/contracts/Multiswap.sol\":3924:3931  reserve */\n      sload(0x03)\n        /* \"tenderly/flashloan/contracts/Multiswap.sol\":3892:3951  lendingPool.flashLoan(receiver, reserve, amountToken, data) */\n      swap3\n      mload\n      shl(0xe1, 0x2e7ff4ef)\n      dup2\n      mstore\n        /* \"tenderly/flashloan/contracts/Multiswap.sol\":3679:3772  ILendingPool lendingPool = ILendingPool(... */\n      swap4\n      swap5\n      pop\n        /* \"tenderly/flashloan/contracts/Multiswap.sol\":3784:3806  bytes memory data = \"\" */\n      swap1\n      swap3\n      sub(shl(0xa0, 0x01), 0x01)\n        /* \"tenderly/flashloan/contracts/Multiswap.sol\":3892:3913  lendingPool.flashLoan */\n      dup1\n      dup7\n      and\n      swap4\n      0x5cffe9de\n      swap4\n        /* \"tenderly/flashloan/contracts/Multiswap.sol\":3892:3951  lendingPool.flashLoan(receiver, reserve, amountToken, data) */\n      tag_72\n      swap4\n        /* \"tenderly/flashloan/contracts/Multiswap.sol\":3914:3922  receiver */\n      swap1\n      dup4\n      and\n      swap3\n        /* \"tenderly/flashloan/contracts/Multiswap.sol\":3924:3931  reserve */\n      swap1\n      swap2\n      and\n      swap1\n        /* \"tenderly/flashloan/contracts/Multiswap.sol\":3933:3944  amountToken */\n      dup9\n      swap1\n        /* \"tenderly/flashloan/contracts/Multiswap.sol\":3784:3806  bytes memory data = \"\" */\n      dup8\n      swap1\n        /* \"tenderly/flashloan/contracts/Multiswap.sol\":3892:3951  lendingPool.flashLoan(receiver, reserve, amountToken, data) */\n      0x04\n      add\n      jump(tag_73)\n    tag_72:\n      0x00\n      mload(0x40)\n      dup1\n      dup4\n      sub\n      dup2\n      0x00\n      dup8\n      dup1\n      extcodesize\n      iszero\n        /* \"--CODEGEN--\":8:17   */\n      dup1\n        /* \"--CODEGEN--\":5:7   */\n      iszero\n      tag_74\n      jumpi\n        /* \"--CODEGEN--\":30:31   */\n      0x00\n        /* \"--CODEGEN--\":27:28   */\n      dup1\n        /* \"--CODEGEN--\":20:32   */\n      revert\n        /* \"--CODEGEN--\":5:7   */\n    tag_74:\n        /* \"tenderly/flashloan/contracts/Multiswap.sol\":3892:3951  lendingPool.flashLoan(receiver, reserve, amountToken, data) */\n      pop\n      gas\n      call\n      iszero\n        /* \"--CODEGEN--\":8:17   */\n      dup1\n        /* \"--CODEGEN--\":5:7   */\n      iszero\n      tag_75\n      jumpi\n        /* \"--CODEGEN--\":45:61   */\n      returndatasize\n        /* \"--CODEGEN--\":42:43   */\n      0x00\n        /* \"--CODEGEN--\":39:40   */\n      dup1\n        /* \"--CODEGEN--\":24:62   */\n      returndatacopy\n        /* \"--CODEGEN--\":77:93   */\n      returndatasize\n        /* \"--CODEGEN--\":74:75   */\n      0x00\n        /* \"--CODEGEN--\":67:94   */\n      revert\n        /* \"--CODEGEN--\":5:7   */\n    tag_75:\n        /* \"tenderly/flashloan/contracts/Multiswap.sol\":3892:3951  lendingPool.flashLoan(receiver, reserve, amountToken, data) */\n      pop\n      pop\n      pop\n      pop\n        /* \"tenderly/flashloan/contracts/Multiswap.sol\":3316:3958  function executeArbi( bytes[] memory paths, address sourcetoken, uint amountToken) public{... */\n      pop\n      pop\n      pop\n      pop\n      pop\n      jump\t// out\n        /* \"tenderly/flashloan/contracts/Multiswap.sol\":677:699  address public reserve */\n    tag_42:\n      and(sub(shl(0xa0, 0x01), 0x01), sload(0x03))\n      dup2\n      jump\t// out\n        /* \"tenderly/flashloan/contracts/Multiswap.sol\":4171:4278  function UnwrapBNB(uint _amount) public payable{... */\n    tag_46:\n        /* \"tenderly/flashloan/contracts/Multiswap.sol\":4228:4232  wbnb */\n      0x04\n      dup1\n      sload\n        /* \"tenderly/flashloan/contracts/Multiswap.sol\":4228:4250  wbnb.withdraw(_amount) */\n      mload(0x40)\n      shl(0xe0, 0x2e1a7d4d)\n      dup2\n      mstore\n      sub(shl(0xa0, 0x01), 0x01)\n        /* \"tenderly/flashloan/contracts/Multiswap.sol\":4228:4232  wbnb */\n      swap1\n      swap2\n      and\n      swap2\n        /* \"tenderly/flashloan/contracts/Multiswap.sol\":4228:4241  wbnb.withdraw */\n      0x2e1a7d4d\n      swap2\n        /* \"tenderly/flashloan/contracts/Multiswap.sol\":4228:4250  wbnb.withdraw(_amount) */\n      tag_77\n      swap2\n        /* \"tenderly/flashloan/contracts/Multiswap.sol\":4242:4249  _amount */\n      dup6\n      swap2\n        /* \"tenderly/flashloan/contracts/Multiswap.sol\":4228:4250  wbnb.withdraw(_amount) */\n      add\n      jump(tag_78)\n    tag_77:\n      0x00\n      mload(0x40)\n      dup1\n      dup4\n      sub\n      dup2\n      0x00\n      dup8\n      dup1\n      extcodesize\n      iszero\n        /* \"--CODEGEN--\":8:17   */\n      dup1\n        /* \"--CODEGEN--\":5:7   */\n      iszero\n      tag_79\n      jumpi\n        /* \"--CODEGEN--\":30:31   */\n      0x00\n        /* \"--CODEGEN--\":27:28   */\n      dup1\n        /* \"--CODEGEN--\":20:32   */\n      revert\n        /* \"--CODEGEN--\":5:7   */\n    tag_79:\n        /* \"tenderly/flashloan/contracts/Multiswap.sol\":4228:4250  wbnb.withdraw(_amount) */\n      pop\n      gas\n      call\n      iszero\n        /* \"--CODEGEN--\":8:17   */\n      dup1\n        /* \"--CODEGEN--\":5:7   */\n      iszero\n      tag_80\n      jumpi\n        /* \"--CODEGEN--\":45:61   */\n      returndatasize\n        /* \"--CODEGEN--\":42:43   */\n      0x00\n        /* \"--CODEGEN--\":39:40   */\n      dup1\n        /* \"--CODEGEN--\":24:62   */\n      returndatacopy\n        /* \"--CODEGEN--\":77:93   */\n      returndatasize\n        /* \"--CODEGEN--\":74:75   */\n      0x00\n        /* \"--CODEGEN--\":67:94   */\n      revert\n        /* \"--CODEGEN--\":5:7   */\n    tag_80:\n        /* \"tenderly/flashloan/contracts/Multiswap.sol\":4228:4250  wbnb.withdraw(_amount) */\n      pop\n      pop\n      pop\n      pop\n        /* \"tenderly/flashloan/contracts/Multiswap.sol\":4171:4278  function UnwrapBNB(uint _amount) public payable{... */\n      pop\n      jump\t// out\n        /* \"tenderly/flashloan/contracts/Multiswap.sol\":2268:3153  function executeOperation(... */\n    tag_51:\n        /* \"tenderly/flashloan/contracts/Multiswap.sol\":2457:2500  getBalanceInternal(address(this), _reserve) */\n      tag_82\n        /* \"tenderly/flashloan/contracts/Multiswap.sol\":2484:2488  this */\n      address\n        /* \"tenderly/flashloan/contracts/Multiswap.sol\":2491:2499  _reserve */\n      dup7\n        /* \"tenderly/flashloan/contracts/Multiswap.sol\":2457:2475  getBalanceInternal */\n      tag_83\n        /* \"tenderly/flashloan/contracts/Multiswap.sol\":2457:2500  getBalanceInternal(address(this), _reserve) */\n      jump\t// in\n    tag_82:\n        /* \"tenderly/flashloan/contracts/Multiswap.sol\":2446:2453  _amount */\n      dup5\n        /* \"tenderly/flashloan/contracts/Multiswap.sol\":2446:2500  _amount <= getBalanceInternal(address(this), _reserve) */\n      gt\n      iszero\n        /* \"tenderly/flashloan/contracts/Multiswap.sol\":2425:2572  require(... */\n      tag_84\n      jumpi\n      mload(0x40)\n      shl(0xe5, 0x461bcd)\n      dup2\n      mstore\n      0x04\n      add\n      tag_85\n      swap1\n      jump(tag_86)\n    tag_85:\n      mload(0x40)\n      dup1\n      swap2\n      sub\n      swap1\n      revert\n    tag_84:\n        /* \"tenderly/flashloan/contracts/Multiswap.sol\":2593:2600  reserve */\n      and(sub(shl(0xa0, 0x01), 0x01), sload(0x03))\n        /* \"tenderly/flashloan/contracts/Multiswap.sol\":594:636  0xEeeeeEeeeEeEeeEeEeEeeEEEeeeeEeeeeeeeEEeE */\n      0xeeeeeeeeeeeeeeeeeeeeeeeeeeeeeeeeeeeeeeee\n        /* \"tenderly/flashloan/contracts/Multiswap.sol\":2593:2615  reserve == BNB_ADDRESS */\n      eq\n        /* \"tenderly/flashloan/contracts/Multiswap.sol\":2589:2659  if (reserve == BNB_ADDRESS){... */\n      iszero\n      tag_88\n      jumpi\n        /* \"tenderly/flashloan/contracts/Multiswap.sol\":2632:2648  WrapBNB(_amount) */\n      tag_88\n        /* \"tenderly/flashloan/contracts/Multiswap.sol\":2640:2647  _amount */\n      dup5\n        /* \"tenderly/flashloan/contracts/Multiswap.sol\":2632:2639  WrapBNB */\n      tag_89\n        /* \"tenderly/flashloan/contracts/Multiswap.sol\":2632:2648  WrapBNB(_amount) */\n      jump\t// in\n    tag_88:\n        /* \"tenderly/flashloan/contracts/Multiswap.sol\":2729:2745  MultiSwap(data1) */\n      tag_90\n        /* \"tenderly/flashloan/contracts/Multiswap.sol\":2739:2744  data1 */\n      0x05\n        /* \"tenderly/flashloan/contracts/Multiswap.sol\":2729:2745  MultiSwap(data1) */\n      dup1\n      sload\n      dup1\n      0x20\n      mul\n      0x20\n      add\n      mload(0x40)\n      swap1\n      dup2\n      add\n      0x40\n      mstore\n      dup1\n      swap3\n      swap2\n      swap1\n      dup2\n      dup2\n      mstore\n      0x20\n      add\n      0x00\n      swap1\n    tag_91:\n      dup3\n      dup3\n      lt\n      iszero\n      tag_92\n      jumpi\n      0x00\n      dup5\n      dup2\n      mstore\n      0x20\n      swap1\n      dup2\n      swap1\n      keccak256\n      dup4\n      add\n      dup1\n      sload\n      0x40\n      dup1\n      mload\n      0x1f\n      0x02\n      not(0x00)\n      0x0100\n      0x01\n      dup8\n      and\n      iszero\n      mul\n      add\n      swap1\n      swap5\n      and\n      swap4\n      swap1\n      swap4\n      div\n      swap3\n      dup4\n      add\n      dup6\n      swap1\n      div\n      dup6\n      mul\n      dup2\n      add\n      dup6\n      add\n      swap1\n      swap2\n      mstore\n      dup2\n      dup2\n      mstore\n      swap3\n      dup4\n      add\n      dup3\n      dup3\n      dup1\n      iszero\n      tag_94\n      jumpi\n      dup1\n      0x1f\n      lt\n      tag_95\n      jumpi\n      0x0100\n      dup1\n      dup4\n      sload\n      div\n      mul\n      dup4\n      mstore\n      swap2\n      0x20\n      add\n      swap2\n      jump(tag_94)\n    tag_95:\n      dup3\n      add\n      swap2\n      swap1\n      0x00\n      mstore\n      keccak256(0x00, 0x20)\n      swap1\n    tag_96:\n      dup2\n      sload\n      dup2\n      mstore\n      swap1\n      0x01\n      add\n      swap1\n      0x20\n      add\n      dup1\n      dup4\n      gt\n      tag_96\n      jumpi\n      dup3\n      swap1\n      sub\n      0x1f\n      and\n      dup3\n      add\n      swap2\n    tag_94:\n      pop\n      pop\n      pop\n      pop\n      pop\n      dup2\n      mstore\n      0x20\n      add\n      swap1\n      0x01\n      add\n      swap1\n      jump(tag_91)\n    tag_92:\n      pop\n      pop\n      pop\n      pop\n        /* \"tenderly/flashloan/contracts/Multiswap.sol\":2729:2738  MultiSwap */\n      tag_97\n        /* \"tenderly/flashloan/contracts/Multiswap.sol\":2729:2745  MultiSwap(data1) */\n      jump\t// in\n    tag_90:\n        /* \"tenderly/flashloan/contracts/Multiswap.sol\":2835:2878  getBalanceInternal(address(this), _reserve) */\n      tag_98\n        /* \"tenderly/flashloan/contracts/Multiswap.sol\":2862:2866  this */\n      address\n        /* \"tenderly/flashloan/contracts/Multiswap.sol\":2869:2877  _reserve */\n      dup7\n        /* \"tenderly/flashloan/contracts/Multiswap.sol\":2835:2853  getBalanceInternal */\n      tag_83\n        /* \"tenderly/flashloan/contracts/Multiswap.sol\":2835:2878  getBalanceInternal(address(this), _reserve) */\n      jump\t// in\n    tag_98:\n      pop\n        /* \"tenderly/flashloan/contracts/Multiswap.sol\":2892:2899  reserve */\n      and(sub(shl(0xa0, 0x01), 0x01), sload(0x03))\n        /* \"tenderly/flashloan/contracts/Multiswap.sol\":594:636  0xEeeeeEeeeEeEeeEeEeEeeEEEeeeeEeeeeeeeEEeE */\n      0xeeeeeeeeeeeeeeeeeeeeeeeeeeeeeeeeeeeeeeee\n        /* \"tenderly/flashloan/contracts/Multiswap.sol\":2892:2914  reserve == BNB_ADDRESS */\n      eq\n        /* \"tenderly/flashloan/contracts/Multiswap.sol\":2888:2972  if (reserve == BNB_ADDRESS){... */\n      iszero\n      tag_100\n      jumpi\n        /* \"tenderly/flashloan/contracts/Multiswap.sol\":2943:2961  UnwrapBNB(_amount) */\n      tag_100\n        /* \"tenderly/flashloan/contracts/Multiswap.sol\":2953:2960  _amount */\n      dup5\n        /* \"tenderly/flashloan/contracts/Multiswap.sol\":2943:2952  UnwrapBNB */\n      tag_46\n        /* \"tenderly/flashloan/contracts/Multiswap.sol\":2943:2961  UnwrapBNB(_amount) */\n      jump\t// in\n    tag_100:\n        /* \"tenderly/flashloan/contracts/Multiswap.sol\":2982:2999  uint256 totalDebt */\n      0x00\n        /* \"tenderly/flashloan/contracts/Multiswap.sol\":3002:3019  _amount.add(_fee) */\n      tag_101\n        /* \"tenderly/flashloan/contracts/Multiswap.sol\":3002:3009  _amount */\n      dup6\n        /* \"tenderly/flashloan/contracts/Multiswap.sol\":3014:3018  _fee */\n      dup6\n        /* \"tenderly/flashloan/contracts/Multiswap.sol\":3002:3019  _amount.add(_fee) */\n      0xffffffff\n        /* \"tenderly/flashloan/contracts/Multiswap.sol\":3002:3013  _amount.add */\n      tag_102\n        /* \"tenderly/flashloan/contracts/Multiswap.sol\":3002:3019  _amount.add(_fee) */\n      and\n      jump\t// in\n    tag_101:\n        /* \"tenderly/flashloan/contracts/Multiswap.sol\":2982:3019  uint256 totalDebt = _amount.add(_fee) */\n      swap1\n      pop\n        /* \"tenderly/flashloan/contracts/Multiswap.sol\":3050:3059  totalDebt */\n      dup1\n        /* \"tenderly/flashloan/contracts/Multiswap.sol\":3040:3047  _amount */\n      dup6\n        /* \"tenderly/flashloan/contracts/Multiswap.sol\":3040:3059  _amount > totalDebt */\n      gt\n        /* \"tenderly/flashloan/contracts/Multiswap.sol\":3032:3078  require(_amount > totalDebt, \"Did not profit\") */\n      tag_103\n      jumpi\n      mload(0x40)\n      shl(0xe5, 0x461bcd)\n      dup2\n      mstore\n      0x04\n      add\n      tag_85\n      swap1\n      jump(tag_105)\n    tag_103:\n        /* \"tenderly/flashloan/contracts/Multiswap.sol\":3094:3146  transferFundsBackToPoolInternal(_reserve, totalDebt) */\n      tag_106\n        /* \"tenderly/flashloan/contracts/Multiswap.sol\":3126:3134  _reserve */\n      dup7\n        /* \"tenderly/flashloan/contracts/Multiswap.sol\":3136:3145  totalDebt */\n      dup3\n        /* \"tenderly/flashloan/contracts/Multiswap.sol\":3094:3125  transferFundsBackToPoolInternal */\n      tag_107\n        /* \"tenderly/flashloan/contracts/Multiswap.sol\":3094:3146  transferFundsBackToPoolInternal(_reserve, totalDebt) */\n      jump\t// in\n    tag_106:\n        /* \"tenderly/flashloan/contracts/Multiswap.sol\":2268:3153  function executeOperation(... */\n      pop\n      pop\n      pop\n      pop\n      pop\n      pop\n      jump\t// out\n        /* \"tenderly/flashloan/contracts/Multiswap.sol\":511:550  address public receiver = address(this) */\n    tag_54:\n      and(sub(shl(0xa0, 0x01), 0x01), sload(0x01))\n      dup2\n      jump\t// out\n        /* \"tenderly/flashloan/contracts/Multiswap.sol\":4282:4402  function rescuetoken(uint256 _amount, address token) external{... */\n    tag_60:\n        /* \"tenderly/flashloan/contracts/Multiswap.sol\":4379:4384  owner */\n      sload(0x02)\n        /* \"tenderly/flashloan/contracts/Multiswap.sol\":4352:4394  IERC20(token).safeTransfer(owner, _amount) */\n      tag_62\n      swap1\n      sub(shl(0xa0, 0x01), 0x01)\n        /* \"tenderly/flashloan/contracts/Multiswap.sol\":4352:4378  IERC20(token).safeTransfer */\n      dup4\n      dup2\n      and\n      swap2\n        /* \"tenderly/flashloan/contracts/Multiswap.sol\":4379:4384  owner */\n      and\n        /* \"tenderly/flashloan/contracts/Multiswap.sol\":4386:4393  _amount */\n      dup5\n        /* \"tenderly/flashloan/contracts/Multiswap.sol\":4352:4394  IERC20(token).safeTransfer(owner, _amount) */\n      0xffffffff\n        /* \"tenderly/flashloan/contracts/Multiswap.sol\":4352:4378  IERC20(token).safeTransfer */\n      tag_110\n        /* \"tenderly/flashloan/contracts/Multiswap.sol\":4352:4394  IERC20(token).safeTransfer(owner, _amount) */\n      and\n      jump\t// in\n        /* \"tenderly/flashloan/contracts/base/FlashLoanReceiverBase.sol\":1396:1663  function getBalanceInternal(address _target, address _reserve)... */\n    tag_83:\n        /* \"tenderly/flashloan/contracts/base/FlashLoanReceiverBase.sol\":1506:1513  uint256 */\n      0x00\n      sub(shl(0xa0, 0x01), 0x01)\n        /* \"tenderly/flashloan/contracts/base/FlashLoanReceiverBase.sol\":1533:1556  _reserve == BNB_ADDRESS */\n      dup3\n      and\n        /* \"tenderly/flashloan/contracts/base/FlashLoanReceiverBase.sol\":701:743  0xEeeeeEeeeEeEeeEeEeEeeEEEeeeeEeeeeeeeEEeE */\n      0xeeeeeeeeeeeeeeeeeeeeeeeeeeeeeeeeeeeeeeee\n        /* \"tenderly/flashloan/contracts/base/FlashLoanReceiverBase.sol\":1533:1556  _reserve == BNB_ADDRESS */\n      eq\n        /* \"tenderly/flashloan/contracts/base/FlashLoanReceiverBase.sol\":1529:1605  if (_reserve == BNB_ADDRESS) {... */\n      iszero\n      tag_112\n      jumpi\n      pop\n      sub(shl(0xa0, 0x01), 0x01)\n        /* \"tenderly/flashloan/contracts/base/FlashLoanReceiverBase.sol\":1579:1594  _target.balance */\n      dup3\n      and\n      balance\n        /* \"tenderly/flashloan/contracts/base/FlashLoanReceiverBase.sol\":1572:1594  return _target.balance */\n      jump(tag_111)\n        /* \"tenderly/flashloan/contracts/base/FlashLoanReceiverBase.sol\":1529:1605  if (_reserve == BNB_ADDRESS) {... */\n    tag_112:\n        /* \"tenderly/flashloan/contracts/base/FlashLoanReceiverBase.sol\":1621:1656  IERC20(_reserve).balanceOf(_target) */\n      mload(0x40)\n      shl(0xe0, 0x70a08231)\n      dup2\n      mstore\n      sub(shl(0xa0, 0x01), 0x01)\n        /* \"tenderly/flashloan/contracts/base/FlashLoanReceiverBase.sol\":1621:1647  IERC20(_reserve).balanceOf */\n      dup4\n      and\n      swap1\n      0x70a08231\n      swap1\n        /* \"tenderly/flashloan/contracts/base/FlashLoanReceiverBase.sol\":1621:1656  IERC20(_reserve).balanceOf(_target) */\n      tag_113\n      swap1\n        /* \"tenderly/flashloan/contracts/base/FlashLoanReceiverBase.sol\":1648:1655  _target */\n      dup7\n      swap1\n        /* \"tenderly/flashloan/contracts/base/FlashLoanReceiverBase.sol\":1621:1656  IERC20(_reserve).balanceOf(_target) */\n      0x04\n      add\n      jump(tag_24)\n    tag_113:\n      0x20\n      mload(0x40)\n      dup1\n      dup4\n      sub\n      dup2\n      dup7\n      dup1\n      extcodesize\n      iszero\n        /* \"--CODEGEN--\":8:17   */\n      dup1\n        /* \"--CODEGEN--\":5:7   */\n      iszero\n      tag_114\n      jumpi\n        /* \"--CODEGEN--\":30:31   */\n      0x00\n        /* \"--CODEGEN--\":27:28   */\n      dup1\n        /* \"--CODEGEN--\":20:32   */\n      revert\n        /* \"--CODEGEN--\":5:7   */\n    tag_114:\n        /* \"tenderly/flashloan/contracts/base/FlashLoanReceiverBase.sol\":1621:1656  IERC20(_reserve).balanceOf(_target) */\n      pop\n      gas\n      staticcall\n      iszero\n        /* \"--CODEGEN--\":8:17   */\n      dup1\n        /* \"--CODEGEN--\":5:7   */\n      iszero\n      tag_115\n      jumpi\n        /* \"--CODEGEN--\":45:61   */\n      returndatasize\n        /* \"--CODEGEN--\":42:43   */\n      0x00\n        /* \"--CODEGEN--\":39:40   */\n      dup1\n        /* \"--CODEGEN--\":24:62   */\n      returndatacopy\n        /* \"--CODEGEN--\":77:93   */\n      returndatasize\n        /* \"--CODEGEN--\":74:75   */\n      0x00\n        /* \"--CODEGEN--\":67:94   */\n      revert\n        /* \"--CODEGEN--\":5:7   */\n    tag_115:\n        /* \"tenderly/flashloan/contracts/base/FlashLoanReceiverBase.sol\":1621:1656  IERC20(_reserve).balanceOf(_target) */\n      pop\n      pop\n      pop\n      pop\n      mload(0x40)\n      returndatasize\n        /* \"--CODEGEN--\":101:105   */\n      0x1f\n        /* \"--CODEGEN--\":97:106   */\n      not\n        /* \"--CODEGEN--\":90:94   */\n      0x1f\n        /* \"--CODEGEN--\":84:88   */\n      dup3\n        /* \"--CODEGEN--\":80:95   */\n      add\n        /* \"--CODEGEN--\":76:107   */\n      and\n        /* \"--CODEGEN--\":69:74   */\n      dup3\n        /* \"--CODEGEN--\":65:108   */\n      add\n        /* \"--CODEGEN--\":126:132   */\n      dup1\n        /* \"--CODEGEN--\":120:124   */\n      0x40\n        /* \"--CODEGEN--\":113:133   */\n      mstore\n        /* \"--CODEGEN--\":0:138   */\n      pop\n        /* \"tenderly/flashloan/contracts/base/FlashLoanReceiverBase.sol\":1621:1656  IERC20(_reserve).balanceOf(_target) */\n      tag_116\n      swap2\n      swap1\n      dup2\n      add\n      swap1\n      jump(tag_117)\n    tag_116:\n        /* \"tenderly/flashloan/contracts/base/FlashLoanReceiverBase.sol\":1614:1656  return IERC20(_reserve).balanceOf(_target) */\n      swap1\n      pop\n        /* \"tenderly/flashloan/contracts/base/FlashLoanReceiverBase.sol\":1396:1663  function getBalanceInternal(address _target, address _reserve)... */\n    tag_111:\n      swap3\n      swap2\n      pop\n      pop\n      jump\t// out\n        /* \"tenderly/flashloan/contracts/Multiswap.sol\":3963:4165  function WrapBNB(uint _amount) internal{... */\n    tag_89:\n        /* \"tenderly/flashloan/contracts/Multiswap.sol\":4047:4048  0 */\n      0x00\n        /* \"tenderly/flashloan/contracts/Multiswap.sol\":4024:4045  address(this).balance */\n      selfbalance\n        /* \"tenderly/flashloan/contracts/Multiswap.sol\":4024:4048  address(this).balance >0 */\n      gt\n        /* \"tenderly/flashloan/contracts/Multiswap.sol\":4016:4062  require(address(this).balance >0, \"no money \") */\n      tag_119\n      jumpi\n      mload(0x40)\n      shl(0xe5, 0x461bcd)\n      dup2\n      mstore\n      0x04\n      add\n      tag_85\n      swap1\n      jump(tag_121)\n    tag_119:\n        /* \"tenderly/flashloan/contracts/Multiswap.sol\":741:783  0xbb4CdB9CBd36B01bD1cBaEBF2De08d9173bc095c */\n      0xbb4cdb9cbd36b01bd1cbaebf2de08d9173bc095c\n      sub(shl(0xa0, 0x01), 0x01)\n        /* \"tenderly/flashloan/contracts/Multiswap.sol\":4071:4081  WBNB_.call */\n      and\n        /* \"tenderly/flashloan/contracts/Multiswap.sol\":4088:4095  _amount */\n      dup2\n        /* \"tenderly/flashloan/contracts/Multiswap.sol\":4101:4108  5000000 */\n      0x4c4b40\n        /* \"tenderly/flashloan/contracts/Multiswap.sol\":4071:4109  WBNB_.call.value(_amount).gas(5000000) */\n      swap1\n        /* \"tenderly/flashloan/contracts/Multiswap.sol\":4071:4113  WBNB_.call.value(_amount).gas(5000000)(\"\") */\n      mload(0x40)\n      tag_122\n      swap1\n      jump(tag_123)\n    tag_122:\n      0x00\n      mload(0x40)\n      dup1\n      dup4\n      sub\n      dup2\n      dup6\n      dup9\n      dup9\n      call\n      swap4\n      pop\n      pop\n      pop\n      pop\n      returndatasize\n        /* \"--CODEGEN--\":14:15   */\n      dup1\n        /* \"--CODEGEN--\":21:22   */\n      0x00\n        /* \"--CODEGEN--\":16:47   */\n      dup2\n      eq\n      tag_125\n      jumpi\n        /* \"--CODEGEN--\":75:79   */\n      0x40\n        /* \"--CODEGEN--\":69:80   */\n      mload\n        /* \"--CODEGEN--\":64:80   */\n      swap2\n      pop\n        /* \"--CODEGEN--\":144:148   */\n      0x1f\n        /* \"--CODEGEN--\":140:149   */\n      not\n        /* \"--CODEGEN--\":133:137   */\n      0x3f\n        /* \"--CODEGEN--\":115:131   */\n      returndatasize\n        /* \"--CODEGEN--\":111:138   */\n      add\n        /* \"--CODEGEN--\":107:150   */\n      and\n        /* \"--CODEGEN--\":104:105   */\n      dup3\n        /* \"--CODEGEN--\":100:151   */\n      add\n        /* \"--CODEGEN--\":94:98   */\n      0x40\n        /* \"--CODEGEN--\":87:152   */\n      mstore\n        /* \"--CODEGEN--\":169:185   */\n      returndatasize\n        /* \"--CODEGEN--\":166:167   */\n      dup3\n        /* \"--CODEGEN--\":159:186   */\n      mstore\n        /* \"--CODEGEN--\":225:241   */\n      returndatasize\n        /* \"--CODEGEN--\":222:223   */\n      0x00\n        /* \"--CODEGEN--\":215:219   */\n      0x20\n        /* \"--CODEGEN--\":212:213   */\n      dup5\n        /* \"--CODEGEN--\":208:220   */\n      add\n        /* \"--CODEGEN--\":193:242   */\n      returndatacopy\n        /* \"--CODEGEN--\":7:249   */\n      jump(tag_124)\n        /* \"--CODEGEN--\":16:47   */\n    tag_125:\n        /* \"--CODEGEN--\":36:40   */\n      0x60\n        /* \"--CODEGEN--\":31:40   */\n      swap2\n      pop\n        /* \"--CODEGEN--\":7:249   */\n    tag_124:\n      pop\n      pop\n        /* \"tenderly/flashloan/contracts/Multiswap.sol\":4122:4126  wbnb */\n      0x04\n      dup1\n      sload\n        /* \"tenderly/flashloan/contracts/Multiswap.sol\":4122:4158  wbnb.transfer(address(this),_amount) */\n      mload(0x40)\n      shl(0xe0, 0xa9059cbb)\n      dup2\n      mstore\n      sub(shl(0xa0, 0x01), 0x01)\n        /* \"tenderly/flashloan/contracts/Multiswap.sol\":4122:4126  wbnb */\n      swap1\n      swap2\n      and\n      swap3\n      pop\n        /* \"tenderly/flashloan/contracts/Multiswap.sol\":4122:4135  wbnb.transfer */\n      0xa9059cbb\n      swap2\n        /* \"tenderly/flashloan/contracts/Multiswap.sol\":4122:4158  wbnb.transfer(address(this),_amount) */\n      tag_126\n      swap2\n        /* \"tenderly/flashloan/contracts/Multiswap.sol\":4144:4148  this */\n      address\n      swap2\n        /* \"tenderly/flashloan/contracts/Multiswap.sol\":4150:4157  _amount */\n      dup7\n      swap2\n        /* \"tenderly/flashloan/contracts/Multiswap.sol\":4122:4158  wbnb.transfer(address(this),_amount) */\n      add\n      jump(tag_127)\n    tag_126:\n      0x20\n      mload(0x40)\n      dup1\n      dup4\n      sub\n      dup2\n      0x00\n      dup8\n      dup1\n      extcodesize\n      iszero\n        /* \"--CODEGEN--\":8:17   */\n      dup1\n        /* \"--CODEGEN--\":5:7   */\n      iszero\n      tag_128\n      jumpi\n        /* \"--CODEGEN--\":30:31   */\n      0x00\n        /* \"--CODEGEN--\":27:28   */\n      dup1\n        /* \"--CODEGEN--\":20:32   */\n      revert\n        /* \"--CODEGEN--\":5:7   */\n    tag_128:\n        /* \"tenderly/flashloan/contracts/Multiswap.sol\":4122:4158  wbnb.transfer(address(this),_amount) */\n      pop\n      gas\n      call\n      iszero\n        /* \"--CODEGEN--\":8:17   */\n      dup1\n        /* \"--CODEGEN--\":5:7   */\n      iszero\n      tag_129\n      jumpi\n        /* \"--CODEGEN--\":45:61   */\n      returndatasize\n        /* \"--CODEGEN--\":42:43   */\n      0x00\n        /* \"--CODEGEN--\":39:40   */\n      dup1\n        /* \"--CODEGEN--\":24:62   */\n      returndatacopy\n        /* \"--CODEGEN--\":77:93   */\n      returndatasize\n        /* \"--CODEGEN--\":74:75   */\n      0x00\n        /* \"--CODEGEN--\":67:94   */\n      revert\n        /* \"--CODEGEN--\":5:7   */\n    tag_129:\n        /* \"tenderly/flashloan/contracts/Multiswap.sol\":4122:4158  wbnb.transfer(address(this),_amount) */\n      pop\n      pop\n      pop\n      pop\n      mload(0x40)\n      returndatasize\n        /* \"--CODEGEN--\":101:105   */\n      0x1f\n        /* \"--CODEGEN--\":97:106   */\n      not\n        /* \"--CODEGEN--\":90:94   */\n      0x1f\n        /* \"--CODEGEN--\":84:88   */\n      dup3\n        /* \"--CODEGEN--\":80:95   */\n      add\n        /* \"--CODEGEN--\":76:107   */\n      and\n        /* \"--CODEGEN--\":69:74   */\n      dup3\n        /* \"--CODEGEN--\":65:108   */\n      add\n        /* \"--CODEGEN--\":126:132   */\n      dup1\n        /* \"--CODEGEN--\":120:124   */\n      0x40\n        /* \"--CODEGEN--\":113:133   */\n      mstore\n        /* \"--CODEGEN--\":0:138   */\n      pop\n        /* \"tenderly/flashloan/contracts/Multiswap.sol\":4122:4158  wbnb.transfer(address(this),_amount) */\n      tag_62\n      swap2\n      swap1\n      dup2\n      add\n      swap1\n      jump(tag_131)\n        /* \"tenderly/flashloan/contracts/Multiswap.sol\":993:2262  function MultiSwap(bytes[] memory data) internal {... */\n    tag_97:\n        /* \"tenderly/flashloan/contracts/Multiswap.sol\":1051:1065  address token0 */\n      0x00\n      dup1\n      dup1\n      dup1\n      dup1\n        /* \"tenderly/flashloan/contracts/Multiswap.sol\":1128:2259  for (uint i = 0; i < data.length; i++) {... */\n    tag_133:\n        /* \"tenderly/flashloan/contracts/Multiswap.sol\":1149:1153  data */\n      dup6\n        /* \"tenderly/flashloan/contracts/Multiswap.sol\":1149:1160  data.length */\n      mload\n        /* \"tenderly/flashloan/contracts/Multiswap.sol\":1145:1146  i */\n      dup2\n        /* \"tenderly/flashloan/contracts/Multiswap.sol\":1145:1160  i < data.length */\n      lt\n        /* \"tenderly/flashloan/contracts/Multiswap.sol\":1128:2259  for (uint i = 0; i < data.length; i++) {... */\n      iszero\n      tag_106\n      jumpi\n        /* \"tenderly/flashloan/contracts/Multiswap.sol\":1209:1213  data */\n      dup6\n        /* \"tenderly/flashloan/contracts/Multiswap.sol\":1214:1215  i */\n      dup2\n        /* \"tenderly/flashloan/contracts/Multiswap.sol\":1209:1216  data[i] */\n      dup2\n      mload\n      dup2\n      lt\n      tag_136\n      jumpi\n      invalid\n    tag_136:\n      0x20\n      mul\n      0x20\n      add\n      add\n      mload\n        /* \"tenderly/flashloan/contracts/Multiswap.sol\":1217:1218  0 */\n      0x00\n        /* \"tenderly/flashloan/contracts/Multiswap.sol\":1209:1219  data[i][0] */\n      dup2\n      mload\n      dup2\n      lt\n      tag_137\n      jumpi\n      invalid\n    tag_137:\n      0x20\n      add\n      add\n      mload\n      0xf8\n      shr\n      0xf8\n      shl\n      sub(shl(0xf8, 0x01), 0x01)\n        /* \"tenderly/flashloan/contracts/Multiswap.sol\":1201:1220  bytes20(data[i][0]) */\n      not\n      and\n        /* \"tenderly/flashloan/contracts/Multiswap.sol\":1193:1221  uint160(bytes20(data[i][0])) */\n      0x60\n      shr\n        /* \"tenderly/flashloan/contracts/Multiswap.sol\":1175:1222  router =  address(uint160(bytes20(data[i][0]))) */\n      swap3\n      pop\n        /* \"tenderly/flashloan/contracts/Multiswap.sol\":1264:1268  data */\n      dup6\n        /* \"tenderly/flashloan/contracts/Multiswap.sol\":1269:1270  i */\n      dup2\n        /* \"tenderly/flashloan/contracts/Multiswap.sol\":1264:1271  data[i] */\n      dup2\n      mload\n      dup2\n      lt\n      tag_138\n      jumpi\n      invalid\n    tag_138:\n      0x20\n      mul\n      0x20\n      add\n      add\n      mload\n        /* \"tenderly/flashloan/contracts/Multiswap.sol\":1272:1273  1 */\n      0x01\n        /* \"tenderly/flashloan/contracts/Multiswap.sol\":1264:1274  data[i][1] */\n      dup2\n      mload\n      dup2\n      lt\n      tag_139\n      jumpi\n      invalid\n    tag_139:\n      0x20\n      add\n      add\n      mload\n      0xf8\n      shr\n      0xf8\n      shl\n      sub(shl(0xf8, 0x01), 0x01)\n        /* \"tenderly/flashloan/contracts/Multiswap.sol\":1256:1275  bytes20(data[i][1]) */\n      not\n      and\n        /* \"tenderly/flashloan/contracts/Multiswap.sol\":1248:1276  uint160(bytes20(data[i][1])) */\n      0x60\n      shr\n      sub(shl(0xa0, 0x01), 0x01)\n        /* \"tenderly/flashloan/contracts/Multiswap.sol\":1240:1277  uint256(uint160(bytes20(data[i][1]))) */\n      and\n        /* \"tenderly/flashloan/contracts/Multiswap.sol\":1230:1277  amountIn= uint256(uint160(bytes20(data[i][1]))) */\n      swap2\n      pop\n        /* \"tenderly/flashloan/contracts/Multiswap.sol\":1318:1322  data */\n      dup6\n        /* \"tenderly/flashloan/contracts/Multiswap.sol\":1323:1324  i */\n      dup2\n        /* \"tenderly/flashloan/contracts/Multiswap.sol\":1318:1325  data[i] */\n      dup2\n      mload\n      dup2\n      lt\n      tag_140\n      jumpi\n      invalid\n    tag_140:\n      0x20\n      mul\n      0x20\n      add\n      add\n      mload\n        /* \"tenderly/flashloan/contracts/Multiswap.sol\":1326:1327  2 */\n      0x02\n        /* \"tenderly/flashloan/contracts/Multiswap.sol\":1318:1328  data[i][2] */\n      dup2\n      mload\n      dup2\n      lt\n      tag_141\n      jumpi\n      invalid\n    tag_141:\n      0x20\n      add\n      add\n      mload\n      0xf8\n      shr\n      0xf8\n      shl\n      sub(shl(0xf8, 0x01), 0x01)\n        /* \"tenderly/flashloan/contracts/Multiswap.sol\":1310:1329  bytes20(data[i][2]) */\n      not\n      and\n        /* \"tenderly/flashloan/contracts/Multiswap.sol\":1302:1330  uint160(bytes20(data[i][2])) */\n      0x60\n      shr\n        /* \"tenderly/flashloan/contracts/Multiswap.sol\":1285:1331  token0=  address(uint160(bytes20(data[i][2]))) */\n      swap5\n      pop\n        /* \"tenderly/flashloan/contracts/Multiswap.sol\":1371:1375  data */\n      dup6\n        /* \"tenderly/flashloan/contracts/Multiswap.sol\":1376:1377  i */\n      dup2\n        /* \"tenderly/flashloan/contracts/Multiswap.sol\":1371:1378  data[i] */\n      dup2\n      mload\n      dup2\n      lt\n      tag_142\n      jumpi\n      invalid\n    tag_142:\n      0x20\n      mul\n      0x20\n      add\n      add\n      mload\n        /* \"tenderly/flashloan/contracts/Multiswap.sol\":1379:1380  3 */\n      0x03\n        /* \"tenderly/flashloan/contracts/Multiswap.sol\":1371:1381  data[i][3] */\n      dup2\n      mload\n      dup2\n      lt\n      tag_143\n      jumpi\n      invalid\n    tag_143:\n      0x20\n      swap2\n      add\n      add\n      mload\n        /* \"tenderly/flashloan/contracts/Multiswap.sol\":1455:1494  IERC20(token0).approve(router,amountIn) */\n      mload(0x40)\n      shl(0xe0, 0x095ea7b3)\n      dup2\n      mstore\n        /* \"tenderly/flashloan/contracts/Multiswap.sol\":1355:1383  uint160(bytes20(data[i][3])) */\n      0x60\n      swap2\n      swap1\n      swap2\n      shr\n      shl(0x98, 0xff)\n      and\n      swap5\n      pop\n      sub(shl(0xa0, 0x01), 0x01)\n        /* \"tenderly/flashloan/contracts/Multiswap.sol\":1455:1477  IERC20(token0).approve */\n      dup7\n      and\n      swap1\n      0x095ea7b3\n      swap1\n        /* \"tenderly/flashloan/contracts/Multiswap.sol\":1455:1494  IERC20(token0).approve(router,amountIn) */\n      tag_144\n      swap1\n        /* \"tenderly/flashloan/contracts/Multiswap.sol\":1478:1484  router */\n      dup7\n      swap1\n        /* \"tenderly/flashloan/contracts/Multiswap.sol\":1485:1493  amountIn */\n      dup7\n      swap1\n        /* \"tenderly/flashloan/contracts/Multiswap.sol\":1455:1494  IERC20(token0).approve(router,amountIn) */\n      0x04\n      add\n      jump(tag_145)\n    tag_144:\n      0x20\n      mload(0x40)\n      dup1\n      dup4\n      sub\n      dup2\n      0x00\n      dup8\n      dup1\n      extcodesize\n      iszero\n        /* \"--CODEGEN--\":8:17   */\n      dup1\n        /* \"--CODEGEN--\":5:7   */\n      iszero\n      tag_146\n      jumpi\n        /* \"--CODEGEN--\":30:31   */\n      0x00\n        /* \"--CODEGEN--\":27:28   */\n      dup1\n        /* \"--CODEGEN--\":20:32   */\n      revert\n        /* \"--CODEGEN--\":5:7   */\n    tag_146:\n        /* \"tenderly/flashloan/contracts/Multiswap.sol\":1455:1494  IERC20(token0).approve(router,amountIn) */\n      pop\n      gas\n      call\n      iszero\n        /* \"--CODEGEN--\":8:17   */\n      dup1\n        /* \"--CODEGEN--\":5:7   */\n      iszero\n      tag_147\n      jumpi\n        /* \"--CODEGEN--\":45:61   */\n      returndatasize\n        /* \"--CODEGEN--\":42:43   */\n      0x00\n        /* \"--CODEGEN--\":39:40   */\n      dup1\n        /* \"--CODEGEN--\":24:62   */\n      returndatacopy\n        /* \"--CODEGEN--\":77:93   */\n      returndatasize\n        /* \"--CODEGEN--\":74:75   */\n      0x00\n        /* \"--CODEGEN--\":67:94   */\n      revert\n        /* \"--CODEGEN--\":5:7   */\n    tag_147:\n        /* \"tenderly/flashloan/contracts/Multiswap.sol\":1455:1494  IERC20(token0).approve(router,amountIn) */\n      pop\n      pop\n      pop\n      pop\n      mload(0x40)\n      returndatasize\n        /* \"--CODEGEN--\":101:105   */\n      0x1f\n        /* \"--CODEGEN--\":97:106   */\n      not\n        /* \"--CODEGEN--\":90:94   */\n      0x1f\n        /* \"--CODEGEN--\":84:88   */\n      dup3\n        /* \"--CODEGEN--\":80:95   */\n      add\n        /* \"--CODEGEN--\":76:107   */\n      and\n        /* \"--CODEGEN--\":69:74   */\n      dup3\n        /* \"--CODEGEN--\":65:108   */\n      add\n        /* \"--CODEGEN--\":126:132   */\n      dup1\n        /* \"--CODEGEN--\":120:124   */\n      0x40\n        /* \"--CODEGEN--\":113:133   */\n      mstore\n        /* \"--CODEGEN--\":0:138   */\n      pop\n        /* \"tenderly/flashloan/contracts/Multiswap.sol\":1455:1494  IERC20(token0).approve(router,amountIn) */\n      tag_148\n      swap2\n      swap1\n      dup2\n      add\n      swap1\n      jump(tag_131)\n    tag_148:\n        /* \"tenderly/flashloan/contracts/Multiswap.sol\":1438:1546  require(... */\n      tag_149\n      jumpi\n      mload(0x40)\n      shl(0xe5, 0x461bcd)\n      dup2\n      mstore\n      0x04\n      add\n      tag_85\n      swap1\n      jump(tag_151)\n    tag_149:\n        /* \"tenderly/flashloan/contracts/Multiswap.sol\":1557:1578  address[] memory path */\n      0x60\n      sub(shl(0xa0, 0x01), 0x01)\n        /* \"tenderly/flashloan/contracts/Multiswap.sol\":1592:1607  token0 == WBNB_ */\n      dup7\n      and\n        /* \"tenderly/flashloan/contracts/Multiswap.sol\":741:783  0xbb4CdB9CBd36B01bD1cBaEBF2De08d9173bc095c */\n      0xbb4cdb9cbd36b01bd1cbaebf2de08d9173bc095c\n        /* \"tenderly/flashloan/contracts/Multiswap.sol\":1592:1607  token0 == WBNB_ */\n      eq\n      dup1\n        /* \"tenderly/flashloan/contracts/Multiswap.sol\":1592:1626  token0 == WBNB_ || token1 == WBNB_ */\n      tag_152\n      jumpi\n      pop\n      sub(shl(0xa0, 0x01), 0x01)\n        /* \"tenderly/flashloan/contracts/Multiswap.sol\":1611:1626  token1 == WBNB_ */\n      dup6\n      and\n        /* \"tenderly/flashloan/contracts/Multiswap.sol\":741:783  0xbb4CdB9CBd36B01bD1cBaEBF2De08d9173bc095c */\n      0xbb4cdb9cbd36b01bd1cbaebf2de08d9173bc095c\n        /* \"tenderly/flashloan/contracts/Multiswap.sol\":1611:1626  token1 == WBNB_ */\n      eq\n        /* \"tenderly/flashloan/contracts/Multiswap.sol\":1592:1626  token0 == WBNB_ || token1 == WBNB_ */\n    tag_152:\n        /* \"tenderly/flashloan/contracts/Multiswap.sol\":1588:1879  if (token0 == WBNB_ || token1 == WBNB_) {... */\n      iszero\n      tag_153\n      jumpi\n        /* \"tenderly/flashloan/contracts/Multiswap.sol\":1649:1665  new address[](2) */\n      0x40\n      dup1\n      mload\n        /* \"tenderly/flashloan/contracts/Multiswap.sol\":1663:1664  2 */\n      0x02\n        /* \"tenderly/flashloan/contracts/Multiswap.sol\":1649:1665  new address[](2) */\n      dup1\n      dup3\n      mstore\n      0x60\n      dup3\n      add\n      dup4\n      mstore\n      swap1\n      swap2\n      0x20\n      dup4\n      add\n      swap1\n      dup1\n        /* \"--CODEGEN--\":105:115   */\n      codesize\n        /* \"tenderly/flashloan/contracts/Multiswap.sol\":1649:1665  new address[](2) */\n      dup4\n        /* \"--CODEGEN--\":88:122   */\n      codecopy\n        /* \"--CODEGEN--\":136:153   */\n      add\n      swap1\n      pop\n        /* \"tenderly/flashloan/contracts/Multiswap.sol\":1649:1665  new address[](2) */\n      pop\n        /* \"tenderly/flashloan/contracts/Multiswap.sol\":1642:1665  path = new address[](2) */\n      swap1\n      pop\n        /* \"tenderly/flashloan/contracts/Multiswap.sol\":1689:1695  token0 */\n      dup6\n        /* \"tenderly/flashloan/contracts/Multiswap.sol\":1679:1683  path */\n      dup2\n        /* \"tenderly/flashloan/contracts/Multiswap.sol\":1684:1685  0 */\n      0x00\n        /* \"tenderly/flashloan/contracts/Multiswap.sol\":1679:1686  path[0] */\n      dup2\n      mload\n      dup2\n      lt\n      tag_155\n      jumpi\n      invalid\n    tag_155:\n      0x20\n      mul\n      0x20\n      add\n      add\n        /* \"tenderly/flashloan/contracts/Multiswap.sol\":1679:1695  path[0] = token0 */\n      swap1\n      sub(shl(0xa0, 0x01), 0x01)\n      and\n      swap1\n      dup2\n      sub(shl(0xa0, 0x01), 0x01)\n      and\n      dup2\n      mstore\n      pop\n      pop\n        /* \"tenderly/flashloan/contracts/Multiswap.sol\":1719:1725  token1 */\n      dup5\n        /* \"tenderly/flashloan/contracts/Multiswap.sol\":1709:1713  path */\n      dup2\n        /* \"tenderly/flashloan/contracts/Multiswap.sol\":1714:1715  1 */\n      0x01\n        /* \"tenderly/flashloan/contracts/Multiswap.sol\":1709:1716  path[1] */\n      dup2\n      mload\n      dup2\n      lt\n      tag_156\n      jumpi\n      invalid\n    tag_156:\n      0x20\n      mul\n      0x20\n      add\n      add\n        /* \"tenderly/flashloan/contracts/Multiswap.sol\":1709:1725  path[1] = token1 */\n      swap1\n      sub(shl(0xa0, 0x01), 0x01)\n      and\n      swap1\n      dup2\n      sub(shl(0xa0, 0x01), 0x01)\n      and\n      dup2\n      mstore\n      pop\n      pop\n        /* \"tenderly/flashloan/contracts/Multiswap.sol\":1588:1879  if (token0 == WBNB_ || token1 == WBNB_) {... */\n      jump(tag_157)\n    tag_153:\n        /* \"tenderly/flashloan/contracts/Multiswap.sol\":1763:1779  new address[](3) */\n      0x40\n      dup1\n      mload\n        /* \"tenderly/flashloan/contracts/Multiswap.sol\":1777:1778  3 */\n      0x03\n        /* \"tenderly/flashloan/contracts/Multiswap.sol\":1763:1779  new address[](3) */\n      dup1\n      dup3\n      mstore\n      0x80\n      dup3\n      add\n      swap1\n      swap3\n      mstore\n      swap1\n      0x20\n      dup3\n      add\n        /* \"--CODEGEN--\":17:32   */\n      0x60\n      dup1\n        /* \"--CODEGEN--\":105:115   */\n      codesize\n        /* \"tenderly/flashloan/contracts/Multiswap.sol\":1763:1779  new address[](3) */\n      dup4\n        /* \"--CODEGEN--\":88:122   */\n      codecopy\n        /* \"--CODEGEN--\":136:153   */\n      add\n      swap1\n      pop\n        /* \"tenderly/flashloan/contracts/Multiswap.sol\":1763:1779  new address[](3) */\n      pop\n        /* \"tenderly/flashloan/contracts/Multiswap.sol\":1756:1779  path = new address[](3) */\n      swap1\n      pop\n        /* \"tenderly/flashloan/contracts/Multiswap.sol\":1803:1809  token0 */\n      dup6\n        /* \"tenderly/flashloan/contracts/Multiswap.sol\":1793:1797  path */\n      dup2\n        /* \"tenderly/flashloan/contracts/Multiswap.sol\":1798:1799  0 */\n      0x00\n        /* \"tenderly/flashloan/contracts/Multiswap.sol\":1793:1800  path[0] */\n      dup2\n      mload\n      dup2\n      lt\n      tag_159\n      jumpi\n      invalid\n    tag_159:\n      0x20\n      mul\n      0x20\n      add\n      add\n        /* \"tenderly/flashloan/contracts/Multiswap.sol\":1793:1809  path[0] = token0 */\n      swap1\n      sub(shl(0xa0, 0x01), 0x01)\n      and\n      swap1\n      dup2\n      sub(shl(0xa0, 0x01), 0x01)\n      and\n      dup2\n      mstore\n      pop\n      pop\n        /* \"tenderly/flashloan/contracts/Multiswap.sol\":741:783  0xbb4CdB9CBd36B01bD1cBaEBF2De08d9173bc095c */\n      0xbb4cdb9cbd36b01bd1cbaebf2de08d9173bc095c\n        /* \"tenderly/flashloan/contracts/Multiswap.sol\":1823:1827  path */\n      dup2\n        /* \"tenderly/flashloan/contracts/Multiswap.sol\":1828:1829  1 */\n      0x01\n        /* \"tenderly/flashloan/contracts/Multiswap.sol\":1823:1830  path[1] */\n      dup2\n      mload\n      dup2\n      lt\n      tag_160\n      jumpi\n      invalid\n    tag_160:\n      0x20\n      mul\n      0x20\n      add\n      add\n        /* \"tenderly/flashloan/contracts/Multiswap.sol\":1823:1838  path[1] = WBNB_ */\n      swap1\n      sub(shl(0xa0, 0x01), 0x01)\n      and\n      swap1\n      dup2\n      sub(shl(0xa0, 0x01), 0x01)\n      and\n      dup2\n      mstore\n      pop\n      pop\n        /* \"tenderly/flashloan/contracts/Multiswap.sol\":1862:1868  token1 */\n      dup5\n        /* \"tenderly/flashloan/contracts/Multiswap.sol\":1852:1856  path */\n      dup2\n        /* \"tenderly/flashloan/contracts/Multiswap.sol\":1857:1858  2 */\n      0x02\n        /* \"tenderly/flashloan/contracts/Multiswap.sol\":1852:1859  path[2] */\n      dup2\n      mload\n      dup2\n      lt\n      tag_161\n      jumpi\n      invalid\n    tag_161:\n      0x20\n      mul\n      0x20\n      add\n      add\n        /* \"tenderly/flashloan/contracts/Multiswap.sol\":1852:1868  path[2] = token1 */\n      swap1\n      sub(shl(0xa0, 0x01), 0x01)\n      and\n      swap1\n      dup2\n      sub(shl(0xa0, 0x01), 0x01)\n      and\n      dup2\n      mstore\n      pop\n      pop\n        /* \"tenderly/flashloan/contracts/Multiswap.sol\":1588:1879  if (token0 == WBNB_ || token1 == WBNB_) {... */\n    tag_157:\n        /* \"tenderly/flashloan/contracts/Multiswap.sol\":1965:2209  IUniswapV2Router02(router).swapExactTokensForTokens(... */\n      mload(0x40)\n      shl(0xe0, 0x38ed1739)\n      dup2\n      mstore\n        /* \"tenderly/flashloan/contracts/Multiswap.sol\":1906:1931  uint[] memory tokenBought */\n      0x60\n      swap1\n      sub(shl(0xa0, 0x01), 0x01)\n        /* \"tenderly/flashloan/contracts/Multiswap.sol\":1965:2016  IUniswapV2Router02(router).swapExactTokensForTokens */\n      dup7\n      and\n      swap1\n      0x38ed1739\n      swap1\n        /* \"tenderly/flashloan/contracts/Multiswap.sol\":1965:2209  IUniswapV2Router02(router).swapExactTokensForTokens(... */\n      tag_162\n      swap1\n        /* \"tenderly/flashloan/contracts/Multiswap.sol\":2030:2038  amountIn */\n      dup8\n      swap1\n        /* \"tenderly/flashloan/contracts/Multiswap.sol\":2052:2053  0 */\n      0x00\n      swap1\n        /* \"tenderly/flashloan/contracts/Multiswap.sol\":2067:2071  path */\n      dup8\n      swap1\n        /* \"tenderly/flashloan/contracts/Multiswap.sol\":2093:2097  this */\n      address\n      swap1\n        /* \"tenderly/flashloan/contracts/Multiswap.sol\":2196:2199  300 */\n      0x012c\n        /* \"tenderly/flashloan/contracts/Multiswap.sol\":2178:2193  block.timestamp */\n      timestamp\n        /* \"tenderly/flashloan/contracts/Multiswap.sol\":2178:2199  block.timestamp + 300 */\n      add\n      swap1\n        /* \"tenderly/flashloan/contracts/Multiswap.sol\":1965:2209  IUniswapV2Router02(router).swapExactTokensForTokens(... */\n      0x04\n      add\n      jump(tag_163)\n    tag_162:\n      0x00\n      mload(0x40)\n      dup1\n      dup4\n      sub\n      dup2\n      0x00\n      dup8\n      dup1\n      extcodesize\n      iszero\n        /* \"--CODEGEN--\":8:17   */\n      dup1\n        /* \"--CODEGEN--\":5:7   */\n      iszero\n      tag_164\n      jumpi\n        /* \"--CODEGEN--\":30:31   */\n      0x00\n        /* \"--CODEGEN--\":27:28   */\n      dup1\n        /* \"--CODEGEN--\":20:32   */\n      revert\n        /* \"--CODEGEN--\":5:7   */\n    tag_164:\n        /* \"tenderly/flashloan/contracts/Multiswap.sol\":1965:2209  IUniswapV2Router02(router).swapExactTokensForTokens(... */\n      pop\n      gas\n      call\n      iszero\n        /* \"--CODEGEN--\":8:17   */\n      dup1\n        /* \"--CODEGEN--\":5:7   */\n      iszero\n      tag_165\n      jumpi\n        /* \"--CODEGEN--\":45:61   */\n      returndatasize\n        /* \"--CODEGEN--\":42:43   */\n      0x00\n        /* \"--CODEGEN--\":39:40   */\n      dup1\n        /* \"--CODEGEN--\":24:62   */\n      returndatacopy\n        /* \"--CODEGEN--\":77:93   */\n      returndatasize\n        /* \"--CODEGEN--\":74:75   */\n      0x00\n        /* \"--CODEGEN--\":67:94   */\n      revert\n        /* \"--CODEGEN--\":5:7   */\n    tag_165:\n        /* \"tenderly/flashloan/contracts/Multiswap.sol\":1965:2209  IUniswapV2Router02(router).swapExactTokensForTokens(... */\n      pop\n      pop\n      pop\n      pop\n      mload(0x40)\n        /* \"--CODEGEN--\":39:55   */\n      returndatasize\n        /* \"--CODEGEN--\":36:37   */\n      0x00\n        /* \"--CODEGEN--\":17:34   */\n      dup3\n        /* \"--CODEGEN--\":2:56   */\n      returndatacopy\n        /* \"--CODEGEN--\":101:105   */\n      0x1f\n        /* \"tenderly/flashloan/contracts/Multiswap.sol\":1965:2209  IUniswapV2Router02(router).swapExactTokensForTokens(... */\n      returndatasize\n        /* \"--CODEGEN--\":80:95   */\n      swap1\n      dup2\n      add\n      not(0x1f)\n        /* \"--CODEGEN--\":76:107   */\n      and\n        /* \"--CODEGEN--\":65:108   */\n      dup3\n      add\n        /* \"--CODEGEN--\":120:124   */\n      0x40\n        /* \"--CODEGEN--\":113:133   */\n      mstore\n        /* \"tenderly/flashloan/contracts/Multiswap.sol\":1965:2209  IUniswapV2Router02(router).swapExactTokensForTokens(... */\n      tag_166\n      swap2\n      swap1\n      dup2\n      add\n      swap1\n      jump(tag_167)\n    tag_166:\n        /* \"tenderly/flashloan/contracts/Multiswap.sol\":1951:2209  tokenBought = IUniswapV2Router02(router).swapExactTokensForTokens(... */\n      swap1\n      pop\n        /* \"tenderly/flashloan/contracts/Multiswap.sol\":2220:2236  uint sell_amount */\n      0x00\n        /* \"tenderly/flashloan/contracts/Multiswap.sol\":2240:2251  tokenBought */\n      dup2\n        /* \"tenderly/flashloan/contracts/Multiswap.sol\":2252:2253  1 */\n      0x01\n        /* \"tenderly/flashloan/contracts/Multiswap.sol\":2240:2254  tokenBought[1] */\n      dup2\n      mload\n      dup2\n      lt\n      tag_168\n      jumpi\n      invalid\n    tag_168:\n      pop\n      pop\n        /* \"tenderly/flashloan/contracts/Multiswap.sol\":1162:1165  i++ */\n      0x01\n      swap1\n      swap4\n      add\n      swap3\n      pop\n        /* \"tenderly/flashloan/contracts/Multiswap.sol\":1128:2259  for (uint i = 0; i < data.length; i++) {... */\n      tag_133\n      swap2\n      pop\n      pop\n      jump\n        /* \"tenderly/flashloan/contracts/utils/SafeMath.sol\":834:1010  function add(uint256 a, uint256 b) internal pure returns (uint256) {... */\n    tag_102:\n        /* \"tenderly/flashloan/contracts/utils/SafeMath.sol\":892:899  uint256 */\n      0x00\n        /* \"tenderly/flashloan/contracts/utils/SafeMath.sol\":923:928  a + b */\n      dup3\n      dup3\n      add\n        /* \"tenderly/flashloan/contracts/utils/SafeMath.sol\":946:952  c >= a */\n      dup4\n      dup2\n      lt\n      iszero\n        /* \"tenderly/flashloan/contracts/utils/SafeMath.sol\":938:984  require(c >= a, \"SafeMath: addition overflow\") */\n      tag_116\n      jumpi\n      mload(0x40)\n      shl(0xe5, 0x461bcd)\n      dup2\n      mstore\n      0x04\n      add\n      tag_85\n      swap1\n      jump(tag_172)\n        /* \"tenderly/flashloan/contracts/base/FlashLoanReceiverBase.sol\":786:1012  function transferFundsBackToPoolInternal(address _reserve, uint256 _amount)... */\n    tag_107:\n        /* \"tenderly/flashloan/contracts/base/FlashLoanReceiverBase.sol\":893:913  address payable core */\n      0x00\n        /* \"tenderly/flashloan/contracts/base/FlashLoanReceiverBase.sol\":916:933  addressesProvider */\n      dup1\n      0x00\n      swap1\n      sload\n      swap1\n      0x0100\n      exp\n      swap1\n      div\n      sub(shl(0xa0, 0x01), 0x01)\n      and\n      sub(shl(0xa0, 0x01), 0x01)\n        /* \"tenderly/flashloan/contracts/base/FlashLoanReceiverBase.sol\":916:952  addressesProvider.getLendingPoolCore */\n      and\n      0xed6ff760\n        /* \"tenderly/flashloan/contracts/base/FlashLoanReceiverBase.sol\":916:954  addressesProvider.getLendingPoolCore() */\n      mload(0x40)\n      dup2\n      0xffffffff\n      and\n      0xe0\n      shl\n      dup2\n      mstore\n      0x04\n      add\n      0x20\n      mload(0x40)\n      dup1\n      dup4\n      sub\n      dup2\n      dup7\n      dup1\n      extcodesize\n      iszero\n        /* \"--CODEGEN--\":8:17   */\n      dup1\n        /* \"--CODEGEN--\":5:7   */\n      iszero\n      tag_174\n      jumpi\n        /* \"--CODEGEN--\":30:31   */\n      0x00\n        /* \"--CODEGEN--\":27:28   */\n      dup1\n        /* \"--CODEGEN--\":20:32   */\n      revert\n        /* \"--CODEGEN--\":5:7   */\n    tag_174:\n        /* \"tenderly/flashloan/contracts/base/FlashLoanReceiverBase.sol\":916:954  addressesProvider.getLendingPoolCore() */\n      pop\n      gas\n      staticcall\n      iszero\n        /* \"--CODEGEN--\":8:17   */\n      dup1\n        /* \"--CODEGEN--\":5:7   */\n      iszero\n      tag_175\n      jumpi\n        /* \"--CODEGEN--\":45:61   */\n      returndatasize\n        /* \"--CODEGEN--\":42:43   */\n      0x00\n        /* \"--CODEGEN--\":39:40   */\n      dup1\n        /* \"--CODEGEN--\":24:62   */\n      returndatacopy\n        /* \"--CODEGEN--\":77:93   */\n      returndatasize\n        /* \"--CODEGEN--\":74:75   */\n      0x00\n        /* \"--CODEGEN--\":67:94   */\n      revert\n        /* \"--CODEGEN--\":5:7   */\n    tag_175:\n        /* \"tenderly/flashloan/contracts/base/FlashLoanReceiverBase.sol\":916:954  addressesProvider.getLendingPoolCore() */\n      pop\n      pop\n      pop\n      pop\n      mload(0x40)\n      returndatasize\n        /* \"--CODEGEN--\":101:105   */\n      0x1f\n        /* \"--CODEGEN--\":97:106   */\n      not\n        /* \"--CODEGEN--\":90:94   */\n      0x1f\n        /* \"--CODEGEN--\":84:88   */\n      dup3\n        /* \"--CODEGEN--\":80:95   */\n      add\n        /* \"--CODEGEN--\":76:107   */\n      and\n        /* \"--CODEGEN--\":69:74   */\n      dup3\n        /* \"--CODEGEN--\":65:108   */\n      add\n        /* \"--CODEGEN--\":126:132   */\n      dup1\n        /* \"--CODEGEN--\":120:124   */\n      0x40\n        /* \"--CODEGEN--\":113:133   */\n      mstore\n        /* \"--CODEGEN--\":0:138   */\n      pop\n        /* \"tenderly/flashloan/contracts/base/FlashLoanReceiverBase.sol\":916:954  addressesProvider.getLendingPoolCore() */\n      tag_176\n      swap2\n      swap1\n      dup2\n      add\n      swap1\n      jump(tag_71)\n    tag_176:\n        /* \"tenderly/flashloan/contracts/base/FlashLoanReceiverBase.sol\":893:954  address payable core = addressesProvider.getLendingPoolCore() */\n      swap1\n      pop\n        /* \"tenderly/flashloan/contracts/base/FlashLoanReceiverBase.sol\":964:1005  transferInternal(core, _reserve, _amount) */\n      tag_178\n        /* \"tenderly/flashloan/contracts/base/FlashLoanReceiverBase.sol\":981:985  core */\n      dup2\n        /* \"tenderly/flashloan/contracts/base/FlashLoanReceiverBase.sol\":987:995  _reserve */\n      dup5\n        /* \"tenderly/flashloan/contracts/base/FlashLoanReceiverBase.sol\":997:1004  _amount */\n      dup5\n        /* \"tenderly/flashloan/contracts/base/FlashLoanReceiverBase.sol\":964:980  transferInternal */\n      tag_179\n        /* \"tenderly/flashloan/contracts/base/FlashLoanReceiverBase.sol\":964:1005  transferInternal(core, _reserve, _amount) */\n      jump\t// in\n    tag_178:\n        /* \"tenderly/flashloan/contracts/base/FlashLoanReceiverBase.sol\":786:1012  function transferFundsBackToPoolInternal(address _reserve, uint256 _amount)... */\n      pop\n      pop\n      pop\n      jump\t// out\n        /* \"tenderly/flashloan/contracts/utils/SafeERC20.sol\":643:817  function safeTransfer(IERC20 token, address to, uint256 value) internal {... */\n    tag_110:\n        /* \"tenderly/flashloan/contracts/utils/SafeERC20.sol\":751:809  abi.encodeWithSelector(token.transfer.selector, to, value) */\n      mload(0x40)\n        /* \"tenderly/flashloan/contracts/utils/SafeERC20.sol\":725:810  callOptionalReturn(token, abi.encodeWithSelector(token.transfer.selector, to, value)) */\n      tag_178\n      swap1\n        /* \"tenderly/flashloan/contracts/utils/SafeERC20.sol\":744:749  token */\n      dup5\n      swap1\n      shl(0xe0, 0xa9059cbb)\n        /* \"tenderly/flashloan/contracts/utils/SafeERC20.sol\":774:797  token.transfer.selector */\n      swap1\n        /* \"tenderly/flashloan/contracts/utils/SafeERC20.sol\":751:809  abi.encodeWithSelector(token.transfer.selector, to, value) */\n      tag_182\n      swap1\n        /* \"tenderly/flashloan/contracts/utils/SafeERC20.sol\":799:801  to */\n      dup7\n      swap1\n        /* \"tenderly/flashloan/contracts/utils/SafeERC20.sol\":803:808  value */\n      dup7\n      swap1\n        /* \"tenderly/flashloan/contracts/utils/SafeERC20.sol\":751:809  abi.encodeWithSelector(token.transfer.selector, to, value) */\n      0x24\n      add\n      jump(tag_145)\n    tag_182:\n      0x40\n      dup1\n      mload\n      not(0x1f)\n        /* \"--CODEGEN--\":26:47   */\n      dup2\n      dup5\n      sub\n        /* \"--CODEGEN--\":22:54   */\n      add\n        /* \"--CODEGEN--\":6:55   */\n      dup2\n      mstore\n        /* \"tenderly/flashloan/contracts/utils/SafeERC20.sol\":751:809  abi.encodeWithSelector(token.transfer.selector, to, value) */\n      swap2\n      swap1\n      mstore\n        /* \"--CODEGEN--\":49:53   */\n      0x20\n        /* \"--CODEGEN--\":25:43   */\n      dup2\n      add\n        /* \"--CODEGEN--\":61:78   */\n      dup1\n      mload\n      sub(shl(0xe0, 0x01), 0x01)\n        /* \"--CODEGEN--\":182:197   */\n      and\n      not(sub(shl(0xe0, 0x01), 0x01))\n        /* \"tenderly/flashloan/contracts/utils/SafeERC20.sol\":751:809  abi.encodeWithSelector(token.transfer.selector, to, value) */\n      swap1\n      swap4\n      and\n        /* \"--CODEGEN--\":179:208   */\n      swap3\n      swap1\n      swap3\n      or\n        /* \"--CODEGEN--\":160:209   */\n      swap1\n      swap2\n      mstore\n        /* \"tenderly/flashloan/contracts/utils/SafeERC20.sol\":725:743  callOptionalReturn */\n      tag_183\n        /* \"tenderly/flashloan/contracts/utils/SafeERC20.sol\":725:810  callOptionalReturn(token, abi.encodeWithSelector(token.transfer.selector, to, value)) */\n      jump\t// in\n        /* \"tenderly/flashloan/contracts/base/FlashLoanReceiverBase.sol\":1018:1386  function transferInternal(... */\n    tag_179:\n      sub(shl(0xa0, 0x01), 0x01)\n        /* \"tenderly/flashloan/contracts/base/FlashLoanReceiverBase.sol\":1162:1185  _reserve == BNB_ADDRESS */\n      dup3\n      and\n        /* \"tenderly/flashloan/contracts/base/FlashLoanReceiverBase.sol\":701:743  0xEeeeeEeeeEeEeeEeEeEeeEEEeeeeEeeeeeeeEEeE */\n      0xeeeeeeeeeeeeeeeeeeeeeeeeeeeeeeeeeeeeeeee\n        /* \"tenderly/flashloan/contracts/base/FlashLoanReceiverBase.sol\":1162:1185  _reserve == BNB_ADDRESS */\n      eq\n        /* \"tenderly/flashloan/contracts/base/FlashLoanReceiverBase.sol\":1158:1318  if (_reserve == BNB_ADDRESS) {... */\n      iszero\n      tag_185\n      jumpi\n        /* \"tenderly/flashloan/contracts/base/FlashLoanReceiverBase.sol\":1240:1252  _destination */\n      dup3\n      sub(shl(0xa0, 0x01), 0x01)\n        /* \"tenderly/flashloan/contracts/base/FlashLoanReceiverBase.sol\":1240:1257  _destination.call */\n      and\n        /* \"tenderly/flashloan/contracts/base/FlashLoanReceiverBase.sol\":1264:1271  _amount */\n      dup2\n        /* \"tenderly/flashloan/contracts/base/FlashLoanReceiverBase.sol\":1277:1282  50000 */\n      0xc350\n        /* \"tenderly/flashloan/contracts/base/FlashLoanReceiverBase.sol\":1240:1283  _destination.call.value(_amount).gas(50000) */\n      swap1\n        /* \"tenderly/flashloan/contracts/base/FlashLoanReceiverBase.sol\":1240:1287  _destination.call.value(_amount).gas(50000)(\"\") */\n      mload(0x40)\n      tag_186\n      swap1\n      jump(tag_123)\n    tag_186:\n      0x00\n      mload(0x40)\n      dup1\n      dup4\n      sub\n      dup2\n      dup6\n      dup9\n      dup9\n      call\n      swap4\n      pop\n      pop\n      pop\n      pop\n      returndatasize\n        /* \"--CODEGEN--\":14:15   */\n      dup1\n        /* \"--CODEGEN--\":21:22   */\n      0x00\n        /* \"--CODEGEN--\":16:47   */\n      dup2\n      eq\n      tag_188\n      jumpi\n        /* \"--CODEGEN--\":75:79   */\n      0x40\n        /* \"--CODEGEN--\":69:80   */\n      mload\n        /* \"--CODEGEN--\":64:80   */\n      swap2\n      pop\n        /* \"--CODEGEN--\":144:148   */\n      0x1f\n        /* \"--CODEGEN--\":140:149   */\n      not\n        /* \"--CODEGEN--\":133:137   */\n      0x3f\n        /* \"--CODEGEN--\":115:131   */\n      returndatasize\n        /* \"--CODEGEN--\":111:138   */\n      add\n        /* \"--CODEGEN--\":107:150   */\n      and\n        /* \"--CODEGEN--\":104:105   */\n      dup3\n        /* \"--CODEGEN--\":100:151   */\n      add\n        /* \"--CODEGEN--\":94:98   */\n      0x40\n        /* \"--CODEGEN--\":87:152   */\n      mstore\n        /* \"--CODEGEN--\":169:185   */\n      returndatasize\n        /* \"--CODEGEN--\":166:167   */\n      dup3\n        /* \"--CODEGEN--\":159:186   */\n      mstore\n        /* \"--CODEGEN--\":225:241   */\n      returndatasize\n        /* \"--CODEGEN--\":222:223   */\n      0x00\n        /* \"--CODEGEN--\":215:219   */\n      0x20\n        /* \"--CODEGEN--\":212:213   */\n      dup5\n        /* \"--CODEGEN--\":208:220   */\n      add\n        /* \"--CODEGEN--\":193:242   */\n      returndatacopy\n        /* \"--CODEGEN--\":7:249   */\n      jump(tag_187)\n        /* \"--CODEGEN--\":16:47   */\n    tag_188:\n        /* \"--CODEGEN--\":36:40   */\n      0x60\n        /* \"--CODEGEN--\":31:40   */\n      swap2\n      pop\n        /* \"--CODEGEN--\":7:249   */\n    tag_187:\n      pop\n        /* \"tenderly/flashloan/contracts/base/FlashLoanReceiverBase.sol\":1240:1287  _destination.call.value(_amount).gas(50000)(\"\") */\n      pop\n      pop\n        /* \"tenderly/flashloan/contracts/base/FlashLoanReceiverBase.sol\":1301:1308  return; */\n      jump(tag_178)\n        /* \"tenderly/flashloan/contracts/base/FlashLoanReceiverBase.sol\":1158:1318  if (_reserve == BNB_ADDRESS) {... */\n    tag_185:\n        /* \"tenderly/flashloan/contracts/base/FlashLoanReceiverBase.sol\":1327:1379  IERC20(_reserve).safeTransfer(_destination, _amount) */\n      tag_178\n      sub(shl(0xa0, 0x01), 0x01)\n        /* \"tenderly/flashloan/contracts/base/FlashLoanReceiverBase.sol\":1327:1356  IERC20(_reserve).safeTransfer */\n      dup4\n      and\n        /* \"tenderly/flashloan/contracts/base/FlashLoanReceiverBase.sol\":1357:1369  _destination */\n      dup5\n        /* \"tenderly/flashloan/contracts/base/FlashLoanReceiverBase.sol\":1371:1378  _amount */\n      dup4\n        /* \"tenderly/flashloan/contracts/base/FlashLoanReceiverBase.sol\":1327:1379  IERC20(_reserve).safeTransfer(_destination, _amount) */\n      0xffffffff\n        /* \"tenderly/flashloan/contracts/base/FlashLoanReceiverBase.sol\":1327:1356  IERC20(_reserve).safeTransfer */\n      tag_110\n        /* \"tenderly/flashloan/contracts/base/FlashLoanReceiverBase.sol\":1327:1379  IERC20(_reserve).safeTransfer(_destination, _amount) */\n      and\n      jump\t// in\n        /* \"tenderly/flashloan/contracts/utils/SafeERC20.sol\":2647:3742  function callOptionalReturn(IERC20 token, bytes memory data) private {... */\n    tag_183:\n        /* \"tenderly/flashloan/contracts/utils/SafeERC20.sol\":3242:3269  address(token).isContract() */\n      tag_191\n        /* \"tenderly/flashloan/contracts/utils/SafeERC20.sol\":3250:3255  token */\n      dup3\n      sub(shl(0xa0, 0x01), 0x01)\n        /* \"tenderly/flashloan/contracts/utils/SafeERC20.sol\":3242:3267  address(token).isContract */\n      and\n      tag_192\n        /* \"tenderly/flashloan/contracts/utils/SafeERC20.sol\":3242:3269  address(token).isContract() */\n      jump\t// in\n    tag_191:\n        /* \"tenderly/flashloan/contracts/utils/SafeERC20.sol\":3234:3305  require(address(token).isContract(), \"SafeERC20: call to non-contract\") */\n      tag_193\n      jumpi\n      mload(0x40)\n      shl(0xe5, 0x461bcd)\n      dup2\n      mstore\n      0x04\n      add\n      tag_85\n      swap1\n      jump(tag_195)\n    tag_193:\n        /* \"tenderly/flashloan/contracts/utils/SafeERC20.sol\":3376:3388  bool success */\n      0x00\n        /* \"tenderly/flashloan/contracts/utils/SafeERC20.sol\":3390:3413  bytes memory returndata */\n      0x60\n        /* \"tenderly/flashloan/contracts/utils/SafeERC20.sol\":3425:3430  token */\n      dup4\n      sub(shl(0xa0, 0x01), 0x01)\n        /* \"tenderly/flashloan/contracts/utils/SafeERC20.sol\":3417:3436  address(token).call */\n      and\n        /* \"tenderly/flashloan/contracts/utils/SafeERC20.sol\":3437:3441  data */\n      dup4\n        /* \"tenderly/flashloan/contracts/utils/SafeERC20.sol\":3417:3442  address(token).call(data) */\n      mload(0x40)\n      tag_196\n      swap2\n      swap1\n      jump(tag_197)\n    tag_196:\n      0x00\n      mload(0x40)\n      dup1\n      dup4\n      sub\n      dup2\n      0x00\n      dup7\n      gas\n      call\n      swap2\n      pop\n      pop\n      returndatasize\n        /* \"--CODEGEN--\":14:15   */\n      dup1\n        /* \"--CODEGEN--\":21:22   */\n      0x00\n        /* \"--CODEGEN--\":16:47   */\n      dup2\n      eq\n      tag_199\n      jumpi\n        /* \"--CODEGEN--\":75:79   */\n      0x40\n        /* \"--CODEGEN--\":69:80   */\n      mload\n        /* \"--CODEGEN--\":64:80   */\n      swap2\n      pop\n        /* \"--CODEGEN--\":144:148   */\n      0x1f\n        /* \"--CODEGEN--\":140:149   */\n      not\n        /* \"--CODEGEN--\":133:137   */\n      0x3f\n        /* \"--CODEGEN--\":115:131   */\n      returndatasize\n        /* \"--CODEGEN--\":111:138   */\n      add\n        /* \"--CODEGEN--\":107:150   */\n      and\n        /* \"--CODEGEN--\":104:105   */\n      dup3\n        /* \"--CODEGEN--\":100:151   */\n      add\n        /* \"--CODEGEN--\":94:98   */\n      0x40\n        /* \"--CODEGEN--\":87:152   */\n      mstore\n        /* \"--CODEGEN--\":169:185   */\n      returndatasize\n        /* \"--CODEGEN--\":166:167   */\n      dup3\n        /* \"--CODEGEN--\":159:186   */\n      mstore\n        /* \"--CODEGEN--\":225:241   */\n      returndatasize\n        /* \"--CODEGEN--\":222:223   */\n      0x00\n        /* \"--CODEGEN--\":215:219   */\n      0x20\n        /* \"--CODEGEN--\":212:213   */\n      dup5\n        /* \"--CODEGEN--\":208:220   */\n      add\n        /* \"--CODEGEN--\":193:242   */\n      returndatacopy\n        /* \"--CODEGEN--\":7:249   */\n      jump(tag_198)\n        /* \"--CODEGEN--\":16:47   */\n    tag_199:\n        /* \"--CODEGEN--\":36:40   */\n      0x60\n        /* \"--CODEGEN--\":31:40   */\n      swap2\n      pop\n        /* \"--CODEGEN--\":7:249   */\n    tag_198:\n      pop\n        /* \"tenderly/flashloan/contracts/utils/SafeERC20.sol\":3375:3442  (bool success, bytes memory returndata) = address(token).call(data) */\n      swap2\n      pop\n      swap2\n      pop\n        /* \"tenderly/flashloan/contracts/utils/SafeERC20.sol\":3460:3467  success */\n      dup2\n        /* \"tenderly/flashloan/contracts/utils/SafeERC20.sol\":3452:3504  require(success, \"SafeERC20: low-level call failed\") */\n      tag_200\n      jumpi\n      mload(0x40)\n      shl(0xe5, 0x461bcd)\n      dup2\n      mstore\n      0x04\n      add\n      tag_85\n      swap1\n      jump(tag_202)\n    tag_200:\n        /* \"tenderly/flashloan/contracts/utils/SafeERC20.sol\":3519:3536  returndata.length */\n      dup1\n      mload\n        /* \"tenderly/flashloan/contracts/utils/SafeERC20.sol\":3519:3540  returndata.length > 0 */\n      iszero\n        /* \"tenderly/flashloan/contracts/utils/SafeERC20.sol\":3515:3736  if (returndata.length > 0) { // Return data is optional... */\n      tag_205\n      jumpi\n        /* \"tenderly/flashloan/contracts/utils/SafeERC20.sol\":3659:3669  returndata */\n      dup1\n        /* \"tenderly/flashloan/contracts/utils/SafeERC20.sol\":3648:3678  abi.decode(returndata, (bool)) */\n      dup1\n      0x20\n      add\n      swap1\n      mload\n      tag_204\n      swap2\n      swap1\n      dup2\n      add\n      swap1\n      jump(tag_131)\n    tag_204:\n        /* \"tenderly/flashloan/contracts/utils/SafeERC20.sol\":3640:3725  require(abi.decode(returndata, (bool)), \"SafeERC20: ERC20 operation did not succeed\") */\n      tag_205\n      jumpi\n      mload(0x40)\n      shl(0xe5, 0x461bcd)\n      dup2\n      mstore\n      0x04\n      add\n      tag_85\n      swap1\n      jump(tag_207)\n    tag_205:\n        /* \"tenderly/flashloan/contracts/utils/SafeERC20.sol\":2647:3742  function callOptionalReturn(IERC20 token, bytes memory data) private {... */\n      pop\n      pop\n      pop\n      pop\n      jump\t// out\n        /* \"tenderly/flashloan/contracts/utils/Address.sol\":557:1354  function isContract(address account) internal view returns (bool) {... */\n    tag_192:\n        /* \"tenderly/flashloan/contracts/utils/Address.sol\":617:621  bool */\n      0x00\n        /* \"tenderly/flashloan/contracts/utils/Address.sol\":1265:1285  extcodehash(account) */\n      dup2\n      extcodehash\n        /* \"tenderly/flashloan/contracts/utils/Address.sol\":1110:1176  0xc5d2460186f7233c927e7db2dcc703c0e500b653ca82273b7bfad8045d85a470 */\n      0xc5d2460186f7233c927e7db2dcc703c0e500b653ca82273b7bfad8045d85a470\n        /* \"tenderly/flashloan/contracts/utils/Address.sol\":1304:1319  codehash != 0x0 */\n      dup2\n      iszero\n      dup1\n      iszero\n      swap1\n        /* \"tenderly/flashloan/contracts/utils/Address.sol\":1304:1346  codehash != 0x0 && codehash != accountHash */\n      tag_209\n      jumpi\n      pop\n        /* \"tenderly/flashloan/contracts/utils/Address.sol\":1335:1346  accountHash */\n      dup1\n        /* \"tenderly/flashloan/contracts/utils/Address.sol\":1323:1331  codehash */\n      dup3\n        /* \"tenderly/flashloan/contracts/utils/Address.sol\":1323:1346  codehash != accountHash */\n      eq\n      iszero\n        /* \"tenderly/flashloan/contracts/utils/Address.sol\":1304:1346  codehash != 0x0 && codehash != accountHash */\n    tag_209:\n        /* \"tenderly/flashloan/contracts/utils/Address.sol\":1296:1347  return (codehash != 0x0 && codehash != accountHash) */\n      swap5\n        /* \"tenderly/flashloan/contracts/utils/Address.sol\":557:1354  function isContract(address account) internal view returns (bool) {... */\n      swap4\n      pop\n      pop\n      pop\n      pop\n      jump\t// out\n        /* \"tenderly/flashloan/contracts/Multiswap.sol\":421:4409  contract MultiSwapContract is FlashLoanReceiverBase {... */\n    tag_65:\n      dup3\n      dup1\n      sload\n      dup3\n      dup3\n      sstore\n      swap1\n      0x00\n      mstore\n      keccak256(0x00, 0x20)\n      swap1\n      dup2\n      add\n      swap3\n      dup3\n      iszero\n      tag_212\n      jumpi\n      swap2\n      0x20\n      mul\n      dup3\n      add\n    tag_211:\n      dup3\n      dup2\n      gt\n      iszero\n      tag_212\n      jumpi\n      dup3\n      mload\n      dup1\n      mload\n      tag_213\n      swap2\n      dup5\n      swap2\n      0x20\n      swap1\n      swap2\n      add\n      swap1\n      tag_214\n      jump\t// in\n    tag_213:\n      pop\n      swap2\n      0x20\n      add\n      swap2\n      swap1\n      0x01\n      add\n      swap1\n      jump(tag_211)\n    tag_212:\n      pop\n      tag_215\n      swap3\n      swap2\n      pop\n      tag_216\n      jump\t// in\n    tag_215:\n      pop\n      swap1\n      jump\t// out\n    tag_214:\n      dup3\n      dup1\n      sload\n      0x01\n      dup2\n      0x01\n      and\n      iszero\n      0x0100\n      mul\n      sub\n      and\n      0x02\n      swap1\n      div\n      swap1\n      0x00\n      mstore\n      keccak256(0x00, 0x20)\n      swap1\n      0x1f\n      add\n      0x20\n      swap1\n      div\n      dup2\n      add\n      swap3\n      dup3\n      0x1f\n      lt\n      tag_218\n      jumpi\n      dup1\n      mload\n      not(0xff)\n      and\n      dup4\n      dup1\n      add\n      or\n      dup6\n      sstore\n      jump(tag_220)\n    tag_218:\n      dup3\n      dup1\n      add\n      0x01\n      add\n      dup6\n      sstore\n      dup3\n      iszero\n      tag_220\n      jumpi\n      swap2\n      dup3\n      add\n    tag_219:\n      dup3\n      dup2\n      gt\n      iszero\n      tag_220\n      jumpi\n      dup3\n      mload\n      dup3\n      sstore\n      swap2\n      0x20\n      add\n      swap2\n      swap1\n      0x01\n      add\n      swap1\n      jump(tag_219)\n    tag_220:\n      pop\n      tag_215\n      swap3\n      swap2\n      pop\n      tag_222\n      jump\t// in\n    tag_216:\n      tag_223\n      swap2\n      swap1\n    tag_224:\n      dup1\n      dup3\n      gt\n      iszero\n      tag_215\n      jumpi\n      0x00\n      tag_226\n      dup3\n      dup3\n      tag_227\n      jump\t// in\n    tag_226:\n      pop\n      0x01\n      add\n      jump(tag_224)\n    tag_223:\n      swap1\n      jump\t// out\n    tag_222:\n      tag_223\n      swap2\n      swap1\n    tag_229:\n      dup1\n      dup3\n      gt\n      iszero\n      tag_215\n      jumpi\n      0x00\n      dup2\n      sstore\n      0x01\n      add\n      jump(tag_229)\n    tag_227:\n      pop\n      dup1\n      sload\n      0x01\n      dup2\n      0x01\n      and\n      iszero\n      0x0100\n      mul\n      sub\n      and\n      0x02\n      swap1\n      div\n      0x00\n      dup3\n      sstore\n      dup1\n      0x1f\n      lt\n      tag_232\n      jumpi\n      pop\n      jump(tag_233)\n    tag_232:\n      0x1f\n      add\n      0x20\n      swap1\n      div\n      swap1\n      0x00\n      mstore\n      keccak256(0x00, 0x20)\n      swap1\n      dup2\n      add\n      swap1\n      tag_233\n      swap2\n      swap1\n      tag_222\n      jump\t// in\n    tag_233:\n      pop\n      jump\t// out\n        /* \"--CODEGEN--\":5:135   */\n    tag_235:\n        /* \"--CODEGEN--\":72:92   */\n      dup1\n      calldataload\n        /* \"--CODEGEN--\":97:130   */\n      tag_111\n        /* \"--CODEGEN--\":72:92   */\n      dup2\n        /* \"--CODEGEN--\":97:130   */\n      jump(tag_237)\n        /* \"--CODEGEN--\":142:276   */\n    tag_238:\n        /* \"--CODEGEN--\":220:233   */\n      dup1\n      mload\n        /* \"--CODEGEN--\":238:271   */\n      tag_111\n        /* \"--CODEGEN--\":220:233   */\n      dup2\n        /* \"--CODEGEN--\":238:271   */\n      jump(tag_237)\n        /* \"--CODEGEN--\":456:1149   */\n    tag_243:\n      0x00\n        /* \"--CODEGEN--\":578:581   */\n      dup3\n        /* \"--CODEGEN--\":571:575   */\n      0x1f\n        /* \"--CODEGEN--\":563:569   */\n      dup4\n        /* \"--CODEGEN--\":559:576   */\n      add\n        /* \"--CODEGEN--\":555:582   */\n      slt\n        /* \"--CODEGEN--\":545:547   */\n      tag_244\n      jumpi\n        /* \"--CODEGEN--\":596:597   */\n      0x00\n        /* \"--CODEGEN--\":593:594   */\n      dup1\n        /* \"--CODEGEN--\":586:598   */\n      revert\n        /* \"--CODEGEN--\":545:547   */\n    tag_244:\n        /* \"--CODEGEN--\":633:639   */\n      dup2\n        /* \"--CODEGEN--\":620:640   */\n      calldataload\n        /* \"--CODEGEN--\":655:740   */\n      tag_245\n        /* \"--CODEGEN--\":670:739   */\n      tag_246\n        /* \"--CODEGEN--\":732:738   */\n      dup3\n        /* \"--CODEGEN--\":670:739   */\n      jump(tag_247)\n    tag_246:\n        /* \"--CODEGEN--\":655:740   */\n      jump(tag_248)\n    tag_245:\n        /* \"--CODEGEN--\":768:789   */\n      dup2\n      dup2\n      mstore\n        /* \"--CODEGEN--\":812:816   */\n      0x20\n        /* \"--CODEGEN--\":800:817   */\n      swap4\n      dup5\n      add\n      swap4\n        /* \"--CODEGEN--\":646:740   */\n      swap1\n      swap3\n      pop\n        /* \"--CODEGEN--\":825:839   */\n      dup3\n      add\n        /* \"--CODEGEN--\":800:817   */\n      dup4\n        /* \"--CODEGEN--\":920:921   */\n      0x00\n        /* \"--CODEGEN--\":905:1143   */\n    tag_249:\n        /* \"--CODEGEN--\":930:936   */\n      dup4\n        /* \"--CODEGEN--\":927:928   */\n      dup2\n        /* \"--CODEGEN--\":924:937   */\n      lt\n        /* \"--CODEGEN--\":905:1143   */\n      iszero\n      tag_251\n      jumpi\n        /* \"--CODEGEN--\":1013:1016   */\n      dup2\n        /* \"--CODEGEN--\":1000:1017   */\n      calldataload\n        /* \"--CODEGEN--\":992:998   */\n      dup7\n        /* \"--CODEGEN--\":988:1018   */\n      add\n        /* \"--CODEGEN--\":1037:1079   */\n      tag_252\n        /* \"--CODEGEN--\":1075:1078   */\n      dup9\n        /* \"--CODEGEN--\":1063:1073   */\n      dup3\n        /* \"--CODEGEN--\":1037:1079   */\n      jump(tag_253)\n    tag_252:\n        /* \"--CODEGEN--\":1025:1080   */\n      dup5\n      mstore\n      pop\n        /* \"--CODEGEN--\":1103:1107   */\n      0x20\n        /* \"--CODEGEN--\":1094:1108   */\n      swap3\n      dup4\n      add\n      swap3\n        /* \"--CODEGEN--\":1122:1136   */\n      swap2\n      swap1\n      swap2\n      add\n      swap1\n        /* \"--CODEGEN--\":952:953   */\n      0x01\n        /* \"--CODEGEN--\":945:954   */\n      add\n        /* \"--CODEGEN--\":905:1143   */\n      jump(tag_249)\n    tag_251:\n        /* \"--CODEGEN--\":909:923   */\n      pop\n        /* \"--CODEGEN--\":538:1149   */\n      pop\n      pop\n      pop\n      swap3\n      swap2\n      pop\n      pop\n      jump\n        /* \"--CODEGEN--\":1175:1897   */\n    tag_254:\n      0x00\n        /* \"--CODEGEN--\":1303:1306   */\n      dup3\n        /* \"--CODEGEN--\":1296:1300   */\n      0x1f\n        /* \"--CODEGEN--\":1288:1294   */\n      dup4\n        /* \"--CODEGEN--\":1284:1301   */\n      add\n        /* \"--CODEGEN--\":1280:1307   */\n      slt\n        /* \"--CODEGEN--\":1270:1272   */\n      tag_255\n      jumpi\n        /* \"--CODEGEN--\":1321:1322   */\n      0x00\n        /* \"--CODEGEN--\":1318:1319   */\n      dup1\n        /* \"--CODEGEN--\":1311:1323   */\n      revert\n        /* \"--CODEGEN--\":1270:1272   */\n    tag_255:\n        /* \"--CODEGEN--\":1351:1357   */\n      dup2\n        /* \"--CODEGEN--\":1345:1358   */\n      mload\n        /* \"--CODEGEN--\":1373:1453   */\n      tag_256\n        /* \"--CODEGEN--\":1388:1452   */\n      tag_246\n        /* \"--CODEGEN--\":1445:1451   */\n      dup3\n        /* \"--CODEGEN--\":1388:1452   */\n      jump(tag_247)\n        /* \"--CODEGEN--\":1373:1453   */\n    tag_256:\n        /* \"--CODEGEN--\":1364:1453   */\n      swap2\n      pop\n        /* \"--CODEGEN--\":1470:1475   */\n      dup2\n        /* \"--CODEGEN--\":1495:1501   */\n      dup2\n        /* \"--CODEGEN--\":1488:1493   */\n      dup4\n        /* \"--CODEGEN--\":1481:1502   */\n      mstore\n        /* \"--CODEGEN--\":1525:1529   */\n      0x20\n        /* \"--CODEGEN--\":1517:1523   */\n      dup5\n        /* \"--CODEGEN--\":1513:1530   */\n      add\n        /* \"--CODEGEN--\":1503:1530   */\n      swap4\n      pop\n        /* \"--CODEGEN--\":1547:1551   */\n      0x20\n        /* \"--CODEGEN--\":1542:1545   */\n      dup2\n        /* \"--CODEGEN--\":1538:1552   */\n      add\n        /* \"--CODEGEN--\":1531:1552   */\n      swap1\n      pop\n        /* \"--CODEGEN--\":1600:1606   */\n      dup4\n        /* \"--CODEGEN--\":1647:1650   */\n      dup6\n        /* \"--CODEGEN--\":1639:1643   */\n      0x20\n        /* \"--CODEGEN--\":1631:1637   */\n      dup5\n        /* \"--CODEGEN--\":1627:1644   */\n      mul\n        /* \"--CODEGEN--\":1622:1625   */\n      dup3\n        /* \"--CODEGEN--\":1618:1645   */\n      add\n        /* \"--CODEGEN--\":1615:1651   */\n      gt\n        /* \"--CODEGEN--\":1612:1614   */\n      iszero\n      tag_259\n      jumpi\n        /* \"--CODEGEN--\":1664:1665   */\n      0x00\n        /* \"--CODEGEN--\":1661:1662   */\n      dup1\n        /* \"--CODEGEN--\":1654:1666   */\n      revert\n        /* \"--CODEGEN--\":1612:1614   */\n    tag_259:\n        /* \"--CODEGEN--\":1689:1690   */\n      0x00\n        /* \"--CODEGEN--\":1674:1891   */\n    tag_260:\n        /* \"--CODEGEN--\":1699:1705   */\n      dup4\n        /* \"--CODEGEN--\":1696:1697   */\n      dup2\n        /* \"--CODEGEN--\":1693:1706   */\n      lt\n        /* \"--CODEGEN--\":1674:1891   */\n      iszero\n      tag_251\n      jumpi\n        /* \"--CODEGEN--\":1757:1760   */\n      dup2\n        /* \"--CODEGEN--\":1779:1827   */\n      tag_263\n        /* \"--CODEGEN--\":1823:1826   */\n      dup9\n        /* \"--CODEGEN--\":1811:1821   */\n      dup3\n        /* \"--CODEGEN--\":1779:1827   */\n      jump(tag_264)\n    tag_263:\n        /* \"--CODEGEN--\":1767:1828   */\n      dup5\n      mstore\n      pop\n        /* \"--CODEGEN--\":1851:1855   */\n      0x20\n        /* \"--CODEGEN--\":1842:1856   */\n      swap3\n      dup4\n      add\n      swap3\n        /* \"--CODEGEN--\":1870:1884   */\n      swap2\n      swap1\n      swap2\n      add\n      swap1\n        /* \"--CODEGEN--\":1721:1722   */\n      0x01\n        /* \"--CODEGEN--\":1714:1723   */\n      add\n        /* \"--CODEGEN--\":1674:1891   */\n      jump(tag_260)\n        /* \"--CODEGEN--\":1905:2033   */\n    tag_265:\n        /* \"--CODEGEN--\":1980:1993   */\n      dup1\n      mload\n        /* \"--CODEGEN--\":1998:2028   */\n      tag_111\n        /* \"--CODEGEN--\":1980:1993   */\n      dup2\n        /* \"--CODEGEN--\":1998:2028   */\n      jump(tag_267)\n        /* \"--CODEGEN--\":2054:2390   */\n    tag_268:\n      0x00\n      dup1\n        /* \"--CODEGEN--\":2168:2171   */\n      dup4\n        /* \"--CODEGEN--\":2161:2165   */\n      0x1f\n        /* \"--CODEGEN--\":2153:2159   */\n      dup5\n        /* \"--CODEGEN--\":2149:2166   */\n      add\n        /* \"--CODEGEN--\":2145:2172   */\n      slt\n        /* \"--CODEGEN--\":2135:2137   */\n      tag_269\n      jumpi\n        /* \"--CODEGEN--\":2186:2187   */\n      0x00\n        /* \"--CODEGEN--\":2183:2184   */\n      dup1\n        /* \"--CODEGEN--\":2176:2188   */\n      revert\n        /* \"--CODEGEN--\":2135:2137   */\n    tag_269:\n      pop\n        /* \"--CODEGEN--\":2206:2226   */\n      dup2\n      calldataload\n        /* \"--CODEGEN--\":2246:2264   */\n      0xffffffffffffffff\n        /* \"--CODEGEN--\":2235:2265   */\n      dup2\n      gt\n        /* \"--CODEGEN--\":2232:2234   */\n      iszero\n      tag_270\n      jumpi\n        /* \"--CODEGEN--\":2278:2279   */\n      0x00\n        /* \"--CODEGEN--\":2275:2276   */\n      dup1\n        /* \"--CODEGEN--\":2268:2280   */\n      revert\n        /* \"--CODEGEN--\":2232:2234   */\n    tag_270:\n        /* \"--CODEGEN--\":2312:2316   */\n      0x20\n        /* \"--CODEGEN--\":2304:2310   */\n      dup4\n        /* \"--CODEGEN--\":2300:2317   */\n      add\n        /* \"--CODEGEN--\":2288:2317   */\n      swap2\n      pop\n        /* \"--CODEGEN--\":2363:2366   */\n      dup4\n        /* \"--CODEGEN--\":2355:2359   */\n      0x01\n        /* \"--CODEGEN--\":2347:2353   */\n      dup3\n        /* \"--CODEGEN--\":2343:2360   */\n      mul\n        /* \"--CODEGEN--\":2333:2341   */\n      dup4\n        /* \"--CODEGEN--\":2329:2361   */\n      add\n        /* \"--CODEGEN--\":2326:2367   */\n      gt\n        /* \"--CODEGEN--\":2323:2325   */\n      iszero\n      tag_271\n      jumpi\n        /* \"--CODEGEN--\":2380:2381   */\n      0x00\n        /* \"--CODEGEN--\":2377:2378   */\n      dup1\n        /* \"--CODEGEN--\":2370:2382   */\n      revert\n        /* \"--CODEGEN--\":2323:2325   */\n    tag_271:\n        /* \"--CODEGEN--\":2128:2390   */\n      swap3\n      pop\n      swap3\n      swap1\n      pop\n      jump\n        /* \"--CODEGEN--\":2399:2831   */\n    tag_253:\n      0x00\n        /* \"--CODEGEN--\":2496:2499   */\n      dup3\n        /* \"--CODEGEN--\":2489:2493   */\n      0x1f\n        /* \"--CODEGEN--\":2481:2487   */\n      dup4\n        /* \"--CODEGEN--\":2477:2494   */\n      add\n        /* \"--CODEGEN--\":2473:2500   */\n      slt\n        /* \"--CODEGEN--\":2463:2465   */\n      tag_272\n      jumpi\n        /* \"--CODEGEN--\":2514:2515   */\n      0x00\n        /* \"--CODEGEN--\":2511:2512   */\n      dup1\n        /* \"--CODEGEN--\":2504:2516   */\n      revert\n        /* \"--CODEGEN--\":2463:2465   */\n    tag_272:\n        /* \"--CODEGEN--\":2551:2557   */\n      dup2\n        /* \"--CODEGEN--\":2538:2558   */\n      calldataload\n        /* \"--CODEGEN--\":2573:2633   */\n      tag_273\n        /* \"--CODEGEN--\":2588:2632   */\n      tag_246\n        /* \"--CODEGEN--\":2625:2631   */\n      dup3\n        /* \"--CODEGEN--\":2588:2632   */\n      jump(tag_275)\n        /* \"--CODEGEN--\":2573:2633   */\n    tag_273:\n        /* \"--CODEGEN--\":2564:2633   */\n      swap2\n      pop\n        /* \"--CODEGEN--\":2653:2659   */\n      dup1\n        /* \"--CODEGEN--\":2646:2651   */\n      dup3\n        /* \"--CODEGEN--\":2639:2660   */\n      mstore\n        /* \"--CODEGEN--\":2689:2693   */\n      0x20\n        /* \"--CODEGEN--\":2681:2687   */\n      dup4\n        /* \"--CODEGEN--\":2677:2694   */\n      add\n        /* \"--CODEGEN--\":2722:2726   */\n      0x20\n        /* \"--CODEGEN--\":2715:2720   */\n      dup4\n        /* \"--CODEGEN--\":2711:2727   */\n      add\n        /* \"--CODEGEN--\":2757:2760   */\n      dup6\n        /* \"--CODEGEN--\":2748:2754   */\n      dup4\n        /* \"--CODEGEN--\":2743:2746   */\n      dup4\n        /* \"--CODEGEN--\":2739:2755   */\n      add\n        /* \"--CODEGEN--\":2736:2761   */\n      gt\n        /* \"--CODEGEN--\":2733:2735   */\n      iszero\n      tag_276\n      jumpi\n        /* \"--CODEGEN--\":2774:2775   */\n      0x00\n        /* \"--CODEGEN--\":2771:2772   */\n      dup1\n        /* \"--CODEGEN--\":2764:2776   */\n      revert\n        /* \"--CODEGEN--\":2733:2735   */\n    tag_276:\n        /* \"--CODEGEN--\":2784:2825   */\n      tag_277\n        /* \"--CODEGEN--\":2818:2824   */\n      dup4\n        /* \"--CODEGEN--\":2813:2816   */\n      dup3\n        /* \"--CODEGEN--\":2808:2811   */\n      dup5\n        /* \"--CODEGEN--\":2784:2825   */\n      jump(tag_278)\n    tag_277:\n        /* \"--CODEGEN--\":2456:2831   */\n      pop\n      pop\n      pop\n      swap3\n      swap2\n      pop\n      pop\n      jump\n        /* \"--CODEGEN--\":2839:2969   */\n    tag_279:\n        /* \"--CODEGEN--\":2906:2926   */\n      dup1\n      calldataload\n        /* \"--CODEGEN--\":2931:2964   */\n      tag_111\n        /* \"--CODEGEN--\":2906:2926   */\n      dup2\n        /* \"--CODEGEN--\":2931:2964   */\n      jump(tag_281)\n        /* \"--CODEGEN--\":2976:3110   */\n    tag_264:\n        /* \"--CODEGEN--\":3054:3067   */\n      dup1\n      mload\n        /* \"--CODEGEN--\":3072:3105   */\n      tag_111\n        /* \"--CODEGEN--\":3054:3067   */\n      dup2\n        /* \"--CODEGEN--\":3072:3105   */\n      jump(tag_281)\n        /* \"--CODEGEN--\":3117:3380   */\n    tag_71:\n      0x00\n        /* \"--CODEGEN--\":3232:3234   */\n      0x20\n        /* \"--CODEGEN--\":3220:3229   */\n      dup3\n        /* \"--CODEGEN--\":3211:3218   */\n      dup5\n        /* \"--CODEGEN--\":3207:3230   */\n      sub\n        /* \"--CODEGEN--\":3203:3235   */\n      slt\n        /* \"--CODEGEN--\":3200:3202   */\n      iszero\n      tag_283\n      jumpi\n        /* \"--CODEGEN--\":3248:3249   */\n      0x00\n        /* \"--CODEGEN--\":3245:3246   */\n      dup1\n        /* \"--CODEGEN--\":3238:3250   */\n      revert\n        /* \"--CODEGEN--\":3200:3202   */\n    tag_283:\n        /* \"--CODEGEN--\":3283:3284   */\n      0x00\n        /* \"--CODEGEN--\":3300:3364   */\n      tag_209\n        /* \"--CODEGEN--\":3356:3363   */\n      dup5\n        /* \"--CODEGEN--\":3336:3345   */\n      dup5\n        /* \"--CODEGEN--\":3300:3364   */\n      jump(tag_238)\n        /* \"--CODEGEN--\":3673:4414   */\n    tag_50:\n      0x00\n      dup1\n      0x00\n      dup1\n      0x00\n        /* \"--CODEGEN--\":3847:3850   */\n      0x80\n        /* \"--CODEGEN--\":3835:3844   */\n      dup7\n        /* \"--CODEGEN--\":3826:3833   */\n      dup9\n        /* \"--CODEGEN--\":3822:3845   */\n      sub\n        /* \"--CODEGEN--\":3818:3851   */\n      slt\n        /* \"--CODEGEN--\":3815:3817   */\n      iszero\n      tag_287\n      jumpi\n        /* \"--CODEGEN--\":3864:3865   */\n      0x00\n        /* \"--CODEGEN--\":3861:3862   */\n      dup1\n        /* \"--CODEGEN--\":3854:3866   */\n      revert\n        /* \"--CODEGEN--\":3815:3817   */\n    tag_287:\n        /* \"--CODEGEN--\":3899:3900   */\n      0x00\n        /* \"--CODEGEN--\":3916:3969   */\n      tag_288\n        /* \"--CODEGEN--\":3961:3968   */\n      dup9\n        /* \"--CODEGEN--\":3941:3950   */\n      dup9\n        /* \"--CODEGEN--\":3916:3969   */\n      jump(tag_235)\n    tag_288:\n        /* \"--CODEGEN--\":3906:3969   */\n      swap6\n      pop\n        /* \"--CODEGEN--\":3878:3975   */\n      pop\n        /* \"--CODEGEN--\":4006:4008   */\n      0x20\n        /* \"--CODEGEN--\":4024:4077   */\n      tag_289\n        /* \"--CODEGEN--\":4069:4076   */\n      dup9\n        /* \"--CODEGEN--\":4060:4066   */\n      dup3\n        /* \"--CODEGEN--\":4049:4058   */\n      dup10\n        /* \"--CODEGEN--\":4045:4067   */\n      add\n        /* \"--CODEGEN--\":4024:4077   */\n      jump(tag_279)\n    tag_289:\n        /* \"--CODEGEN--\":4014:4077   */\n      swap5\n      pop\n        /* \"--CODEGEN--\":3985:4083   */\n      pop\n        /* \"--CODEGEN--\":4114:4116   */\n      0x40\n        /* \"--CODEGEN--\":4132:4185   */\n      tag_290\n        /* \"--CODEGEN--\":4177:4184   */\n      dup9\n        /* \"--CODEGEN--\":4168:4174   */\n      dup3\n        /* \"--CODEGEN--\":4157:4166   */\n      dup10\n        /* \"--CODEGEN--\":4153:4175   */\n      add\n        /* \"--CODEGEN--\":4132:4185   */\n      jump(tag_279)\n    tag_290:\n        /* \"--CODEGEN--\":4122:4185   */\n      swap4\n      pop\n        /* \"--CODEGEN--\":4093:4191   */\n      pop\n        /* \"--CODEGEN--\":4250:4252   */\n      0x60\n        /* \"--CODEGEN--\":4239:4248   */\n      dup7\n        /* \"--CODEGEN--\":4235:4253   */\n      add\n        /* \"--CODEGEN--\":4222:4254   */\n      calldataload\n        /* \"--CODEGEN--\":4274:4292   */\n      0xffffffffffffffff\n        /* \"--CODEGEN--\":4266:4272   */\n      dup2\n        /* \"--CODEGEN--\":4263:4293   */\n      gt\n        /* \"--CODEGEN--\":4260:4262   */\n      iszero\n      tag_291\n      jumpi\n        /* \"--CODEGEN--\":4306:4307   */\n      0x00\n        /* \"--CODEGEN--\":4303:4304   */\n      dup1\n        /* \"--CODEGEN--\":4296:4308   */\n      revert\n        /* \"--CODEGEN--\":4260:4262   */\n    tag_291:\n        /* \"--CODEGEN--\":4334:4398   */\n      tag_292\n        /* \"--CODEGEN--\":4390:4397   */\n      dup9\n        /* \"--CODEGEN--\":4381:4387   */\n      dup3\n        /* \"--CODEGEN--\":4370:4379   */\n      dup10\n        /* \"--CODEGEN--\":4366:4388   */\n      add\n        /* \"--CODEGEN--\":4334:4398   */\n      jump(tag_268)\n    tag_292:\n        /* \"--CODEGEN--\":4324:4398   */\n      swap3\n      pop\n      swap3\n      pop\n        /* \"--CODEGEN--\":4201:4404   */\n      pop\n        /* \"--CODEGEN--\":3809:4414   */\n      swap3\n      swap6\n      pop\n      swap3\n      swap6\n      swap1\n      swap4\n      pop\n      jump\n        /* \"--CODEGEN--\":4421:5058   */\n    tag_38:\n      0x00\n      dup1\n      0x00\n        /* \"--CODEGEN--\":4589:4591   */\n      0x60\n        /* \"--CODEGEN--\":4577:4586   */\n      dup5\n        /* \"--CODEGEN--\":4568:4575   */\n      dup7\n        /* \"--CODEGEN--\":4564:4587   */\n      sub\n        /* \"--CODEGEN--\":4560:4592   */\n      slt\n        /* \"--CODEGEN--\":4557:4559   */\n      iszero\n      tag_293\n      jumpi\n        /* \"--CODEGEN--\":4605:4606   */\n      0x00\n        /* \"--CODEGEN--\":4602:4603   */\n      dup1\n        /* \"--CODEGEN--\":4595:4607   */\n      revert\n        /* \"--CODEGEN--\":4557:4559   */\n    tag_293:\n        /* \"--CODEGEN--\":4640:4671   */\n      dup4\n      calldataload\n        /* \"--CODEGEN--\":4691:4709   */\n      0xffffffffffffffff\n        /* \"--CODEGEN--\":4680:4710   */\n      dup2\n      gt\n        /* \"--CODEGEN--\":4677:4679   */\n      iszero\n      tag_294\n      jumpi\n        /* \"--CODEGEN--\":4723:4724   */\n      0x00\n        /* \"--CODEGEN--\":4720:4721   */\n      dup1\n        /* \"--CODEGEN--\":4713:4725   */\n      revert\n        /* \"--CODEGEN--\":4677:4679   */\n    tag_294:\n        /* \"--CODEGEN--\":4743:4826   */\n      tag_295\n        /* \"--CODEGEN--\":4818:4825   */\n      dup7\n        /* \"--CODEGEN--\":4809:4815   */\n      dup3\n        /* \"--CODEGEN--\":4798:4807   */\n      dup8\n        /* \"--CODEGEN--\":4794:4816   */\n      add\n        /* \"--CODEGEN--\":4743:4826   */\n      jump(tag_243)\n    tag_295:\n        /* \"--CODEGEN--\":4733:4826   */\n      swap4\n      pop\n        /* \"--CODEGEN--\":4619:4832   */\n      pop\n        /* \"--CODEGEN--\":4863:4865   */\n      0x20\n        /* \"--CODEGEN--\":4881:4934   */\n      tag_296\n        /* \"--CODEGEN--\":4926:4933   */\n      dup7\n        /* \"--CODEGEN--\":4917:4923   */\n      dup3\n        /* \"--CODEGEN--\":4906:4915   */\n      dup8\n        /* \"--CODEGEN--\":4902:4924   */\n      add\n        /* \"--CODEGEN--\":4881:4934   */\n      jump(tag_235)\n    tag_296:\n        /* \"--CODEGEN--\":4871:4934   */\n      swap3\n      pop\n        /* \"--CODEGEN--\":4842:4940   */\n      pop\n        /* \"--CODEGEN--\":4971:4973   */\n      0x40\n        /* \"--CODEGEN--\":4989:5042   */\n      tag_297\n        /* \"--CODEGEN--\":5034:5041   */\n      dup7\n        /* \"--CODEGEN--\":5025:5031   */\n      dup3\n        /* \"--CODEGEN--\":5014:5023   */\n      dup8\n        /* \"--CODEGEN--\":5010:5032   */\n      add\n        /* \"--CODEGEN--\":4989:5042   */\n      jump(tag_279)\n    tag_297:\n        /* \"--CODEGEN--\":4979:5042   */\n      swap2\n      pop\n        /* \"--CODEGEN--\":4950:5048   */\n      pop\n        /* \"--CODEGEN--\":4551:5058   */\n      swap3\n      pop\n      swap3\n      pop\n      swap3\n      jump\n        /* \"--CODEGEN--\":5065:5457   */\n    tag_167:\n      0x00\n        /* \"--CODEGEN--\":5205:5207   */\n      0x20\n        /* \"--CODEGEN--\":5193:5202   */\n      dup3\n        /* \"--CODEGEN--\":5184:5191   */\n      dup5\n        /* \"--CODEGEN--\":5180:5203   */\n      sub\n        /* \"--CODEGEN--\":5176:5208   */\n      slt\n        /* \"--CODEGEN--\":5173:5175   */\n      iszero\n      tag_298\n      jumpi\n        /* \"--CODEGEN--\":5221:5222   */\n      0x00\n        /* \"--CODEGEN--\":5218:5219   */\n      dup1\n        /* \"--CODEGEN--\":5211:5223   */\n      revert\n        /* \"--CODEGEN--\":5173:5175   */\n    tag_298:\n        /* \"--CODEGEN--\":5256:5280   */\n      dup2\n      mload\n        /* \"--CODEGEN--\":5300:5318   */\n      0xffffffffffffffff\n        /* \"--CODEGEN--\":5289:5319   */\n      dup2\n      gt\n        /* \"--CODEGEN--\":5286:5288   */\n      iszero\n      tag_299\n      jumpi\n        /* \"--CODEGEN--\":5332:5333   */\n      0x00\n        /* \"--CODEGEN--\":5329:5330   */\n      dup1\n        /* \"--CODEGEN--\":5322:5334   */\n      revert\n        /* \"--CODEGEN--\":5286:5288   */\n    tag_299:\n        /* \"--CODEGEN--\":5352:5441   */\n      tag_209\n        /* \"--CODEGEN--\":5433:5440   */\n      dup5\n        /* \"--CODEGEN--\":5424:5430   */\n      dup3\n        /* \"--CODEGEN--\":5413:5422   */\n      dup6\n        /* \"--CODEGEN--\":5409:5431   */\n      add\n        /* \"--CODEGEN--\":5352:5441   */\n      jump(tag_254)\n        /* \"--CODEGEN--\":5464:5721   */\n    tag_131:\n      0x00\n        /* \"--CODEGEN--\":5576:5578   */\n      0x20\n        /* \"--CODEGEN--\":5564:5573   */\n      dup3\n        /* \"--CODEGEN--\":5555:5562   */\n      dup5\n        /* \"--CODEGEN--\":5551:5574   */\n      sub\n        /* \"--CODEGEN--\":5547:5579   */\n      slt\n        /* \"--CODEGEN--\":5544:5546   */\n      iszero\n      tag_301\n      jumpi\n        /* \"--CODEGEN--\":5592:5593   */\n      0x00\n        /* \"--CODEGEN--\":5589:5590   */\n      dup1\n        /* \"--CODEGEN--\":5582:5594   */\n      revert\n        /* \"--CODEGEN--\":5544:5546   */\n    tag_301:\n        /* \"--CODEGEN--\":5627:5628   */\n      0x00\n        /* \"--CODEGEN--\":5644:5705   */\n      tag_209\n        /* \"--CODEGEN--\":5697:5704   */\n      dup5\n        /* \"--CODEGEN--\":5677:5686   */\n      dup5\n        /* \"--CODEGEN--\":5644:5705   */\n      jump(tag_265)\n        /* \"--CODEGEN--\":5728:5969   */\n    tag_18:\n      0x00\n        /* \"--CODEGEN--\":5832:5834   */\n      0x20\n        /* \"--CODEGEN--\":5820:5829   */\n      dup3\n        /* \"--CODEGEN--\":5811:5818   */\n      dup5\n        /* \"--CODEGEN--\":5807:5830   */\n      sub\n        /* \"--CODEGEN--\":5803:5835   */\n      slt\n        /* \"--CODEGEN--\":5800:5802   */\n      iszero\n      tag_303\n      jumpi\n        /* \"--CODEGEN--\":5848:5849   */\n      0x00\n        /* \"--CODEGEN--\":5845:5846   */\n      dup1\n        /* \"--CODEGEN--\":5838:5850   */\n      revert\n        /* \"--CODEGEN--\":5800:5802   */\n    tag_303:\n        /* \"--CODEGEN--\":5883:5884   */\n      0x00\n        /* \"--CODEGEN--\":5900:5953   */\n      tag_209\n        /* \"--CODEGEN--\":5945:5952   */\n      dup5\n        /* \"--CODEGEN--\":5925:5934   */\n      dup5\n        /* \"--CODEGEN--\":5900:5953   */\n      jump(tag_279)\n        /* \"--CODEGEN--\":5976:6239   */\n    tag_117:\n      0x00\n        /* \"--CODEGEN--\":6091:6093   */\n      0x20\n        /* \"--CODEGEN--\":6079:6088   */\n      dup3\n        /* \"--CODEGEN--\":6070:6077   */\n      dup5\n        /* \"--CODEGEN--\":6066:6089   */\n      sub\n        /* \"--CODEGEN--\":6062:6094   */\n      slt\n        /* \"--CODEGEN--\":6059:6061   */\n      iszero\n      tag_305\n      jumpi\n        /* \"--CODEGEN--\":6107:6108   */\n      0x00\n        /* \"--CODEGEN--\":6104:6105   */\n      dup1\n        /* \"--CODEGEN--\":6097:6109   */\n      revert\n        /* \"--CODEGEN--\":6059:6061   */\n    tag_305:\n        /* \"--CODEGEN--\":6142:6143   */\n      0x00\n        /* \"--CODEGEN--\":6159:6223   */\n      tag_209\n        /* \"--CODEGEN--\":6215:6222   */\n      dup5\n        /* \"--CODEGEN--\":6195:6204   */\n      dup5\n        /* \"--CODEGEN--\":6159:6223   */\n      jump(tag_264)\n        /* \"--CODEGEN--\":6246:6612   */\n    tag_59:\n      0x00\n      dup1\n        /* \"--CODEGEN--\":6367:6369   */\n      0x40\n        /* \"--CODEGEN--\":6355:6364   */\n      dup4\n        /* \"--CODEGEN--\":6346:6353   */\n      dup6\n        /* \"--CODEGEN--\":6342:6365   */\n      sub\n        /* \"--CODEGEN--\":6338:6370   */\n      slt\n        /* \"--CODEGEN--\":6335:6337   */\n      iszero\n      tag_307\n      jumpi\n        /* \"--CODEGEN--\":6383:6384   */\n      0x00\n        /* \"--CODEGEN--\":6380:6381   */\n      dup1\n        /* \"--CODEGEN--\":6373:6385   */\n      revert\n        /* \"--CODEGEN--\":6335:6337   */\n    tag_307:\n        /* \"--CODEGEN--\":6418:6419   */\n      0x00\n        /* \"--CODEGEN--\":6435:6488   */\n      tag_308\n        /* \"--CODEGEN--\":6480:6487   */\n      dup6\n        /* \"--CODEGEN--\":6460:6469   */\n      dup6\n        /* \"--CODEGEN--\":6435:6488   */\n      jump(tag_279)\n    tag_308:\n        /* \"--CODEGEN--\":6425:6488   */\n      swap3\n      pop\n        /* \"--CODEGEN--\":6397:6494   */\n      pop\n        /* \"--CODEGEN--\":6525:6527   */\n      0x20\n        /* \"--CODEGEN--\":6543:6596   */\n      tag_309\n        /* \"--CODEGEN--\":6588:6595   */\n      dup6\n        /* \"--CODEGEN--\":6579:6585   */\n      dup3\n        /* \"--CODEGEN--\":6568:6577   */\n      dup7\n        /* \"--CODEGEN--\":6564:6586   */\n      add\n        /* \"--CODEGEN--\":6543:6596   */\n      jump(tag_235)\n    tag_309:\n        /* \"--CODEGEN--\":6533:6596   */\n      swap2\n      pop\n        /* \"--CODEGEN--\":6504:6602   */\n      pop\n        /* \"--CODEGEN--\":6329:6612   */\n      swap3\n      pop\n      swap3\n      swap1\n      pop\n      jump\n        /* \"--CODEGEN--\":6620:6793   */\n    tag_310:\n      0x00\n        /* \"--CODEGEN--\":6707:6753   */\n      tag_311\n        /* \"--CODEGEN--\":6749:6752   */\n      dup4\n        /* \"--CODEGEN--\":6741:6747   */\n      dup4\n        /* \"--CODEGEN--\":6707:6753   */\n      jump(tag_316)\n    tag_311:\n      pop\n      pop\n        /* \"--CODEGEN--\":6782:6786   */\n      0x20\n        /* \"--CODEGEN--\":6773:6787   */\n      add\n      swap1\n        /* \"--CODEGEN--\":6700:6793   */\n      jump\n        /* \"--CODEGEN--\":6801:6943   */\n    tag_313:\n        /* \"--CODEGEN--\":6892:6937   */\n      tag_314\n        /* \"--CODEGEN--\":6931:6936   */\n      dup2\n        /* \"--CODEGEN--\":6892:6937   */\n      jump(tag_315)\n    tag_314:\n        /* \"--CODEGEN--\":6887:6890   */\n      dup3\n        /* \"--CODEGEN--\":6880:6938   */\n      mstore\n        /* \"--CODEGEN--\":6874:6943   */\n      pop\n      pop\n      jump\n        /* \"--CODEGEN--\":6950:7087   */\n    tag_316:\n        /* \"--CODEGEN--\":7049:7081   */\n      tag_314\n        /* \"--CODEGEN--\":7075:7080   */\n      dup2\n        /* \"--CODEGEN--\":7049:7081   */\n      jump(tag_320)\n        /* \"--CODEGEN--\":7355:8045   */\n    tag_323:\n      0x00\n        /* \"--CODEGEN--\":7500:7554   */\n      tag_324\n        /* \"--CODEGEN--\":7548:7553   */\n      dup3\n        /* \"--CODEGEN--\":7500:7554   */\n      jump(tag_325)\n    tag_324:\n        /* \"--CODEGEN--\":7567:7653   */\n      tag_326\n        /* \"--CODEGEN--\":7646:7652   */\n      dup2\n        /* \"--CODEGEN--\":7641:7644   */\n      dup6\n        /* \"--CODEGEN--\":7567:7653   */\n      jump(tag_327)\n    tag_326:\n        /* \"--CODEGEN--\":7560:7653   */\n      swap4\n      pop\n        /* \"--CODEGEN--\":7674:7730   */\n      tag_328\n        /* \"--CODEGEN--\":7724:7729   */\n      dup4\n        /* \"--CODEGEN--\":7674:7730   */\n      jump(tag_329)\n    tag_328:\n        /* \"--CODEGEN--\":7750:7757   */\n      dup1\n        /* \"--CODEGEN--\":7778:7779   */\n      0x00\n        /* \"--CODEGEN--\":7763:8023   */\n    tag_330:\n        /* \"--CODEGEN--\":7788:7794   */\n      dup4\n        /* \"--CODEGEN--\":7785:7786   */\n      dup2\n        /* \"--CODEGEN--\":7782:7795   */\n      lt\n        /* \"--CODEGEN--\":7763:8023   */\n      iszero\n      tag_332\n      jumpi\n        /* \"--CODEGEN--\":7855:7861   */\n      dup2\n        /* \"--CODEGEN--\":7849:7862   */\n      mload\n        /* \"--CODEGEN--\":7876:7939   */\n      tag_333\n        /* \"--CODEGEN--\":7935:7938   */\n      dup9\n        /* \"--CODEGEN--\":7920:7933   */\n      dup3\n        /* \"--CODEGEN--\":7876:7939   */\n      jump(tag_310)\n    tag_333:\n        /* \"--CODEGEN--\":7869:7939   */\n      swap8\n      pop\n        /* \"--CODEGEN--\":7956:8016   */\n      tag_334\n        /* \"--CODEGEN--\":8009:8015   */\n      dup4\n        /* \"--CODEGEN--\":7956:8016   */\n      jump(tag_329)\n    tag_334:\n        /* \"--CODEGEN--\":7946:8016   */\n      swap3\n      pop\n      pop\n        /* \"--CODEGEN--\":7810:7811   */\n      0x01\n        /* \"--CODEGEN--\":7803:7812   */\n      add\n        /* \"--CODEGEN--\":7763:8023   */\n      jump(tag_330)\n    tag_332:\n      pop\n        /* \"--CODEGEN--\":8036:8039   */\n      swap5\n      swap6\n        /* \"--CODEGEN--\":7479:8045   */\n      swap5\n      pop\n      pop\n      pop\n      pop\n      pop\n      jump\n        /* \"--CODEGEN--\":8053:8396   */\n    tag_336:\n      0x00\n        /* \"--CODEGEN--\":8163:8201   */\n      tag_337\n        /* \"--CODEGEN--\":8195:8200   */\n      dup3\n        /* \"--CODEGEN--\":8163:8201   */\n      jump(tag_325)\n    tag_337:\n        /* \"--CODEGEN--\":8213:8283   */\n      tag_339\n        /* \"--CODEGEN--\":8276:8282   */\n      dup2\n        /* \"--CODEGEN--\":8271:8274   */\n      dup6\n        /* \"--CODEGEN--\":8213:8283   */\n      jump(tag_327)\n    tag_339:\n        /* \"--CODEGEN--\":8206:8283   */\n      swap4\n      pop\n        /* \"--CODEGEN--\":8288:8340   */\n      tag_341\n        /* \"--CODEGEN--\":8333:8339   */\n      dup2\n        /* \"--CODEGEN--\":8328:8331   */\n      dup6\n        /* \"--CODEGEN--\":8321:8325   */\n      0x20\n        /* \"--CODEGEN--\":8314:8319   */\n      dup7\n        /* \"--CODEGEN--\":8310:8326   */\n      add\n        /* \"--CODEGEN--\":8288:8340   */\n      jump(tag_342)\n    tag_341:\n        /* \"--CODEGEN--\":8361:8390   */\n      tag_343\n        /* \"--CODEGEN--\":8383:8389   */\n      dup2\n        /* \"--CODEGEN--\":8361:8390   */\n      jump(tag_344)\n    tag_343:\n        /* \"--CODEGEN--\":8352:8391   */\n      swap1\n      swap4\n      add\n      swap4\n        /* \"--CODEGEN--\":8143:8396   */\n      swap3\n      pop\n      pop\n      pop\n      jump\n        /* \"--CODEGEN--\":8403:8759   */\n    tag_345:\n      0x00\n        /* \"--CODEGEN--\":8531:8569   */\n      tag_346\n        /* \"--CODEGEN--\":8563:8568   */\n      dup3\n        /* \"--CODEGEN--\":8531:8569   */\n      jump(tag_325)\n    tag_346:\n        /* \"--CODEGEN--\":8581:8669   */\n      tag_347\n        /* \"--CODEGEN--\":8662:8668   */\n      dup2\n        /* \"--CODEGEN--\":8657:8660   */\n      dup6\n        /* \"--CODEGEN--\":8581:8669   */\n      jump(tag_348)\n    tag_347:\n        /* \"--CODEGEN--\":8574:8669   */\n      swap4\n      pop\n        /* \"--CODEGEN--\":8674:8726   */\n      tag_349\n        /* \"--CODEGEN--\":8719:8725   */\n      dup2\n        /* \"--CODEGEN--\":8714:8717   */\n      dup6\n        /* \"--CODEGEN--\":8707:8711   */\n      0x20\n        /* \"--CODEGEN--\":8700:8705   */\n      dup7\n        /* \"--CODEGEN--\":8696:8712   */\n      add\n        /* \"--CODEGEN--\":8674:8726   */\n      jump(tag_342)\n    tag_349:\n        /* \"--CODEGEN--\":8738:8754   */\n      swap3\n      swap1\n      swap3\n      add\n      swap3\n        /* \"--CODEGEN--\":8511:8759   */\n      swap2\n      pop\n      pop\n      jump\n        /* \"--CODEGEN--\":8766:8968   */\n    tag_350:\n        /* \"--CODEGEN--\":8887:8962   */\n      tag_314\n        /* \"--CODEGEN--\":8956:8961   */\n      dup2\n        /* \"--CODEGEN--\":8887:8962   */\n      jump(tag_352)\n        /* \"--CODEGEN--\":8975:9117   */\n    tag_353:\n        /* \"--CODEGEN--\":9066:9111   */\n      tag_314\n        /* \"--CODEGEN--\":9105:9110   */\n      dup2\n        /* \"--CODEGEN--\":9066:9111   */\n      jump(tag_355)\n        /* \"--CODEGEN--\":9125:9439   */\n    tag_356:\n      0x00\n        /* \"--CODEGEN--\":9285:9352   */\n      tag_357\n        /* \"--CODEGEN--\":9349:9351   */\n      0x0e\n        /* \"--CODEGEN--\":9344:9347   */\n      dup4\n        /* \"--CODEGEN--\":9285:9352   */\n      jump(tag_327)\n    tag_357:\n      shl(0x92, 0x111a59081b9bdd081c1c9bd99a5d)\n        /* \"--CODEGEN--\":9365:9402   */\n      dup2\n      mstore\n        /* \"--CODEGEN--\":9430:9432   */\n      0x20\n        /* \"--CODEGEN--\":9421:9433   */\n      add\n      swap3\n        /* \"--CODEGEN--\":9271:9439   */\n      swap2\n      pop\n      pop\n      jump\n        /* \"--CODEGEN--\":9448:9775   */\n    tag_359:\n      0x00\n        /* \"--CODEGEN--\":9608:9675   */\n      tag_360\n        /* \"--CODEGEN--\":9672:9674   */\n      0x1b\n        /* \"--CODEGEN--\":9667:9670   */\n      dup4\n        /* \"--CODEGEN--\":9608:9675   */\n      jump(tag_327)\n    tag_360:\n        /* \"--CODEGEN--\":9708:9737   */\n      0x536166654d6174683a206164646974696f6e206f766572666c6f770000000000\n        /* \"--CODEGEN--\":9688:9738   */\n      dup2\n      mstore\n        /* \"--CODEGEN--\":9766:9768   */\n      0x20\n        /* \"--CODEGEN--\":9757:9769   */\n      add\n      swap3\n        /* \"--CODEGEN--\":9594:9775   */\n      swap2\n      pop\n      pop\n      jump\n        /* \"--CODEGEN--\":9784:10116   */\n    tag_361:\n      0x00\n        /* \"--CODEGEN--\":9944:10011   */\n      tag_362\n        /* \"--CODEGEN--\":10008:10010   */\n      0x20\n        /* \"--CODEGEN--\":10003:10006   */\n      dup4\n        /* \"--CODEGEN--\":9944:10011   */\n      jump(tag_327)\n    tag_362:\n        /* \"--CODEGEN--\":10044:10078   */\n      0x5361666545524332303a206c6f772d6c6576656c2063616c6c206661696c6564\n        /* \"--CODEGEN--\":10024:10079   */\n      dup2\n      mstore\n        /* \"--CODEGEN--\":10107:10109   */\n      0x20\n        /* \"--CODEGEN--\":10098:10110   */\n      add\n      swap3\n        /* \"--CODEGEN--\":9930:10116   */\n      swap2\n      pop\n      pop\n      jump\n        /* \"--CODEGEN--\":10125:10508   */\n    tag_363:\n      0x00\n        /* \"--CODEGEN--\":10285:10352   */\n      tag_364\n        /* \"--CODEGEN--\":10349:10351   */\n      0x2e\n        /* \"--CODEGEN--\":10344:10347   */\n      dup4\n        /* \"--CODEGEN--\":10285:10352   */\n      jump(tag_327)\n    tag_364:\n        /* \"--CODEGEN--\":10385:10419   */\n      0x496e76616c69642062616c616e63652c207761732074686520666c6173684c6f\n        /* \"--CODEGEN--\":10365:10420   */\n      dup2\n      mstore\n      shl(0x90, 0x616e207375636365737366756c3f)\n        /* \"--CODEGEN--\":10449:10451   */\n      0x20\n        /* \"--CODEGEN--\":10440:10452   */\n      dup3\n      add\n        /* \"--CODEGEN--\":10433:10471   */\n      mstore\n        /* \"--CODEGEN--\":10499:10501   */\n      0x40\n        /* \"--CODEGEN--\":10490:10502   */\n      add\n      swap3\n        /* \"--CODEGEN--\":10271:10508   */\n      swap2\n      pop\n      pop\n      jump\n        /* \"--CODEGEN--\":10517:10813   */\n    tag_365:\n      0x00\n        /* \"--CODEGEN--\":10694:10777   */\n      tag_111\n        /* \"--CODEGEN--\":10775:10776   */\n      0x00\n        /* \"--CODEGEN--\":10770:10773   */\n      dup4\n        /* \"--CODEGEN--\":10694:10777   */\n      jump(tag_348)\n        /* \"--CODEGEN--\":10822:11130   */\n    tag_367:\n      0x00\n        /* \"--CODEGEN--\":10982:11048   */\n      tag_368\n        /* \"--CODEGEN--\":11046:11047   */\n      0x09\n        /* \"--CODEGEN--\":11041:11044   */\n      dup4\n        /* \"--CODEGEN--\":10982:11048   */\n      jump(tag_327)\n    tag_368:\n      shl(0xbd, 0x037379036b7b732bc9)\n        /* \"--CODEGEN--\":11061:11093   */\n      dup2\n      mstore\n        /* \"--CODEGEN--\":11121:11123   */\n      0x20\n        /* \"--CODEGEN--\":11112:11124   */\n      add\n      swap3\n        /* \"--CODEGEN--\":10968:11130   */\n      swap2\n      pop\n      pop\n      jump\n        /* \"--CODEGEN--\":11139:11518   */\n    tag_369:\n      0x00\n        /* \"--CODEGEN--\":11299:11366   */\n      tag_370\n        /* \"--CODEGEN--\":11363:11365   */\n      0x2a\n        /* \"--CODEGEN--\":11358:11361   */\n      dup4\n        /* \"--CODEGEN--\":11299:11366   */\n      jump(tag_327)\n    tag_370:\n        /* \"--CODEGEN--\":11399:11433   */\n      0x5361666545524332303a204552433230206f7065726174696f6e20646964206e\n        /* \"--CODEGEN--\":11379:11434   */\n      dup2\n      mstore\n      shl(0xb2, 0x1bdd081cdd58d8d95959)\n        /* \"--CODEGEN--\":11463:11465   */\n      0x20\n        /* \"--CODEGEN--\":11454:11466   */\n      dup3\n      add\n        /* \"--CODEGEN--\":11447:11481   */\n      mstore\n        /* \"--CODEGEN--\":11509:11511   */\n      0x40\n        /* \"--CODEGEN--\":11500:11512   */\n      add\n      swap3\n        /* \"--CODEGEN--\":11285:11518   */\n      swap2\n      pop\n      pop\n      jump\n        /* \"--CODEGEN--\":11527:11859   */\n    tag_371:\n      0x00\n        /* \"--CODEGEN--\":11687:11754   */\n      tag_372\n        /* \"--CODEGEN--\":11751:11753   */\n      0x20\n        /* \"--CODEGEN--\":11746:11749   */\n      dup4\n        /* \"--CODEGEN--\":11687:11754   */\n      jump(tag_327)\n    tag_372:\n        /* \"--CODEGEN--\":11787:11821   */\n      0x436f756c64206e6f7420617070726f76652073656c6c206f6620746f6b656e30\n        /* \"--CODEGEN--\":11767:11822   */\n      dup2\n      mstore\n        /* \"--CODEGEN--\":11850:11852   */\n      0x20\n        /* \"--CODEGEN--\":11841:11853   */\n      add\n      swap3\n        /* \"--CODEGEN--\":11673:11859   */\n      swap2\n      pop\n      pop\n      jump\n        /* \"--CODEGEN--\":11868:12199   */\n    tag_373:\n      0x00\n        /* \"--CODEGEN--\":12028:12095   */\n      tag_374\n        /* \"--CODEGEN--\":12092:12094   */\n      0x1f\n        /* \"--CODEGEN--\":12087:12090   */\n      dup4\n        /* \"--CODEGEN--\":12028:12095   */\n      jump(tag_327)\n    tag_374:\n        /* \"--CODEGEN--\":12128:12161   */\n      0x5361666545524332303a2063616c6c20746f206e6f6e2d636f6e747261637400\n        /* \"--CODEGEN--\":12108:12162   */\n      dup2\n      mstore\n        /* \"--CODEGEN--\":12190:12192   */\n      0x20\n        /* \"--CODEGEN--\":12181:12193   */\n      add\n      swap3\n        /* \"--CODEGEN--\":12014:12199   */\n      swap2\n      pop\n      pop\n      jump\n        /* \"--CODEGEN--\":12207:12320   */\n    tag_375:\n        /* \"--CODEGEN--\":12290:12314   */\n      tag_314\n        /* \"--CODEGEN--\":12308:12313   */\n      dup2\n        /* \"--CODEGEN--\":12290:12314   */\n      jump(tag_223)\n        /* \"--CODEGEN--\":12327:12589   */\n    tag_197:\n      0x00\n        /* \"--CODEGEN--\":12471:12564   */\n      tag_378\n        /* \"--CODEGEN--\":12560:12563   */\n      dup3\n        /* \"--CODEGEN--\":12551:12557   */\n      dup5\n        /* \"--CODEGEN--\":12471:12564   */\n      jump(tag_345)\n    tag_378:\n        /* \"--CODEGEN--\":12464:12564   */\n      swap4\n        /* \"--CODEGEN--\":12452:12589   */\n      swap3\n      pop\n      pop\n      pop\n      jump\n        /* \"--CODEGEN--\":12596:12966   */\n    tag_123:\n      0x00\n        /* \"--CODEGEN--\":12794:12941   */\n      tag_111\n        /* \"--CODEGEN--\":12937:12940   */\n      dup3\n        /* \"--CODEGEN--\":12794:12941   */\n      jump(tag_365)\n        /* \"--CODEGEN--\":12973:13186   */\n    tag_24:\n        /* \"--CODEGEN--\":13091:13093   */\n      0x20\n        /* \"--CODEGEN--\":13076:13094   */\n      dup2\n      add\n        /* \"--CODEGEN--\":13105:13176   */\n      tag_111\n        /* \"--CODEGEN--\":13080:13089   */\n      dup3\n        /* \"--CODEGEN--\":13149:13155   */\n      dup5\n        /* \"--CODEGEN--\":13105:13176   */\n      jump(tag_316)\n        /* \"--CODEGEN--\":13445:13785   */\n    tag_127:\n        /* \"--CODEGEN--\":13599:13601   */\n      0x40\n        /* \"--CODEGEN--\":13584:13602   */\n      dup2\n      add\n        /* \"--CODEGEN--\":13613:13692   */\n      tag_382\n        /* \"--CODEGEN--\":13588:13597   */\n      dup3\n        /* \"--CODEGEN--\":13665:13671   */\n      dup6\n        /* \"--CODEGEN--\":13613:13692   */\n      jump(tag_313)\n    tag_382:\n        /* \"--CODEGEN--\":13703:13775   */\n      tag_378\n        /* \"--CODEGEN--\":13771:13773   */\n      0x20\n        /* \"--CODEGEN--\":13760:13769   */\n      dup4\n        /* \"--CODEGEN--\":13756:13774   */\n      add\n        /* \"--CODEGEN--\":13747:13753   */\n      dup5\n        /* \"--CODEGEN--\":13703:13775   */\n      jump(tag_375)\n        /* \"--CODEGEN--\":13792:14423   */\n    tag_73:\n        /* \"--CODEGEN--\":14012:14015   */\n      0x80\n        /* \"--CODEGEN--\":13997:14016   */\n      dup2\n      add\n        /* \"--CODEGEN--\":14027:14098   */\n      tag_384\n        /* \"--CODEGEN--\":14001:14010   */\n      dup3\n        /* \"--CODEGEN--\":14071:14077   */\n      dup8\n        /* \"--CODEGEN--\":14027:14098   */\n      jump(tag_316)\n    tag_384:\n        /* \"--CODEGEN--\":14109:14181   */\n      tag_385\n        /* \"--CODEGEN--\":14177:14179   */\n      0x20\n        /* \"--CODEGEN--\":14166:14175   */\n      dup4\n        /* \"--CODEGEN--\":14162:14180   */\n      add\n        /* \"--CODEGEN--\":14153:14159   */\n      dup7\n        /* \"--CODEGEN--\":14109:14181   */\n      jump(tag_316)\n    tag_385:\n        /* \"--CODEGEN--\":14192:14264   */\n      tag_386\n        /* \"--CODEGEN--\":14260:14262   */\n      0x40\n        /* \"--CODEGEN--\":14249:14258   */\n      dup4\n        /* \"--CODEGEN--\":14245:14263   */\n      add\n        /* \"--CODEGEN--\":14236:14242   */\n      dup6\n        /* \"--CODEGEN--\":14192:14264   */\n      jump(tag_375)\n    tag_386:\n        /* \"--CODEGEN--\":14312:14321   */\n      dup2\n        /* \"--CODEGEN--\":14306:14310   */\n      dup2\n        /* \"--CODEGEN--\":14302:14322   */\n      sub\n        /* \"--CODEGEN--\":14297:14299   */\n      0x60\n        /* \"--CODEGEN--\":14286:14295   */\n      dup4\n        /* \"--CODEGEN--\":14282:14300   */\n      add\n        /* \"--CODEGEN--\":14275:14323   */\n      mstore\n        /* \"--CODEGEN--\":14337:14413   */\n      tag_387\n        /* \"--CODEGEN--\":14408:14412   */\n      dup2\n        /* \"--CODEGEN--\":14399:14405   */\n      dup5\n        /* \"--CODEGEN--\":14337:14413   */\n      jump(tag_336)\n    tag_387:\n        /* \"--CODEGEN--\":14329:14413   */\n      swap7\n        /* \"--CODEGEN--\":13983:14423   */\n      swap6\n      pop\n      pop\n      pop\n      pop\n      pop\n      pop\n      jump\n        /* \"--CODEGEN--\":14430:14754   */\n    tag_145:\n        /* \"--CODEGEN--\":14576:14578   */\n      0x40\n        /* \"--CODEGEN--\":14561:14579   */\n      dup2\n      add\n        /* \"--CODEGEN--\":14590:14661   */\n      tag_382\n        /* \"--CODEGEN--\":14565:14574   */\n      dup3\n        /* \"--CODEGEN--\":14634:14640   */\n      dup6\n        /* \"--CODEGEN--\":14590:14661   */\n      jump(tag_316)\n        /* \"--CODEGEN--\":14761:15050   */\n    tag_34:\n        /* \"--CODEGEN--\":14917:14919   */\n      0x20\n        /* \"--CODEGEN--\":14902:14920   */\n      dup2\n      add\n        /* \"--CODEGEN--\":14931:15040   */\n      tag_111\n        /* \"--CODEGEN--\":14906:14915   */\n      dup3\n        /* \"--CODEGEN--\":15013:15019   */\n      dup5\n        /* \"--CODEGEN--\":14931:15040   */\n      jump(tag_350)\n        /* \"--CODEGEN--\":15057:15464   */\n    tag_105:\n        /* \"--CODEGEN--\":15248:15250   */\n      0x20\n        /* \"--CODEGEN--\":15262:15309   */\n      dup1\n      dup3\n      mstore\n        /* \"--CODEGEN--\":15233:15251   */\n      dup2\n      add\n        /* \"--CODEGEN--\":15323:15454   */\n      tag_111\n        /* \"--CODEGEN--\":15233:15251   */\n      dup2\n        /* \"--CODEGEN--\":15323:15454   */\n      jump(tag_356)\n        /* \"--CODEGEN--\":15471:15878   */\n    tag_172:\n        /* \"--CODEGEN--\":15662:15664   */\n      0x20\n        /* \"--CODEGEN--\":15676:15723   */\n      dup1\n      dup3\n      mstore\n        /* \"--CODEGEN--\":15647:15665   */\n      dup2\n      add\n        /* \"--CODEGEN--\":15737:15868   */\n      tag_111\n        /* \"--CODEGEN--\":15647:15665   */\n      dup2\n        /* \"--CODEGEN--\":15737:15868   */\n      jump(tag_359)\n        /* \"--CODEGEN--\":15885:16292   */\n    tag_202:\n        /* \"--CODEGEN--\":16076:16078   */\n      0x20\n        /* \"--CODEGEN--\":16090:16137   */\n      dup1\n      dup3\n      mstore\n        /* \"--CODEGEN--\":16061:16079   */\n      dup2\n      add\n        /* \"--CODEGEN--\":16151:16282   */\n      tag_111\n        /* \"--CODEGEN--\":16061:16079   */\n      dup2\n        /* \"--CODEGEN--\":16151:16282   */\n      jump(tag_361)\n        /* \"--CODEGEN--\":16299:16706   */\n    tag_86:\n        /* \"--CODEGEN--\":16490:16492   */\n      0x20\n        /* \"--CODEGEN--\":16504:16551   */\n      dup1\n      dup3\n      mstore\n        /* \"--CODEGEN--\":16475:16493   */\n      dup2\n      add\n        /* \"--CODEGEN--\":16565:16696   */\n      tag_111\n        /* \"--CODEGEN--\":16475:16493   */\n      dup2\n        /* \"--CODEGEN--\":16565:16696   */\n      jump(tag_363)\n        /* \"--CODEGEN--\":16713:17120   */\n    tag_121:\n        /* \"--CODEGEN--\":16904:16906   */\n      0x20\n        /* \"--CODEGEN--\":16918:16965   */\n      dup1\n      dup3\n      mstore\n        /* \"--CODEGEN--\":16889:16907   */\n      dup2\n      add\n        /* \"--CODEGEN--\":16979:17110   */\n      tag_111\n        /* \"--CODEGEN--\":16889:16907   */\n      dup2\n        /* \"--CODEGEN--\":16979:17110   */\n      jump(tag_367)\n        /* \"--CODEGEN--\":17127:17534   */\n    tag_207:\n        /* \"--CODEGEN--\":17318:17320   */\n      0x20\n        /* \"--CODEGEN--\":17332:17379   */\n      dup1\n      dup3\n      mstore\n        /* \"--CODEGEN--\":17303:17321   */\n      dup2\n      add\n        /* \"--CODEGEN--\":17393:17524   */\n      tag_111\n        /* \"--CODEGEN--\":17303:17321   */\n      dup2\n        /* \"--CODEGEN--\":17393:17524   */\n      jump(tag_369)\n        /* \"--CODEGEN--\":17541:17948   */\n    tag_151:\n        /* \"--CODEGEN--\":17732:17734   */\n      0x20\n        /* \"--CODEGEN--\":17746:17793   */\n      dup1\n      dup3\n      mstore\n        /* \"--CODEGEN--\":17717:17735   */\n      dup2\n      add\n        /* \"--CODEGEN--\":17807:17938   */\n      tag_111\n        /* \"--CODEGEN--\":17717:17735   */\n      dup2\n        /* \"--CODEGEN--\":17807:17938   */\n      jump(tag_371)\n        /* \"--CODEGEN--\":17955:18362   */\n    tag_195:\n        /* \"--CODEGEN--\":18146:18148   */\n      0x20\n        /* \"--CODEGEN--\":18160:18207   */\n      dup1\n      dup3\n      mstore\n        /* \"--CODEGEN--\":18131:18149   */\n      dup2\n      add\n        /* \"--CODEGEN--\":18221:18352   */\n      tag_111\n        /* \"--CODEGEN--\":18131:18149   */\n      dup2\n        /* \"--CODEGEN--\":18221:18352   */\n      jump(tag_373)\n        /* \"--CODEGEN--\":18369:18582   */\n    tag_78:\n        /* \"--CODEGEN--\":18487:18489   */\n      0x20\n        /* \"--CODEGEN--\":18472:18490   */\n      dup2\n      add\n        /* \"--CODEGEN--\":18501:18572   */\n      tag_111\n        /* \"--CODEGEN--\":18476:18485   */\n      dup3\n        /* \"--CODEGEN--\":18545:18551   */\n      dup5\n        /* \"--CODEGEN--\":18501:18572   */\n      jump(tag_375)\n        /* \"--CODEGEN--\":18589:19428   */\n    tag_163:\n        /* \"--CODEGEN--\":18885:18888   */\n      0xa0\n        /* \"--CODEGEN--\":18870:18889   */\n      dup2\n      add\n        /* \"--CODEGEN--\":18900:18971   */\n      tag_400\n        /* \"--CODEGEN--\":18874:18883   */\n      dup3\n        /* \"--CODEGEN--\":18944:18950   */\n      dup9\n        /* \"--CODEGEN--\":18900:18971   */\n      jump(tag_375)\n    tag_400:\n        /* \"--CODEGEN--\":18982:19062   */\n      tag_401\n        /* \"--CODEGEN--\":19058:19060   */\n      0x20\n        /* \"--CODEGEN--\":19047:19056   */\n      dup4\n        /* \"--CODEGEN--\":19043:19061   */\n      add\n        /* \"--CODEGEN--\":19034:19040   */\n      dup8\n        /* \"--CODEGEN--\":18982:19062   */\n      jump(tag_353)\n    tag_401:\n        /* \"--CODEGEN--\":19110:19119   */\n      dup2\n        /* \"--CODEGEN--\":19104:19108   */\n      dup2\n        /* \"--CODEGEN--\":19100:19120   */\n      sub\n        /* \"--CODEGEN--\":19095:19097   */\n      0x40\n        /* \"--CODEGEN--\":19084:19093   */\n      dup4\n        /* \"--CODEGEN--\":19080:19098   */\n      add\n        /* \"--CODEGEN--\":19073:19121   */\n      mstore\n        /* \"--CODEGEN--\":19135:19243   */\n      tag_402\n        /* \"--CODEGEN--\":19238:19242   */\n      dup2\n        /* \"--CODEGEN--\":19229:19235   */\n      dup7\n        /* \"--CODEGEN--\":19135:19243   */\n      jump(tag_323)\n    tag_402:\n        /* \"--CODEGEN--\":19127:19243   */\n      swap1\n      pop\n        /* \"--CODEGEN--\":19254:19334   */\n      tag_403\n        /* \"--CODEGEN--\":19330:19332   */\n      0x60\n        /* \"--CODEGEN--\":19319:19328   */\n      dup4\n        /* \"--CODEGEN--\":19315:19333   */\n      add\n        /* \"--CODEGEN--\":19306:19312   */\n      dup6\n        /* \"--CODEGEN--\":19254:19334   */\n      jump(tag_313)\n    tag_403:\n        /* \"--CODEGEN--\":19345:19418   */\n      tag_387\n        /* \"--CODEGEN--\":19413:19416   */\n      0x80\n        /* \"--CODEGEN--\":19402:19411   */\n      dup4\n        /* \"--CODEGEN--\":19398:19417   */\n      add\n        /* \"--CODEGEN--\":19389:19395   */\n      dup5\n        /* \"--CODEGEN--\":19345:19418   */\n      jump(tag_375)\n        /* \"--CODEGEN--\":19435:19691   */\n    tag_248:\n        /* \"--CODEGEN--\":19497:19499   */\n      0x40\n        /* \"--CODEGEN--\":19491:19500   */\n      mload\n        /* \"--CODEGEN--\":19523:19540   */\n      dup2\n      dup2\n      add\n        /* \"--CODEGEN--\":19598:19616   */\n      0xffffffffffffffff\n        /* \"--CODEGEN--\":19583:19617   */\n      dup2\n      gt\n        /* \"--CODEGEN--\":19619:19641   */\n      dup3\n      dup3\n      lt\n        /* \"--CODEGEN--\":19580:19642   */\n      or\n        /* \"--CODEGEN--\":19577:19579   */\n      iszero\n      tag_405\n      jumpi\n        /* \"--CODEGEN--\":19655:19656   */\n      0x00\n        /* \"--CODEGEN--\":19652:19653   */\n      dup1\n        /* \"--CODEGEN--\":19645:19657   */\n      revert\n        /* \"--CODEGEN--\":19577:19579   */\n    tag_405:\n        /* \"--CODEGEN--\":19671:19673   */\n      0x40\n        /* \"--CODEGEN--\":19664:19686   */\n      mstore\n        /* \"--CODEGEN--\":19475:19691   */\n      swap2\n      swap1\n      pop\n      jump\n        /* \"--CODEGEN--\":19698:20007   */\n    tag_247:\n      0x00\n        /* \"--CODEGEN--\":19862:19880   */\n      0xffffffffffffffff\n        /* \"--CODEGEN--\":19854:19860   */\n      dup3\n        /* \"--CODEGEN--\":19851:19881   */\n      gt\n        /* \"--CODEGEN--\":19848:19850   */\n      iszero\n      tag_406\n      jumpi\n        /* \"--CODEGEN--\":19894:19895   */\n      0x00\n        /* \"--CODEGEN--\":19891:19892   */\n      dup1\n        /* \"--CODEGEN--\":19884:19896   */\n      revert\n        /* \"--CODEGEN--\":19848:19850   */\n    tag_406:\n      pop\n        /* \"--CODEGEN--\":19929:19933   */\n      0x20\n        /* \"--CODEGEN--\":19917:19934   */\n      swap1\n      dup2\n      mul\n        /* \"--CODEGEN--\":19982:19997   */\n      add\n      swap1\n        /* \"--CODEGEN--\":19785:20007   */\n      jump\n        /* \"--CODEGEN--\":20325:20642   */\n    tag_275:\n      0x00\n        /* \"--CODEGEN--\":20464:20482   */\n      0xffffffffffffffff\n        /* \"--CODEGEN--\":20456:20462   */\n      dup3\n        /* \"--CODEGEN--\":20453:20483   */\n      gt\n        /* \"--CODEGEN--\":20450:20452   */\n      iszero\n      tag_408\n      jumpi\n        /* \"--CODEGEN--\":20496:20497   */\n      0x00\n        /* \"--CODEGEN--\":20493:20494   */\n      dup1\n        /* \"--CODEGEN--\":20486:20498   */\n      revert\n        /* \"--CODEGEN--\":20450:20452   */\n    tag_408:\n      pop\n        /* \"--CODEGEN--\":20627:20631   */\n      0x20\n        /* \"--CODEGEN--\":20563:20567   */\n      0x1f\n        /* \"--CODEGEN--\":20540:20557   */\n      swap2\n      swap1\n      swap2\n      add\n      not(0x1f)\n        /* \"--CODEGEN--\":20536:20569   */\n      and\n        /* \"--CODEGEN--\":20617:20632   */\n      add\n      swap1\n        /* \"--CODEGEN--\":20387:20642   */\n      jump\n        /* \"--CODEGEN--\":20649:20800   */\n    tag_329:\n        /* \"--CODEGEN--\":20773:20777   */\n      0x20\n        /* \"--CODEGEN--\":20764:20778   */\n      add\n      swap1\n        /* \"--CODEGEN--\":20721:20800   */\n      jump\n        /* \"--CODEGEN--\":20807:20944   */\n    tag_325:\n        /* \"--CODEGEN--\":20910:20922   */\n      mload\n      swap1\n        /* \"--CODEGEN--\":20881:20944   */\n      jump\n        /* \"--CODEGEN--\":21195:21373   */\n    tag_327:\n        /* \"--CODEGEN--\":21313:21332   */\n      swap1\n      dup2\n      mstore\n        /* \"--CODEGEN--\":21362:21366   */\n      0x20\n        /* \"--CODEGEN--\":21353:21367   */\n      add\n      swap1\n        /* \"--CODEGEN--\":21306:21373   */\n      jump\n        /* \"--CODEGEN--\":21553:21697   */\n    tag_348:\n        /* \"--CODEGEN--\":21688:21691   */\n      swap2\n        /* \"--CODEGEN--\":21666:21697   */\n      swap1\n      pop\n      jump\n        /* \"--CODEGEN--\":21877:21968   */\n    tag_320:\n      0x00\n        /* \"--CODEGEN--\":21939:21963   */\n      tag_111\n        /* \"--CODEGEN--\":21957:21962   */\n      dup3\n        /* \"--CODEGEN--\":21939:21963   */\n      jump(tag_410)\n        /* \"--CODEGEN--\":22081:22166   */\n    tag_412:\n        /* \"--CODEGEN--\":22147:22160   */\n      iszero\n        /* \"--CODEGEN--\":22140:22161   */\n      iszero\n      swap1\n        /* \"--CODEGEN--\":22123:22166   */\n      jump\n        /* \"--CODEGEN--\":22173:22294   */\n    tag_410:\n      sub(shl(0xa0, 0x01), 0x01)\n        /* \"--CODEGEN--\":22235:22289   */\n      and\n      swap1\n        /* \"--CODEGEN--\":22218:22294   */\n      jump\n        /* \"--CODEGEN--\":22380:22509   */\n    tag_315:\n      0x00\n        /* \"--CODEGEN--\":22467:22504   */\n      tag_111\n        /* \"--CODEGEN--\":22498:22503   */\n      dup3\n        /* \"--CODEGEN--\":22516:22713   */\n    tag_352:\n      0x00\n        /* \"--CODEGEN--\":22633:22708   */\n      tag_111\n        /* \"--CODEGEN--\":22702:22707   */\n      dup3\n        /* \"--CODEGEN--\":22633:22708   */\n      jump(tag_320)\n        /* \"--CODEGEN--\":22873:22989   */\n    tag_355:\n      0x00\n        /* \"--CODEGEN--\":22960:22984   */\n      tag_111\n        /* \"--CODEGEN--\":22978:22983   */\n      dup3\n        /* \"--CODEGEN--\":22960:22984   */\n      jump(tag_223)\n        /* \"--CODEGEN--\":23240:23385   */\n    tag_278:\n        /* \"--CODEGEN--\":23321:23327   */\n      dup3\n        /* \"--CODEGEN--\":23316:23319   */\n      dup2\n        /* \"--CODEGEN--\":23311:23314   */\n      dup4\n        /* \"--CODEGEN--\":23298:23328   */\n      calldatacopy\n      pop\n        /* \"--CODEGEN--\":23377:23378   */\n      0x00\n        /* \"--CODEGEN--\":23359:23375   */\n      swap2\n      add\n        /* \"--CODEGEN--\":23352:23379   */\n      mstore\n        /* \"--CODEGEN--\":23291:23385   */\n      jump\n        /* \"--CODEGEN--\":23394:23662   */\n    tag_342:\n        /* \"--CODEGEN--\":23459:23460   */\n      0x00\n        /* \"--CODEGEN--\":23466:23567   */\n    tag_422:\n        /* \"--CODEGEN--\":23480:23486   */\n      dup4\n        /* \"--CODEGEN--\":23477:23478   */\n      dup2\n        /* \"--CODEGEN--\":23474:23487   */\n      lt\n        /* \"--CODEGEN--\":23466:23567   */\n      iszero\n      tag_424\n      jumpi\n        /* \"--CODEGEN--\":23547:23558   */\n      dup2\n      dup2\n      add\n        /* \"--CODEGEN--\":23541:23559   */\n      mload\n        /* \"--CODEGEN--\":23528:23539   */\n      dup4\n      dup3\n      add\n        /* \"--CODEGEN--\":23521:23560   */\n      mstore\n        /* \"--CODEGEN--\":23502:23504   */\n      0x20\n        /* \"--CODEGEN--\":23495:23505   */\n      add\n        /* \"--CODEGEN--\":23466:23567   */\n      jump(tag_422)\n    tag_424:\n        /* \"--CODEGEN--\":23582:23588   */\n      dup4\n        /* \"--CODEGEN--\":23579:23580   */\n      dup2\n        /* \"--CODEGEN--\":23576:23589   */\n      gt\n        /* \"--CODEGEN--\":23573:23575   */\n      iszero\n      tag_205\n      jumpi\n      pop\n      pop\n        /* \"--CODEGEN--\":23647:23648   */\n      0x00\n        /* \"--CODEGEN--\":23629:23645   */\n      swap2\n      add\n        /* \"--CODEGEN--\":23622:23649   */\n      mstore\n        /* \"--CODEGEN--\":23443:23662   */\n      jump\n        /* \"--CODEGEN--\":23670:23767   */\n    tag_344:\n        /* \"--CODEGEN--\":23758:23760   */\n      0x1f\n        /* \"--CODEGEN--\":23738:23752   */\n      add\n      not(0x1f)\n        /* \"--CODEGEN--\":23734:23762   */\n      and\n      swap1\n        /* \"--CODEGEN--\":23718:23767   */\n      jump\n        /* \"--CODEGEN--\":23775:23892   */\n    tag_237:\n        /* \"--CODEGEN--\":23844:23868   */\n      tag_426\n        /* \"--CODEGEN--\":23862:23867   */\n      dup2\n        /* \"--CODEGEN--\":23844:23868   */\n      jump(tag_320)\n    tag_426:\n        /* \"--CODEGEN--\":23837:23842   */\n      dup2\n        /* \"--CODEGEN--\":23834:23869   */\n      eq\n        /* \"--CODEGEN--\":23824:23826   */\n      tag_233\n      jumpi\n        /* \"--CODEGEN--\":23883:23884   */\n      0x00\n        /* \"--CODEGEN--\":23880:23881   */\n      dup1\n        /* \"--CODEGEN--\":23873:23885   */\n      revert\n        /* \"--CODEGEN--\":24039:24150   */\n    tag_267:\n        /* \"--CODEGEN--\":24105:24126   */\n      tag_426\n        /* \"--CODEGEN--\":24120:24125   */\n      dup2\n        /* \"--CODEGEN--\":24105:24126   */\n      jump(tag_412)\n        /* \"--CODEGEN--\":24157:24274   */\n    tag_281:\n        /* \"--CODEGEN--\":24226:24250   */\n      tag_426\n        /* \"--CODEGEN--\":24244:24249   */\n      dup2\n        /* \"--CODEGEN--\":24226:24250   */\n      jump(tag_223)\n\n    auxdata: 0xa365627a7a723158201a4d3302b4bb7819a8cba869ad54dc15b93540d6f32a8bcd15b31a090c42f0376c6578706572696d656e74616cf564736f6c63430005110040\n}\n",
				"bytecode": {
					"linkReferences": {},
					"object": "6080604052600080546001600160a01b031990811673cc0479a98cc66e85806d0cd7970d6e07f77fd63317909155600180548216301790556004805490911673bb4cdb9cbd36b01bd1cbaebf2de08d9173bc095c17905534801561006257600080fd5b50600280546001600160a01b03191633179055611944806100846000396000f3fe6080604052600436106100915760003560e01c8063cd3293de11610059578063cd3293de14610135578063ebca64801461014a578063ee8725581461015d578063f7260d3e1461017d578063f8a4b3fa1461019257610091565b8063441b1d301461009357806370de629f146100b35780638da5cb5b146100de578063c72c4d10146100f3578063c734aa0614610115575b005b34801561009f57600080fd5b506100916100ae366004611301565b6101b2565b3480156100bf57600080fd5b506100c86101f0565b6040516100d59190611678565b60405180910390f35b3480156100ea57600080fd5b506100c8610208565b3480156100ff57600080fd5b50610108610217565b6040516100d591906116f3565b34801561012157600080fd5b5061009161013036600461124a565b610226565b34801561014157600080fd5b506100c86103b5565b610091610158366004611301565b6103c4565b34801561016957600080fd5b506100916101783660046111cc565b610428565b34801561018957600080fd5b506100c86105e3565b34801561019e57600080fd5b506100916101ad36600461133d565b6105f2565b6002546040516001600160a01b039091169082156108fc029083906000818181858888f193505050501580156101ec573d6000803e3d6000fd5b5050565b73eeeeeeeeeeeeeeeeeeeeeeeeeeeeeeeeeeeeeeee81565b6002546001600160a01b031681565b6000546001600160a01b031681565b8251610239906005906020860190610ea5565b506001600160a01b03821673bb4cdb9cbd36b01bd1cbaebf2de08d9173bc095c141561028a57600380546001600160a01b03191673eeeeeeeeeeeeeeeeeeeeeeeeeeeeeeeeeeeeeeee1790556102a6565b600380546001600160a01b0319166001600160a01b0384161790555b60008060009054906101000a90046001600160a01b03166001600160a01b0316630261bf8b6040518163ffffffff1660e01b815260040160206040518083038186803b1580156102f557600080fd5b505afa158015610309573d6000803e3d6000fd5b505050506040513d601f19601f8201168201806040525061032d91908101906111ae565b60408051602081018252600081526001546003549251632e7ff4ef60e11b815293945090926001600160a01b0380861693635cffe9de9361037c939083169290911690889087906004016116a1565b600060405180830381600087803b15801561039657600080fd5b505af11580156103aa573d6000803e3d6000fd5b505050505050505050565b6003546001600160a01b031681565b60048054604051632e1a7d4d60e01b81526001600160a01b0390911691632e1a7d4d916103f391859101611781565b600060405180830381600087803b15801561040d57600080fd5b505af1158015610421573d6000803e3d6000fd5b5050505050565b6104323086610612565b84111561045a5760405162461bcd60e51b815260040161045190611731565b60405180910390fd5b6003546001600160a01b031673eeeeeeeeeeeeeeeeeeeeeeeeeeeeeeeeeeeeeeee141561048a5761048a846106cf565b6105636005805480602002602001604051908101604052809291908181526020016000905b8282101561055a5760008481526020908190208301805460408051601f60026000196101006001871615020190941693909304928301859004850281018501909152818152928301828280156105465780601f1061051b57610100808354040283529160200191610546565b820191906000526020600020905b81548152906001019060200180831161052957829003601f168201915b5050505050815260200190600101906104af565b505050506107e8565b61056d3086610612565b506003546001600160a01b031673eeeeeeeeeeeeeeeeeeeeeeeeeeeeeeeeeeeeeeee141561059e5761059e846103c4565b60006105b0858563ffffffff610bc216565b90508085116105d15760405162461bcd60e51b815260040161045190611701565b6105db8682610be7565b505050505050565b6001546001600160a01b031681565b6002546101ec906001600160a01b0383811691168463ffffffff610c8016565b60006001600160a01b03821673eeeeeeeeeeeeeeeeeeeeeeeeeeeeeeeeeeeeeeee141561064a57506001600160a01b038216316106c9565b6040516370a0823160e01b81526001600160a01b038316906370a0823190610676908690600401611678565b60206040518083038186803b15801561068e57600080fd5b505afa1580156106a2573d6000803e3d6000fd5b505050506040513d601f19601f820116820180604052506106c6919081019061131f565b90505b92915050565b600047116106ef5760405162461bcd60e51b815260040161045190611741565b73bb4cdb9cbd36b01bd1cbaebf2de08d9173bc095c6001600160a01b031681624c4b409060405161071f9061166d565b600060405180830381858888f193505050503d806000811461075d576040519150601f19603f3d011682016040523d82523d6000602084013e610762565b606091505b50506004805460405163a9059cbb60e01b81526001600160a01b03909116925063a9059cbb91610796913091869101611686565b602060405180830381600087803b1580156107b057600080fd5b505af11580156107c4573d6000803e3d6000fd5b505050506040513d601f19601f820116820180604052506101ec91908101906112e3565b6000808080805b85518110156105db5785818151811061080457fe5b602002602001015160008151811061081857fe5b602001015160f81c60f81b6001600160f81b03191660601c925085818151811061083e57fe5b602002602001015160018151811061085257fe5b602001015160f81c60f81b6001600160f81b03191660601c6001600160a01b0316915085818151811061088157fe5b602002602001015160028151811061089557fe5b602001015160f81c60f81b6001600160f81b03191660601c94508581815181106108bb57fe5b60200260200101516003815181106108cf57fe5b60209101015160405163095ea7b360e01b815260609190911c60ff60981b1694506001600160a01b0386169063095ea7b39061091190869086906004016116e5565b602060405180830381600087803b15801561092b57600080fd5b505af115801561093f573d6000803e3d6000fd5b505050506040513d601f19601f8201168201806040525061096391908101906112e3565b61097f5760405162461bcd60e51b815260040161045190611761565b60606001600160a01b03861673bb4cdb9cbd36b01bd1cbaebf2de08d9173bc095c14806109c857506001600160a01b03851673bb4cdb9cbd36b01bd1cbaebf2de08d9173bc095c145b15610a4e57604080516002808252606082018352909160208301908038833901905050905085816000815181106109fb57fe5b60200260200101906001600160a01b031690816001600160a01b0316815250508481600181518110610a2957fe5b60200260200101906001600160a01b031690816001600160a01b031681525050610b0e565b6040805160038082526080820190925290602082016060803883390190505090508581600081518110610a7d57fe5b60200260200101906001600160a01b031690816001600160a01b03168152505073bb4cdb9cbd36b01bd1cbaebf2de08d9173bc095c81600181518110610abf57fe5b60200260200101906001600160a01b031690816001600160a01b0316815250508481600281518110610aed57fe5b60200260200101906001600160a01b031690816001600160a01b0316815250505b6040516338ed173960e01b81526060906001600160a01b038616906338ed173990610b4a9087906000908790309061012c42019060040161178f565b600060405180830381600087803b158015610b6457600080fd5b505af1158015610b78573d6000803e3d6000fd5b505050506040513d6000823e601f3d908101601f19168201604052610ba091908101906112ae565b9050600081600181518110610bb157fe5b5050600190930192506107ef915050565b6000828201838110156106c65760405162461bcd60e51b815260040161045190611711565b60008060009054906101000a90046001600160a01b03166001600160a01b031663ed6ff7606040518163ffffffff1660e01b815260040160206040518083038186803b158015610c3657600080fd5b505afa158015610c4a573d6000803e3d6000fd5b505050506040513d601f19601f82011682018060405250610c6e91908101906111ae565b9050610c7b818484610cd9565b505050565b604051610c7b90849063a9059cbb60e01b90610ca290869086906024016116e5565b60408051601f198184030181529190526020810180516001600160e01b03166001600160e01b031990931692909217909152610d7e565b6001600160a01b03821673eeeeeeeeeeeeeeeeeeeeeeeeeeeeeeeeeeeeeeee1415610d6457826001600160a01b03168161c35090604051610d199061166d565b600060405180830381858888f193505050503d8060008114610d57576040519150601f19603f3d011682016040523d82523d6000602084013e610d5c565b606091505b505050610c7b565b610c7b6001600160a01b038316848363ffffffff610c8016565b610d90826001600160a01b0316610e69565b610dac5760405162461bcd60e51b815260040161045190611771565b60006060836001600160a01b031683604051610dc8919061165a565b6000604051808303816000865af19150503d8060008114610e05576040519150601f19603f3d011682016040523d82523d6000602084013e610e0a565b606091505b509150915081610e2c5760405162461bcd60e51b815260040161045190611721565b805115610e635780806020019051610e4791908101906112e3565b610e635760405162461bcd60e51b815260040161045190611751565b50505050565b6000813f7fc5d2460186f7233c927e7db2dcc703c0e500b653ca82273b7bfad8045d85a4708115801590610e9d5750808214155b949350505050565b828054828255906000526020600020908101928215610ef2579160200282015b82811115610ef25782518051610ee2918491602090910190610f02565b5091602001919060010190610ec5565b50610efe929150610f7c565b5090565b828054600181600116156101000203166002900490600052602060002090601f016020900481019282601f10610f4357805160ff1916838001178555610f70565b82800160010185558215610f70579182015b82811115610f70578251825591602001919060010190610f55565b50610efe929150610fa2565b610f9f91905b80821115610efe576000610f968282610fbc565b50600101610f82565b90565b610f9f91905b80821115610efe5760008155600101610fa8565b50805460018160011615610100020316600290046000825580601f10610fe25750611000565b601f0160209004906000526020600020908101906110009190610fa2565b50565b80356106c9816118db565b80516106c9816118db565b600082601f83011261102a57600080fd5b813561103d611038826117ff565b6117d8565b81815260209384019390925082018360005b8381101561107b57813586016110658882611149565b845250602092830192919091019060010161104f565b5050505092915050565b600082601f83011261109657600080fd5b81516110a4611038826117ff565b915081818352602084019350602081019050838560208402820111156110c957600080fd5b60005b8381101561107b57816110df88826111a3565b84525060209283019291909101906001016110cc565b80516106c9816118ef565b60008083601f84011261111257600080fd5b50813567ffffffffffffffff81111561112a57600080fd5b60208301915083600182028301111561114257600080fd5b9250929050565b600082601f83011261115a57600080fd5b813561116861103882611820565b9150808252602083016020830185838301111561118457600080fd5b61118f838284611899565b50505092915050565b80356106c9816118f8565b80516106c9816118f8565b6000602082840312156111c057600080fd5b6000610e9d848461100e565b6000806000806000608086880312156111e457600080fd5b60006111f08888611003565b955050602061120188828901611198565b945050604061121288828901611198565b935050606086013567ffffffffffffffff81111561122f57600080fd5b61123b88828901611100565b92509250509295509295909350565b60008060006060848603121561125f57600080fd5b833567ffffffffffffffff81111561127657600080fd5b61128286828701611019565b935050602061129386828701611003565b92505060406112a486828701611198565b9150509250925092565b6000602082840312156112c057600080fd5b815167ffffffffffffffff8111156112d757600080fd5b610e9d84828501611085565b6000602082840312156112f557600080fd5b6000610e9d84846110f5565b60006020828403121561131357600080fd5b6000610e9d8484611198565b60006020828403121561133157600080fd5b6000610e9d84846111a3565b6000806040838503121561135057600080fd5b600061135c8585611198565b925050602061136d85828601611003565b9150509250929050565b6000611383838361139a565b505060200190565b6113948161187c565b82525050565b61139481611860565b60006113ae8261184e565b6113b88185611852565b93506113c383611848565b8060005b838110156113f15781516113db8882611377565b97506113e683611848565b9250506001016113c7565b509495945050505050565b60006114078261184e565b6114118185611852565b93506114218185602086016118a5565b61142a816118d1565b9093019392505050565b600061143f8261184e565b611449818561185b565b93506114598185602086016118a5565b9290920192915050565b61139481611883565b6113948161188e565b6000611482600e83611852565b6d111a59081b9bdd081c1c9bd99a5d60921b815260200192915050565b60006114ac601b83611852565b7f536166654d6174683a206164646974696f6e206f766572666c6f770000000000815260200192915050565b60006114e5602083611852565b7f5361666545524332303a206c6f772d6c6576656c2063616c6c206661696c6564815260200192915050565b600061151e602e83611852565b7f496e76616c69642062616c616e63652c207761732074686520666c6173684c6f81526d616e207375636365737366756c3f60901b602082015260400192915050565b60006106c960008361185b565b600061157b600983611852565b68037379036b7b732bc960bd1b815260200192915050565b60006115a0602a83611852565b7f5361666545524332303a204552433230206f7065726174696f6e20646964206e8152691bdd081cdd58d8d9595960b21b602082015260400192915050565b60006115ec602083611852565b7f436f756c64206e6f7420617070726f76652073656c6c206f6620746f6b656e30815260200192915050565b6000611625601f83611852565b7f5361666545524332303a2063616c6c20746f206e6f6e2d636f6e747261637400815260200192915050565b61139481610f9f565b60006116668284611434565b9392505050565b60006106c982611561565b602081016106c9828461139a565b60408101611694828561138b565b6116666020830184611651565b608081016116af828761139a565b6116bc602083018661139a565b6116c96040830185611651565b81810360608301526116db81846113fc565b9695505050505050565b60408101611694828561139a565b602081016106c98284611463565b602080825281016106c981611475565b602080825281016106c98161149f565b602080825281016106c9816114d8565b602080825281016106c981611511565b602080825281016106c98161156e565b602080825281016106c981611593565b602080825281016106c9816115df565b602080825281016106c981611618565b602081016106c98284611651565b60a0810161179d8288611651565b6117aa602083018761146c565b81810360408301526117bc81866113a3565b90506117cb606083018561138b565b6116db6080830184611651565b60405181810167ffffffffffffffff811182821017156117f757600080fd5b604052919050565b600067ffffffffffffffff82111561181657600080fd5b5060209081020190565b600067ffffffffffffffff82111561183757600080fd5b506020601f91909101601f19160190565b60200190565b5190565b90815260200190565b919050565b60006106c982611870565b151590565b6001600160a01b031690565b60006106c9825b60006106c982611860565b60006106c982610f9f565b82818337506000910152565b60005b838110156118c05781810151838201526020016118a8565b83811115610e635750506000910152565b601f01601f191690565b6118e481611860565b811461100057600080fd5b6118e48161186b565b6118e481610f9f56fea365627a7a723158201a4d3302b4bb7819a8cba869ad54dc15b93540d6f32a8bcd15b31a090c42f0376c6578706572696d656e74616cf564736f6c63430005110040",
					"opcodes": "PUSH1 0x80 PUSH1 0x40 MSTORE PUSH1 0x0 DUP1 SLOAD PUSH1 0x1 PUSH1 0x1 PUSH1 0xA0 SHL SUB NOT SWAP1 DUP2 AND PUSH20 0xCC0479A98CC66E85806D0CD7970D6E07F77FD633 OR SWAP1 SWAP2 SSTORE PUSH1 0x1 DUP1 SLOAD DUP3 AND ADDRESS OR SWAP1 SSTORE PUSH1 0x4 DUP1 SLOAD SWAP1 SWAP2 AND PUSH20 0xBB4CDB9CBD36B01BD1CBAEBF2DE08D9173BC095C OR SWAP1 SSTORE CALLVALUE DUP1 ISZERO PUSH2 0x62 JUMPI PUSH1 0x0 DUP1 REVERT JUMPDEST POP PUSH1 0x2 DUP1 SLOAD PUSH1 0x1 PUSH1 0x1 PUSH1 0xA0 SHL SUB NOT AND CALLER OR SWAP1 SSTORE PUSH2 0x1944 DUP1 PUSH2 0x84 PUSH1 0x0 CODECOPY PUSH1 0x0 RETURN INVALID PUSH1 0x80 PUSH1 0x40 MSTORE PUSH1 0x4 CALLDATASIZE LT PUSH2 0x91 JUMPI PUSH1 0x0 CALLDATALOAD PUSH1 0xE0 SHR DUP1 PUSH4 0xCD3293DE GT PUSH2 0x59 JUMPI DUP1 PUSH4 0xCD3293DE EQ PUSH2 0x135 JUMPI DUP1 PUSH4 0xEBCA6480 EQ PUSH2 0x14A JUMPI DUP1 PUSH4 0xEE872558 EQ PUSH2 0x15D JUMPI DUP1 PUSH4 0xF7260D3E EQ PUSH2 0x17D JUMPI DUP1 PUSH4 0xF8A4B3FA EQ PUSH2 0x192 JUMPI PUSH2 0x91 JUMP JUMPDEST DUP1 PUSH4 0x441B1D30 EQ PUSH2 0x93 JUMPI DUP1 PUSH4 0x70DE629F EQ PUSH2 0xB3 JUMPI DUP1 PUSH4 0x8DA5CB5B EQ PUSH2 0xDE JUMPI DUP1 PUSH4 0xC72C4D10 EQ PUSH2 0xF3 JUMPI DUP1 PUSH4 0xC734AA06 EQ PUSH2 0x115 JUMPI JUMPDEST STOP JUMPDEST CALLVALUE DUP1 ISZERO PUSH2 0x9F JUMPI PUSH1 0x0 DUP1 REVERT JUMPDEST POP PUSH2 0x91 PUSH2 0xAE CALLDATASIZE PUSH1 0x4 PUSH2 0x1301 JUMP JUMPDEST PUSH2 0x1B2 JUMP JUMPDEST CALLVALUE DUP1 ISZERO PUSH2 0xBF JUMPI PUSH1 0x0 DUP1 REVERT JUMPDEST POP PUSH2 0xC8 PUSH2 0x1F0 JUMP JUMPDEST PUSH1 0x40 MLOAD PUSH2 0xD5 SWAP2 SWAP1 PUSH2 0x1678 JUMP JUMPDEST PUSH1 0x40 MLOAD DUP1 SWAP2 SUB SWAP1 RETURN JUMPDEST CALLVALUE DUP1 ISZERO PUSH2 0xEA JUMPI PUSH1 0x0 DUP1 REVERT JUMPDEST POP PUSH2 0xC8 PUSH2 0x208 JUMP JUMPDEST CALLVALUE DUP1 ISZERO PUSH2 0xFF JUMPI PUSH1 0x0 DUP1 REVERT JUMPDEST POP PUSH2 0x108 PUSH2 0x217 JUMP JUMPDEST PUSH1 0x40 MLOAD PUSH2 0xD5 SWAP2 SWAP1 PUSH2 0x16F3 JUMP JUMPDEST CALLVALUE DUP1 ISZERO PUSH2 0x121 JUMPI PUSH1 0x0 DUP1 REVERT JUMPDEST POP PUSH2 0x91 PUSH2 0x130 CALLDATASIZE PUSH1 0x4 PUSH2 0x124A JUMP JUMPDEST PUSH2 0x226 JUMP JUMPDEST CALLVALUE DUP1 ISZERO PUSH2 0x141 JUMPI PUSH1 0x0 DUP1 REVERT JUMPDEST POP PUSH2 0xC8 PUSH2 0x3B5 JUMP JUMPDEST PUSH2 0x91 PUSH2 0x158 CALLDATASIZE PUSH1 0x4 PUSH2 0x1301 JUMP JUMPDEST PUSH2 0x3C4 JUMP JUMPDEST CALLVALUE DUP1 ISZERO PUSH2 0x169 JUMPI PUSH1 0x0 DUP1 REVERT JUMPDEST POP PUSH2 0x91 PUSH2 0x178 CALLDATASIZE PUSH1 0x4 PUSH2 0x11CC JUMP JUMPDEST PUSH2 0x428 JUMP JUMPDEST CALLVALUE DUP1 ISZERO PUSH2 0x189 JUMPI PUSH1 0x0 DUP1 REVERT JUMPDEST POP PUSH2 0xC8 PUSH2 0x5E3 JUMP JUMPDEST CALLVALUE DUP1 ISZERO PUSH2 0x19E JUMPI PUSH1 0x0 DUP1 REVERT JUMPDEST POP PUSH2 0x91 PUSH2 0x1AD CALLDATASIZE PUSH1 0x4 PUSH2 0x133D JUMP JUMPDEST PUSH2 0x5F2 JUMP JUMPDEST PUSH1 0x2 SLOAD PUSH1 0x40 MLOAD PUSH1 0x1 PUSH1 0x1 PUSH1 0xA0 SHL SUB SWAP1 SWAP2 AND SWAP1 DUP3 ISZERO PUSH2 0x8FC MUL SWAP1 DUP4 SWAP1 PUSH1 0x0 DUP2 DUP2 DUP2 DUP6 DUP9 DUP9 CALL SWAP4 POP POP POP POP ISZERO DUP1 ISZERO PUSH2 0x1EC JUMPI RETURNDATASIZE PUSH1 0x0 DUP1 RETURNDATACOPY RETURNDATASIZE PUSH1 0x0 REVERT JUMPDEST POP POP JUMP JUMPDEST PUSH20 0xEEEEEEEEEEEEEEEEEEEEEEEEEEEEEEEEEEEEEEEE DUP2 JUMP JUMPDEST PUSH1 0x2 SLOAD PUSH1 0x1 PUSH1 0x1 PUSH1 0xA0 SHL SUB AND DUP2 JUMP JUMPDEST PUSH1 0x0 SLOAD PUSH1 0x1 PUSH1 0x1 PUSH1 0xA0 SHL SUB AND DUP2 JUMP JUMPDEST DUP3 MLOAD PUSH2 0x239 SWAP1 PUSH1 0x5 SWAP1 PUSH1 0x20 DUP7 ADD SWAP1 PUSH2 0xEA5 JUMP JUMPDEST POP PUSH1 0x1 PUSH1 0x1 PUSH1 0xA0 SHL SUB DUP3 AND PUSH20 0xBB4CDB9CBD36B01BD1CBAEBF2DE08D9173BC095C EQ ISZERO PUSH2 0x28A JUMPI PUSH1 0x3 DUP1 SLOAD PUSH1 0x1 PUSH1 0x1 PUSH1 0xA0 SHL SUB NOT AND PUSH20 0xEEEEEEEEEEEEEEEEEEEEEEEEEEEEEEEEEEEEEEEE OR SWAP1 SSTORE PUSH2 0x2A6 JUMP JUMPDEST PUSH1 0x3 DUP1 SLOAD PUSH1 0x1 PUSH1 0x1 PUSH1 0xA0 SHL SUB NOT AND PUSH1 0x1 PUSH1 0x1 PUSH1 0xA0 SHL SUB DUP5 AND OR SWAP1 SSTORE JUMPDEST PUSH1 0x0 DUP1 PUSH1 0x0 SWAP1 SLOAD SWAP1 PUSH2 0x100 EXP SWAP1 DIV PUSH1 0x1 PUSH1 0x1 PUSH1 0xA0 SHL SUB AND PUSH1 0x1 PUSH1 0x1 PUSH1 0xA0 SHL SUB AND PUSH4 0x261BF8B PUSH1 0x40 MLOAD DUP2 PUSH4 0xFFFFFFFF AND PUSH1 0xE0 SHL DUP2 MSTORE PUSH1 0x4 ADD PUSH1 0x20 PUSH1 0x40 MLOAD DUP1 DUP4 SUB DUP2 DUP7 DUP1 EXTCODESIZE ISZERO DUP1 ISZERO PUSH2 0x2F5 JUMPI PUSH1 0x0 DUP1 REVERT JUMPDEST POP GAS STATICCALL ISZERO DUP1 ISZERO PUSH2 0x309 JUMPI RETURNDATASIZE PUSH1 0x0 DUP1 RETURNDATACOPY RETURNDATASIZE PUSH1 0x0 REVERT JUMPDEST POP POP POP POP PUSH1 0x40 MLOAD RETURNDATASIZE PUSH1 0x1F NOT PUSH1 0x1F DUP3 ADD AND DUP3 ADD DUP1 PUSH1 0x40 MSTORE POP PUSH2 0x32D SWAP2 SWAP1 DUP2 ADD SWAP1 PUSH2 0x11AE JUMP JUMPDEST PUSH1 0x40 DUP1 MLOAD PUSH1 0x20 DUP2 ADD DUP3 MSTORE PUSH1 0x0 DUP2 MSTORE PUSH1 0x1 SLOAD PUSH1 0x3 SLOAD SWAP3 MLOAD PUSH4 0x2E7FF4EF PUSH1 0xE1 SHL DUP2 MSTORE SWAP4 SWAP5 POP SWAP1 SWAP3 PUSH1 0x1 PUSH1 0x1 PUSH1 0xA0 SHL SUB DUP1 DUP7 AND SWAP4 PUSH4 0x5CFFE9DE SWAP4 PUSH2 0x37C SWAP4 SWAP1 DUP4 AND SWAP3 SWAP1 SWAP2 AND SWAP1 DUP9 SWAP1 DUP8 SWAP1 PUSH1 0x4 ADD PUSH2 0x16A1 JUMP JUMPDEST PUSH1 0x0 PUSH1 0x40 MLOAD DUP1 DUP4 SUB DUP2 PUSH1 0x0 DUP8 DUP1 EXTCODESIZE ISZERO DUP1 ISZERO PUSH2 0x396 JUMPI PUSH1 0x0 DUP1 REVERT JUMPDEST POP GAS CALL ISZERO DUP1 ISZERO PUSH2 0x3AA JUMPI RETURNDATASIZE PUSH1 0x0 DUP1 RETURNDATACOPY RETURNDATASIZE PUSH1 0x0 REVERT JUMPDEST POP POP POP POP POP POP POP POP POP JUMP JUMPDEST PUSH1 0x3 SLOAD PUSH1 0x1 PUSH1 0x1 PUSH1 0xA0 SHL SUB AND DUP2 JUMP JUMPDEST PUSH1 0x4 DUP1 SLOAD PUSH1 0x40 MLOAD PUSH4 0x2E1A7D4D PUSH1 0xE0 SHL DUP2 MSTORE PUSH1 0x1 PUSH1 0x1 PUSH1 0xA0 SHL SUB SWAP1 SWAP2 AND SWAP2 PUSH4 0x2E1A7D4D SWAP2 PUSH2 0x3F3 SWAP2 DUP6 SWAP2 ADD PUSH2 0x1781 JUMP JUMPDEST PUSH1 0x0 PUSH1 0x40 MLOAD DUP1 DUP4 SUB DUP2 PUSH1 0x0 DUP8 DUP1 EXTCODESIZE ISZERO DUP1 ISZERO PUSH2 0x40D JUMPI PUSH1 0x0 DUP1 REVERT JUMPDEST POP GAS CALL ISZERO DUP1 ISZERO PUSH2 0x421 JUMPI RETURNDATASIZE PUSH1 0x0 DUP1 RETURNDATACOPY RETURNDATASIZE PUSH1 0x0 REVERT JUMPDEST POP POP POP POP POP JUMP JUMPDEST PUSH2 0x432 ADDRESS DUP7 PUSH2 0x612 JUMP JUMPDEST DUP5 GT ISZERO PUSH2 0x45A JUMPI PUSH1 0x40 MLOAD PUSH3 0x461BCD PUSH1 0xE5 SHL DUP2 MSTORE PUSH1 0x4 ADD PUSH2 0x451 SWAP1 PUSH2 0x1731 JUMP JUMPDEST PUSH1 0x40 MLOAD DUP1 SWAP2 SUB SWAP1 REVERT JUMPDEST PUSH1 0x3 SLOAD PUSH1 0x1 PUSH1 0x1 PUSH1 0xA0 SHL SUB AND PUSH20 0xEEEEEEEEEEEEEEEEEEEEEEEEEEEEEEEEEEEEEEEE EQ ISZERO PUSH2 0x48A JUMPI PUSH2 0x48A DUP5 PUSH2 0x6CF JUMP JUMPDEST PUSH2 0x563 PUSH1 0x5 DUP1 SLOAD DUP1 PUSH1 0x20 MUL PUSH1 0x20 ADD PUSH1 0x40 MLOAD SWAP1 DUP2 ADD PUSH1 0x40 MSTORE DUP1 SWAP3 SWAP2 SWAP1 DUP2 DUP2 MSTORE PUSH1 0x20 ADD PUSH1 0x0 SWAP1 JUMPDEST DUP3 DUP3 LT ISZERO PUSH2 0x55A JUMPI PUSH1 0x0 DUP5 DUP2 MSTORE PUSH1 0x20 SWAP1 DUP2 SWAP1 KECCAK256 DUP4 ADD DUP1 SLOAD PUSH1 0x40 DUP1 MLOAD PUSH1 0x1F PUSH1 0x2 PUSH1 0x0 NOT PUSH2 0x100 PUSH1 0x1 DUP8 AND ISZERO MUL ADD SWAP1 SWAP5 AND SWAP4 SWAP1 SWAP4 DIV SWAP3 DUP4 ADD DUP6 SWAP1 DIV DUP6 MUL DUP2 ADD DUP6 ADD SWAP1 SWAP2 MSTORE DUP2 DUP2 MSTORE SWAP3 DUP4 ADD DUP3 DUP3 DUP1 ISZERO PUSH2 0x546 JUMPI DUP1 PUSH1 0x1F LT PUSH2 0x51B JUMPI PUSH2 0x100 DUP1 DUP4 SLOAD DIV MUL DUP4 MSTORE SWAP2 PUSH1 0x20 ADD SWAP2 PUSH2 0x546 JUMP JUMPDEST DUP3 ADD SWAP2 SWAP1 PUSH1 0x0 MSTORE PUSH1 0x20 PUSH1 0x0 KECCAK256 SWAP1 JUMPDEST DUP2 SLOAD DUP2 MSTORE SWAP1 PUSH1 0x1 ADD SWAP1 PUSH1 0x20 ADD DUP1 DUP4 GT PUSH2 0x529 JUMPI DUP3 SWAP1 SUB PUSH1 0x1F AND DUP3 ADD SWAP2 JUMPDEST POP POP POP POP POP DUP2 MSTORE PUSH1 0x20 ADD SWAP1 PUSH1 0x1 ADD SWAP1 PUSH2 0x4AF JUMP JUMPDEST POP POP POP POP PUSH2 0x7E8 JUMP JUMPDEST PUSH2 0x56D ADDRESS DUP7 PUSH2 0x612 JUMP JUMPDEST POP PUSH1 0x3 SLOAD PUSH1 0x1 PUSH1 0x1 PUSH1 0xA0 SHL SUB AND PUSH20 0xEEEEEEEEEEEEEEEEEEEEEEEEEEEEEEEEEEEEEEEE EQ ISZERO PUSH2 0x59E JUMPI PUSH2 0x59E DUP5 PUSH2 0x3C4 JUMP JUMPDEST PUSH1 0x0 PUSH2 0x5B0 DUP6 DUP6 PUSH4 0xFFFFFFFF PUSH2 0xBC2 AND JUMP JUMPDEST SWAP1 POP DUP1 DUP6 GT PUSH2 0x5D1 JUMPI PUSH1 0x40 MLOAD PUSH3 0x461BCD PUSH1 0xE5 SHL DUP2 MSTORE PUSH1 0x4 ADD PUSH2 0x451 SWAP1 PUSH2 0x1701 JUMP JUMPDEST PUSH2 0x5DB DUP7 DUP3 PUSH2 0xBE7 JUMP JUMPDEST POP POP POP POP POP POP JUMP JUMPDEST PUSH1 0x1 SLOAD PUSH1 0x1 PUSH1 0x1 PUSH1 0xA0 SHL SUB AND DUP2 JUMP JUMPDEST PUSH1 0x2 SLOAD PUSH2 0x1EC SWAP1 PUSH1 0x1 PUSH1 0x1 PUSH1 0xA0 SHL SUB DUP4 DUP2 AND SWAP2 AND DUP5 PUSH4 0xFFFFFFFF PUSH2 0xC80 AND JUMP JUMPDEST PUSH1 0x0 PUSH1 0x1 PUSH1 0x1 PUSH1 0xA0 SHL SUB DUP3 AND PUSH20 0xEEEEEEEEEEEEEEEEEEEEEEEEEEEEEEEEEEEEEEEE EQ ISZERO PUSH2 0x64A JUMPI POP PUSH1 0x1 PUSH1 0x1 PUSH1 0xA0 SHL SUB DUP3 AND BALANCE PUSH2 0x6C9 JUMP JUMPDEST PUSH1 0x40 MLOAD PUSH4 0x70A08231 PUSH1 0xE0 SHL DUP2 MSTORE PUSH1 0x1 PUSH1 0x1 PUSH1 0xA0 SHL SUB DUP4 AND SWAP1 PUSH4 0x70A08231 SWAP1 PUSH2 0x676 SWAP1 DUP7 SWAP1 PUSH1 0x4 ADD PUSH2 0x1678 JUMP JUMPDEST PUSH1 0x20 PUSH1 0x40 MLOAD DUP1 DUP4 SUB DUP2 DUP7 DUP1 EXTCODESIZE ISZERO DUP1 ISZERO PUSH2 0x68E JUMPI PUSH1 0x0 DUP1 REVERT JUMPDEST POP GAS STATICCALL ISZERO DUP1 ISZERO PUSH2 0x6A2 JUMPI RETURNDATASIZE PUSH1 0x0 DUP1 RETURNDATACOPY RETURNDATASIZE PUSH1 0x0 REVERT JUMPDEST POP POP POP POP PUSH1 0x40 MLOAD RETURNDATASIZE PUSH1 0x1F NOT PUSH1 0x1F DUP3 ADD AND DUP3 ADD DUP1 PUSH1 0x40 MSTORE POP PUSH2 0x6C6 SWAP2 SWAP1 DUP2 ADD SWAP1 PUSH2 0x131F JUMP JUMPDEST SWAP1 POP JUMPDEST SWAP3 SWAP2 POP POP JUMP JUMPDEST PUSH1 0x0 SELFBALANCE GT PUSH2 0x6EF JUMPI PUSH1 0x40 MLOAD PUSH3 0x461BCD PUSH1 0xE5 SHL DUP2 MSTORE PUSH1 0x4 ADD PUSH2 0x451 SWAP1 PUSH2 0x1741 JUMP JUMPDEST PUSH20 0xBB4CDB9CBD36B01BD1CBAEBF2DE08D9173BC095C PUSH1 0x1 PUSH1 0x1 PUSH1 0xA0 SHL SUB AND DUP2 PUSH3 0x4C4B40 SWAP1 PUSH1 0x40 MLOAD PUSH2 0x71F SWAP1 PUSH2 0x166D JUMP JUMPDEST PUSH1 0x0 PUSH1 0x40 MLOAD DUP1 DUP4 SUB DUP2 DUP6 DUP9 DUP9 CALL SWAP4 POP POP POP POP RETURNDATASIZE DUP1 PUSH1 0x0 DUP2 EQ PUSH2 0x75D JUMPI PUSH1 0x40 MLOAD SWAP2 POP PUSH1 0x1F NOT PUSH1 0x3F RETURNDATASIZE ADD AND DUP3 ADD PUSH1 0x40 MSTORE RETURNDATASIZE DUP3 MSTORE RETURNDATASIZE PUSH1 0x0 PUSH1 0x20 DUP5 ADD RETURNDATACOPY PUSH2 0x762 JUMP JUMPDEST PUSH1 0x60 SWAP2 POP JUMPDEST POP POP PUSH1 0x4 DUP1 SLOAD PUSH1 0x40 MLOAD PUSH4 0xA9059CBB PUSH1 0xE0 SHL DUP2 MSTORE PUSH1 0x1 PUSH1 0x1 PUSH1 0xA0 SHL SUB SWAP1 SWAP2 AND SWAP3 POP PUSH4 0xA9059CBB SWAP2 PUSH2 0x796 SWAP2 ADDRESS SWAP2 DUP7 SWAP2 ADD PUSH2 0x1686 JUMP JUMPDEST PUSH1 0x20 PUSH1 0x40 MLOAD DUP1 DUP4 SUB DUP2 PUSH1 0x0 DUP8 DUP1 EXTCODESIZE ISZERO DUP1 ISZERO PUSH2 0x7B0 JUMPI PUSH1 0x0 DUP1 REVERT JUMPDEST POP GAS CALL ISZERO DUP1 ISZERO PUSH2 0x7C4 JUMPI RETURNDATASIZE PUSH1 0x0 DUP1 RETURNDATACOPY RETURNDATASIZE PUSH1 0x0 REVERT JUMPDEST POP POP POP POP PUSH1 0x40 MLOAD RETURNDATASIZE PUSH1 0x1F NOT PUSH1 0x1F DUP3 ADD AND DUP3 ADD DUP1 PUSH1 0x40 MSTORE POP PUSH2 0x1EC SWAP2 SWAP1 DUP2 ADD SWAP1 PUSH2 0x12E3 JUMP JUMPDEST PUSH1 0x0 DUP1 DUP1 DUP1 DUP1 JUMPDEST DUP6 MLOAD DUP2 LT ISZERO PUSH2 0x5DB JUMPI DUP6 DUP2 DUP2 MLOAD DUP2 LT PUSH2 0x804 JUMPI INVALID JUMPDEST PUSH1 0x20 MUL PUSH1 0x20 ADD ADD MLOAD PUSH1 0x0 DUP2 MLOAD DUP2 LT PUSH2 0x818 JUMPI INVALID JUMPDEST PUSH1 0x20 ADD ADD MLOAD PUSH1 0xF8 SHR PUSH1 0xF8 SHL PUSH1 0x1 PUSH1 0x1 PUSH1 0xF8 SHL SUB NOT AND PUSH1 0x60 SHR SWAP3 POP DUP6 DUP2 DUP2 MLOAD DUP2 LT PUSH2 0x83E JUMPI INVALID JUMPDEST PUSH1 0x20 MUL PUSH1 0x20 ADD ADD MLOAD PUSH1 0x1 DUP2 MLOAD DUP2 LT PUSH2 0x852 JUMPI INVALID JUMPDEST PUSH1 0x20 ADD ADD MLOAD PUSH1 0xF8 SHR PUSH1 0xF8 SHL PUSH1 0x1 PUSH1 0x1 PUSH1 0xF8 SHL SUB NOT AND PUSH1 0x60 SHR PUSH1 0x1 PUSH1 0x1 PUSH1 0xA0 SHL SUB AND SWAP2 POP DUP6 DUP2 DUP2 MLOAD DUP2 LT PUSH2 0x881 JUMPI INVALID JUMPDEST PUSH1 0x20 MUL PUSH1 0x20 ADD ADD MLOAD PUSH1 0x2 DUP2 MLOAD DUP2 LT PUSH2 0x895 JUMPI INVALID JUMPDEST PUSH1 0x20 ADD ADD MLOAD PUSH1 0xF8 SHR PUSH1 0xF8 SHL PUSH1 0x1 PUSH1 0x1 PUSH1 0xF8 SHL SUB NOT AND PUSH1 0x60 SHR SWAP5 POP DUP6 DUP2 DUP2 MLOAD DUP2 LT PUSH2 0x8BB JUMPI INVALID JUMPDEST PUSH1 0x20 MUL PUSH1 0x20 ADD ADD MLOAD PUSH1 0x3 DUP2 MLOAD DUP2 LT PUSH2 0x8CF JUMPI INVALID JUMPDEST PUSH1 0x20 SWAP2 ADD ADD MLOAD PUSH1 0x40 MLOAD PUSH4 0x95EA7B3 PUSH1 0xE0 SHL DUP2 MSTORE PUSH1 0x60 SWAP2 SWAP1 SWAP2 SHR PUSH1 0xFF PUSH1 0x98 SHL AND SWAP5 POP PUSH1 0x1 PUSH1 0x1 PUSH1 0xA0 SHL SUB DUP7 AND SWAP1 PUSH4 0x95EA7B3 SWAP1 PUSH2 0x911 SWAP1 DUP7 SWAP1 DUP7 SWAP1 PUSH1 0x4 ADD PUSH2 0x16E5 JUMP JUMPDEST PUSH1 0x20 PUSH1 0x40 MLOAD DUP1 DUP4 SUB DUP2 PUSH1 0x0 DUP8 DUP1 EXTCODESIZE ISZERO DUP1 ISZERO PUSH2 0x92B JUMPI PUSH1 0x0 DUP1 REVERT JUMPDEST POP GAS CALL ISZERO DUP1 ISZERO PUSH2 0x93F JUMPI RETURNDATASIZE PUSH1 0x0 DUP1 RETURNDATACOPY RETURNDATASIZE PUSH1 0x0 REVERT JUMPDEST POP POP POP POP PUSH1 0x40 MLOAD RETURNDATASIZE PUSH1 0x1F NOT PUSH1 0x1F DUP3 ADD AND DUP3 ADD DUP1 PUSH1 0x40 MSTORE POP PUSH2 0x963 SWAP2 SWAP1 DUP2 ADD SWAP1 PUSH2 0x12E3 JUMP JUMPDEST PUSH2 0x97F JUMPI PUSH1 0x40 MLOAD PUSH3 0x461BCD PUSH1 0xE5 SHL DUP2 MSTORE PUSH1 0x4 ADD PUSH2 0x451 SWAP1 PUSH2 0x1761 JUMP JUMPDEST PUSH1 0x60 PUSH1 0x1 PUSH1 0x1 PUSH1 0xA0 SHL SUB DUP7 AND PUSH20 0xBB4CDB9CBD36B01BD1CBAEBF2DE08D9173BC095C EQ DUP1 PUSH2 0x9C8 JUMPI POP PUSH1 0x1 PUSH1 0x1 PUSH1 0xA0 SHL SUB DUP6 AND PUSH20 0xBB4CDB9CBD36B01BD1CBAEBF2DE08D9173BC095C EQ JUMPDEST ISZERO PUSH2 0xA4E JUMPI PUSH1 0x40 DUP1 MLOAD PUSH1 0x2 DUP1 DUP3 MSTORE PUSH1 0x60 DUP3 ADD DUP4 MSTORE SWAP1 SWAP2 PUSH1 0x20 DUP4 ADD SWAP1 DUP1 CODESIZE DUP4 CODECOPY ADD SWAP1 POP POP SWAP1 POP DUP6 DUP2 PUSH1 0x0 DUP2 MLOAD DUP2 LT PUSH2 0x9FB JUMPI INVALID JUMPDEST PUSH1 0x20 MUL PUSH1 0x20 ADD ADD SWAP1 PUSH1 0x1 PUSH1 0x1 PUSH1 0xA0 SHL SUB AND SWAP1 DUP2 PUSH1 0x1 PUSH1 0x1 PUSH1 0xA0 SHL SUB AND DUP2 MSTORE POP POP DUP5 DUP2 PUSH1 0x1 DUP2 MLOAD DUP2 LT PUSH2 0xA29 JUMPI INVALID JUMPDEST PUSH1 0x20 MUL PUSH1 0x20 ADD ADD SWAP1 PUSH1 0x1 PUSH1 0x1 PUSH1 0xA0 SHL SUB AND SWAP1 DUP2 PUSH1 0x1 PUSH1 0x1 PUSH1 0xA0 SHL SUB AND DUP2 MSTORE POP POP PUSH2 0xB0E JUMP JUMPDEST PUSH1 0x40 DUP1 MLOAD PUSH1 0x3 DUP1 DUP3 MSTORE PUSH1 0x80 DUP3 ADD SWAP1 SWAP3 MSTORE SWAP1 PUSH1 0x20 DUP3 ADD PUSH1 0x60 DUP1 CODESIZE DUP4 CODECOPY ADD SWAP1 POP POP SWAP1 POP DUP6 DUP2 PUSH1 0x0 DUP2 MLOAD DUP2 LT PUSH2 0xA7D JUMPI INVALID JUMPDEST PUSH1 0x20 MUL PUSH1 0x20 ADD ADD SWAP1 PUSH1 0x1 PUSH1 0x1 PUSH1 0xA0 SHL SUB AND SWAP1 DUP2 PUSH1 0x1 PUSH1 0x1 PUSH1 0xA0 SHL SUB AND DUP2 MSTORE POP POP PUSH20 0xBB4CDB9CBD36B01BD1CBAEBF2DE08D9173BC095C DUP2 PUSH1 0x1 DUP2 MLOAD DUP2 LT PUSH2 0xABF JUMPI INVALID JUMPDEST PUSH1 0x20 MUL PUSH1 0x20 ADD ADD SWAP1 PUSH1 0x1 PUSH1 0x1 PUSH1 0xA0 SHL SUB AND SWAP1 DUP2 PUSH1 0x1 PUSH1 0x1 PUSH1 0xA0 SHL SUB AND DUP2 MSTORE POP POP DUP5 DUP2 PUSH1 0x2 DUP2 MLOAD DUP2 LT PUSH2 0xAED JUMPI INVALID JUMPDEST PUSH1 0x20 MUL PUSH1 0x20 ADD ADD SWAP1 PUSH1 0x1 PUSH1 0x1 PUSH1 0xA0 SHL SUB AND SWAP1 DUP2 PUSH1 0x1 PUSH1 0x1 PUSH1 0xA0 SHL SUB AND DUP2 MSTORE POP POP JUMPDEST PUSH1 0x40 MLOAD PUSH4 0x38ED1739 PUSH1 0xE0 SHL DUP2 MSTORE PUSH1 0x60 SWAP1 PUSH1 0x1 PUSH1 0x1 PUSH1 0xA0 SHL SUB DUP7 AND SWAP1 PUSH4 0x38ED1739 SWAP1 PUSH2 0xB4A SWAP1 DUP8 SWAP1 PUSH1 0x0 SWAP1 DUP8 SWAP1 ADDRESS SWAP1 PUSH2 0x12C TIMESTAMP ADD SWAP1 PUSH1 0x4 ADD PUSH2 0x178F JUMP JUMPDEST PUSH1 0x0 PUSH1 0x40 MLOAD DUP1 DUP4 SUB DUP2 PUSH1 0x0 DUP8 DUP1 EXTCODESIZE ISZERO DUP1 ISZERO PUSH2 0xB64 JUMPI PUSH1 0x0 DUP1 REVERT JUMPDEST POP GAS CALL ISZERO DUP1 ISZERO PUSH2 0xB78 JUMPI RETURNDATASIZE PUSH1 0x0 DUP1 RETURNDATACOPY RETURNDATASIZE PUSH1 0x0 REVERT JUMPDEST POP POP POP POP PUSH1 0x40 MLOAD RETURNDATASIZE PUSH1 0x0 DUP3 RETURNDATACOPY PUSH1 0x1F RETURNDATASIZE SWAP1 DUP2 ADD PUSH1 0x1F NOT AND DUP3 ADD PUSH1 0x40 MSTORE PUSH2 0xBA0 SWAP2 SWAP1 DUP2 ADD SWAP1 PUSH2 0x12AE JUMP JUMPDEST SWAP1 POP PUSH1 0x0 DUP2 PUSH1 0x1 DUP2 MLOAD DUP2 LT PUSH2 0xBB1 JUMPI INVALID JUMPDEST POP POP PUSH1 0x1 SWAP1 SWAP4 ADD SWAP3 POP PUSH2 0x7EF SWAP2 POP POP JUMP JUMPDEST PUSH1 0x0 DUP3 DUP3 ADD DUP4 DUP2 LT ISZERO PUSH2 0x6C6 JUMPI PUSH1 0x40 MLOAD PUSH3 0x461BCD PUSH1 0xE5 SHL DUP2 MSTORE PUSH1 0x4 ADD PUSH2 0x451 SWAP1 PUSH2 0x1711 JUMP JUMPDEST PUSH1 0x0 DUP1 PUSH1 0x0 SWAP1 SLOAD SWAP1 PUSH2 0x100 EXP SWAP1 DIV PUSH1 0x1 PUSH1 0x1 PUSH1 0xA0 SHL SUB AND PUSH1 0x1 PUSH1 0x1 PUSH1 0xA0 SHL SUB AND PUSH4 0xED6FF760 PUSH1 0x40 MLOAD DUP2 PUSH4 0xFFFFFFFF AND PUSH1 0xE0 SHL DUP2 MSTORE PUSH1 0x4 ADD PUSH1 0x20 PUSH1 0x40 MLOAD DUP1 DUP4 SUB DUP2 DUP7 DUP1 EXTCODESIZE ISZERO DUP1 ISZERO PUSH2 0xC36 JUMPI PUSH1 0x0 DUP1 REVERT JUMPDEST POP GAS STATICCALL ISZERO DUP1 ISZERO PUSH2 0xC4A JUMPI RETURNDATASIZE PUSH1 0x0 DUP1 RETURNDATACOPY RETURNDATASIZE PUSH1 0x0 REVERT JUMPDEST POP POP POP POP PUSH1 0x40 MLOAD RETURNDATASIZE PUSH1 0x1F NOT PUSH1 0x1F DUP3 ADD AND DUP3 ADD DUP1 PUSH1 0x40 MSTORE POP PUSH2 0xC6E SWAP2 SWAP1 DUP2 ADD SWAP1 PUSH2 0x11AE JUMP JUMPDEST SWAP1 POP PUSH2 0xC7B DUP2 DUP5 DUP5 PUSH2 0xCD9 JUMP JUMPDEST POP POP POP JUMP JUMPDEST PUSH1 0x40 MLOAD PUSH2 0xC7B SWAP1 DUP5 SWAP1 PUSH4 0xA9059CBB PUSH1 0xE0 SHL SWAP1 PUSH2 0xCA2 SWAP1 DUP7 SWAP1 DUP7 SWAP1 PUSH1 0x24 ADD PUSH2 0x16E5 JUMP JUMPDEST PUSH1 0x40 DUP1 MLOAD PUSH1 0x1F NOT DUP2 DUP5 SUB ADD DUP2 MSTORE SWAP2 SWAP1 MSTORE PUSH1 0x20 DUP2 ADD DUP1 MLOAD PUSH1 0x1 PUSH1 0x1 PUSH1 0xE0 SHL SUB AND PUSH1 0x1 PUSH1 0x1 PUSH1 0xE0 SHL SUB NOT SWAP1 SWAP4 AND SWAP3 SWAP1 SWAP3 OR SWAP1 SWAP2 MSTORE PUSH2 0xD7E JUMP JUMPDEST PUSH1 0x1 PUSH1 0x1 PUSH1 0xA0 SHL SUB DUP3 AND PUSH20 0xEEEEEEEEEEEEEEEEEEEEEEEEEEEEEEEEEEEEEEEE EQ ISZERO PUSH2 0xD64 JUMPI DUP3 PUSH1 0x1 PUSH1 0x1 PUSH1 0xA0 SHL SUB AND DUP2 PUSH2 0xC350 SWAP1 PUSH1 0x40 MLOAD PUSH2 0xD19 SWAP1 PUSH2 0x166D JUMP JUMPDEST PUSH1 0x0 PUSH1 0x40 MLOAD DUP1 DUP4 SUB DUP2 DUP6 DUP9 DUP9 CALL SWAP4 POP POP POP POP RETURNDATASIZE DUP1 PUSH1 0x0 DUP2 EQ PUSH2 0xD57 JUMPI PUSH1 0x40 MLOAD SWAP2 POP PUSH1 0x1F NOT PUSH1 0x3F RETURNDATASIZE ADD AND DUP3 ADD PUSH1 0x40 MSTORE RETURNDATASIZE DUP3 MSTORE RETURNDATASIZE PUSH1 0x0 PUSH1 0x20 DUP5 ADD RETURNDATACOPY PUSH2 0xD5C JUMP JUMPDEST PUSH1 0x60 SWAP2 POP JUMPDEST POP POP POP PUSH2 0xC7B JUMP JUMPDEST PUSH2 0xC7B PUSH1 0x1 PUSH1 0x1 PUSH1 0xA0 SHL SUB DUP4 AND DUP5 DUP4 PUSH4 0xFFFFFFFF PUSH2 0xC80 AND JUMP JUMPDEST PUSH2 0xD90 DUP3 PUSH1 0x1 PUSH1 0x1 PUSH1 0xA0 SHL SUB AND PUSH2 0xE69 JUMP JUMPDEST PUSH2 0xDAC JUMPI PUSH1 0x40 MLOAD PUSH3 0x461BCD PUSH1 0xE5 SHL DUP2 MSTORE PUSH1 0x4 ADD PUSH2 0x451 SWAP1 PUSH2 0x1771 JUMP JUMPDEST PUSH1 0x0 PUSH1 0x60 DUP4 PUSH1 0x1 PUSH1 0x1 PUSH1 0xA0 SHL SUB AND DUP4 PUSH1 0x40 MLOAD PUSH2 0xDC8 SWAP2 SWAP1 PUSH2 0x165A JUMP JUMPDEST PUSH1 0x0 PUSH1 0x40 MLOAD DUP1 DUP4 SUB DUP2 PUSH1 0x0 DUP7 GAS CALL SWAP2 POP POP RETURNDATASIZE DUP1 PUSH1 0x0 DUP2 EQ PUSH2 0xE05 JUMPI PUSH1 0x40 MLOAD SWAP2 POP PUSH1 0x1F NOT PUSH1 0x3F RETURNDATASIZE ADD AND DUP3 ADD PUSH1 0x40 MSTORE RETURNDATASIZE DUP3 MSTORE RETURNDATASIZE PUSH1 0x0 PUSH1 0x20 DUP5 ADD RETURNDATACOPY PUSH2 0xE0A JUMP JUMPDEST PUSH1 0x60 SWAP2 POP JUMPDEST POP SWAP2 POP SWAP2 POP DUP2 PUSH2 0xE2C JUMPI PUSH1 0x40 MLOAD PUSH3 0x461BCD PUSH1 0xE5 SHL DUP2 MSTORE PUSH1 0x4 ADD PUSH2 0x451 SWAP1 PUSH2 0x1721 JUMP JUMPDEST DUP1 MLOAD ISZERO PUSH2 0xE63 JUMPI DUP1 DUP1 PUSH1 0x20 ADD SWAP1 MLOAD PUSH2 0xE47 SWAP2 SWAP1 DUP2 ADD SWAP1 PUSH2 0x12E3 JUMP JUMPDEST PUSH2 0xE63 JUMPI PUSH1 0x40 MLOAD PUSH3 0x461BCD PUSH1 0xE5 SHL DUP2 MSTORE PUSH1 0x4 ADD PUSH2 0x451 SWAP1 PUSH2 0x1751 JUMP JUMPDEST POP POP POP POP JUMP JUMPDEST PUSH1 0x0 DUP2 EXTCODEHASH PUSH32 0xC5D2460186F7233C927E7DB2DCC703C0E500B653CA82273B7BFAD8045D85A470 DUP2 ISZERO DUP1 ISZERO SWAP1 PUSH2 0xE9D JUMPI POP DUP1 DUP3 EQ ISZERO JUMPDEST SWAP5 SWAP4 POP POP POP POP JUMP JUMPDEST DUP3 DUP1 SLOAD DUP3 DUP3 SSTORE SWAP1 PUSH1 0x0 MSTORE PUSH1 0x20 PUSH1 0x0 KECCAK256 SWAP1 DUP2 ADD SWAP3 DUP3 ISZERO PUSH2 0xEF2 JUMPI SWAP2 PUSH1 0x20 MUL DUP3 ADD JUMPDEST DUP3 DUP2 GT ISZERO PUSH2 0xEF2 JUMPI DUP3 MLOAD DUP1 MLOAD PUSH2 0xEE2 SWAP2 DUP5 SWAP2 PUSH1 0x20 SWAP1 SWAP2 ADD SWAP1 PUSH2 0xF02 JUMP JUMPDEST POP SWAP2 PUSH1 0x20 ADD SWAP2 SWAP1 PUSH1 0x1 ADD SWAP1 PUSH2 0xEC5 JUMP JUMPDEST POP PUSH2 0xEFE SWAP3 SWAP2 POP PUSH2 0xF7C JUMP JUMPDEST POP SWAP1 JUMP JUMPDEST DUP3 DUP1 SLOAD PUSH1 0x1 DUP2 PUSH1 0x1 AND ISZERO PUSH2 0x100 MUL SUB AND PUSH1 0x2 SWAP1 DIV SWAP1 PUSH1 0x0 MSTORE PUSH1 0x20 PUSH1 0x0 KECCAK256 SWAP1 PUSH1 0x1F ADD PUSH1 0x20 SWAP1 DIV DUP2 ADD SWAP3 DUP3 PUSH1 0x1F LT PUSH2 0xF43 JUMPI DUP1 MLOAD PUSH1 0xFF NOT AND DUP4 DUP1 ADD OR DUP6 SSTORE PUSH2 0xF70 JUMP JUMPDEST DUP3 DUP1 ADD PUSH1 0x1 ADD DUP6 SSTORE DUP3 ISZERO PUSH2 0xF70 JUMPI SWAP2 DUP3 ADD JUMPDEST DUP3 DUP2 GT ISZERO PUSH2 0xF70 JUMPI DUP3 MLOAD DUP3 SSTORE SWAP2 PUSH1 0x20 ADD SWAP2 SWAP1 PUSH1 0x1 ADD SWAP1 PUSH2 0xF55 JUMP JUMPDEST POP PUSH2 0xEFE SWAP3 SWAP2 POP PUSH2 0xFA2 JUMP JUMPDEST PUSH2 0xF9F SWAP2 SWAP1 JUMPDEST DUP1 DUP3 GT ISZERO PUSH2 0xEFE JUMPI PUSH1 0x0 PUSH2 0xF96 DUP3 DUP3 PUSH2 0xFBC JUMP JUMPDEST POP PUSH1 0x1 ADD PUSH2 0xF82 JUMP JUMPDEST SWAP1 JUMP JUMPDEST PUSH2 0xF9F SWAP2 SWAP1 JUMPDEST DUP1 DUP3 GT ISZERO PUSH2 0xEFE JUMPI PUSH1 0x0 DUP2 SSTORE PUSH1 0x1 ADD PUSH2 0xFA8 JUMP JUMPDEST POP DUP1 SLOAD PUSH1 0x1 DUP2 PUSH1 0x1 AND ISZERO PUSH2 0x100 MUL SUB AND PUSH1 0x2 SWAP1 DIV PUSH1 0x0 DUP3 SSTORE DUP1 PUSH1 0x1F LT PUSH2 0xFE2 JUMPI POP PUSH2 0x1000 JUMP JUMPDEST PUSH1 0x1F ADD PUSH1 0x20 SWAP1 DIV SWAP1 PUSH1 0x0 MSTORE PUSH1 0x20 PUSH1 0x0 KECCAK256 SWAP1 DUP2 ADD SWAP1 PUSH2 0x1000 SWAP2 SWAP1 PUSH2 0xFA2 JUMP JUMPDEST POP JUMP JUMPDEST DUP1 CALLDATALOAD PUSH2 0x6C9 DUP2 PUSH2 0x18DB JUMP JUMPDEST DUP1 MLOAD PUSH2 0x6C9 DUP2 PUSH2 0x18DB JUMP JUMPDEST PUSH1 0x0 DUP3 PUSH1 0x1F DUP4 ADD SLT PUSH2 0x102A JUMPI PUSH1 0x0 DUP1 REVERT JUMPDEST DUP2 CALLDATALOAD PUSH2 0x103D PUSH2 0x1038 DUP3 PUSH2 0x17FF JUMP JUMPDEST PUSH2 0x17D8 JUMP JUMPDEST DUP2 DUP2 MSTORE PUSH1 0x20 SWAP4 DUP5 ADD SWAP4 SWAP1 SWAP3 POP DUP3 ADD DUP4 PUSH1 0x0 JUMPDEST DUP4 DUP2 LT ISZERO PUSH2 0x107B JUMPI DUP2 CALLDATALOAD DUP7 ADD PUSH2 0x1065 DUP9 DUP3 PUSH2 0x1149 JUMP JUMPDEST DUP5 MSTORE POP PUSH1 0x20 SWAP3 DUP4 ADD SWAP3 SWAP2 SWAP1 SWAP2 ADD SWAP1 PUSH1 0x1 ADD PUSH2 0x104F JUMP JUMPDEST POP POP POP POP SWAP3 SWAP2 POP POP JUMP JUMPDEST PUSH1 0x0 DUP3 PUSH1 0x1F DUP4 ADD SLT PUSH2 0x1096 JUMPI PUSH1 0x0 DUP1 REVERT JUMPDEST DUP2 MLOAD PUSH2 0x10A4 PUSH2 0x1038 DUP3 PUSH2 0x17FF JUMP JUMPDEST SWAP2 POP DUP2 DUP2 DUP4 MSTORE PUSH1 0x20 DUP5 ADD SWAP4 POP PUSH1 0x20 DUP2 ADD SWAP1 POP DUP4 DUP6 PUSH1 0x20 DUP5 MUL DUP3 ADD GT ISZERO PUSH2 0x10C9 JUMPI PUSH1 0x0 DUP1 REVERT JUMPDEST PUSH1 0x0 JUMPDEST DUP4 DUP2 LT ISZERO PUSH2 0x107B JUMPI DUP2 PUSH2 0x10DF DUP9 DUP3 PUSH2 0x11A3 JUMP JUMPDEST DUP5 MSTORE POP PUSH1 0x20 SWAP3 DUP4 ADD SWAP3 SWAP2 SWAP1 SWAP2 ADD SWAP1 PUSH1 0x1 ADD PUSH2 0x10CC JUMP JUMPDEST DUP1 MLOAD PUSH2 0x6C9 DUP2 PUSH2 0x18EF JUMP JUMPDEST PUSH1 0x0 DUP1 DUP4 PUSH1 0x1F DUP5 ADD SLT PUSH2 0x1112 JUMPI PUSH1 0x0 DUP1 REVERT JUMPDEST POP DUP2 CALLDATALOAD PUSH8 0xFFFFFFFFFFFFFFFF DUP2 GT ISZERO PUSH2 0x112A JUMPI PUSH1 0x0 DUP1 REVERT JUMPDEST PUSH1 0x20 DUP4 ADD SWAP2 POP DUP4 PUSH1 0x1 DUP3 MUL DUP4 ADD GT ISZERO PUSH2 0x1142 JUMPI PUSH1 0x0 DUP1 REVERT JUMPDEST SWAP3 POP SWAP3 SWAP1 POP JUMP JUMPDEST PUSH1 0x0 DUP3 PUSH1 0x1F DUP4 ADD SLT PUSH2 0x115A JUMPI PUSH1 0x0 DUP1 REVERT JUMPDEST DUP2 CALLDATALOAD PUSH2 0x1168 PUSH2 0x1038 DUP3 PUSH2 0x1820 JUMP JUMPDEST SWAP2 POP DUP1 DUP3 MSTORE PUSH1 0x20 DUP4 ADD PUSH1 0x20 DUP4 ADD DUP6 DUP4 DUP4 ADD GT ISZERO PUSH2 0x1184 JUMPI PUSH1 0x0 DUP1 REVERT JUMPDEST PUSH2 0x118F DUP4 DUP3 DUP5 PUSH2 0x1899 JUMP JUMPDEST POP POP POP SWAP3 SWAP2 POP POP JUMP JUMPDEST DUP1 CALLDATALOAD PUSH2 0x6C9 DUP2 PUSH2 0x18F8 JUMP JUMPDEST DUP1 MLOAD PUSH2 0x6C9 DUP2 PUSH2 0x18F8 JUMP JUMPDEST PUSH1 0x0 PUSH1 0x20 DUP3 DUP5 SUB SLT ISZERO PUSH2 0x11C0 JUMPI PUSH1 0x0 DUP1 REVERT JUMPDEST PUSH1 0x0 PUSH2 0xE9D DUP5 DUP5 PUSH2 0x100E JUMP JUMPDEST PUSH1 0x0 DUP1 PUSH1 0x0 DUP1 PUSH1 0x0 PUSH1 0x80 DUP7 DUP9 SUB SLT ISZERO PUSH2 0x11E4 JUMPI PUSH1 0x0 DUP1 REVERT JUMPDEST PUSH1 0x0 PUSH2 0x11F0 DUP9 DUP9 PUSH2 0x1003 JUMP JUMPDEST SWAP6 POP POP PUSH1 0x20 PUSH2 0x1201 DUP9 DUP3 DUP10 ADD PUSH2 0x1198 JUMP JUMPDEST SWAP5 POP POP PUSH1 0x40 PUSH2 0x1212 DUP9 DUP3 DUP10 ADD PUSH2 0x1198 JUMP JUMPDEST SWAP4 POP POP PUSH1 0x60 DUP7 ADD CALLDATALOAD PUSH8 0xFFFFFFFFFFFFFFFF DUP2 GT ISZERO PUSH2 0x122F JUMPI PUSH1 0x0 DUP1 REVERT JUMPDEST PUSH2 0x123B DUP9 DUP3 DUP10 ADD PUSH2 0x1100 JUMP JUMPDEST SWAP3 POP SWAP3 POP POP SWAP3 SWAP6 POP SWAP3 SWAP6 SWAP1 SWAP4 POP JUMP JUMPDEST PUSH1 0x0 DUP1 PUSH1 0x0 PUSH1 0x60 DUP5 DUP7 SUB SLT ISZERO PUSH2 0x125F JUMPI PUSH1 0x0 DUP1 REVERT JUMPDEST DUP4 CALLDATALOAD PUSH8 0xFFFFFFFFFFFFFFFF DUP2 GT ISZERO PUSH2 0x1276 JUMPI PUSH1 0x0 DUP1 REVERT JUMPDEST PUSH2 0x1282 DUP7 DUP3 DUP8 ADD PUSH2 0x1019 JUMP JUMPDEST SWAP4 POP POP PUSH1 0x20 PUSH2 0x1293 DUP7 DUP3 DUP8 ADD PUSH2 0x1003 JUMP JUMPDEST SWAP3 POP POP PUSH1 0x40 PUSH2 0x12A4 DUP7 DUP3 DUP8 ADD PUSH2 0x1198 JUMP JUMPDEST SWAP2 POP POP SWAP3 POP SWAP3 POP SWAP3 JUMP JUMPDEST PUSH1 0x0 PUSH1 0x20 DUP3 DUP5 SUB SLT ISZERO PUSH2 0x12C0 JUMPI PUSH1 0x0 DUP1 REVERT JUMPDEST DUP2 MLOAD PUSH8 0xFFFFFFFFFFFFFFFF DUP2 GT ISZERO PUSH2 0x12D7 JUMPI PUSH1 0x0 DUP1 REVERT JUMPDEST PUSH2 0xE9D DUP5 DUP3 DUP6 ADD PUSH2 0x1085 JUMP JUMPDEST PUSH1 0x0 PUSH1 0x20 DUP3 DUP5 SUB SLT ISZERO PUSH2 0x12F5 JUMPI PUSH1 0x0 DUP1 REVERT JUMPDEST PUSH1 0x0 PUSH2 0xE9D DUP5 DUP5 PUSH2 0x10F5 JUMP JUMPDEST PUSH1 0x0 PUSH1 0x20 DUP3 DUP5 SUB SLT ISZERO PUSH2 0x1313 JUMPI PUSH1 0x0 DUP1 REVERT JUMPDEST PUSH1 0x0 PUSH2 0xE9D DUP5 DUP5 PUSH2 0x1198 JUMP JUMPDEST PUSH1 0x0 PUSH1 0x20 DUP3 DUP5 SUB SLT ISZERO PUSH2 0x1331 JUMPI PUSH1 0x0 DUP1 REVERT JUMPDEST PUSH1 0x0 PUSH2 0xE9D DUP5 DUP5 PUSH2 0x11A3 JUMP JUMPDEST PUSH1 0x0 DUP1 PUSH1 0x40 DUP4 DUP6 SUB SLT ISZERO PUSH2 0x1350 JUMPI PUSH1 0x0 DUP1 REVERT JUMPDEST PUSH1 0x0 PUSH2 0x135C DUP6 DUP6 PUSH2 0x1198 JUMP JUMPDEST SWAP3 POP POP PUSH1 0x20 PUSH2 0x136D DUP6 DUP3 DUP7 ADD PUSH2 0x1003 JUMP JUMPDEST SWAP2 POP POP SWAP3 POP SWAP3 SWAP1 POP JUMP JUMPDEST PUSH1 0x0 PUSH2 0x1383 DUP4 DUP4 PUSH2 0x139A JUMP JUMPDEST POP POP PUSH1 0x20 ADD SWAP1 JUMP JUMPDEST PUSH2 0x1394 DUP2 PUSH2 0x187C JUMP JUMPDEST DUP3 MSTORE POP POP JUMP JUMPDEST PUSH2 0x1394 DUP2 PUSH2 0x1860 JUMP JUMPDEST PUSH1 0x0 PUSH2 0x13AE DUP3 PUSH2 0x184E JUMP JUMPDEST PUSH2 0x13B8 DUP2 DUP6 PUSH2 0x1852 JUMP JUMPDEST SWAP4 POP PUSH2 0x13C3 DUP4 PUSH2 0x1848 JUMP JUMPDEST DUP1 PUSH1 0x0 JUMPDEST DUP4 DUP2 LT ISZERO PUSH2 0x13F1 JUMPI DUP2 MLOAD PUSH2 0x13DB DUP9 DUP3 PUSH2 0x1377 JUMP JUMPDEST SWAP8 POP PUSH2 0x13E6 DUP4 PUSH2 0x1848 JUMP JUMPDEST SWAP3 POP POP PUSH1 0x1 ADD PUSH2 0x13C7 JUMP JUMPDEST POP SWAP5 SWAP6 SWAP5 POP POP POP POP POP JUMP JUMPDEST PUSH1 0x0 PUSH2 0x1407 DUP3 PUSH2 0x184E JUMP JUMPDEST PUSH2 0x1411 DUP2 DUP6 PUSH2 0x1852 JUMP JUMPDEST SWAP4 POP PUSH2 0x1421 DUP2 DUP6 PUSH1 0x20 DUP7 ADD PUSH2 0x18A5 JUMP JUMPDEST PUSH2 0x142A DUP2 PUSH2 0x18D1 JUMP JUMPDEST SWAP1 SWAP4 ADD SWAP4 SWAP3 POP POP POP JUMP JUMPDEST PUSH1 0x0 PUSH2 0x143F DUP3 PUSH2 0x184E JUMP JUMPDEST PUSH2 0x1449 DUP2 DUP6 PUSH2 0x185B JUMP JUMPDEST SWAP4 POP PUSH2 0x1459 DUP2 DUP6 PUSH1 0x20 DUP7 ADD PUSH2 0x18A5 JUMP JUMPDEST SWAP3 SWAP1 SWAP3 ADD SWAP3 SWAP2 POP POP JUMP JUMPDEST PUSH2 0x1394 DUP2 PUSH2 0x1883 JUMP JUMPDEST PUSH2 0x1394 DUP2 PUSH2 0x188E JUMP JUMPDEST PUSH1 0x0 PUSH2 0x1482 PUSH1 0xE DUP4 PUSH2 0x1852 JUMP JUMPDEST PUSH14 0x111A59081B9BDD081C1C9BD99A5D PUSH1 0x92 SHL DUP2 MSTORE PUSH1 0x20 ADD SWAP3 SWAP2 POP POP JUMP JUMPDEST PUSH1 0x0 PUSH2 0x14AC PUSH1 0x1B DUP4 PUSH2 0x1852 JUMP JUMPDEST PUSH32 0x536166654D6174683A206164646974696F6E206F766572666C6F770000000000 DUP2 MSTORE PUSH1 0x20 ADD SWAP3 SWAP2 POP POP JUMP JUMPDEST PUSH1 0x0 PUSH2 0x14E5 PUSH1 0x20 DUP4 PUSH2 0x1852 JUMP JUMPDEST PUSH32 0x5361666545524332303A206C6F772D6C6576656C2063616C6C206661696C6564 DUP2 MSTORE PUSH1 0x20 ADD SWAP3 SWAP2 POP POP JUMP JUMPDEST PUSH1 0x0 PUSH2 0x151E PUSH1 0x2E DUP4 PUSH2 0x1852 JUMP JUMPDEST PUSH32 0x496E76616C69642062616C616E63652C207761732074686520666C6173684C6F DUP2 MSTORE PUSH14 0x616E207375636365737366756C3F PUSH1 0x90 SHL PUSH1 0x20 DUP3 ADD MSTORE PUSH1 0x40 ADD SWAP3 SWAP2 POP POP JUMP JUMPDEST PUSH1 0x0 PUSH2 0x6C9 PUSH1 0x0 DUP4 PUSH2 0x185B JUMP JUMPDEST PUSH1 0x0 PUSH2 0x157B PUSH1 0x9 DUP4 PUSH2 0x1852 JUMP JUMPDEST PUSH9 0x37379036B7B732BC9 PUSH1 0xBD SHL DUP2 MSTORE PUSH1 0x20 ADD SWAP3 SWAP2 POP POP JUMP JUMPDEST PUSH1 0x0 PUSH2 0x15A0 PUSH1 0x2A DUP4 PUSH2 0x1852 JUMP JUMPDEST PUSH32 0x5361666545524332303A204552433230206F7065726174696F6E20646964206E DUP2 MSTORE PUSH10 0x1BDD081CDD58D8D95959 PUSH1 0xB2 SHL PUSH1 0x20 DUP3 ADD MSTORE PUSH1 0x40 ADD SWAP3 SWAP2 POP POP JUMP JUMPDEST PUSH1 0x0 PUSH2 0x15EC PUSH1 0x20 DUP4 PUSH2 0x1852 JUMP JUMPDEST PUSH32 0x436F756C64206E6F7420617070726F76652073656C6C206F6620746F6B656E30 DUP2 MSTORE PUSH1 0x20 ADD SWAP3 SWAP2 POP POP JUMP JUMPDEST PUSH1 0x0 PUSH2 0x1625 PUSH1 0x1F DUP4 PUSH2 0x1852 JUMP JUMPDEST PUSH32 0x5361666545524332303A2063616C6C20746F206E6F6E2D636F6E747261637400 DUP2 MSTORE PUSH1 0x20 ADD SWAP3 SWAP2 POP POP JUMP JUMPDEST PUSH2 0x1394 DUP2 PUSH2 0xF9F JUMP JUMPDEST PUSH1 0x0 PUSH2 0x1666 DUP3 DUP5 PUSH2 0x1434 JUMP JUMPDEST SWAP4 SWAP3 POP POP POP JUMP JUMPDEST PUSH1 0x0 PUSH2 0x6C9 DUP3 PUSH2 0x1561 JUMP JUMPDEST PUSH1 0x20 DUP2 ADD PUSH2 0x6C9 DUP3 DUP5 PUSH2 0x139A JUMP JUMPDEST PUSH1 0x40 DUP2 ADD PUSH2 0x1694 DUP3 DUP6 PUSH2 0x138B JUMP JUMPDEST PUSH2 0x1666 PUSH1 0x20 DUP4 ADD DUP5 PUSH2 0x1651 JUMP JUMPDEST PUSH1 0x80 DUP2 ADD PUSH2 0x16AF DUP3 DUP8 PUSH2 0x139A JUMP JUMPDEST PUSH2 0x16BC PUSH1 0x20 DUP4 ADD DUP7 PUSH2 0x139A JUMP JUMPDEST PUSH2 0x16C9 PUSH1 0x40 DUP4 ADD DUP6 PUSH2 0x1651 JUMP JUMPDEST DUP2 DUP2 SUB PUSH1 0x60 DUP4 ADD MSTORE PUSH2 0x16DB DUP2 DUP5 PUSH2 0x13FC JUMP JUMPDEST SWAP7 SWAP6 POP POP POP POP POP POP JUMP JUMPDEST PUSH1 0x40 DUP2 ADD PUSH2 0x1694 DUP3 DUP6 PUSH2 0x139A JUMP JUMPDEST PUSH1 0x20 DUP2 ADD PUSH2 0x6C9 DUP3 DUP5 PUSH2 0x1463 JUMP JUMPDEST PUSH1 0x20 DUP1 DUP3 MSTORE DUP2 ADD PUSH2 0x6C9 DUP2 PUSH2 0x1475 JUMP JUMPDEST PUSH1 0x20 DUP1 DUP3 MSTORE DUP2 ADD PUSH2 0x6C9 DUP2 PUSH2 0x149F JUMP JUMPDEST PUSH1 0x20 DUP1 DUP3 MSTORE DUP2 ADD PUSH2 0x6C9 DUP2 PUSH2 0x14D8 JUMP JUMPDEST PUSH1 0x20 DUP1 DUP3 MSTORE DUP2 ADD PUSH2 0x6C9 DUP2 PUSH2 0x1511 JUMP JUMPDEST PUSH1 0x20 DUP1 DUP3 MSTORE DUP2 ADD PUSH2 0x6C9 DUP2 PUSH2 0x156E JUMP JUMPDEST PUSH1 0x20 DUP1 DUP3 MSTORE DUP2 ADD PUSH2 0x6C9 DUP2 PUSH2 0x1593 JUMP JUMPDEST PUSH1 0x20 DUP1 DUP3 MSTORE DUP2 ADD PUSH2 0x6C9 DUP2 PUSH2 0x15DF JUMP JUMPDEST PUSH1 0x20 DUP1 DUP3 MSTORE DUP2 ADD PUSH2 0x6C9 DUP2 PUSH2 0x1618 JUMP JUMPDEST PUSH1 0x20 DUP2 ADD PUSH2 0x6C9 DUP3 DUP5 PUSH2 0x1651 JUMP JUMPDEST PUSH1 0xA0 DUP2 ADD PUSH2 0x179D DUP3 DUP9 PUSH2 0x1651 JUMP JUMPDEST PUSH2 0x17AA PUSH1 0x20 DUP4 ADD DUP8 PUSH2 0x146C JUMP JUMPDEST DUP2 DUP2 SUB PUSH1 0x40 DUP4 ADD MSTORE PUSH2 0x17BC DUP2 DUP7 PUSH2 0x13A3 JUMP JUMPDEST SWAP1 POP PUSH2 0x17CB PUSH1 0x60 DUP4 ADD DUP6 PUSH2 0x138B JUMP JUMPDEST PUSH2 0x16DB PUSH1 0x80 DUP4 ADD DUP5 PUSH2 0x1651 JUMP JUMPDEST PUSH1 0x40 MLOAD DUP2 DUP2 ADD PUSH8 0xFFFFFFFFFFFFFFFF DUP2 GT DUP3 DUP3 LT OR ISZERO PUSH2 0x17F7 JUMPI PUSH1 0x0 DUP1 REVERT JUMPDEST PUSH1 0x40 MSTORE SWAP2 SWAP1 POP JUMP JUMPDEST PUSH1 0x0 PUSH8 0xFFFFFFFFFFFFFFFF DUP3 GT ISZERO PUSH2 0x1816 JUMPI PUSH1 0x0 DUP1 REVERT JUMPDEST POP PUSH1 0x20 SWAP1 DUP2 MUL ADD SWAP1 JUMP JUMPDEST PUSH1 0x0 PUSH8 0xFFFFFFFFFFFFFFFF DUP3 GT ISZERO PUSH2 0x1837 JUMPI PUSH1 0x0 DUP1 REVERT JUMPDEST POP PUSH1 0x20 PUSH1 0x1F SWAP2 SWAP1 SWAP2 ADD PUSH1 0x1F NOT AND ADD SWAP1 JUMP JUMPDEST PUSH1 0x20 ADD SWAP1 JUMP JUMPDEST MLOAD SWAP1 JUMP JUMPDEST SWAP1 DUP2 MSTORE PUSH1 0x20 ADD SWAP1 JUMP JUMPDEST SWAP2 SWAP1 POP JUMP JUMPDEST PUSH1 0x0 PUSH2 0x6C9 DUP3 PUSH2 0x1870 JUMP JUMPDEST ISZERO ISZERO SWAP1 JUMP JUMPDEST PUSH1 0x1 PUSH1 0x1 PUSH1 0xA0 SHL SUB AND SWAP1 JUMP JUMPDEST PUSH1 0x0 PUSH2 0x6C9 DUP3 JUMPDEST PUSH1 0x0 PUSH2 0x6C9 DUP3 PUSH2 0x1860 JUMP JUMPDEST PUSH1 0x0 PUSH2 0x6C9 DUP3 PUSH2 0xF9F JUMP JUMPDEST DUP3 DUP2 DUP4 CALLDATACOPY POP PUSH1 0x0 SWAP2 ADD MSTORE JUMP JUMPDEST PUSH1 0x0 JUMPDEST DUP4 DUP2 LT ISZERO PUSH2 0x18C0 JUMPI DUP2 DUP2 ADD MLOAD DUP4 DUP3 ADD MSTORE PUSH1 0x20 ADD PUSH2 0x18A8 JUMP JUMPDEST DUP4 DUP2 GT ISZERO PUSH2 0xE63 JUMPI POP POP PUSH1 0x0 SWAP2 ADD MSTORE JUMP JUMPDEST PUSH1 0x1F ADD PUSH1 0x1F NOT AND SWAP1 JUMP JUMPDEST PUSH2 0x18E4 DUP2 PUSH2 0x1860 JUMP JUMPDEST DUP2 EQ PUSH2 0x1000 JUMPI PUSH1 0x0 DUP1 REVERT JUMPDEST PUSH2 0x18E4 DUP2 PUSH2 0x186B JUMP JUMPDEST PUSH2 0x18E4 DUP2 PUSH2 0xF9F JUMP INVALID LOG3 PUSH6 0x627A7A723158 KECCAK256 BYTE 0x4D CALLER MUL 0xB4 0xBB PUSH25 0x19A8CBA869AD54DC15B93540D6F32A8BCD15B31A090C42F037 PUSH13 0x6578706572696D656E74616CF5 PUSH5 0x736F6C6343 STOP SDIV GT STOP BLOCKHASH "
				},
				"gasEstimates": {
					"creation": {
						"codeDepositCost": "1293600",
						"executionCost": "84673",
						"totalCost": "1378273"
					},
					"external": {
						"": "185",
						"BNB_ADDRESS()": "infinite",
						"UnwrapBNB(uint256)": "infinite",
						"addressesProvider()": "infinite",
						"executeArbi(bytes[],address,uint256)": "infinite",
						"executeOperation(address,uint256,uint256,bytes)": "infinite",
						"owner()": "infinite",
						"receiver()": "infinite",
						"rescueBNB(uint256)": "infinite",
						"rescuetoken(uint256,address)": "infinite",
						"reserve()": "infinite"
					},
					"internal": {
						"MultiSwap(bytes memory[] memory)": "infinite",
						"WrapBNB(uint256)": "infinite"
					}
				},
				"methodIdentifiers": {
					"BNB_ADDRESS()": "70de629f",
					"UnwrapBNB(uint256)": "ebca6480",
					"addressesProvider()": "c72c4d10",
					"executeArbi(bytes[],address,uint256)": "c734aa06",
					"executeOperation(address,uint256,uint256,bytes)": "ee872558",
					"owner()": "8da5cb5b",
					"receiver()": "f7260d3e",
					"rescueBNB(uint256)": "441b1d30",
					"rescuetoken(uint256,address)": "f8a4b3fa",
					"reserve()": "cd3293de"
				}
			},
			"storageLayout": {
				"storage": [
					{
						"astId": 1180,
						"contract": "tenderly/flashloan/contracts/Multiswap.sol:MultiSwapContract",
						"label": "addressesProvider",
						"offset": 0,
						"slot": "0",
						"type": "t_contract(ILendingPoolAddressesProvider)1451"
					},
					{
						"astId": 21,
						"contract": "tenderly/flashloan/contracts/Multiswap.sol:MultiSwapContract",
						"label": "receiver",
						"offset": 0,
						"slot": "1",
						"type": "t_address"
					},
					{
						"astId": 26,
						"contract": "tenderly/flashloan/contracts/Multiswap.sol:MultiSwapContract",
						"label": "owner",
						"offset": 0,
						"slot": "2",
						"type": "t_address_payable"
					},
					{
						"astId": 28,
						"contract": "tenderly/flashloan/contracts/Multiswap.sol:MultiSwapContract",
						"label": "reserve",
						"offset": 0,
						"slot": "3",
						"type": "t_address"
					},
					{
						"astId": 36,
						"contract": "tenderly/flashloan/contracts/Multiswap.sol:MultiSwapContract",
						"label": "wbnb",
						"offset": 0,
						"slot": "4",
						"type": "t_contract(WBNB)1158"
					},
					{
						"astId": 39,
						"contract": "tenderly/flashloan/contracts/Multiswap.sol:MultiSwapContract",
						"label": "data1",
						"offset": 0,
						"slot": "5",
						"type": "t_array(t_bytes_storage)dyn_storage"
					}
				],
				"types": {
					"t_address": {
						"encoding": "inplace",
						"label": "address",
						"numberOfBytes": "20"
					},
					"t_address_payable": {
						"encoding": "inplace",
						"label": "address payable",
						"numberOfBytes": "20"
					},
					"t_array(t_bytes_storage)dyn_storage": {
						"base": "t_bytes_storage",
						"encoding": "dynamic_array",
						"label": "bytes[]",
						"numberOfBytes": "32"
					},
					"t_bytes_storage": {
						"encoding": "bytes",
						"label": "bytes",
						"numberOfBytes": "32"
					},
					"t_contract(ILendingPoolAddressesProvider)1451": {
						"encoding": "inplace",
						"label": "contract ILendingPoolAddressesProvider",
						"numberOfBytes": "20"
					},
					"t_contract(WBNB)1158": {
						"encoding": "inplace",
						"label": "contract WBNB",
						"numberOfBytes": "20"
					}
				}
			},
			"userdoc": {
				"methods": {}
			}
		}
	}
}