{
	"contracts/Flashloan.sol": {
		"Flashloan": {
			"abi": [
				{
					"inputs": [],
					"payable": false,
					"stateMutability": "nonpayable",
					"type": "constructor"
				},
				{
					"payable": true,
					"stateMutability": "payable",
					"type": "fallback"
				},
				{
					"constant": true,
					"inputs": [],
					"name": "BNB_ADDRESS",
					"outputs": [
						{
							"internalType": "address",
							"name": "",
							"type": "address"
						}
					],
					"payable": false,
					"stateMutability": "view",
					"type": "function"
				},
				{
					"constant": true,
					"inputs": [],
					"name": "addressesProvider",
					"outputs": [
						{
							"internalType": "contract ILendingPoolAddressesProvider",
							"name": "",
							"type": "address"
						}
					],
					"payable": false,
					"stateMutability": "view",
					"type": "function"
				},
				{
					"constant": true,
					"inputs": [],
					"name": "exchangeA",
					"outputs": [
						{
							"internalType": "contract IUniswapV2Pair",
							"name": "",
							"type": "address"
						}
					],
					"payable": false,
					"stateMutability": "view",
					"type": "function"
				},
				{
					"constant": true,
					"inputs": [],
					"name": "exchangeB",
					"outputs": [
						{
							"internalType": "contract IUniswapV2Pair",
							"name": "",
							"type": "address"
						}
					],
					"payable": false,
					"stateMutability": "view",
					"type": "function"
				},
				{
					"constant": false,
					"inputs": [],
					"name": "executeArbi",
					"outputs": [],
					"payable": false,
					"stateMutability": "nonpayable",
					"type": "function"
				},
				{
					"constant": false,
					"inputs": [
						{
							"internalType": "address",
							"name": "_reserve",
							"type": "address"
						},
						{
							"internalType": "uint256",
							"name": "_amount",
							"type": "uint256"
						},
						{
							"internalType": "uint256",
							"name": "_fee",
							"type": "uint256"
						},
						{
							"internalType": "bytes",
							"name": "_params",
							"type": "bytes"
						}
					],
					"name": "executeOperation",
					"outputs": [],
					"payable": false,
					"stateMutability": "nonpayable",
					"type": "function"
				},
				{
					"constant": true,
					"inputs": [],
					"name": "owner",
					"outputs": [
						{
							"internalType": "address",
							"name": "",
							"type": "address"
						}
					],
					"payable": false,
					"stateMutability": "view",
					"type": "function"
				},
				{
					"constant": true,
					"inputs": [],
					"name": "receiver",
					"outputs": [
						{
							"internalType": "address",
							"name": "",
							"type": "address"
						}
					],
					"payable": false,
					"stateMutability": "view",
					"type": "function"
				},
				{
					"constant": false,
					"inputs": [
						{
							"internalType": "uint256",
							"name": "amount",
							"type": "uint256"
						}
					],
					"name": "rescueBNB",
					"outputs": [],
					"payable": false,
					"stateMutability": "nonpayable",
					"type": "function"
				},
				{
					"constant": false,
					"inputs": [
						{
							"internalType": "address",
							"name": "_tokenPay",
							"type": "address"
						},
						{
							"internalType": "address",
							"name": "_tokenSwap",
							"type": "address"
						},
						{
							"internalType": "uint256",
							"name": "_amountTokenPay",
							"type": "uint256"
						},
						{
							"internalType": "address",
							"name": "_targetFactory",
							"type": "address"
						},
						{
							"internalType": "address",
							"name": "_sourceRouter",
							"type": "address"
						},
						{
							"internalType": "address",
							"name": "_targetRouter",
							"type": "address"
						}
					],
					"name": "setParams",
					"outputs": [],
					"payable": false,
					"stateMutability": "nonpayable",
					"type": "function"
				}
			],
			"devdoc": {
				"methods": {}
			},
			"evm": {
				"assembly": "    /* \"contracts/Flashloan.sol\":363:5623  contract Flashloan is FlashLoanReceiverBase {... */\n  mstore(0x40, 0x80)\n    /* \"contracts/base/FlashLoanReceiverBase.sol\":514:653  ILendingPoolAddressesProvider public addressesProvider = ILendingPoolAddressesProvider(address(0xCc0479a98cC66E85806D0Cd7970d6e07f77Fd633)) */\n  0x00\n  dup1\n  sload\n  not(sub(shl(0xa0, 0x01), 0x01))\n  swap1\n  dup2\n  and\n    /* \"contracts/base/FlashLoanReceiverBase.sol\":609:651  0xCc0479a98cC66E85806D0Cd7970d6e07f77Fd633 */\n  0xcc0479a98cc66e85806d0cd7970d6e07f77fd633\n    /* \"contracts/base/FlashLoanReceiverBase.sol\":514:653  ILendingPoolAddressesProvider public addressesProvider = ILendingPoolAddressesProvider(address(0xCc0479a98cC66E85806D0Cd7970d6e07f77Fd633)) */\n  or\n  swap1\n  swap2\n  sstore\n  0x01\n    /* \"contracts/Flashloan.sol\":414:453  address public receiver = address(this) */\n  dup1\n  sload\n  swap1\n  swap2\n  and\n    /* \"contracts/Flashloan.sol\":448:452  this */\n  address\n    /* \"contracts/Flashloan.sol\":414:453  address public receiver = address(this) */\n  or\n  swap1\n  sstore\n    /* \"contracts/Flashloan.sol\":1215:1275  constructor() public {... */\n  callvalue\n    /* \"--CODEGEN--\":5:7   */\n  dup1\n  iszero\n  tag_1\n  jumpi\n    /* \"--CODEGEN--\":30:31   */\n  0x00\n    /* \"--CODEGEN--\":27:28   */\n  dup1\n    /* \"--CODEGEN--\":20:32   */\n  revert\n    /* \"--CODEGEN--\":5:7   */\ntag_1:\n  pop\n    /* \"contracts/Flashloan.sol\":1250:1255  owner */\n  0x02\n    /* \"contracts/Flashloan.sol\":1250:1268  owner = msg.sender */\n  dup1\n  sload\n  not(sub(shl(0xa0, 0x01), 0x01))\n  and\n    /* \"contracts/Flashloan.sol\":1258:1268  msg.sender */\n  caller\n    /* \"contracts/Flashloan.sol\":1250:1268  owner = msg.sender */\n  or\n  swap1\n  sstore\n    /* \"contracts/Flashloan.sol\":363:5623  contract Flashloan is FlashLoanReceiverBase {... */\n  dataSize(sub_0)\n  dup1\n  dataOffset(sub_0)\n  0x00\n  codecopy\n  0x00\n  return\nstop\n\nsub_0: assembly {\n        /* \"contracts/Flashloan.sol\":363:5623  contract Flashloan is FlashLoanReceiverBase {... */\n      mstore(0x40, 0x80)\n      jumpi(tag_1, lt(calldatasize, 0x04))\n      shr(0xe0, calldataload(0x00))\n      dup1\n      0xa2131b91\n      gt\n      tag_12\n      jumpi\n      dup1\n      0xa2131b91\n      eq\n      tag_7\n      jumpi\n      dup1\n      0xc72c4d10\n      eq\n      tag_8\n      jumpi\n      dup1\n      0xd6a79905\n      eq\n      tag_9\n      jumpi\n      dup1\n      0xee872558\n      eq\n      tag_10\n      jumpi\n      dup1\n      0xf7260d3e\n      eq\n      tag_11\n      jumpi\n      jump(tag_1)\n    tag_12:\n      dup1\n      0x20fee44b\n      eq\n      tag_2\n      jumpi\n      dup1\n      0x441b1d30\n      eq\n      tag_3\n      jumpi\n      dup1\n      0x553e8c1e\n      eq\n      tag_4\n      jumpi\n      dup1\n      0x70de629f\n      eq\n      tag_5\n      jumpi\n      dup1\n      0x8da5cb5b\n      eq\n      tag_6\n      jumpi\n    tag_1:\n      stop\n        /* \"contracts/Flashloan.sol\":814:845  IUniswapV2Pair public exchangeB */\n    tag_2:\n      callvalue\n        /* \"--CODEGEN--\":8:17   */\n      dup1\n        /* \"--CODEGEN--\":5:7   */\n      iszero\n      tag_15\n      jumpi\n        /* \"--CODEGEN--\":30:31   */\n      0x00\n        /* \"--CODEGEN--\":27:28   */\n      dup1\n        /* \"--CODEGEN--\":20:32   */\n      revert\n        /* \"--CODEGEN--\":5:7   */\n    tag_15:\n        /* \"contracts/Flashloan.sol\":814:845  IUniswapV2Pair public exchangeB */\n      pop\n      tag_16\n      tag_17\n      jump\t// in\n    tag_16:\n      0x40\n      dup1\n      mload\n      sub(shl(0xa0, 0x01), 0x01)\n      swap1\n      swap3\n      and\n      dup3\n      mstore\n      mload\n      swap1\n      dup2\n      swap1\n      sub\n      0x20\n      add\n      swap1\n      return\n        /* \"contracts/Flashloan.sol\":3514:3615  function rescueBNB(uint256 amount) external{... */\n    tag_3:\n      callvalue\n        /* \"--CODEGEN--\":8:17   */\n      dup1\n        /* \"--CODEGEN--\":5:7   */\n      iszero\n      tag_18\n      jumpi\n        /* \"--CODEGEN--\":30:31   */\n      0x00\n        /* \"--CODEGEN--\":27:28   */\n      dup1\n        /* \"--CODEGEN--\":20:32   */\n      revert\n        /* \"--CODEGEN--\":5:7   */\n    tag_18:\n        /* \"contracts/Flashloan.sol\":3514:3615  function rescueBNB(uint256 amount) external{... */\n      pop\n      tag_1\n      0x04\n      dup1\n      calldatasize\n      sub\n        /* \"--CODEGEN--\":13:15   */\n      0x20\n        /* \"--CODEGEN--\":8:11   */\n      dup2\n        /* \"--CODEGEN--\":5:16   */\n      lt\n        /* \"--CODEGEN--\":2:4   */\n      iszero\n      tag_20\n      jumpi\n        /* \"--CODEGEN--\":29:30   */\n      0x00\n        /* \"--CODEGEN--\":26:27   */\n      dup1\n        /* \"--CODEGEN--\":19:31   */\n      revert\n        /* \"--CODEGEN--\":2:4   */\n    tag_20:\n      pop\n        /* \"contracts/Flashloan.sol\":3514:3615  function rescueBNB(uint256 amount) external{... */\n      calldataload\n      tag_21\n      jump\t// in\n        /* \"contracts/Flashloan.sol\":777:808  IUniswapV2Pair public exchangeA */\n    tag_4:\n      callvalue\n        /* \"--CODEGEN--\":8:17   */\n      dup1\n        /* \"--CODEGEN--\":5:7   */\n      iszero\n      tag_22\n      jumpi\n        /* \"--CODEGEN--\":30:31   */\n      0x00\n        /* \"--CODEGEN--\":27:28   */\n      dup1\n        /* \"--CODEGEN--\":20:32   */\n      revert\n        /* \"--CODEGEN--\":5:7   */\n    tag_22:\n        /* \"contracts/Flashloan.sol\":777:808  IUniswapV2Pair public exchangeA */\n      pop\n      tag_16\n      tag_24\n      jump\t// in\n        /* \"contracts/Flashloan.sol\":459:539  address public constant BNB_ADDRESS = 0xEeeeeEeeeEeEeeEeEeEeeEEEeeeeEeeeeeeeEEeE */\n    tag_5:\n      callvalue\n        /* \"--CODEGEN--\":8:17   */\n      dup1\n        /* \"--CODEGEN--\":5:7   */\n      iszero\n      tag_25\n      jumpi\n        /* \"--CODEGEN--\":30:31   */\n      0x00\n        /* \"--CODEGEN--\":27:28   */\n      dup1\n        /* \"--CODEGEN--\":20:32   */\n      revert\n        /* \"--CODEGEN--\":5:7   */\n    tag_25:\n        /* \"contracts/Flashloan.sol\":459:539  address public constant BNB_ADDRESS = 0xEeeeeEeeeEeEeeEeEeEeeEEEeeeeEeeeeeeeEEeE */\n      pop\n      tag_16\n      tag_27\n      jump\t// in\n        /* \"contracts/Flashloan.sol\":546:566  address public owner */\n    tag_6:\n      callvalue\n        /* \"--CODEGEN--\":8:17   */\n      dup1\n        /* \"--CODEGEN--\":5:7   */\n      iszero\n      tag_28\n      jumpi\n        /* \"--CODEGEN--\":30:31   */\n      0x00\n        /* \"--CODEGEN--\":27:28   */\n      dup1\n        /* \"--CODEGEN--\":20:32   */\n      revert\n        /* \"--CODEGEN--\":5:7   */\n    tag_28:\n        /* \"contracts/Flashloan.sol\":546:566  address public owner */\n      pop\n      tag_16\n      tag_30\n      jump\t// in\n        /* \"contracts/Flashloan.sol\":4406:5615  function executeArbi() public{... */\n    tag_7:\n      callvalue\n        /* \"--CODEGEN--\":8:17   */\n      dup1\n        /* \"--CODEGEN--\":5:7   */\n      iszero\n      tag_31\n      jumpi\n        /* \"--CODEGEN--\":30:31   */\n      0x00\n        /* \"--CODEGEN--\":27:28   */\n      dup1\n        /* \"--CODEGEN--\":20:32   */\n      revert\n        /* \"--CODEGEN--\":5:7   */\n    tag_31:\n        /* \"contracts/Flashloan.sol\":4406:5615  function executeArbi() public{... */\n      pop\n      tag_1\n      tag_33\n      jump\t// in\n        /* \"contracts/base/FlashLoanReceiverBase.sol\":514:653  ILendingPoolAddressesProvider public addressesProvider = ILendingPoolAddressesProvider(address(0xCc0479a98cC66E85806D0Cd7970d6e07f77Fd633)) */\n    tag_8:\n      callvalue\n        /* \"--CODEGEN--\":8:17   */\n      dup1\n        /* \"--CODEGEN--\":5:7   */\n      iszero\n      tag_34\n      jumpi\n        /* \"--CODEGEN--\":30:31   */\n      0x00\n        /* \"--CODEGEN--\":27:28   */\n      dup1\n        /* \"--CODEGEN--\":20:32   */\n      revert\n        /* \"--CODEGEN--\":5:7   */\n    tag_34:\n        /* \"contracts/base/FlashLoanReceiverBase.sol\":514:653  ILendingPoolAddressesProvider public addressesProvider = ILendingPoolAddressesProvider(address(0xCc0479a98cC66E85806D0Cd7970d6e07f77Fd633)) */\n      pop\n      tag_16\n      tag_36\n      jump\t// in\n        /* \"contracts/Flashloan.sol\":3684:4334  function setParams(... */\n    tag_9:\n      callvalue\n        /* \"--CODEGEN--\":8:17   */\n      dup1\n        /* \"--CODEGEN--\":5:7   */\n      iszero\n      tag_37\n      jumpi\n        /* \"--CODEGEN--\":30:31   */\n      0x00\n        /* \"--CODEGEN--\":27:28   */\n      dup1\n        /* \"--CODEGEN--\":20:32   */\n      revert\n        /* \"--CODEGEN--\":5:7   */\n    tag_37:\n        /* \"contracts/Flashloan.sol\":3684:4334  function setParams(... */\n      pop\n      tag_1\n      0x04\n      dup1\n      calldatasize\n      sub\n        /* \"--CODEGEN--\":13:16   */\n      0xc0\n        /* \"--CODEGEN--\":8:11   */\n      dup2\n        /* \"--CODEGEN--\":5:17   */\n      lt\n        /* \"--CODEGEN--\":2:4   */\n      iszero\n      tag_39\n      jumpi\n        /* \"--CODEGEN--\":30:31   */\n      0x00\n        /* \"--CODEGEN--\":27:28   */\n      dup1\n        /* \"--CODEGEN--\":20:32   */\n      revert\n        /* \"--CODEGEN--\":2:4   */\n    tag_39:\n      pop\n      sub(shl(0xa0, 0x01), 0x01)\n        /* \"contracts/Flashloan.sol\":3684:4334  function setParams(... */\n      dup2\n      calldataload\n      dup2\n      and\n      swap2\n      0x20\n      dup2\n      add\n      calldataload\n      dup3\n      and\n      swap2\n      0x40\n      dup3\n      add\n      calldataload\n      swap2\n      0x60\n      dup2\n      add\n      calldataload\n      dup3\n      and\n      swap2\n      0x80\n      dup3\n      add\n      calldataload\n      dup2\n      and\n      swap2\n      0xa0\n      add\n      calldataload\n      and\n      tag_40\n      jump\t// in\n        /* \"contracts/Flashloan.sol\":1286:3508  function executeOperation(... */\n    tag_10:\n      callvalue\n        /* \"--CODEGEN--\":8:17   */\n      dup1\n        /* \"--CODEGEN--\":5:7   */\n      iszero\n      tag_41\n      jumpi\n        /* \"--CODEGEN--\":30:31   */\n      0x00\n        /* \"--CODEGEN--\":27:28   */\n      dup1\n        /* \"--CODEGEN--\":20:32   */\n      revert\n        /* \"--CODEGEN--\":5:7   */\n    tag_41:\n        /* \"contracts/Flashloan.sol\":1286:3508  function executeOperation(... */\n      pop\n      tag_1\n      0x04\n      dup1\n      calldatasize\n      sub\n        /* \"--CODEGEN--\":13:16   */\n      0x80\n        /* \"--CODEGEN--\":8:11   */\n      dup2\n        /* \"--CODEGEN--\":5:17   */\n      lt\n        /* \"--CODEGEN--\":2:4   */\n      iszero\n      tag_43\n      jumpi\n        /* \"--CODEGEN--\":30:31   */\n      0x00\n        /* \"--CODEGEN--\":27:28   */\n      dup1\n        /* \"--CODEGEN--\":20:32   */\n      revert\n        /* \"--CODEGEN--\":2:4   */\n    tag_43:\n      sub(shl(0xa0, 0x01), 0x01)\n        /* \"contracts/Flashloan.sol\":1286:3508  function executeOperation(... */\n      dup3\n      calldataload\n      and\n      swap2\n      0x20\n      dup2\n      add\n      calldataload\n      swap2\n      0x40\n      dup3\n      add\n      calldataload\n      swap2\n      swap1\n      dup2\n      add\n      swap1\n      0x80\n      dup2\n      add\n      0x60\n      dup3\n      add\n      calldataload\n        /* \"--CODEGEN--\":21:32   */\n      0x0100000000\n        /* \"--CODEGEN--\":5:33   */\n      dup2\n      gt\n        /* \"--CODEGEN--\":2:4   */\n      iszero\n      tag_44\n      jumpi\n        /* \"--CODEGEN--\":46:47   */\n      0x00\n        /* \"--CODEGEN--\":43:44   */\n      dup1\n        /* \"--CODEGEN--\":36:48   */\n      revert\n        /* \"--CODEGEN--\":2:4   */\n    tag_44:\n        /* \"contracts/Flashloan.sol\":1286:3508  function executeOperation(... */\n      dup3\n      add\n        /* \"--CODEGEN--\":35:44   */\n      dup4\n        /* \"--CODEGEN--\":28:32   */\n      0x20\n        /* \"--CODEGEN--\":12:26   */\n      dup3\n        /* \"--CODEGEN--\":8:33   */\n      add\n        /* \"--CODEGEN--\":5:45   */\n      gt\n        /* \"--CODEGEN--\":2:4   */\n      iszero\n      tag_45\n      jumpi\n        /* \"--CODEGEN--\":58:59   */\n      0x00\n        /* \"--CODEGEN--\":55:56   */\n      dup1\n        /* \"--CODEGEN--\":48:60   */\n      revert\n        /* \"--CODEGEN--\":2:4   */\n    tag_45:\n        /* \"contracts/Flashloan.sol\":1286:3508  function executeOperation(... */\n      dup1\n      calldataload\n      swap1\n      0x20\n      add\n      swap2\n        /* \"--CODEGEN--\":100:109   */\n      dup5\n        /* \"--CODEGEN--\":95:96   */\n      0x01\n        /* \"--CODEGEN--\":81:93   */\n      dup4\n        /* \"--CODEGEN--\":77:97   */\n      mul\n        /* \"--CODEGEN--\":67:75   */\n      dup5\n        /* \"--CODEGEN--\":63:98   */\n      add\n        /* \"--CODEGEN--\":60:110   */\n      gt\n        /* \"--CODEGEN--\":39:50   */\n      0x0100000000\n        /* \"--CODEGEN--\":25:37   */\n      dup4\n        /* \"--CODEGEN--\":22:51   */\n      gt\n        /* \"--CODEGEN--\":11:118   */\n      or\n        /* \"--CODEGEN--\":8:10   */\n      iszero\n      tag_46\n      jumpi\n        /* \"--CODEGEN--\":131:132   */\n      0x00\n        /* \"--CODEGEN--\":128:129   */\n      dup1\n        /* \"--CODEGEN--\":121:133   */\n      revert\n        /* \"--CODEGEN--\":8:10   */\n    tag_46:\n      pop\n        /* \"contracts/Flashloan.sol\":1286:3508  function executeOperation(... */\n      swap1\n      swap3\n      pop\n      swap1\n      pop\n      tag_47\n      jump\t// in\n        /* \"contracts/Flashloan.sol\":414:453  address public receiver = address(this) */\n    tag_11:\n      callvalue\n        /* \"--CODEGEN--\":8:17   */\n      dup1\n        /* \"--CODEGEN--\":5:7   */\n      iszero\n      tag_48\n      jumpi\n        /* \"--CODEGEN--\":30:31   */\n      0x00\n        /* \"--CODEGEN--\":27:28   */\n      dup1\n        /* \"--CODEGEN--\":20:32   */\n      revert\n        /* \"--CODEGEN--\":5:7   */\n    tag_48:\n        /* \"contracts/Flashloan.sol\":414:453  address public receiver = address(this) */\n      pop\n      tag_16\n      tag_50\n      jump\t// in\n        /* \"contracts/Flashloan.sol\":814:845  IUniswapV2Pair public exchangeB */\n    tag_17:\n      and(sub(shl(0xa0, 0x01), 0x01), sload(0x04))\n      dup2\n      jump\t// out\n        /* \"contracts/Flashloan.sol\":3514:3615  function rescueBNB(uint256 amount) external{... */\n    tag_21:\n        /* \"contracts/Flashloan.sol\":3584:3589  owner */\n      sload(0x02)\n        /* \"contracts/Flashloan.sol\":3568:3608  address(uint160(owner)).transfer(amount) */\n      mload(0x40)\n      sub(shl(0xa0, 0x01), 0x01)\n        /* \"contracts/Flashloan.sol\":3584:3589  owner */\n      swap1\n      swap2\n      and\n      swap1\n        /* \"contracts/Flashloan.sol\":3568:3608  address(uint160(owner)).transfer(amount) */\n      dup3\n      iszero\n      0x08fc\n      mul\n      swap1\n        /* \"contracts/Flashloan.sol\":3601:3607  amount */\n      dup4\n      swap1\n        /* \"contracts/Flashloan.sol\":3584:3589  owner */\n      0x00\n        /* \"contracts/Flashloan.sol\":3568:3608  address(uint160(owner)).transfer(amount) */\n      dup2\n        /* \"contracts/Flashloan.sol\":3584:3589  owner */\n      dup2\n        /* \"contracts/Flashloan.sol\":3568:3608  address(uint160(owner)).transfer(amount) */\n      dup2\n        /* \"contracts/Flashloan.sol\":3601:3607  amount */\n      dup6\n        /* \"contracts/Flashloan.sol\":3584:3589  owner */\n      dup9\n        /* \"contracts/Flashloan.sol\":3568:3608  address(uint160(owner)).transfer(amount) */\n      dup9\n      call\n      swap4\n      pop\n      pop\n      pop\n      pop\n      iszero\n        /* \"--CODEGEN--\":8:17   */\n      dup1\n        /* \"--CODEGEN--\":5:7   */\n      iszero\n      tag_52\n      jumpi\n        /* \"--CODEGEN--\":45:61   */\n      returndatasize\n        /* \"--CODEGEN--\":42:43   */\n      0x00\n        /* \"--CODEGEN--\":39:40   */\n      dup1\n        /* \"--CODEGEN--\":24:62   */\n      returndatacopy\n        /* \"--CODEGEN--\":77:93   */\n      returndatasize\n        /* \"--CODEGEN--\":74:75   */\n      0x00\n        /* \"--CODEGEN--\":67:94   */\n      revert\n        /* \"--CODEGEN--\":5:7   */\n    tag_52:\n        /* \"contracts/Flashloan.sol\":3568:3608  address(uint160(owner)).transfer(amount) */\n      pop\n        /* \"contracts/Flashloan.sol\":3514:3615  function rescueBNB(uint256 amount) external{... */\n      pop\n      jump\t// out\n        /* \"contracts/Flashloan.sol\":777:808  IUniswapV2Pair public exchangeA */\n    tag_24:\n      and(sub(shl(0xa0, 0x01), 0x01), sload(0x03))\n      dup2\n      jump\t// out\n        /* \"contracts/Flashloan.sol\":459:539  address public constant BNB_ADDRESS = 0xEeeeeEeeeEeEeeEeEeEeeEEEeeeeEeeeeeeeEEeE */\n    tag_27:\n        /* \"contracts/Flashloan.sol\":497:539  0xEeeeeEeeeEeEeeEeEeEeeEEEeeeeEeeeeeeeEEeE */\n      0xeeeeeeeeeeeeeeeeeeeeeeeeeeeeeeeeeeeeeeee\n        /* \"contracts/Flashloan.sol\":459:539  address public constant BNB_ADDRESS = 0xEeeeeEeeeEeEeeEeEeEeeEEEeeeeEeeeeeeeEEeE */\n      dup2\n      jump\t// out\n        /* \"contracts/Flashloan.sol\":546:566  address public owner */\n    tag_30:\n      and(sub(shl(0xa0, 0x01), 0x01), sload(0x02))\n      dup2\n      jump\t// out\n        /* \"contracts/Flashloan.sol\":4406:5615  function executeArbi() public{... */\n    tag_33:\n        /* \"contracts/Flashloan.sol\":4448:4457  _tokenPay */\n      and(sub(shl(0xa0, 0x01), 0x01), sload(0x0b))\n        /* \"contracts/Flashloan.sol\":636:678  0xbb4CdB9CBd36B01bD1cBaEBF2De08d9173bc095c */\n      0xbb4cdb9cbd36b01bd1cbaebf2de08d9173bc095c\n        /* \"contracts/Flashloan.sol\":4448:4463  _tokenPay==WBNB */\n      eq\n        /* \"contracts/Flashloan.sol\":4445:4569  if(_tokenPay==WBNB)... */\n      iszero\n      tag_54\n      jumpi\n        /* \"contracts/Flashloan.sol\":4487:4493  token0 */\n      0x07\n        /* \"contracts/Flashloan.sol\":4487:4507  token0 = BNB_ADDRESS */\n      dup1\n      sload\n      not(sub(shl(0xa0, 0x01), 0x01))\n      and\n        /* \"contracts/Flashloan.sol\":497:539  0xEeeeeEeeeEeEeeEeEeEeeEEEeeeeEeeeeeeeEEeE */\n      0xeeeeeeeeeeeeeeeeeeeeeeeeeeeeeeeeeeeeeeee\n        /* \"contracts/Flashloan.sol\":4487:4507  token0 = BNB_ADDRESS */\n      or\n      swap1\n      sstore\n        /* \"contracts/Flashloan.sol\":4445:4569  if(_tokenPay==WBNB)... */\n      jump(tag_55)\n    tag_54:\n        /* \"contracts/Flashloan.sol\":4548:4557  _tokenPay */\n      sload(0x0b)\n        /* \"contracts/Flashloan.sol\":4539:4545  token0 */\n      0x07\n        /* \"contracts/Flashloan.sol\":4539:4557  token0 = _tokenPay */\n      dup1\n      sload\n      not(sub(shl(0xa0, 0x01), 0x01))\n      and\n      sub(shl(0xa0, 0x01), 0x01)\n        /* \"contracts/Flashloan.sol\":4548:4557  _tokenPay */\n      swap1\n      swap3\n      and\n        /* \"contracts/Flashloan.sol\":4539:4557  token0 = _tokenPay */\n      swap2\n      swap1\n      swap2\n      or\n      swap1\n      sstore\n        /* \"contracts/Flashloan.sol\":4445:4569  if(_tokenPay==WBNB)... */\n    tag_55:\n        /* \"contracts/Flashloan.sol\":4587:4597  _tokenSwap */\n      sload(0x0c)\n        /* \"contracts/Flashloan.sol\":4579:4585  token1 */\n      0x08\n        /* \"contracts/Flashloan.sol\":4579:4597  token1= _tokenSwap */\n      dup1\n      sload\n      not(sub(shl(0xa0, 0x01), 0x01))\n      and\n      sub(shl(0xa0, 0x01), 0x01)\n        /* \"contracts/Flashloan.sol\":4587:4597  _tokenSwap */\n      swap3\n      dup4\n      and\n        /* \"contracts/Flashloan.sol\":4579:4597  token1= _tokenSwap */\n      swap1\n      dup2\n      or\n      swap1\n      swap2\n      sstore\n        /* \"contracts/Flashloan.sol\":4767:4776  _tokenPay */\n      sload(0x0b)\n      swap1\n      swap2\n      and\n        /* \"contracts/Flashloan.sol\":4767:4789  _tokenPay !=_tokenSwap */\n      eq\n      iszero\n        /* \"contracts/Flashloan.sol\":4746:4826  require(... */\n      tag_56\n      jumpi\n      0x40\n      dup1\n      mload\n      shl(0xe5, 0x461bcd)\n      dup2\n      mstore\n      0x20\n      0x04\n      dup3\n      add\n      mstore\n      0x0b\n      0x24\n      dup3\n      add\n      mstore\n      shl(0xad, 0x029b0b6b2903830b4b9399)\n      0x44\n      dup3\n      add\n      mstore\n      swap1\n      mload\n      swap1\n      dup2\n      swap1\n      sub\n      0x64\n      add\n      swap1\n      revert\n    tag_56:\n        /* \"contracts/Flashloan.sol\":4871:4885  _sourceFactory */\n      sload(0x0e)\n        /* \"contracts/Flashloan.sol\":4895:4904  _tokenPay */\n      sload(0x0b)\n        /* \"contracts/Flashloan.sol\":4906:4916  _tokenSwap */\n      sload(0x0c)\n        /* \"contracts/Flashloan.sol\":4853:4917  IUniswapV2Factory(_sourceFactory).getPair(_tokenPay, _tokenSwap) */\n      0x40\n      dup1\n      mload\n      shl(0xe0, 0xe6a43905)\n      dup2\n      mstore\n      sub(shl(0xa0, 0x01), 0x01)\n        /* \"contracts/Flashloan.sol\":4895:4904  _tokenPay */\n      swap4\n      dup5\n      and\n        /* \"contracts/Flashloan.sol\":4853:4917  IUniswapV2Factory(_sourceFactory).getPair(_tokenPay, _tokenSwap) */\n      0x04\n      dup3\n      add\n      mstore\n        /* \"contracts/Flashloan.sol\":4906:4916  _tokenSwap */\n      swap2\n      dup4\n      and\n        /* \"contracts/Flashloan.sol\":4853:4917  IUniswapV2Factory(_sourceFactory).getPair(_tokenPay, _tokenSwap) */\n      0x24\n      dup4\n      add\n      mstore\n      mload\n        /* \"contracts/Flashloan.sol\":4871:4885  _sourceFactory */\n      swap2\n      swap1\n      swap3\n      and\n      swap2\n        /* \"contracts/Flashloan.sol\":4853:4894  IUniswapV2Factory(_sourceFactory).getPair */\n      0xe6a43905\n      swap2\n        /* \"contracts/Flashloan.sol\":4853:4917  IUniswapV2Factory(_sourceFactory).getPair(_tokenPay, _tokenSwap) */\n      0x44\n      dup1\n      dup4\n      add\n      swap3\n      0x20\n      swap3\n      swap2\n      swap1\n      dup3\n      swap1\n      sub\n      add\n      dup2\n        /* \"contracts/Flashloan.sol\":4871:4885  _sourceFactory */\n      dup7\n        /* \"contracts/Flashloan.sol\":4853:4917  IUniswapV2Factory(_sourceFactory).getPair(_tokenPay, _tokenSwap) */\n      dup1\n      extcodesize\n      iszero\n        /* \"--CODEGEN--\":5:7   */\n      dup1\n      iszero\n      tag_57\n      jumpi\n        /* \"--CODEGEN--\":30:31   */\n      0x00\n        /* \"--CODEGEN--\":27:28   */\n      dup1\n        /* \"--CODEGEN--\":20:32   */\n      revert\n        /* \"--CODEGEN--\":5:7   */\n    tag_57:\n        /* \"contracts/Flashloan.sol\":4853:4917  IUniswapV2Factory(_sourceFactory).getPair(_tokenPay, _tokenSwap) */\n      pop\n      gas\n      staticcall\n      iszero\n        /* \"--CODEGEN--\":8:17   */\n      dup1\n        /* \"--CODEGEN--\":5:7   */\n      iszero\n      tag_58\n      jumpi\n        /* \"--CODEGEN--\":45:61   */\n      returndatasize\n        /* \"--CODEGEN--\":42:43   */\n      0x00\n        /* \"--CODEGEN--\":39:40   */\n      dup1\n        /* \"--CODEGEN--\":24:62   */\n      returndatacopy\n        /* \"--CODEGEN--\":77:93   */\n      returndatasize\n        /* \"--CODEGEN--\":74:75   */\n      0x00\n        /* \"--CODEGEN--\":67:94   */\n      revert\n        /* \"--CODEGEN--\":5:7   */\n    tag_58:\n        /* \"contracts/Flashloan.sol\":4853:4917  IUniswapV2Factory(_sourceFactory).getPair(_tokenPay, _tokenSwap) */\n      pop\n      pop\n      pop\n      pop\n      mload(0x40)\n      returndatasize\n        /* \"--CODEGEN--\":13:15   */\n      0x20\n        /* \"--CODEGEN--\":8:11   */\n      dup2\n        /* \"--CODEGEN--\":5:16   */\n      lt\n        /* \"--CODEGEN--\":2:4   */\n      iszero\n      tag_59\n      jumpi\n        /* \"--CODEGEN--\":29:30   */\n      0x00\n        /* \"--CODEGEN--\":26:27   */\n      dup1\n        /* \"--CODEGEN--\":19:31   */\n      revert\n        /* \"--CODEGEN--\":2:4   */\n    tag_59:\n      pop\n        /* \"contracts/Flashloan.sol\":4853:4917  IUniswapV2Factory(_sourceFactory).getPair(_tokenPay, _tokenSwap) */\n      mload\n        /* \"contracts/Flashloan.sol\":4838:4850  pairAddress0 */\n      0x09\n        /* \"contracts/Flashloan.sol\":4838:4917  pairAddress0 = IUniswapV2Factory(_sourceFactory).getPair(_tokenPay, _tokenSwap) */\n      dup1\n      sload\n      not(sub(shl(0xa0, 0x01), 0x01))\n      and\n      sub(shl(0xa0, 0x01), 0x01)\n      swap3\n      dup4\n      and\n      or\n      swap1\n      dup2\n      swap1\n      sstore\n        /* \"contracts/Flashloan.sol\":4935:4947  pairAddress0 */\n      and\n        /* \"contracts/Flashloan.sol\":4927:4990  require(pairAddress0 != address(0), \"first pair not available\") */\n      tag_60\n      jumpi\n      0x40\n      dup1\n      mload\n      shl(0xe5, 0x461bcd)\n      dup2\n      mstore\n      0x20\n      0x04\n      dup3\n      add\n      mstore\n      0x18\n      0x24\n      dup3\n      add\n      mstore\n      0x66697273742070616972206e6f7420617661696c61626c650000000000000000\n      0x44\n      dup3\n      add\n      mstore\n      swap1\n      mload\n      swap1\n      dup2\n      swap1\n      sub\n      0x64\n      add\n      swap1\n      revert\n    tag_60:\n        /* \"contracts/Flashloan.sol\":5033:5047  _targetFactory */\n      sload(0x0f)\n        /* \"contracts/Flashloan.sol\":5057:5066  _tokenPay */\n      sload(0x0b)\n        /* \"contracts/Flashloan.sol\":5068:5078  _tokenSwap */\n      sload(0x0c)\n        /* \"contracts/Flashloan.sol\":5015:5079  IUniswapV2Factory(_targetFactory).getPair(_tokenPay, _tokenSwap) */\n      0x40\n      dup1\n      mload\n      shl(0xe0, 0xe6a43905)\n      dup2\n      mstore\n      sub(shl(0xa0, 0x01), 0x01)\n        /* \"contracts/Flashloan.sol\":5057:5066  _tokenPay */\n      swap4\n      dup5\n      and\n        /* \"contracts/Flashloan.sol\":5015:5079  IUniswapV2Factory(_targetFactory).getPair(_tokenPay, _tokenSwap) */\n      0x04\n      dup3\n      add\n      mstore\n        /* \"contracts/Flashloan.sol\":5068:5078  _tokenSwap */\n      swap2\n      dup4\n      and\n        /* \"contracts/Flashloan.sol\":5015:5079  IUniswapV2Factory(_targetFactory).getPair(_tokenPay, _tokenSwap) */\n      0x24\n      dup4\n      add\n      mstore\n      mload\n        /* \"contracts/Flashloan.sol\":5033:5047  _targetFactory */\n      swap2\n      swap1\n      swap3\n      and\n      swap2\n        /* \"contracts/Flashloan.sol\":5015:5056  IUniswapV2Factory(_targetFactory).getPair */\n      0xe6a43905\n      swap2\n        /* \"contracts/Flashloan.sol\":5015:5079  IUniswapV2Factory(_targetFactory).getPair(_tokenPay, _tokenSwap) */\n      0x44\n      dup1\n      dup4\n      add\n      swap3\n      0x20\n      swap3\n      swap2\n      swap1\n      dup3\n      swap1\n      sub\n      add\n      dup2\n        /* \"contracts/Flashloan.sol\":5033:5047  _targetFactory */\n      dup7\n        /* \"contracts/Flashloan.sol\":5015:5079  IUniswapV2Factory(_targetFactory).getPair(_tokenPay, _tokenSwap) */\n      dup1\n      extcodesize\n      iszero\n        /* \"--CODEGEN--\":5:7   */\n      dup1\n      iszero\n      tag_61\n      jumpi\n        /* \"--CODEGEN--\":30:31   */\n      0x00\n        /* \"--CODEGEN--\":27:28   */\n      dup1\n        /* \"--CODEGEN--\":20:32   */\n      revert\n        /* \"--CODEGEN--\":5:7   */\n    tag_61:\n        /* \"contracts/Flashloan.sol\":5015:5079  IUniswapV2Factory(_targetFactory).getPair(_tokenPay, _tokenSwap) */\n      pop\n      gas\n      staticcall\n      iszero\n        /* \"--CODEGEN--\":8:17   */\n      dup1\n        /* \"--CODEGEN--\":5:7   */\n      iszero\n      tag_62\n      jumpi\n        /* \"--CODEGEN--\":45:61   */\n      returndatasize\n        /* \"--CODEGEN--\":42:43   */\n      0x00\n        /* \"--CODEGEN--\":39:40   */\n      dup1\n        /* \"--CODEGEN--\":24:62   */\n      returndatacopy\n        /* \"--CODEGEN--\":77:93   */\n      returndatasize\n        /* \"--CODEGEN--\":74:75   */\n      0x00\n        /* \"--CODEGEN--\":67:94   */\n      revert\n        /* \"--CODEGEN--\":5:7   */\n    tag_62:\n        /* \"contracts/Flashloan.sol\":5015:5079  IUniswapV2Factory(_targetFactory).getPair(_tokenPay, _tokenSwap) */\n      pop\n      pop\n      pop\n      pop\n      mload(0x40)\n      returndatasize\n        /* \"--CODEGEN--\":13:15   */\n      0x20\n        /* \"--CODEGEN--\":8:11   */\n      dup2\n        /* \"--CODEGEN--\":5:16   */\n      lt\n        /* \"--CODEGEN--\":2:4   */\n      iszero\n      tag_63\n      jumpi\n        /* \"--CODEGEN--\":29:30   */\n      0x00\n        /* \"--CODEGEN--\":26:27   */\n      dup1\n        /* \"--CODEGEN--\":19:31   */\n      revert\n        /* \"--CODEGEN--\":2:4   */\n    tag_63:\n      pop\n        /* \"contracts/Flashloan.sol\":5015:5079  IUniswapV2Factory(_targetFactory).getPair(_tokenPay, _tokenSwap) */\n      mload\n        /* \"contracts/Flashloan.sol\":5000:5012  pairAddress1 */\n      0x0a\n        /* \"contracts/Flashloan.sol\":5000:5079  pairAddress1 = IUniswapV2Factory(_targetFactory).getPair(_tokenPay, _tokenSwap) */\n      dup1\n      sload\n      not(sub(shl(0xa0, 0x01), 0x01))\n      and\n      sub(shl(0xa0, 0x01), 0x01)\n      swap3\n      dup4\n      and\n      or\n      swap1\n      sstore\n        /* \"contracts/Flashloan.sol\":5097:5109  pairAddress0 */\n      sload(0x09)\n      and\n        /* \"contracts/Flashloan.sol\":5089:5153  require(pairAddress0 != address(0), \"second pair not available\") */\n      tag_64\n      jumpi\n      0x40\n      dup1\n      mload\n      shl(0xe5, 0x461bcd)\n      dup2\n      mstore\n      0x20\n      0x04\n      dup3\n      add\n      mstore\n      0x19\n      0x24\n      dup3\n      add\n      mstore\n      0x7365636f6e642070616972206e6f7420617661696c61626c6500000000000000\n      0x44\n      dup3\n      add\n      mstore\n      swap1\n      mload\n      swap1\n      dup2\n      swap1\n      sub\n      0x64\n      add\n      swap1\n      revert\n    tag_64:\n        /* \"contracts/Flashloan.sol\":5192:5204  pairAddress0 */\n      sload(0x09)\n        /* \"contracts/Flashloan.sol\":5165:5174  exchangeA */\n      0x03\n        /* \"contracts/Flashloan.sol\":5165:5205  exchangeA = IUniswapV2Pair(pairAddress0) */\n      dup1\n      sload\n      not(sub(shl(0xa0, 0x01), 0x01))\n      swap1\n      dup2\n      and\n      sub(shl(0xa0, 0x01), 0x01)\n        /* \"contracts/Flashloan.sol\":5192:5204  pairAddress0 */\n      swap4\n      dup5\n      and\n        /* \"contracts/Flashloan.sol\":5165:5205  exchangeA = IUniswapV2Pair(pairAddress0) */\n      or\n      swap1\n      swap2\n      sstore\n        /* \"contracts/Flashloan.sol\":5242:5254  pairAddress1 */\n      sload(0x0a)\n        /* \"contracts/Flashloan.sol\":5215:5224  exchangeB */\n      0x04\n        /* \"contracts/Flashloan.sol\":5215:5255  exchangeB = IUniswapV2Pair(pairAddress1) */\n      dup1\n      sload\n      dup4\n      and\n        /* \"contracts/Flashloan.sol\":5242:5254  pairAddress1 */\n      swap2\n      dup5\n      and\n        /* \"contracts/Flashloan.sol\":5215:5255  exchangeB = IUniswapV2Pair(pairAddress1) */\n      swap2\n      swap1\n      swap2\n      or\n      dup2\n      sstore\n        /* \"contracts/Flashloan.sol\":5276:5289  _sourceRouter */\n      sload(0x10)\n      0x05\n        /* \"contracts/Flashloan.sol\":5267:5289  routerA= _sourceRouter */\n      dup1\n      sload\n      dup5\n      and\n        /* \"contracts/Flashloan.sol\":5276:5289  _sourceRouter */\n      swap2\n      dup6\n      and\n        /* \"contracts/Flashloan.sol\":5267:5289  routerA= _sourceRouter */\n      swap2\n      swap1\n      swap2\n      or\n      swap1\n      sstore\n        /* \"contracts/Flashloan.sol\":5309:5322  _targetRouter */\n      sload(0x11)\n      0x06\n        /* \"contracts/Flashloan.sol\":5299:5322  routerB = _targetRouter */\n      dup1\n      sload\n      swap1\n      swap4\n      and\n        /* \"contracts/Flashloan.sol\":5309:5322  _targetRouter */\n      swap1\n      dup5\n      and\n        /* \"contracts/Flashloan.sol\":5299:5322  routerB = _targetRouter */\n      or\n      swap1\n      swap2\n      sstore\n        /* \"contracts/Flashloan.sol\":5333:5355  bytes memory data = \"\" */\n      0x40\n      dup1\n      mload\n      0x20\n      dup1\n      dup3\n      add\n      dup4\n      mstore\n        /* \"contracts/Flashloan.sol\":5192:5204  pairAddress0 */\n      0x00\n        /* \"contracts/Flashloan.sol\":5333:5355  bytes memory data = \"\" */\n      dup1\n      dup4\n      mstore\n        /* \"contracts/Flashloan.sol\":5415:5432  addressesProvider */\n      dup1\n      sload\n        /* \"contracts/Flashloan.sol\":5415:5449  addressesProvider.getLendingPool() */\n      dup5\n      mload\n      shl(0xe0, 0x0261bf8b)\n      dup2\n      mstore\n      swap5\n      mload\n        /* \"contracts/Flashloan.sol\":5333:5355  bytes memory data = \"\" */\n      swap4\n      swap7\n        /* \"contracts/Flashloan.sol\":5192:5204  pairAddress0 */\n      swap2\n      swap6\n        /* \"contracts/Flashloan.sol\":5415:5432  addressesProvider */\n      swap2\n      and\n      swap4\n        /* \"contracts/Flashloan.sol\":5415:5447  addressesProvider.getLendingPool */\n      0x0261bf8b\n      swap4\n        /* \"contracts/Flashloan.sol\":5415:5449  addressesProvider.getLendingPool() */\n      dup2\n      dup4\n      add\n      swap4\n        /* \"contracts/Flashloan.sol\":5333:5355  bytes memory data = \"\" */\n      swap3\n        /* \"contracts/Flashloan.sol\":5415:5449  addressesProvider.getLendingPool() */\n      swap1\n      swap2\n      dup3\n      swap1\n      sub\n      add\n      dup2\n        /* \"contracts/Flashloan.sol\":5415:5432  addressesProvider */\n      dup7\n        /* \"contracts/Flashloan.sol\":5415:5449  addressesProvider.getLendingPool() */\n      dup1\n      extcodesize\n      iszero\n        /* \"--CODEGEN--\":5:7   */\n      dup1\n      iszero\n      tag_65\n      jumpi\n        /* \"--CODEGEN--\":30:31   */\n      0x00\n        /* \"--CODEGEN--\":27:28   */\n      dup1\n        /* \"--CODEGEN--\":20:32   */\n      revert\n        /* \"--CODEGEN--\":5:7   */\n    tag_65:\n        /* \"contracts/Flashloan.sol\":5415:5449  addressesProvider.getLendingPool() */\n      pop\n      gas\n      staticcall\n      iszero\n        /* \"--CODEGEN--\":8:17   */\n      dup1\n        /* \"--CODEGEN--\":5:7   */\n      iszero\n      tag_66\n      jumpi\n        /* \"--CODEGEN--\":45:61   */\n      returndatasize\n        /* \"--CODEGEN--\":42:43   */\n      0x00\n        /* \"--CODEGEN--\":39:40   */\n      dup1\n        /* \"--CODEGEN--\":24:62   */\n      returndatacopy\n        /* \"--CODEGEN--\":77:93   */\n      returndatasize\n        /* \"--CODEGEN--\":74:75   */\n      0x00\n        /* \"--CODEGEN--\":67:94   */\n      revert\n        /* \"--CODEGEN--\":5:7   */\n    tag_66:\n        /* \"contracts/Flashloan.sol\":5415:5449  addressesProvider.getLendingPool() */\n      pop\n      pop\n      pop\n      pop\n      mload(0x40)\n      returndatasize\n        /* \"--CODEGEN--\":13:15   */\n      0x20\n        /* \"--CODEGEN--\":8:11   */\n      dup2\n        /* \"--CODEGEN--\":5:16   */\n      lt\n        /* \"--CODEGEN--\":2:4   */\n      iszero\n      tag_67\n      jumpi\n        /* \"--CODEGEN--\":29:30   */\n      0x00\n        /* \"--CODEGEN--\":26:27   */\n      dup1\n        /* \"--CODEGEN--\":19:31   */\n      revert\n        /* \"--CODEGEN--\":2:4   */\n    tag_67:\n      pop\n        /* \"contracts/Flashloan.sol\":5415:5449  addressesProvider.getLendingPool() */\n      mload\n        /* \"contracts/Flashloan.sol\":5568:5576  receiver */\n      sload(0x01)\n        /* \"contracts/Flashloan.sol\":5578:5584  token0 */\n      sload(0x07)\n        /* \"contracts/Flashloan.sol\":5586:5601  _amountTokenPay */\n      sload(0x0d)\n        /* \"contracts/Flashloan.sol\":5546:5608  lendingPool.flashLoan(receiver, token0, _amountTokenPay, data) */\n      mload(0x40)\n      shl(0xe1, 0x2e7ff4ef)\n      dup2\n      mstore\n      sub(shl(0xa0, 0x01), 0x01)\n        /* \"contracts/Flashloan.sol\":5568:5576  receiver */\n      swap4\n      dup5\n      and\n        /* \"contracts/Flashloan.sol\":5546:5608  lendingPool.flashLoan(receiver, token0, _amountTokenPay, data) */\n      0x04\n      dup3\n      add\n      dup2\n      dup2\n      mstore\n        /* \"contracts/Flashloan.sol\":5578:5584  token0 */\n      swap4\n      dup6\n      and\n        /* \"contracts/Flashloan.sol\":5546:5608  lendingPool.flashLoan(receiver, token0, _amountTokenPay, data) */\n      0x24\n      dup4\n      add\n      dup2\n      swap1\n      mstore\n      0x44\n      dup4\n      add\n      dup5\n      swap1\n      mstore\n      0x80\n      0x64\n      dup5\n      add\n      swap1\n      dup2\n      mstore\n      dup10\n      mload\n      0x84\n      dup6\n      add\n      mstore\n      dup10\n      mload\n        /* \"contracts/Flashloan.sol\":5415:5449  addressesProvider.getLendingPool() */\n      swap8\n      swap9\n      pop\n        /* \"contracts/Flashloan.sol\":5546:5567  lendingPool.flashLoan */\n      swap6\n      dup9\n      and\n      swap7\n      0x5cffe9de\n      swap7\n        /* \"contracts/Flashloan.sol\":5568:5576  receiver */\n      swap3\n      swap6\n        /* \"contracts/Flashloan.sol\":5578:5584  token0 */\n      swap2\n      swap5\n        /* \"contracts/Flashloan.sol\":5586:5601  _amountTokenPay */\n      swap4\n        /* \"contracts/Flashloan.sol\":5603:5607  data */\n      dup11\n      swap4\n        /* \"contracts/Flashloan.sol\":5546:5608  lendingPool.flashLoan(receiver, token0, _amountTokenPay, data) */\n      swap2\n      0xa4\n      swap1\n      swap2\n      add\n      swap1\n        /* \"contracts/Flashloan.sol\":5415:5449  addressesProvider.getLendingPool() */\n      0x20\n        /* \"contracts/Flashloan.sol\":5546:5608  lendingPool.flashLoan(receiver, token0, _amountTokenPay, data) */\n      dup6\n      add\n      swap1\n      dup1\n      dup4\n      dup4\n        /* \"contracts/Flashloan.sol\":5568:5576  receiver */\n      0x00\n        /* \"--CODEGEN--\":8:108   */\n    tag_68:\n        /* \"--CODEGEN--\":33:36   */\n      dup4\n        /* \"--CODEGEN--\":30:31   */\n      dup2\n        /* \"--CODEGEN--\":27:37   */\n      lt\n        /* \"--CODEGEN--\":8:108   */\n      iszero\n      tag_70\n      jumpi\n        /* \"--CODEGEN--\":90:101   */\n      dup2\n      dup2\n      add\n        /* \"--CODEGEN--\":84:102   */\n      mload\n        /* \"--CODEGEN--\":71:82   */\n      dup4\n      dup3\n      add\n        /* \"--CODEGEN--\":64:103   */\n      mstore\n        /* \"--CODEGEN--\":52:54   */\n      0x20\n        /* \"--CODEGEN--\":45:55   */\n      add\n        /* \"--CODEGEN--\":8:108   */\n      jump(tag_68)\n    tag_70:\n        /* \"--CODEGEN--\":12:26   */\n      pop\n        /* \"contracts/Flashloan.sol\":5546:5608  lendingPool.flashLoan(receiver, token0, _amountTokenPay, data) */\n      pop\n      pop\n      pop\n      swap1\n      pop\n      swap1\n      dup2\n      add\n      swap1\n      0x1f\n      and\n      dup1\n      iszero\n      tag_71\n      jumpi\n      dup1\n      dup3\n      sub\n      dup1\n      mload\n      0x01\n      dup4\n      0x20\n      sub\n      0x0100\n      exp\n      sub\n      not\n      and\n      dup2\n      mstore\n      0x20\n      add\n      swap2\n      pop\n    tag_71:\n      pop\n      swap6\n      pop\n      pop\n      pop\n      pop\n      pop\n      pop\n      0x00\n      mload(0x40)\n      dup1\n      dup4\n      sub\n      dup2\n      0x00\n      dup8\n      dup1\n      extcodesize\n      iszero\n        /* \"--CODEGEN--\":8:17   */\n      dup1\n        /* \"--CODEGEN--\":5:7   */\n      iszero\n      tag_72\n      jumpi\n        /* \"--CODEGEN--\":30:31   */\n      0x00\n        /* \"--CODEGEN--\":27:28   */\n      dup1\n        /* \"--CODEGEN--\":20:32   */\n      revert\n        /* \"--CODEGEN--\":5:7   */\n    tag_72:\n        /* \"contracts/Flashloan.sol\":5546:5608  lendingPool.flashLoan(receiver, token0, _amountTokenPay, data) */\n      pop\n      gas\n      call\n      iszero\n        /* \"--CODEGEN--\":8:17   */\n      dup1\n        /* \"--CODEGEN--\":5:7   */\n      iszero\n      tag_73\n      jumpi\n        /* \"--CODEGEN--\":45:61   */\n      returndatasize\n        /* \"--CODEGEN--\":42:43   */\n      0x00\n        /* \"--CODEGEN--\":39:40   */\n      dup1\n        /* \"--CODEGEN--\":24:62   */\n      returndatacopy\n        /* \"--CODEGEN--\":77:93   */\n      returndatasize\n        /* \"--CODEGEN--\":74:75   */\n      0x00\n        /* \"--CODEGEN--\":67:94   */\n      revert\n        /* \"--CODEGEN--\":5:7   */\n    tag_73:\n        /* \"contracts/Flashloan.sol\":5546:5608  lendingPool.flashLoan(receiver, token0, _amountTokenPay, data) */\n      pop\n      pop\n      pop\n      pop\n        /* \"contracts/Flashloan.sol\":4406:5615  function executeArbi() public{... */\n      pop\n      pop\n      jump\t// out\n        /* \"contracts/base/FlashLoanReceiverBase.sol\":514:653  ILendingPoolAddressesProvider public addressesProvider = ILendingPoolAddressesProvider(address(0xCc0479a98cC66E85806D0Cd7970d6e07f77Fd633)) */\n    tag_36:\n      and(sub(shl(0xa0, 0x01), 0x01), sload(0x00))\n      dup2\n      jump\t// out\n        /* \"contracts/Flashloan.sol\":3684:4334  function setParams(... */\n    tag_40:\n      pop\n      pop\n        /* \"contracts/Flashloan.sol\":4182:4196  _sourceFactory */\n      0x0e\n      dup1\n      sload\n      not(sub(shl(0xa0, 0x01), 0x01))\n        /* \"contracts/Flashloan.sol\":4165:4196  _sourceFactory = _sourceFactory */\n      dup2\n      and\n      sub(shl(0xa0, 0x01), 0x01)\n        /* \"contracts/Flashloan.sol\":4182:4196  _sourceFactory */\n      swap1\n      swap2\n      and\n        /* \"contracts/Flashloan.sol\":4165:4196  _sourceFactory = _sourceFactory */\n      or\n      swap1\n      sstore\n      pop\n      pop\n      pop\n      pop\n        /* \"contracts/Flashloan.sol\":3684:4334  function setParams(... */\n      jump\t// out\n        /* \"contracts/Flashloan.sol\":1286:3508  function executeOperation(... */\n    tag_47:\n        /* \"contracts/Flashloan.sol\":1475:1518  getBalanceInternal(address(this), _reserve) */\n      tag_76\n        /* \"contracts/Flashloan.sol\":1502:1506  this */\n      address\n        /* \"contracts/Flashloan.sol\":1509:1517  _reserve */\n      dup7\n        /* \"contracts/Flashloan.sol\":1475:1493  getBalanceInternal */\n      tag_77\n        /* \"contracts/Flashloan.sol\":1475:1518  getBalanceInternal(address(this), _reserve) */\n      jump\t// in\n    tag_76:\n        /* \"contracts/Flashloan.sol\":1464:1471  _amount */\n      dup5\n        /* \"contracts/Flashloan.sol\":1464:1518  _amount <= getBalanceInternal(address(this), _reserve) */\n      gt\n      iszero\n        /* \"contracts/Flashloan.sol\":1443:1590  require(... */\n      tag_78\n      jumpi\n      mload(0x40)\n      shl(0xe5, 0x461bcd)\n      dup2\n      mstore\n      0x04\n      add\n      dup1\n      dup1\n      0x20\n      add\n      dup3\n      dup2\n      sub\n      dup3\n      mstore\n      0x2e\n      dup2\n      mstore\n      0x20\n      add\n      dup1\n      data_8fe07d1a7bc8ed40574aa57beae4fbd43367cc89459755c316997d76d102b27d\n      0x2e\n      swap2\n      codecopy\n      0x40\n      add\n      swap2\n      pop\n      pop\n      mload(0x40)\n      dup1\n      swap2\n      sub\n      swap1\n      revert\n    tag_78:\n        /* \"contracts/Flashloan.sol\":3402:3419  uint256 totalDebt */\n      0x00\n        /* \"contracts/Flashloan.sol\":3422:3439  _amount.add(_fee) */\n      tag_79\n        /* \"contracts/Flashloan.sol\":3422:3429  _amount */\n      dup6\n        /* \"contracts/Flashloan.sol\":3434:3438  _fee */\n      dup6\n        /* \"contracts/Flashloan.sol\":3422:3439  _amount.add(_fee) */\n      0xffffffff\n        /* \"contracts/Flashloan.sol\":3422:3433  _amount.add */\n      tag_80\n        /* \"contracts/Flashloan.sol\":3422:3439  _amount.add(_fee) */\n      and\n      jump\t// in\n    tag_79:\n        /* \"contracts/Flashloan.sol\":3402:3439  uint256 totalDebt = _amount.add(_fee) */\n      swap1\n      pop\n        /* \"contracts/Flashloan.sol\":3449:3501  transferFundsBackToPoolInternal(_reserve, totalDebt) */\n      tag_73\n        /* \"contracts/Flashloan.sol\":3481:3489  _reserve */\n      dup7\n        /* \"contracts/Flashloan.sol\":3491:3500  totalDebt */\n      dup3\n        /* \"contracts/Flashloan.sol\":3449:3480  transferFundsBackToPoolInternal */\n      tag_82\n        /* \"contracts/Flashloan.sol\":3449:3501  transferFundsBackToPoolInternal(_reserve, totalDebt) */\n      jump\t// in\n        /* \"contracts/Flashloan.sol\":414:453  address public receiver = address(this) */\n    tag_50:\n      and(sub(shl(0xa0, 0x01), 0x01), sload(0x01))\n      dup2\n      jump\t// out\n        /* \"contracts/base/FlashLoanReceiverBase.sol\":1397:1664  function getBalanceInternal(address _target, address _reserve)... */\n    tag_77:\n        /* \"contracts/base/FlashLoanReceiverBase.sol\":1507:1514  uint256 */\n      0x00\n      sub(shl(0xa0, 0x01), 0x01)\n        /* \"contracts/base/FlashLoanReceiverBase.sol\":1534:1557  _reserve == BNB_ADDRESS */\n      dup3\n      and\n        /* \"contracts/base/FlashLoanReceiverBase.sol\":702:744  0xEeeeeEeeeEeEeeEeEeEeeEEEeeeeEeeeeeeeEEeE */\n      0xeeeeeeeeeeeeeeeeeeeeeeeeeeeeeeeeeeeeeeee\n        /* \"contracts/base/FlashLoanReceiverBase.sol\":1534:1557  _reserve == BNB_ADDRESS */\n      eq\n        /* \"contracts/base/FlashLoanReceiverBase.sol\":1530:1606  if (_reserve == BNB_ADDRESS) {... */\n      iszero\n      tag_84\n      jumpi\n      pop\n      sub(shl(0xa0, 0x01), 0x01)\n        /* \"contracts/base/FlashLoanReceiverBase.sol\":1580:1595  _target.balance */\n      dup3\n      and\n      balance\n        /* \"contracts/base/FlashLoanReceiverBase.sol\":1573:1595  return _target.balance */\n      jump(tag_83)\n        /* \"contracts/base/FlashLoanReceiverBase.sol\":1530:1606  if (_reserve == BNB_ADDRESS) {... */\n    tag_84:\n        /* \"contracts/base/FlashLoanReceiverBase.sol\":1629:1637  _reserve */\n      dup2\n      sub(shl(0xa0, 0x01), 0x01)\n        /* \"contracts/base/FlashLoanReceiverBase.sol\":1622:1648  IERC20(_reserve).balanceOf */\n      and\n      0x70a08231\n        /* \"contracts/base/FlashLoanReceiverBase.sol\":1649:1656  _target */\n      dup5\n        /* \"contracts/base/FlashLoanReceiverBase.sol\":1622:1657  IERC20(_reserve).balanceOf(_target) */\n      mload(0x40)\n      dup3\n      0xffffffff\n      and\n      0xe0\n      shl\n      dup2\n      mstore\n      0x04\n      add\n      dup1\n      dup3\n      sub(shl(0xa0, 0x01), 0x01)\n      and\n      sub(shl(0xa0, 0x01), 0x01)\n      and\n      dup2\n      mstore\n      0x20\n      add\n      swap2\n      pop\n      pop\n      0x20\n      mload(0x40)\n      dup1\n      dup4\n      sub\n      dup2\n      dup7\n      dup1\n      extcodesize\n      iszero\n        /* \"--CODEGEN--\":8:17   */\n      dup1\n        /* \"--CODEGEN--\":5:7   */\n      iszero\n      tag_85\n      jumpi\n        /* \"--CODEGEN--\":30:31   */\n      0x00\n        /* \"--CODEGEN--\":27:28   */\n      dup1\n        /* \"--CODEGEN--\":20:32   */\n      revert\n        /* \"--CODEGEN--\":5:7   */\n    tag_85:\n        /* \"contracts/base/FlashLoanReceiverBase.sol\":1622:1657  IERC20(_reserve).balanceOf(_target) */\n      pop\n      gas\n      staticcall\n      iszero\n        /* \"--CODEGEN--\":8:17   */\n      dup1\n        /* \"--CODEGEN--\":5:7   */\n      iszero\n      tag_86\n      jumpi\n        /* \"--CODEGEN--\":45:61   */\n      returndatasize\n        /* \"--CODEGEN--\":42:43   */\n      0x00\n        /* \"--CODEGEN--\":39:40   */\n      dup1\n        /* \"--CODEGEN--\":24:62   */\n      returndatacopy\n        /* \"--CODEGEN--\":77:93   */\n      returndatasize\n        /* \"--CODEGEN--\":74:75   */\n      0x00\n        /* \"--CODEGEN--\":67:94   */\n      revert\n        /* \"--CODEGEN--\":5:7   */\n    tag_86:\n        /* \"contracts/base/FlashLoanReceiverBase.sol\":1622:1657  IERC20(_reserve).balanceOf(_target) */\n      pop\n      pop\n      pop\n      pop\n      mload(0x40)\n      returndatasize\n        /* \"--CODEGEN--\":13:15   */\n      0x20\n        /* \"--CODEGEN--\":8:11   */\n      dup2\n        /* \"--CODEGEN--\":5:16   */\n      lt\n        /* \"--CODEGEN--\":2:4   */\n      iszero\n      tag_87\n      jumpi\n        /* \"--CODEGEN--\":29:30   */\n      0x00\n        /* \"--CODEGEN--\":26:27   */\n      dup1\n        /* \"--CODEGEN--\":19:31   */\n      revert\n        /* \"--CODEGEN--\":2:4   */\n    tag_87:\n      pop\n        /* \"contracts/base/FlashLoanReceiverBase.sol\":1622:1657  IERC20(_reserve).balanceOf(_target) */\n      mload\n      swap1\n      pop\n        /* \"contracts/base/FlashLoanReceiverBase.sol\":1397:1664  function getBalanceInternal(address _target, address _reserve)... */\n    tag_83:\n      swap3\n      swap2\n      pop\n      pop\n      jump\t// out\n        /* \"contracts/utils/SafeMath.sol\":834:1010  function add(uint256 a, uint256 b) internal pure returns (uint256) {... */\n    tag_80:\n        /* \"contracts/utils/SafeMath.sol\":892:899  uint256 */\n      0x00\n        /* \"contracts/utils/SafeMath.sol\":923:928  a + b */\n      dup3\n      dup3\n      add\n        /* \"contracts/utils/SafeMath.sol\":946:952  c >= a */\n      dup4\n      dup2\n      lt\n      iszero\n        /* \"contracts/utils/SafeMath.sol\":938:984  require(c >= a, \"SafeMath: addition overflow\") */\n      tag_89\n      jumpi\n      0x40\n      dup1\n      mload\n      shl(0xe5, 0x461bcd)\n      dup2\n      mstore\n      0x20\n      0x04\n      dup3\n      add\n      mstore\n      0x1b\n      0x24\n      dup3\n      add\n      mstore\n      0x536166654d6174683a206164646974696f6e206f766572666c6f770000000000\n      0x44\n      dup3\n      add\n      mstore\n      swap1\n      mload\n      swap1\n      dup2\n      swap1\n      sub\n      0x64\n      add\n      swap1\n      revert\n    tag_89:\n        /* \"contracts/utils/SafeMath.sol\":1002:1003  c */\n      swap4\n        /* \"contracts/utils/SafeMath.sol\":834:1010  function add(uint256 a, uint256 b) internal pure returns (uint256) {... */\n      swap3\n      pop\n      pop\n      pop\n      jump\t// out\n        /* \"contracts/base/FlashLoanReceiverBase.sol\":787:1013  function transferFundsBackToPoolInternal(address _reserve, uint256 _amount)... */\n    tag_82:\n        /* \"contracts/base/FlashLoanReceiverBase.sol\":894:914  address payable core */\n      0x00\n        /* \"contracts/base/FlashLoanReceiverBase.sol\":917:934  addressesProvider */\n      dup1\n      0x00\n      swap1\n      sload\n      swap1\n      0x0100\n      exp\n      swap1\n      div\n      sub(shl(0xa0, 0x01), 0x01)\n      and\n      sub(shl(0xa0, 0x01), 0x01)\n        /* \"contracts/base/FlashLoanReceiverBase.sol\":917:953  addressesProvider.getLendingPoolCore */\n      and\n      0xed6ff760\n        /* \"contracts/base/FlashLoanReceiverBase.sol\":917:955  addressesProvider.getLendingPoolCore() */\n      mload(0x40)\n      dup2\n      0xffffffff\n      and\n      0xe0\n      shl\n      dup2\n      mstore\n      0x04\n      add\n      0x20\n      mload(0x40)\n      dup1\n      dup4\n      sub\n      dup2\n      dup7\n      dup1\n      extcodesize\n      iszero\n        /* \"--CODEGEN--\":8:17   */\n      dup1\n        /* \"--CODEGEN--\":5:7   */\n      iszero\n      tag_91\n      jumpi\n        /* \"--CODEGEN--\":30:31   */\n      0x00\n        /* \"--CODEGEN--\":27:28   */\n      dup1\n        /* \"--CODEGEN--\":20:32   */\n      revert\n        /* \"--CODEGEN--\":5:7   */\n    tag_91:\n        /* \"contracts/base/FlashLoanReceiverBase.sol\":917:955  addressesProvider.getLendingPoolCore() */\n      pop\n      gas\n      staticcall\n      iszero\n        /* \"--CODEGEN--\":8:17   */\n      dup1\n        /* \"--CODEGEN--\":5:7   */\n      iszero\n      tag_92\n      jumpi\n        /* \"--CODEGEN--\":45:61   */\n      returndatasize\n        /* \"--CODEGEN--\":42:43   */\n      0x00\n        /* \"--CODEGEN--\":39:40   */\n      dup1\n        /* \"--CODEGEN--\":24:62   */\n      returndatacopy\n        /* \"--CODEGEN--\":77:93   */\n      returndatasize\n        /* \"--CODEGEN--\":74:75   */\n      0x00\n        /* \"--CODEGEN--\":67:94   */\n      revert\n        /* \"--CODEGEN--\":5:7   */\n    tag_92:\n        /* \"contracts/base/FlashLoanReceiverBase.sol\":917:955  addressesProvider.getLendingPoolCore() */\n      pop\n      pop\n      pop\n      pop\n      mload(0x40)\n      returndatasize\n        /* \"--CODEGEN--\":13:15   */\n      0x20\n        /* \"--CODEGEN--\":8:11   */\n      dup2\n        /* \"--CODEGEN--\":5:16   */\n      lt\n        /* \"--CODEGEN--\":2:4   */\n      iszero\n      tag_93\n      jumpi\n        /* \"--CODEGEN--\":29:30   */\n      0x00\n        /* \"--CODEGEN--\":26:27   */\n      dup1\n        /* \"--CODEGEN--\":19:31   */\n      revert\n        /* \"--CODEGEN--\":2:4   */\n    tag_93:\n      pop\n        /* \"contracts/base/FlashLoanReceiverBase.sol\":917:955  addressesProvider.getLendingPoolCore() */\n      mload\n      swap1\n      pop\n        /* \"contracts/base/FlashLoanReceiverBase.sol\":965:1006  transferInternal(core, _reserve, _amount) */\n      tag_94\n        /* \"contracts/base/FlashLoanReceiverBase.sol\":917:955  addressesProvider.getLendingPoolCore() */\n      dup2\n        /* \"contracts/base/FlashLoanReceiverBase.sol\":988:996  _reserve */\n      dup5\n        /* \"contracts/base/FlashLoanReceiverBase.sol\":998:1005  _amount */\n      dup5\n        /* \"contracts/base/FlashLoanReceiverBase.sol\":965:981  transferInternal */\n      tag_95\n        /* \"contracts/base/FlashLoanReceiverBase.sol\":965:1006  transferInternal(core, _reserve, _amount) */\n      jump\t// in\n    tag_94:\n        /* \"contracts/base/FlashLoanReceiverBase.sol\":787:1013  function transferFundsBackToPoolInternal(address _reserve, uint256 _amount)... */\n      pop\n      pop\n      pop\n      jump\t// out\n        /* \"contracts/base/FlashLoanReceiverBase.sol\":1019:1387  function transferInternal(... */\n    tag_95:\n      sub(shl(0xa0, 0x01), 0x01)\n        /* \"contracts/base/FlashLoanReceiverBase.sol\":1163:1186  _reserve == BNB_ADDRESS */\n      dup3\n      and\n        /* \"contracts/base/FlashLoanReceiverBase.sol\":702:744  0xEeeeeEeeeEeEeeEeEeEeeEEEeeeeEeeeeeeeEEeE */\n      0xeeeeeeeeeeeeeeeeeeeeeeeeeeeeeeeeeeeeeeee\n        /* \"contracts/base/FlashLoanReceiverBase.sol\":1163:1186  _reserve == BNB_ADDRESS */\n      eq\n        /* \"contracts/base/FlashLoanReceiverBase.sol\":1159:1319  if (_reserve == BNB_ADDRESS) {... */\n      iszero\n      tag_97\n      jumpi\n        /* \"contracts/base/FlashLoanReceiverBase.sol\":1241:1288  _destination.call.value(_amount).gas(50000)(\"\") */\n      mload(0x40)\n      sub(shl(0xa0, 0x01), 0x01)\n        /* \"contracts/base/FlashLoanReceiverBase.sol\":1241:1258  _destination.call */\n      dup5\n      and\n      swap1\n        /* \"contracts/base/FlashLoanReceiverBase.sol\":1278:1283  50000 */\n      0xc350\n      swap1\n        /* \"contracts/base/FlashLoanReceiverBase.sol\":1265:1272  _amount */\n      dup4\n      swap1\n        /* \"contracts/base/FlashLoanReceiverBase.sol\":1241:1288  _destination.call.value(_amount).gas(50000)(\"\") */\n      0x00\n      dup2\n      dup2\n      dup2\n        /* \"contracts/base/FlashLoanReceiverBase.sol\":1265:1272  _amount */\n      dup6\n        /* \"contracts/base/FlashLoanReceiverBase.sol\":1241:1258  _destination.call */\n      dup9\n        /* \"contracts/base/FlashLoanReceiverBase.sol\":1278:1283  50000 */\n      dup9\n        /* \"contracts/base/FlashLoanReceiverBase.sol\":1241:1288  _destination.call.value(_amount).gas(50000)(\"\") */\n      call\n      swap4\n      pop\n      pop\n      pop\n      pop\n      returndatasize\n        /* \"--CODEGEN--\":14:15   */\n      dup1\n        /* \"--CODEGEN--\":21:22   */\n      0x00\n        /* \"--CODEGEN--\":16:47   */\n      dup2\n      eq\n      tag_99\n      jumpi\n        /* \"--CODEGEN--\":75:79   */\n      0x40\n        /* \"--CODEGEN--\":69:80   */\n      mload\n        /* \"--CODEGEN--\":64:80   */\n      swap2\n      pop\n        /* \"--CODEGEN--\":144:148   */\n      0x1f\n        /* \"--CODEGEN--\":140:149   */\n      not\n        /* \"--CODEGEN--\":133:137   */\n      0x3f\n        /* \"--CODEGEN--\":115:131   */\n      returndatasize\n        /* \"--CODEGEN--\":111:138   */\n      add\n        /* \"--CODEGEN--\":107:150   */\n      and\n        /* \"--CODEGEN--\":104:105   */\n      dup3\n        /* \"--CODEGEN--\":100:151   */\n      add\n        /* \"--CODEGEN--\":94:98   */\n      0x40\n        /* \"--CODEGEN--\":87:152   */\n      mstore\n        /* \"--CODEGEN--\":169:185   */\n      returndatasize\n        /* \"--CODEGEN--\":166:167   */\n      dup3\n        /* \"--CODEGEN--\":159:186   */\n      mstore\n        /* \"--CODEGEN--\":225:241   */\n      returndatasize\n        /* \"--CODEGEN--\":222:223   */\n      0x00\n        /* \"--CODEGEN--\":215:219   */\n      0x20\n        /* \"--CODEGEN--\":212:213   */\n      dup5\n        /* \"--CODEGEN--\":208:220   */\n      add\n        /* \"--CODEGEN--\":193:242   */\n      returndatacopy\n        /* \"--CODEGEN--\":7:249   */\n      jump(tag_98)\n        /* \"--CODEGEN--\":16:47   */\n    tag_99:\n        /* \"--CODEGEN--\":36:40   */\n      0x60\n        /* \"--CODEGEN--\":31:40   */\n      swap2\n      pop\n        /* \"--CODEGEN--\":7:249   */\n    tag_98:\n      pop\n        /* \"contracts/base/FlashLoanReceiverBase.sol\":1241:1288  _destination.call.value(_amount).gas(50000)(\"\") */\n      pop\n      pop\n        /* \"contracts/base/FlashLoanReceiverBase.sol\":1302:1309  return; */\n      jump(tag_94)\n        /* \"contracts/base/FlashLoanReceiverBase.sol\":1159:1319  if (_reserve == BNB_ADDRESS) {... */\n    tag_97:\n        /* \"contracts/base/FlashLoanReceiverBase.sol\":1328:1380  IERC20(_reserve).safeTransfer(_destination, _amount) */\n      tag_94\n      sub(shl(0xa0, 0x01), 0x01)\n        /* \"contracts/base/FlashLoanReceiverBase.sol\":1328:1357  IERC20(_reserve).safeTransfer */\n      dup4\n      and\n        /* \"contracts/base/FlashLoanReceiverBase.sol\":1358:1370  _destination */\n      dup5\n        /* \"contracts/base/FlashLoanReceiverBase.sol\":1372:1379  _amount */\n      dup4\n        /* \"contracts/base/FlashLoanReceiverBase.sol\":1328:1380  IERC20(_reserve).safeTransfer(_destination, _amount) */\n      0xffffffff\n        /* \"contracts/base/FlashLoanReceiverBase.sol\":1328:1357  IERC20(_reserve).safeTransfer */\n      tag_101\n        /* \"contracts/base/FlashLoanReceiverBase.sol\":1328:1380  IERC20(_reserve).safeTransfer(_destination, _amount) */\n      and\n      jump\t// in\n        /* \"contracts/utils/SafeERC20.sol\":643:817  function safeTransfer(IERC20 token, address to, uint256 value) internal {... */\n    tag_101:\n        /* \"contracts/utils/SafeERC20.sol\":751:809  abi.encodeWithSelector(token.transfer.selector, to, value) */\n      0x40\n      dup1\n      mload\n      sub(shl(0xa0, 0x01), 0x01)\n      dup5\n      and\n      0x24\n      dup3\n      add\n      mstore\n      0x44\n      dup1\n      dup3\n      add\n      dup5\n      swap1\n      mstore\n      dup3\n      mload\n        /* \"--CODEGEN--\":26:47   */\n      dup1\n      dup4\n      sub\n        /* \"--CODEGEN--\":22:54   */\n      swap1\n      swap2\n      add\n        /* \"--CODEGEN--\":6:55   */\n      dup2\n      mstore\n        /* \"contracts/utils/SafeERC20.sol\":751:809  abi.encodeWithSelector(token.transfer.selector, to, value) */\n      0x64\n      swap1\n      swap2\n      add\n      swap1\n      swap2\n      mstore\n      0x20\n        /* \"--CODEGEN--\":25:43   */\n      dup2\n      add\n        /* \"--CODEGEN--\":61:78   */\n      dup1\n      mload\n      sub(shl(0xe0, 0x01), 0x01)\n        /* \"--CODEGEN--\":182:197   */\n      and\n      shl(0xe0, 0xa9059cbb)\n        /* \"--CODEGEN--\":179:208   */\n      or\n        /* \"--CODEGEN--\":160:209   */\n      swap1\n      mstore\n        /* \"contracts/utils/SafeERC20.sol\":725:810  callOptionalReturn(token, abi.encodeWithSelector(token.transfer.selector, to, value)) */\n      tag_94\n      swap1\n        /* \"contracts/utils/SafeERC20.sol\":744:749  token */\n      dup5\n      swap1\n        /* \"contracts/utils/SafeERC20.sol\":3242:3269  address(token).isContract() */\n      tag_106\n        /* \"contracts/utils/SafeERC20.sol\":3250:3255  token */\n      dup3\n      sub(shl(0xa0, 0x01), 0x01)\n        /* \"contracts/utils/SafeERC20.sol\":3242:3267  address(token).isContract */\n      and\n      tag_107\n        /* \"contracts/utils/SafeERC20.sol\":3242:3269  address(token).isContract() */\n      jump\t// in\n    tag_106:\n        /* \"contracts/utils/SafeERC20.sol\":3234:3305  require(address(token).isContract(), \"SafeERC20: call to non-contract\") */\n      tag_108\n      jumpi\n      0x40\n      dup1\n      mload\n      shl(0xe5, 0x461bcd)\n      dup2\n      mstore\n      0x20\n      0x04\n      dup3\n      add\n      mstore\n      0x1f\n      0x24\n      dup3\n      add\n      mstore\n      0x5361666545524332303a2063616c6c20746f206e6f6e2d636f6e747261637400\n      0x44\n      dup3\n      add\n      mstore\n      swap1\n      mload\n      swap1\n      dup2\n      swap1\n      sub\n      0x64\n      add\n      swap1\n      revert\n    tag_108:\n        /* \"contracts/utils/SafeERC20.sol\":3376:3388  bool success */\n      0x00\n        /* \"contracts/utils/SafeERC20.sol\":3390:3413  bytes memory returndata */\n      0x60\n        /* \"contracts/utils/SafeERC20.sol\":3425:3430  token */\n      dup4\n      sub(shl(0xa0, 0x01), 0x01)\n        /* \"contracts/utils/SafeERC20.sol\":3417:3436  address(token).call */\n      and\n        /* \"contracts/utils/SafeERC20.sol\":3437:3441  data */\n      dup4\n        /* \"contracts/utils/SafeERC20.sol\":3417:3442  address(token).call(data) */\n      mload(0x40)\n      dup1\n      dup3\n      dup1\n      mload\n      swap1\n      0x20\n      add\n      swap1\n      dup1\n      dup4\n      dup4\n        /* \"--CODEGEN--\":36:189   */\n    tag_109:\n        /* \"--CODEGEN--\":66:68   */\n      0x20\n        /* \"--CODEGEN--\":61:64   */\n      dup4\n        /* \"--CODEGEN--\":58:69   */\n      lt\n        /* \"--CODEGEN--\":36:189   */\n      tag_111\n      jumpi\n        /* \"--CODEGEN--\":176:186   */\n      dup1\n      mload\n        /* \"--CODEGEN--\":164:187   */\n      dup3\n      mstore\n      not(0x1f)\n        /* \"--CODEGEN--\":139:151   */\n      swap1\n      swap3\n      add\n      swap2\n        /* \"--CODEGEN--\":98:100   */\n      0x20\n        /* \"--CODEGEN--\":89:101   */\n      swap2\n      dup3\n      add\n      swap2\n        /* \"--CODEGEN--\":114:126   */\n      add\n        /* \"--CODEGEN--\":36:189   */\n      jump(tag_109)\n    tag_111:\n        /* \"--CODEGEN--\":274:275   */\n      0x01\n        /* \"--CODEGEN--\":267:270   */\n      dup4\n        /* \"--CODEGEN--\":263:265   */\n      0x20\n        /* \"--CODEGEN--\":259:271   */\n      sub\n        /* \"--CODEGEN--\":254:257   */\n      0x0100\n        /* \"--CODEGEN--\":250:272   */\n      exp\n        /* \"--CODEGEN--\":246:276   */\n      sub\n        /* \"--CODEGEN--\":315:319   */\n      dup1\n        /* \"--CODEGEN--\":311:320   */\n      not\n        /* \"--CODEGEN--\":305:308   */\n      dup3\n        /* \"--CODEGEN--\":299:309   */\n      mload\n        /* \"--CODEGEN--\":295:321   */\n      and\n        /* \"--CODEGEN--\":356:360   */\n      dup2\n        /* \"--CODEGEN--\":350:353   */\n      dup5\n        /* \"--CODEGEN--\":344:354   */\n      mload\n        /* \"--CODEGEN--\":340:361   */\n      and\n        /* \"--CODEGEN--\":389:396   */\n      dup1\n        /* \"--CODEGEN--\":380:387   */\n      dup3\n        /* \"--CODEGEN--\":377:397   */\n      or\n        /* \"--CODEGEN--\":372:375   */\n      dup6\n        /* \"--CODEGEN--\":365:398   */\n      mstore\n        /* \"--CODEGEN--\":3:402   */\n      pop\n      pop\n      pop\n        /* \"contracts/utils/SafeERC20.sol\":3417:3442  address(token).call(data) */\n      pop\n      pop\n      pop\n      swap1\n      pop\n      add\n      swap2\n      pop\n      pop\n      0x00\n      mload(0x40)\n      dup1\n      dup4\n      sub\n      dup2\n      0x00\n      dup7\n      gas\n      call\n      swap2\n      pop\n      pop\n      returndatasize\n        /* \"--CODEGEN--\":14:15   */\n      dup1\n        /* \"--CODEGEN--\":21:22   */\n      0x00\n        /* \"--CODEGEN--\":16:47   */\n      dup2\n      eq\n      tag_113\n      jumpi\n        /* \"--CODEGEN--\":75:79   */\n      0x40\n        /* \"--CODEGEN--\":69:80   */\n      mload\n        /* \"--CODEGEN--\":64:80   */\n      swap2\n      pop\n        /* \"--CODEGEN--\":144:148   */\n      0x1f\n        /* \"--CODEGEN--\":140:149   */\n      not\n        /* \"--CODEGEN--\":133:137   */\n      0x3f\n        /* \"--CODEGEN--\":115:131   */\n      returndatasize\n        /* \"--CODEGEN--\":111:138   */\n      add\n        /* \"--CODEGEN--\":107:150   */\n      and\n        /* \"--CODEGEN--\":104:105   */\n      dup3\n        /* \"--CODEGEN--\":100:151   */\n      add\n        /* \"--CODEGEN--\":94:98   */\n      0x40\n        /* \"--CODEGEN--\":87:152   */\n      mstore\n        /* \"--CODEGEN--\":169:185   */\n      returndatasize\n        /* \"--CODEGEN--\":166:167   */\n      dup3\n        /* \"--CODEGEN--\":159:186   */\n      mstore\n        /* \"--CODEGEN--\":225:241   */\n      returndatasize\n        /* \"--CODEGEN--\":222:223   */\n      0x00\n        /* \"--CODEGEN--\":215:219   */\n      0x20\n        /* \"--CODEGEN--\":212:213   */\n      dup5\n        /* \"--CODEGEN--\":208:220   */\n      add\n        /* \"--CODEGEN--\":193:242   */\n      returndatacopy\n        /* \"--CODEGEN--\":7:249   */\n      jump(tag_112)\n        /* \"--CODEGEN--\":16:47   */\n    tag_113:\n        /* \"--CODEGEN--\":36:40   */\n      0x60\n        /* \"--CODEGEN--\":31:40   */\n      swap2\n      pop\n        /* \"--CODEGEN--\":7:249   */\n    tag_112:\n      pop\n        /* \"contracts/utils/SafeERC20.sol\":3375:3442  (bool success, bytes memory returndata) = address(token).call(data) */\n      swap2\n      pop\n      swap2\n      pop\n        /* \"contracts/utils/SafeERC20.sol\":3460:3467  success */\n      dup2\n        /* \"contracts/utils/SafeERC20.sol\":3452:3504  require(success, \"SafeERC20: low-level call failed\") */\n      tag_114\n      jumpi\n      0x40\n      dup1\n      mload\n      shl(0xe5, 0x461bcd)\n      dup2\n      mstore\n      0x20\n      0x04\n      dup3\n      add\n      dup2\n      swap1\n      mstore\n      0x24\n      dup3\n      add\n      mstore\n      0x5361666545524332303a206c6f772d6c6576656c2063616c6c206661696c6564\n      0x44\n      dup3\n      add\n      mstore\n      swap1\n      mload\n      swap1\n      dup2\n      swap1\n      sub\n      0x64\n      add\n      swap1\n      revert\n    tag_114:\n        /* \"contracts/utils/SafeERC20.sol\":3519:3536  returndata.length */\n      dup1\n      mload\n        /* \"contracts/utils/SafeERC20.sol\":3519:3540  returndata.length > 0 */\n      iszero\n        /* \"contracts/utils/SafeERC20.sol\":3515:3736  if (returndata.length > 0) { // Return data is optional... */\n      tag_117\n      jumpi\n        /* \"contracts/utils/SafeERC20.sol\":3659:3669  returndata */\n      dup1\n        /* \"contracts/utils/SafeERC20.sol\":3648:3678  abi.decode(returndata, (bool)) */\n      dup1\n      0x20\n      add\n      swap1\n      mload\n        /* \"--CODEGEN--\":13:15   */\n      0x20\n        /* \"--CODEGEN--\":8:11   */\n      dup2\n        /* \"--CODEGEN--\":5:16   */\n      lt\n        /* \"--CODEGEN--\":2:4   */\n      iszero\n      tag_116\n      jumpi\n        /* \"--CODEGEN--\":29:30   */\n      0x00\n        /* \"--CODEGEN--\":26:27   */\n      dup1\n        /* \"--CODEGEN--\":19:31   */\n      revert\n        /* \"--CODEGEN--\":2:4   */\n    tag_116:\n      pop\n        /* \"contracts/utils/SafeERC20.sol\":3648:3678  abi.decode(returndata, (bool)) */\n      mload\n        /* \"contracts/utils/SafeERC20.sol\":3640:3725  require(abi.decode(returndata, (bool)), \"SafeERC20: ERC20 operation did not succeed\") */\n      tag_117\n      jumpi\n      mload(0x40)\n      shl(0xe5, 0x461bcd)\n      dup2\n      mstore\n      0x04\n      add\n      dup1\n      dup1\n      0x20\n      add\n      dup3\n      dup2\n      sub\n      dup3\n      mstore\n      0x2a\n      dup2\n      mstore\n      0x20\n      add\n      dup1\n      data_e11ad79d1e4a7f2e5f376964cb99e8e8f7904e3fc16a109f7a7ecb9aa7956dcd\n      0x2a\n      swap2\n      codecopy\n      0x40\n      add\n      swap2\n      pop\n      pop\n      mload(0x40)\n      dup1\n      swap2\n      sub\n      swap1\n      revert\n    tag_117:\n        /* \"contracts/utils/SafeERC20.sol\":2647:3742  function callOptionalReturn(IERC20 token, bytes memory data) private {... */\n      pop\n      pop\n      pop\n      pop\n      jump\t// out\n        /* \"contracts/utils/Address.sol\":557:1354  function isContract(address account) internal view returns (bool) {... */\n    tag_107:\n        /* \"contracts/utils/Address.sol\":617:621  bool */\n      0x00\n        /* \"contracts/utils/Address.sol\":1265:1285  extcodehash(account) */\n      dup2\n      extcodehash\n        /* \"contracts/utils/Address.sol\":1110:1176  0xc5d2460186f7233c927e7db2dcc703c0e500b653ca82273b7bfad8045d85a470 */\n      0xc5d2460186f7233c927e7db2dcc703c0e500b653ca82273b7bfad8045d85a470\n        /* \"contracts/utils/Address.sol\":1304:1319  codehash != 0x0 */\n      dup2\n      iszero\n      dup1\n      iszero\n      swap1\n        /* \"contracts/utils/Address.sol\":1304:1346  codehash != 0x0 && codehash != accountHash */\n      tag_119\n      jumpi\n      pop\n        /* \"contracts/utils/Address.sol\":1335:1346  accountHash */\n      dup1\n        /* \"contracts/utils/Address.sol\":1323:1331  codehash */\n      dup3\n        /* \"contracts/utils/Address.sol\":1323:1346  codehash != accountHash */\n      eq\n      iszero\n        /* \"contracts/utils/Address.sol\":1304:1346  codehash != 0x0 && codehash != accountHash */\n    tag_119:\n        /* \"contracts/utils/Address.sol\":1296:1347  return (codehash != 0x0 && codehash != accountHash) */\n      swap5\n        /* \"contracts/utils/Address.sol\":557:1354  function isContract(address account) internal view returns (bool) {... */\n      swap4\n      pop\n      pop\n      pop\n      pop\n      jump\t// out\n    stop\n    data_8fe07d1a7bc8ed40574aa57beae4fbd43367cc89459755c316997d76d102b27d 496e76616c69642062616c616e63652c207761732074686520666c6173684c6f616e207375636365737366756c3f\n    data_e11ad79d1e4a7f2e5f376964cb99e8e8f7904e3fc16a109f7a7ecb9aa7956dcd 5361666545524332303a204552433230206f7065726174696f6e20646964206e6f742073756363656564\n\n    auxdata: 0xa265627a7a72315820078739fe36dc8d40e8fb02bd16d7e2391126b26c0300a780e126d6f974ad536164736f6c63430005110032\n}\n",
				"bytecode": {
					"linkReferences": {},
					"object": "6080604052600080546001600160a01b031990811673cc0479a98cc66e85806d0cd7970d6e07f77fd63317909155600180549091163017905534801561004457600080fd5b50600280546001600160a01b03191633179055610d33806100666000396000f3fe6080604052600436106100915760003560e01c8063a2131b9111610059578063a2131b911461012d578063c72c4d1014610142578063d6a7990514610157578063ee872558146101b0578063f7260d3e1461024957610091565b806320fee44b14610093578063441b1d30146100c4578063553e8c1e146100ee57806370de629f146101035780638da5cb5b14610118575b005b34801561009f57600080fd5b506100a861025e565b604080516001600160a01b039092168252519081900360200190f35b3480156100d057600080fd5b50610091600480360360208110156100e757600080fd5b503561026d565b3480156100fa57600080fd5b506100a86102ab565b34801561010f57600080fd5b506100a86102ba565b34801561012457600080fd5b506100a86102d2565b34801561013957600080fd5b506100916102e1565b34801561014e57600080fd5b506100a861076b565b34801561016357600080fd5b50610091600480360360c081101561017a57600080fd5b506001600160a01b03813581169160208101358216916040820135916060810135821691608082013581169160a001351661077a565b3480156101bc57600080fd5b50610091600480360360808110156101d357600080fd5b6001600160a01b03823516916020810135916040820135919081019060808101606082013564010000000081111561020a57600080fd5b82018360208201111561021c57600080fd5b8035906020019184600183028401116401000000008311171561023e57600080fd5b50909250905061079f565b34801561025557600080fd5b506100a8610805565b6004546001600160a01b031681565b6002546040516001600160a01b039091169082156108fc029083906000818181858888f193505050501580156102a7573d6000803e3d6000fd5b5050565b6003546001600160a01b031681565b73eeeeeeeeeeeeeeeeeeeeeeeeeeeeeeeeeeeeeeee81565b6002546001600160a01b031681565b600b546001600160a01b031673bb4cdb9cbd36b01bd1cbaebf2de08d9173bc095c141561033357600780546001600160a01b03191673eeeeeeeeeeeeeeeeeeeeeeeeeeeeeeeeeeeeeeee179055610356565b600b54600780546001600160a01b0319166001600160a01b039092169190911790555b600c54600880546001600160a01b0319166001600160a01b03928316908117909155600b5490911614156103bf576040805162461bcd60e51b815260206004820152600b60248201526a029b0b6b2903830b4b939960ad1b604482015290519081900360640190fd5b600e54600b54600c546040805163e6a4390560e01b81526001600160a01b039384166004820152918316602483015251919092169163e6a43905916044808301926020929190829003018186803b15801561041957600080fd5b505afa15801561042d573d6000803e3d6000fd5b505050506040513d602081101561044357600080fd5b5051600980546001600160a01b0319166001600160a01b039283161790819055166104b5576040805162461bcd60e51b815260206004820152601860248201527f66697273742070616972206e6f7420617661696c61626c650000000000000000604482015290519081900360640190fd5b600f54600b54600c546040805163e6a4390560e01b81526001600160a01b039384166004820152918316602483015251919092169163e6a43905916044808301926020929190829003018186803b15801561050f57600080fd5b505afa158015610523573d6000803e3d6000fd5b505050506040513d602081101561053957600080fd5b5051600a80546001600160a01b0319166001600160a01b03928316179055600954166105ac576040805162461bcd60e51b815260206004820152601960248201527f7365636f6e642070616972206e6f7420617661696c61626c6500000000000000604482015290519081900360640190fd5b600954600380546001600160a01b03199081166001600160a01b0393841617909155600a5460048054831691841691909117815560105460058054841691851691909117905560115460068054909316908416179091556040805160208082018352600080835280548451630261bf8b60e01b8152945193969195911693630261bf8b9381830193929091829003018186803b15801561064b57600080fd5b505afa15801561065f573d6000803e3d6000fd5b505050506040513d602081101561067557600080fd5b5051600154600754600d54604051632e7ff4ef60e11b81526001600160a01b0393841660048201818152938516602483018190526044830184905260806064840190815289516084850152895197985095881696635cffe9de9692959194938a939160a490910190602085019080838360005b838110156107005781810151838201526020016106e8565b50505050905090810190601f16801561072d5780820380516001836020036101000a031916815260200191505b5095505050505050600060405180830381600087803b15801561074f57600080fd5b505af1158015610763573d6000803e3d6000fd5b505050505050565b6000546001600160a01b031681565b5050600e80546001600160a01b031981166001600160a01b0390911617905550505050565b6107a93086610814565b8411156107e75760405162461bcd60e51b815260040180806020018281038252602e815260200180610ca7602e913960400191505060405180910390fd5b60006107f9858563ffffffff6108d716565b90506107638682610938565b6001546001600160a01b031681565b60006001600160a01b03821673eeeeeeeeeeeeeeeeeeeeeeeeeeeeeeeeeeeeeeee141561084c57506001600160a01b038216316108d1565b816001600160a01b03166370a08231846040518263ffffffff1660e01b815260040180826001600160a01b03166001600160a01b0316815260200191505060206040518083038186803b1580156108a257600080fd5b505afa1580156108b6573d6000803e3d6000fd5b505050506040513d60208110156108cc57600080fd5b505190505b92915050565b600082820183811015610931576040805162461bcd60e51b815260206004820152601b60248201527f536166654d6174683a206164646974696f6e206f766572666c6f770000000000604482015290519081900360640190fd5b9392505050565b60008060009054906101000a90046001600160a01b03166001600160a01b031663ed6ff7606040518163ffffffff1660e01b815260040160206040518083038186803b15801561098757600080fd5b505afa15801561099b573d6000803e3d6000fd5b505050506040513d60208110156109b157600080fd5b505190506109c08184846109c5565b505050565b6001600160a01b03821673eeeeeeeeeeeeeeeeeeeeeeeeeeeeeeeeeeeeeeee1415610a45576040516001600160a01b0384169061c3509083906000818181858888f193505050503d8060008114610a38576040519150601f19603f3d011682016040523d82523d6000602084013e610a3d565b606091505b5050506109c0565b6109c06001600160a01b038316848363ffffffff610a5f16565b604080516001600160a01b038416602482015260448082018490528251808303909101815260649091019091526020810180516001600160e01b031663a9059cbb60e01b1790526109c0908490610abe826001600160a01b0316610c6a565b610b0f576040805162461bcd60e51b815260206004820152601f60248201527f5361666545524332303a2063616c6c20746f206e6f6e2d636f6e747261637400604482015290519081900360640190fd5b60006060836001600160a01b0316836040518082805190602001908083835b60208310610b4d5780518252601f199092019160209182019101610b2e565b6001836020036101000a0380198251168184511680821785525050505050509050019150506000604051808303816000865af19150503d8060008114610baf576040519150601f19603f3d011682016040523d82523d6000602084013e610bb4565b606091505b509150915081610c0b576040805162461bcd60e51b815260206004820181905260248201527f5361666545524332303a206c6f772d6c6576656c2063616c6c206661696c6564604482015290519081900360640190fd5b805115610c6457808060200190516020811015610c2757600080fd5b5051610c645760405162461bcd60e51b815260040180806020018281038252602a815260200180610cd5602a913960400191505060405180910390fd5b50505050565b6000813f7fc5d2460186f7233c927e7db2dcc703c0e500b653ca82273b7bfad8045d85a4708115801590610c9e5750808214155b94935050505056fe496e76616c69642062616c616e63652c207761732074686520666c6173684c6f616e207375636365737366756c3f5361666545524332303a204552433230206f7065726174696f6e20646964206e6f742073756363656564a265627a7a72315820078739fe36dc8d40e8fb02bd16d7e2391126b26c0300a780e126d6f974ad536164736f6c63430005110032",
					"opcodes": "PUSH1 0x80 PUSH1 0x40 MSTORE PUSH1 0x0 DUP1 SLOAD PUSH1 0x1 PUSH1 0x1 PUSH1 0xA0 SHL SUB NOT SWAP1 DUP2 AND PUSH20 0xCC0479A98CC66E85806D0CD7970D6E07F77FD633 OR SWAP1 SWAP2 SSTORE PUSH1 0x1 DUP1 SLOAD SWAP1 SWAP2 AND ADDRESS OR SWAP1 SSTORE CALLVALUE DUP1 ISZERO PUSH2 0x44 JUMPI PUSH1 0x0 DUP1 REVERT JUMPDEST POP PUSH1 0x2 DUP1 SLOAD PUSH1 0x1 PUSH1 0x1 PUSH1 0xA0 SHL SUB NOT AND CALLER OR SWAP1 SSTORE PUSH2 0xD33 DUP1 PUSH2 0x66 PUSH1 0x0 CODECOPY PUSH1 0x0 RETURN INVALID PUSH1 0x80 PUSH1 0x40 MSTORE PUSH1 0x4 CALLDATASIZE LT PUSH2 0x91 JUMPI PUSH1 0x0 CALLDATALOAD PUSH1 0xE0 SHR DUP1 PUSH4 0xA2131B91 GT PUSH2 0x59 JUMPI DUP1 PUSH4 0xA2131B91 EQ PUSH2 0x12D JUMPI DUP1 PUSH4 0xC72C4D10 EQ PUSH2 0x142 JUMPI DUP1 PUSH4 0xD6A79905 EQ PUSH2 0x157 JUMPI DUP1 PUSH4 0xEE872558 EQ PUSH2 0x1B0 JUMPI DUP1 PUSH4 0xF7260D3E EQ PUSH2 0x249 JUMPI PUSH2 0x91 JUMP JUMPDEST DUP1 PUSH4 0x20FEE44B EQ PUSH2 0x93 JUMPI DUP1 PUSH4 0x441B1D30 EQ PUSH2 0xC4 JUMPI DUP1 PUSH4 0x553E8C1E EQ PUSH2 0xEE JUMPI DUP1 PUSH4 0x70DE629F EQ PUSH2 0x103 JUMPI DUP1 PUSH4 0x8DA5CB5B EQ PUSH2 0x118 JUMPI JUMPDEST STOP JUMPDEST CALLVALUE DUP1 ISZERO PUSH2 0x9F JUMPI PUSH1 0x0 DUP1 REVERT JUMPDEST POP PUSH2 0xA8 PUSH2 0x25E JUMP JUMPDEST PUSH1 0x40 DUP1 MLOAD PUSH1 0x1 PUSH1 0x1 PUSH1 0xA0 SHL SUB SWAP1 SWAP3 AND DUP3 MSTORE MLOAD SWAP1 DUP2 SWAP1 SUB PUSH1 0x20 ADD SWAP1 RETURN JUMPDEST CALLVALUE DUP1 ISZERO PUSH2 0xD0 JUMPI PUSH1 0x0 DUP1 REVERT JUMPDEST POP PUSH2 0x91 PUSH1 0x4 DUP1 CALLDATASIZE SUB PUSH1 0x20 DUP2 LT ISZERO PUSH2 0xE7 JUMPI PUSH1 0x0 DUP1 REVERT JUMPDEST POP CALLDATALOAD PUSH2 0x26D JUMP JUMPDEST CALLVALUE DUP1 ISZERO PUSH2 0xFA JUMPI PUSH1 0x0 DUP1 REVERT JUMPDEST POP PUSH2 0xA8 PUSH2 0x2AB JUMP JUMPDEST CALLVALUE DUP1 ISZERO PUSH2 0x10F JUMPI PUSH1 0x0 DUP1 REVERT JUMPDEST POP PUSH2 0xA8 PUSH2 0x2BA JUMP JUMPDEST CALLVALUE DUP1 ISZERO PUSH2 0x124 JUMPI PUSH1 0x0 DUP1 REVERT JUMPDEST POP PUSH2 0xA8 PUSH2 0x2D2 JUMP JUMPDEST CALLVALUE DUP1 ISZERO PUSH2 0x139 JUMPI PUSH1 0x0 DUP1 REVERT JUMPDEST POP PUSH2 0x91 PUSH2 0x2E1 JUMP JUMPDEST CALLVALUE DUP1 ISZERO PUSH2 0x14E JUMPI PUSH1 0x0 DUP1 REVERT JUMPDEST POP PUSH2 0xA8 PUSH2 0x76B JUMP JUMPDEST CALLVALUE DUP1 ISZERO PUSH2 0x163 JUMPI PUSH1 0x0 DUP1 REVERT JUMPDEST POP PUSH2 0x91 PUSH1 0x4 DUP1 CALLDATASIZE SUB PUSH1 0xC0 DUP2 LT ISZERO PUSH2 0x17A JUMPI PUSH1 0x0 DUP1 REVERT JUMPDEST POP PUSH1 0x1 PUSH1 0x1 PUSH1 0xA0 SHL SUB DUP2 CALLDATALOAD DUP2 AND SWAP2 PUSH1 0x20 DUP2 ADD CALLDATALOAD DUP3 AND SWAP2 PUSH1 0x40 DUP3 ADD CALLDATALOAD SWAP2 PUSH1 0x60 DUP2 ADD CALLDATALOAD DUP3 AND SWAP2 PUSH1 0x80 DUP3 ADD CALLDATALOAD DUP2 AND SWAP2 PUSH1 0xA0 ADD CALLDATALOAD AND PUSH2 0x77A JUMP JUMPDEST CALLVALUE DUP1 ISZERO PUSH2 0x1BC JUMPI PUSH1 0x0 DUP1 REVERT JUMPDEST POP PUSH2 0x91 PUSH1 0x4 DUP1 CALLDATASIZE SUB PUSH1 0x80 DUP2 LT ISZERO PUSH2 0x1D3 JUMPI PUSH1 0x0 DUP1 REVERT JUMPDEST PUSH1 0x1 PUSH1 0x1 PUSH1 0xA0 SHL SUB DUP3 CALLDATALOAD AND SWAP2 PUSH1 0x20 DUP2 ADD CALLDATALOAD SWAP2 PUSH1 0x40 DUP3 ADD CALLDATALOAD SWAP2 SWAP1 DUP2 ADD SWAP1 PUSH1 0x80 DUP2 ADD PUSH1 0x60 DUP3 ADD CALLDATALOAD PUSH5 0x100000000 DUP2 GT ISZERO PUSH2 0x20A JUMPI PUSH1 0x0 DUP1 REVERT JUMPDEST DUP3 ADD DUP4 PUSH1 0x20 DUP3 ADD GT ISZERO PUSH2 0x21C JUMPI PUSH1 0x0 DUP1 REVERT JUMPDEST DUP1 CALLDATALOAD SWAP1 PUSH1 0x20 ADD SWAP2 DUP5 PUSH1 0x1 DUP4 MUL DUP5 ADD GT PUSH5 0x100000000 DUP4 GT OR ISZERO PUSH2 0x23E JUMPI PUSH1 0x0 DUP1 REVERT JUMPDEST POP SWAP1 SWAP3 POP SWAP1 POP PUSH2 0x79F JUMP JUMPDEST CALLVALUE DUP1 ISZERO PUSH2 0x255 JUMPI PUSH1 0x0 DUP1 REVERT JUMPDEST POP PUSH2 0xA8 PUSH2 0x805 JUMP JUMPDEST PUSH1 0x4 SLOAD PUSH1 0x1 PUSH1 0x1 PUSH1 0xA0 SHL SUB AND DUP2 JUMP JUMPDEST PUSH1 0x2 SLOAD PUSH1 0x40 MLOAD PUSH1 0x1 PUSH1 0x1 PUSH1 0xA0 SHL SUB SWAP1 SWAP2 AND SWAP1 DUP3 ISZERO PUSH2 0x8FC MUL SWAP1 DUP4 SWAP1 PUSH1 0x0 DUP2 DUP2 DUP2 DUP6 DUP9 DUP9 CALL SWAP4 POP POP POP POP ISZERO DUP1 ISZERO PUSH2 0x2A7 JUMPI RETURNDATASIZE PUSH1 0x0 DUP1 RETURNDATACOPY RETURNDATASIZE PUSH1 0x0 REVERT JUMPDEST POP POP JUMP JUMPDEST PUSH1 0x3 SLOAD PUSH1 0x1 PUSH1 0x1 PUSH1 0xA0 SHL SUB AND DUP2 JUMP JUMPDEST PUSH20 0xEEEEEEEEEEEEEEEEEEEEEEEEEEEEEEEEEEEEEEEE DUP2 JUMP JUMPDEST PUSH1 0x2 SLOAD PUSH1 0x1 PUSH1 0x1 PUSH1 0xA0 SHL SUB AND DUP2 JUMP JUMPDEST PUSH1 0xB SLOAD PUSH1 0x1 PUSH1 0x1 PUSH1 0xA0 SHL SUB AND PUSH20 0xBB4CDB9CBD36B01BD1CBAEBF2DE08D9173BC095C EQ ISZERO PUSH2 0x333 JUMPI PUSH1 0x7 DUP1 SLOAD PUSH1 0x1 PUSH1 0x1 PUSH1 0xA0 SHL SUB NOT AND PUSH20 0xEEEEEEEEEEEEEEEEEEEEEEEEEEEEEEEEEEEEEEEE OR SWAP1 SSTORE PUSH2 0x356 JUMP JUMPDEST PUSH1 0xB SLOAD PUSH1 0x7 DUP1 SLOAD PUSH1 0x1 PUSH1 0x1 PUSH1 0xA0 SHL SUB NOT AND PUSH1 0x1 PUSH1 0x1 PUSH1 0xA0 SHL SUB SWAP1 SWAP3 AND SWAP2 SWAP1 SWAP2 OR SWAP1 SSTORE JUMPDEST PUSH1 0xC SLOAD PUSH1 0x8 DUP1 SLOAD PUSH1 0x1 PUSH1 0x1 PUSH1 0xA0 SHL SUB NOT AND PUSH1 0x1 PUSH1 0x1 PUSH1 0xA0 SHL SUB SWAP3 DUP4 AND SWAP1 DUP2 OR SWAP1 SWAP2 SSTORE PUSH1 0xB SLOAD SWAP1 SWAP2 AND EQ ISZERO PUSH2 0x3BF JUMPI PUSH1 0x40 DUP1 MLOAD PUSH3 0x461BCD PUSH1 0xE5 SHL DUP2 MSTORE PUSH1 0x20 PUSH1 0x4 DUP3 ADD MSTORE PUSH1 0xB PUSH1 0x24 DUP3 ADD MSTORE PUSH11 0x29B0B6B2903830B4B9399 PUSH1 0xAD SHL PUSH1 0x44 DUP3 ADD MSTORE SWAP1 MLOAD SWAP1 DUP2 SWAP1 SUB PUSH1 0x64 ADD SWAP1 REVERT JUMPDEST PUSH1 0xE SLOAD PUSH1 0xB SLOAD PUSH1 0xC SLOAD PUSH1 0x40 DUP1 MLOAD PUSH4 0xE6A43905 PUSH1 0xE0 SHL DUP2 MSTORE PUSH1 0x1 PUSH1 0x1 PUSH1 0xA0 SHL SUB SWAP4 DUP5 AND PUSH1 0x4 DUP3 ADD MSTORE SWAP2 DUP4 AND PUSH1 0x24 DUP4 ADD MSTORE MLOAD SWAP2 SWAP1 SWAP3 AND SWAP2 PUSH4 0xE6A43905 SWAP2 PUSH1 0x44 DUP1 DUP4 ADD SWAP3 PUSH1 0x20 SWAP3 SWAP2 SWAP1 DUP3 SWAP1 SUB ADD DUP2 DUP7 DUP1 EXTCODESIZE ISZERO DUP1 ISZERO PUSH2 0x419 JUMPI PUSH1 0x0 DUP1 REVERT JUMPDEST POP GAS STATICCALL ISZERO DUP1 ISZERO PUSH2 0x42D JUMPI RETURNDATASIZE PUSH1 0x0 DUP1 RETURNDATACOPY RETURNDATASIZE PUSH1 0x0 REVERT JUMPDEST POP POP POP POP PUSH1 0x40 MLOAD RETURNDATASIZE PUSH1 0x20 DUP2 LT ISZERO PUSH2 0x443 JUMPI PUSH1 0x0 DUP1 REVERT JUMPDEST POP MLOAD PUSH1 0x9 DUP1 SLOAD PUSH1 0x1 PUSH1 0x1 PUSH1 0xA0 SHL SUB NOT AND PUSH1 0x1 PUSH1 0x1 PUSH1 0xA0 SHL SUB SWAP3 DUP4 AND OR SWAP1 DUP2 SWAP1 SSTORE AND PUSH2 0x4B5 JUMPI PUSH1 0x40 DUP1 MLOAD PUSH3 0x461BCD PUSH1 0xE5 SHL DUP2 MSTORE PUSH1 0x20 PUSH1 0x4 DUP3 ADD MSTORE PUSH1 0x18 PUSH1 0x24 DUP3 ADD MSTORE PUSH32 0x66697273742070616972206E6F7420617661696C61626C650000000000000000 PUSH1 0x44 DUP3 ADD MSTORE SWAP1 MLOAD SWAP1 DUP2 SWAP1 SUB PUSH1 0x64 ADD SWAP1 REVERT JUMPDEST PUSH1 0xF SLOAD PUSH1 0xB SLOAD PUSH1 0xC SLOAD PUSH1 0x40 DUP1 MLOAD PUSH4 0xE6A43905 PUSH1 0xE0 SHL DUP2 MSTORE PUSH1 0x1 PUSH1 0x1 PUSH1 0xA0 SHL SUB SWAP4 DUP5 AND PUSH1 0x4 DUP3 ADD MSTORE SWAP2 DUP4 AND PUSH1 0x24 DUP4 ADD MSTORE MLOAD SWAP2 SWAP1 SWAP3 AND SWAP2 PUSH4 0xE6A43905 SWAP2 PUSH1 0x44 DUP1 DUP4 ADD SWAP3 PUSH1 0x20 SWAP3 SWAP2 SWAP1 DUP3 SWAP1 SUB ADD DUP2 DUP7 DUP1 EXTCODESIZE ISZERO DUP1 ISZERO PUSH2 0x50F JUMPI PUSH1 0x0 DUP1 REVERT JUMPDEST POP GAS STATICCALL ISZERO DUP1 ISZERO PUSH2 0x523 JUMPI RETURNDATASIZE PUSH1 0x0 DUP1 RETURNDATACOPY RETURNDATASIZE PUSH1 0x0 REVERT JUMPDEST POP POP POP POP PUSH1 0x40 MLOAD RETURNDATASIZE PUSH1 0x20 DUP2 LT ISZERO PUSH2 0x539 JUMPI PUSH1 0x0 DUP1 REVERT JUMPDEST POP MLOAD PUSH1 0xA DUP1 SLOAD PUSH1 0x1 PUSH1 0x1 PUSH1 0xA0 SHL SUB NOT AND PUSH1 0x1 PUSH1 0x1 PUSH1 0xA0 SHL SUB SWAP3 DUP4 AND OR SWAP1 SSTORE PUSH1 0x9 SLOAD AND PUSH2 0x5AC JUMPI PUSH1 0x40 DUP1 MLOAD PUSH3 0x461BCD PUSH1 0xE5 SHL DUP2 MSTORE PUSH1 0x20 PUSH1 0x4 DUP3 ADD MSTORE PUSH1 0x19 PUSH1 0x24 DUP3 ADD MSTORE PUSH32 0x7365636F6E642070616972206E6F7420617661696C61626C6500000000000000 PUSH1 0x44 DUP3 ADD MSTORE SWAP1 MLOAD SWAP1 DUP2 SWAP1 SUB PUSH1 0x64 ADD SWAP1 REVERT JUMPDEST PUSH1 0x9 SLOAD PUSH1 0x3 DUP1 SLOAD PUSH1 0x1 PUSH1 0x1 PUSH1 0xA0 SHL SUB NOT SWAP1 DUP2 AND PUSH1 0x1 PUSH1 0x1 PUSH1 0xA0 SHL SUB SWAP4 DUP5 AND OR SWAP1 SWAP2 SSTORE PUSH1 0xA SLOAD PUSH1 0x4 DUP1 SLOAD DUP4 AND SWAP2 DUP5 AND SWAP2 SWAP1 SWAP2 OR DUP2 SSTORE PUSH1 0x10 SLOAD PUSH1 0x5 DUP1 SLOAD DUP5 AND SWAP2 DUP6 AND SWAP2 SWAP1 SWAP2 OR SWAP1 SSTORE PUSH1 0x11 SLOAD PUSH1 0x6 DUP1 SLOAD SWAP1 SWAP4 AND SWAP1 DUP5 AND OR SWAP1 SWAP2 SSTORE PUSH1 0x40 DUP1 MLOAD PUSH1 0x20 DUP1 DUP3 ADD DUP4 MSTORE PUSH1 0x0 DUP1 DUP4 MSTORE DUP1 SLOAD DUP5 MLOAD PUSH4 0x261BF8B PUSH1 0xE0 SHL DUP2 MSTORE SWAP5 MLOAD SWAP4 SWAP7 SWAP2 SWAP6 SWAP2 AND SWAP4 PUSH4 0x261BF8B SWAP4 DUP2 DUP4 ADD SWAP4 SWAP3 SWAP1 SWAP2 DUP3 SWAP1 SUB ADD DUP2 DUP7 DUP1 EXTCODESIZE ISZERO DUP1 ISZERO PUSH2 0x64B JUMPI PUSH1 0x0 DUP1 REVERT JUMPDEST POP GAS STATICCALL ISZERO DUP1 ISZERO PUSH2 0x65F JUMPI RETURNDATASIZE PUSH1 0x0 DUP1 RETURNDATACOPY RETURNDATASIZE PUSH1 0x0 REVERT JUMPDEST POP POP POP POP PUSH1 0x40 MLOAD RETURNDATASIZE PUSH1 0x20 DUP2 LT ISZERO PUSH2 0x675 JUMPI PUSH1 0x0 DUP1 REVERT JUMPDEST POP MLOAD PUSH1 0x1 SLOAD PUSH1 0x7 SLOAD PUSH1 0xD SLOAD PUSH1 0x40 MLOAD PUSH4 0x2E7FF4EF PUSH1 0xE1 SHL DUP2 MSTORE PUSH1 0x1 PUSH1 0x1 PUSH1 0xA0 SHL SUB SWAP4 DUP5 AND PUSH1 0x4 DUP3 ADD DUP2 DUP2 MSTORE SWAP4 DUP6 AND PUSH1 0x24 DUP4 ADD DUP2 SWAP1 MSTORE PUSH1 0x44 DUP4 ADD DUP5 SWAP1 MSTORE PUSH1 0x80 PUSH1 0x64 DUP5 ADD SWAP1 DUP2 MSTORE DUP10 MLOAD PUSH1 0x84 DUP6 ADD MSTORE DUP10 MLOAD SWAP8 SWAP9 POP SWAP6 DUP9 AND SWAP7 PUSH4 0x5CFFE9DE SWAP7 SWAP3 SWAP6 SWAP2 SWAP5 SWAP4 DUP11 SWAP4 SWAP2 PUSH1 0xA4 SWAP1 SWAP2 ADD SWAP1 PUSH1 0x20 DUP6 ADD SWAP1 DUP1 DUP4 DUP4 PUSH1 0x0 JUMPDEST DUP4 DUP2 LT ISZERO PUSH2 0x700 JUMPI DUP2 DUP2 ADD MLOAD DUP4 DUP3 ADD MSTORE PUSH1 0x20 ADD PUSH2 0x6E8 JUMP JUMPDEST POP POP POP POP SWAP1 POP SWAP1 DUP2 ADD SWAP1 PUSH1 0x1F AND DUP1 ISZERO PUSH2 0x72D JUMPI DUP1 DUP3 SUB DUP1 MLOAD PUSH1 0x1 DUP4 PUSH1 0x20 SUB PUSH2 0x100 EXP SUB NOT AND DUP2 MSTORE PUSH1 0x20 ADD SWAP2 POP JUMPDEST POP SWAP6 POP POP POP POP POP POP PUSH1 0x0 PUSH1 0x40 MLOAD DUP1 DUP4 SUB DUP2 PUSH1 0x0 DUP8 DUP1 EXTCODESIZE ISZERO DUP1 ISZERO PUSH2 0x74F JUMPI PUSH1 0x0 DUP1 REVERT JUMPDEST POP GAS CALL ISZERO DUP1 ISZERO PUSH2 0x763 JUMPI RETURNDATASIZE PUSH1 0x0 DUP1 RETURNDATACOPY RETURNDATASIZE PUSH1 0x0 REVERT JUMPDEST POP POP POP POP POP POP JUMP JUMPDEST PUSH1 0x0 SLOAD PUSH1 0x1 PUSH1 0x1 PUSH1 0xA0 SHL SUB AND DUP2 JUMP JUMPDEST POP POP PUSH1 0xE DUP1 SLOAD PUSH1 0x1 PUSH1 0x1 PUSH1 0xA0 SHL SUB NOT DUP2 AND PUSH1 0x1 PUSH1 0x1 PUSH1 0xA0 SHL SUB SWAP1 SWAP2 AND OR SWAP1 SSTORE POP POP POP POP JUMP JUMPDEST PUSH2 0x7A9 ADDRESS DUP7 PUSH2 0x814 JUMP JUMPDEST DUP5 GT ISZERO PUSH2 0x7E7 JUMPI PUSH1 0x40 MLOAD PUSH3 0x461BCD PUSH1 0xE5 SHL DUP2 MSTORE PUSH1 0x4 ADD DUP1 DUP1 PUSH1 0x20 ADD DUP3 DUP2 SUB DUP3 MSTORE PUSH1 0x2E DUP2 MSTORE PUSH1 0x20 ADD DUP1 PUSH2 0xCA7 PUSH1 0x2E SWAP2 CODECOPY PUSH1 0x40 ADD SWAP2 POP POP PUSH1 0x40 MLOAD DUP1 SWAP2 SUB SWAP1 REVERT JUMPDEST PUSH1 0x0 PUSH2 0x7F9 DUP6 DUP6 PUSH4 0xFFFFFFFF PUSH2 0x8D7 AND JUMP JUMPDEST SWAP1 POP PUSH2 0x763 DUP7 DUP3 PUSH2 0x938 JUMP JUMPDEST PUSH1 0x1 SLOAD PUSH1 0x1 PUSH1 0x1 PUSH1 0xA0 SHL SUB AND DUP2 JUMP JUMPDEST PUSH1 0x0 PUSH1 0x1 PUSH1 0x1 PUSH1 0xA0 SHL SUB DUP3 AND PUSH20 0xEEEEEEEEEEEEEEEEEEEEEEEEEEEEEEEEEEEEEEEE EQ ISZERO PUSH2 0x84C JUMPI POP PUSH1 0x1 PUSH1 0x1 PUSH1 0xA0 SHL SUB DUP3 AND BALANCE PUSH2 0x8D1 JUMP JUMPDEST DUP2 PUSH1 0x1 PUSH1 0x1 PUSH1 0xA0 SHL SUB AND PUSH4 0x70A08231 DUP5 PUSH1 0x40 MLOAD DUP3 PUSH4 0xFFFFFFFF AND PUSH1 0xE0 SHL DUP2 MSTORE PUSH1 0x4 ADD DUP1 DUP3 PUSH1 0x1 PUSH1 0x1 PUSH1 0xA0 SHL SUB AND PUSH1 0x1 PUSH1 0x1 PUSH1 0xA0 SHL SUB AND DUP2 MSTORE PUSH1 0x20 ADD SWAP2 POP POP PUSH1 0x20 PUSH1 0x40 MLOAD DUP1 DUP4 SUB DUP2 DUP7 DUP1 EXTCODESIZE ISZERO DUP1 ISZERO PUSH2 0x8A2 JUMPI PUSH1 0x0 DUP1 REVERT JUMPDEST POP GAS STATICCALL ISZERO DUP1 ISZERO PUSH2 0x8B6 JUMPI RETURNDATASIZE PUSH1 0x0 DUP1 RETURNDATACOPY RETURNDATASIZE PUSH1 0x0 REVERT JUMPDEST POP POP POP POP PUSH1 0x40 MLOAD RETURNDATASIZE PUSH1 0x20 DUP2 LT ISZERO PUSH2 0x8CC JUMPI PUSH1 0x0 DUP1 REVERT JUMPDEST POP MLOAD SWAP1 POP JUMPDEST SWAP3 SWAP2 POP POP JUMP JUMPDEST PUSH1 0x0 DUP3 DUP3 ADD DUP4 DUP2 LT ISZERO PUSH2 0x931 JUMPI PUSH1 0x40 DUP1 MLOAD PUSH3 0x461BCD PUSH1 0xE5 SHL DUP2 MSTORE PUSH1 0x20 PUSH1 0x4 DUP3 ADD MSTORE PUSH1 0x1B PUSH1 0x24 DUP3 ADD MSTORE PUSH32 0x536166654D6174683A206164646974696F6E206F766572666C6F770000000000 PUSH1 0x44 DUP3 ADD MSTORE SWAP1 MLOAD SWAP1 DUP2 SWAP1 SUB PUSH1 0x64 ADD SWAP1 REVERT JUMPDEST SWAP4 SWAP3 POP POP POP JUMP JUMPDEST PUSH1 0x0 DUP1 PUSH1 0x0 SWAP1 SLOAD SWAP1 PUSH2 0x100 EXP SWAP1 DIV PUSH1 0x1 PUSH1 0x1 PUSH1 0xA0 SHL SUB AND PUSH1 0x1 PUSH1 0x1 PUSH1 0xA0 SHL SUB AND PUSH4 0xED6FF760 PUSH1 0x40 MLOAD DUP2 PUSH4 0xFFFFFFFF AND PUSH1 0xE0 SHL DUP2 MSTORE PUSH1 0x4 ADD PUSH1 0x20 PUSH1 0x40 MLOAD DUP1 DUP4 SUB DUP2 DUP7 DUP1 EXTCODESIZE ISZERO DUP1 ISZERO PUSH2 0x987 JUMPI PUSH1 0x0 DUP1 REVERT JUMPDEST POP GAS STATICCALL ISZERO DUP1 ISZERO PUSH2 0x99B JUMPI RETURNDATASIZE PUSH1 0x0 DUP1 RETURNDATACOPY RETURNDATASIZE PUSH1 0x0 REVERT JUMPDEST POP POP POP POP PUSH1 0x40 MLOAD RETURNDATASIZE PUSH1 0x20 DUP2 LT ISZERO PUSH2 0x9B1 JUMPI PUSH1 0x0 DUP1 REVERT JUMPDEST POP MLOAD SWAP1 POP PUSH2 0x9C0 DUP2 DUP5 DUP5 PUSH2 0x9C5 JUMP JUMPDEST POP POP POP JUMP JUMPDEST PUSH1 0x1 PUSH1 0x1 PUSH1 0xA0 SHL SUB DUP3 AND PUSH20 0xEEEEEEEEEEEEEEEEEEEEEEEEEEEEEEEEEEEEEEEE EQ ISZERO PUSH2 0xA45 JUMPI PUSH1 0x40 MLOAD PUSH1 0x1 PUSH1 0x1 PUSH1 0xA0 SHL SUB DUP5 AND SWAP1 PUSH2 0xC350 SWAP1 DUP4 SWAP1 PUSH1 0x0 DUP2 DUP2 DUP2 DUP6 DUP9 DUP9 CALL SWAP4 POP POP POP POP RETURNDATASIZE DUP1 PUSH1 0x0 DUP2 EQ PUSH2 0xA38 JUMPI PUSH1 0x40 MLOAD SWAP2 POP PUSH1 0x1F NOT PUSH1 0x3F RETURNDATASIZE ADD AND DUP3 ADD PUSH1 0x40 MSTORE RETURNDATASIZE DUP3 MSTORE RETURNDATASIZE PUSH1 0x0 PUSH1 0x20 DUP5 ADD RETURNDATACOPY PUSH2 0xA3D JUMP JUMPDEST PUSH1 0x60 SWAP2 POP JUMPDEST POP POP POP PUSH2 0x9C0 JUMP JUMPDEST PUSH2 0x9C0 PUSH1 0x1 PUSH1 0x1 PUSH1 0xA0 SHL SUB DUP4 AND DUP5 DUP4 PUSH4 0xFFFFFFFF PUSH2 0xA5F AND JUMP JUMPDEST PUSH1 0x40 DUP1 MLOAD PUSH1 0x1 PUSH1 0x1 PUSH1 0xA0 SHL SUB DUP5 AND PUSH1 0x24 DUP3 ADD MSTORE PUSH1 0x44 DUP1 DUP3 ADD DUP5 SWAP1 MSTORE DUP3 MLOAD DUP1 DUP4 SUB SWAP1 SWAP2 ADD DUP2 MSTORE PUSH1 0x64 SWAP1 SWAP2 ADD SWAP1 SWAP2 MSTORE PUSH1 0x20 DUP2 ADD DUP1 MLOAD PUSH1 0x1 PUSH1 0x1 PUSH1 0xE0 SHL SUB AND PUSH4 0xA9059CBB PUSH1 0xE0 SHL OR SWAP1 MSTORE PUSH2 0x9C0 SWAP1 DUP5 SWAP1 PUSH2 0xABE DUP3 PUSH1 0x1 PUSH1 0x1 PUSH1 0xA0 SHL SUB AND PUSH2 0xC6A JUMP JUMPDEST PUSH2 0xB0F JUMPI PUSH1 0x40 DUP1 MLOAD PUSH3 0x461BCD PUSH1 0xE5 SHL DUP2 MSTORE PUSH1 0x20 PUSH1 0x4 DUP3 ADD MSTORE PUSH1 0x1F PUSH1 0x24 DUP3 ADD MSTORE PUSH32 0x5361666545524332303A2063616C6C20746F206E6F6E2D636F6E747261637400 PUSH1 0x44 DUP3 ADD MSTORE SWAP1 MLOAD SWAP1 DUP2 SWAP1 SUB PUSH1 0x64 ADD SWAP1 REVERT JUMPDEST PUSH1 0x0 PUSH1 0x60 DUP4 PUSH1 0x1 PUSH1 0x1 PUSH1 0xA0 SHL SUB AND DUP4 PUSH1 0x40 MLOAD DUP1 DUP3 DUP1 MLOAD SWAP1 PUSH1 0x20 ADD SWAP1 DUP1 DUP4 DUP4 JUMPDEST PUSH1 0x20 DUP4 LT PUSH2 0xB4D JUMPI DUP1 MLOAD DUP3 MSTORE PUSH1 0x1F NOT SWAP1 SWAP3 ADD SWAP2 PUSH1 0x20 SWAP2 DUP3 ADD SWAP2 ADD PUSH2 0xB2E JUMP JUMPDEST PUSH1 0x1 DUP4 PUSH1 0x20 SUB PUSH2 0x100 EXP SUB DUP1 NOT DUP3 MLOAD AND DUP2 DUP5 MLOAD AND DUP1 DUP3 OR DUP6 MSTORE POP POP POP POP POP POP SWAP1 POP ADD SWAP2 POP POP PUSH1 0x0 PUSH1 0x40 MLOAD DUP1 DUP4 SUB DUP2 PUSH1 0x0 DUP7 GAS CALL SWAP2 POP POP RETURNDATASIZE DUP1 PUSH1 0x0 DUP2 EQ PUSH2 0xBAF JUMPI PUSH1 0x40 MLOAD SWAP2 POP PUSH1 0x1F NOT PUSH1 0x3F RETURNDATASIZE ADD AND DUP3 ADD PUSH1 0x40 MSTORE RETURNDATASIZE DUP3 MSTORE RETURNDATASIZE PUSH1 0x0 PUSH1 0x20 DUP5 ADD RETURNDATACOPY PUSH2 0xBB4 JUMP JUMPDEST PUSH1 0x60 SWAP2 POP JUMPDEST POP SWAP2 POP SWAP2 POP DUP2 PUSH2 0xC0B JUMPI PUSH1 0x40 DUP1 MLOAD PUSH3 0x461BCD PUSH1 0xE5 SHL DUP2 MSTORE PUSH1 0x20 PUSH1 0x4 DUP3 ADD DUP2 SWAP1 MSTORE PUSH1 0x24 DUP3 ADD MSTORE PUSH32 0x5361666545524332303A206C6F772D6C6576656C2063616C6C206661696C6564 PUSH1 0x44 DUP3 ADD MSTORE SWAP1 MLOAD SWAP1 DUP2 SWAP1 SUB PUSH1 0x64 ADD SWAP1 REVERT JUMPDEST DUP1 MLOAD ISZERO PUSH2 0xC64 JUMPI DUP1 DUP1 PUSH1 0x20 ADD SWAP1 MLOAD PUSH1 0x20 DUP2 LT ISZERO PUSH2 0xC27 JUMPI PUSH1 0x0 DUP1 REVERT JUMPDEST POP MLOAD PUSH2 0xC64 JUMPI PUSH1 0x40 MLOAD PUSH3 0x461BCD PUSH1 0xE5 SHL DUP2 MSTORE PUSH1 0x4 ADD DUP1 DUP1 PUSH1 0x20 ADD DUP3 DUP2 SUB DUP3 MSTORE PUSH1 0x2A DUP2 MSTORE PUSH1 0x20 ADD DUP1 PUSH2 0xCD5 PUSH1 0x2A SWAP2 CODECOPY PUSH1 0x40 ADD SWAP2 POP POP PUSH1 0x40 MLOAD DUP1 SWAP2 SUB SWAP1 REVERT JUMPDEST POP POP POP POP JUMP JUMPDEST PUSH1 0x0 DUP2 EXTCODEHASH PUSH32 0xC5D2460186F7233C927E7DB2DCC703C0E500B653CA82273B7BFAD8045D85A470 DUP2 ISZERO DUP1 ISZERO SWAP1 PUSH2 0xC9E JUMPI POP DUP1 DUP3 EQ ISZERO JUMPDEST SWAP5 SWAP4 POP POP POP POP JUMP INVALID 0x49 PUSH15 0x76616C69642062616C616E63652C20 PUSH24 0x61732074686520666C6173684C6F616E2073756363657373 PUSH7 0x756C3F53616665 GASLIMIT MSTORE NUMBER ORIGIN ADDRESS GASPRICE KECCAK256 GASLIMIT MSTORE NUMBER ORIGIN ADDRESS KECCAK256 PUSH16 0x7065726174696F6E20646964206E6F74 KECCAK256 PUSH20 0x756363656564A265627A7A72315820078739FE36 0xDC DUP14 BLOCKHASH 0xE8 0xFB MUL 0xBD AND 0xD7 0xE2 CODECOPY GT 0x26 0xB2 PUSH13 0x300A780E126D6F974AD536164 PUSH20 0x6F6C634300051100320000000000000000000000 "
				},
				"gasEstimates": {
					"creation": {
						"codeDepositCost": "675800",
						"executionCost": "63211",
						"totalCost": "739011"
					},
					"external": {
						"": "185",
						"BNB_ADDRESS()": "286",
						"addressesProvider()": "1059",
						"exchangeA()": "1082",
						"exchangeB()": "1038",
						"executeArbi()": "infinite",
						"executeOperation(address,uint256,uint256,bytes)": "infinite",
						"owner()": "1126",
						"receiver()": "1125",
						"rescueBNB(uint256)": "infinite",
						"setParams(address,address,uint256,address,address,address)": "21219"
					}
				},
				"methodIdentifiers": {
					"BNB_ADDRESS()": "70de629f",
					"addressesProvider()": "c72c4d10",
					"exchangeA()": "553e8c1e",
					"exchangeB()": "20fee44b",
					"executeArbi()": "a2131b91",
					"executeOperation(address,uint256,uint256,bytes)": "ee872558",
					"owner()": "8da5cb5b",
					"receiver()": "f7260d3e",
					"rescueBNB(uint256)": "441b1d30",
					"setParams(address,address,uint256,address,address,address)": "d6a79905"
				}
			},
			"storageLayout": {
				"storage": [
					{
						"astId": 758,
						"contract": "contracts/Flashloan.sol:Flashloan",
						"label": "addressesProvider",
						"offset": 0,
						"slot": "0",
						"type": "t_contract(ILendingPoolAddressesProvider)1029"
					},
					{
						"astId": 16,
						"contract": "contracts/Flashloan.sol:Flashloan",
						"label": "receiver",
						"offset": 0,
						"slot": "1",
						"type": "t_address"
					},
					{
						"astId": 21,
						"contract": "contracts/Flashloan.sol:Flashloan",
						"label": "owner",
						"offset": 0,
						"slot": "2",
						"type": "t_address"
					},
					{
						"astId": 26,
						"contract": "contracts/Flashloan.sol:Flashloan",
						"label": "exchangeA",
						"offset": 0,
						"slot": "3",
						"type": "t_contract(IUniswapV2Pair)1324"
					},
					{
						"astId": 28,
						"contract": "contracts/Flashloan.sol:Flashloan",
						"label": "exchangeB",
						"offset": 0,
						"slot": "4",
						"type": "t_contract(IUniswapV2Pair)1324"
					},
					{
						"astId": 30,
						"contract": "contracts/Flashloan.sol:Flashloan",
						"label": "routerA",
						"offset": 0,
						"slot": "5",
						"type": "t_address"
					},
					{
						"astId": 32,
						"contract": "contracts/Flashloan.sol:Flashloan",
						"label": "routerB",
						"offset": 0,
						"slot": "6",
						"type": "t_address"
					},
					{
						"astId": 34,
						"contract": "contracts/Flashloan.sol:Flashloan",
						"label": "token0",
						"offset": 0,
						"slot": "7",
						"type": "t_address"
					},
					{
						"astId": 36,
						"contract": "contracts/Flashloan.sol:Flashloan",
						"label": "token1",
						"offset": 0,
						"slot": "8",
						"type": "t_address"
					},
					{
						"astId": 38,
						"contract": "contracts/Flashloan.sol:Flashloan",
						"label": "pairAddress0",
						"offset": 0,
						"slot": "9",
						"type": "t_address"
					},
					{
						"astId": 40,
						"contract": "contracts/Flashloan.sol:Flashloan",
						"label": "pairAddress1",
						"offset": 0,
						"slot": "10",
						"type": "t_address"
					},
					{
						"astId": 42,
						"contract": "contracts/Flashloan.sol:Flashloan",
						"label": "_tokenPay",
						"offset": 0,
						"slot": "11",
						"type": "t_address"
					},
					{
						"astId": 44,
						"contract": "contracts/Flashloan.sol:Flashloan",
						"label": "_tokenSwap",
						"offset": 0,
						"slot": "12",
						"type": "t_address"
					},
					{
						"astId": 46,
						"contract": "contracts/Flashloan.sol:Flashloan",
						"label": "_amountTokenPay",
						"offset": 0,
						"slot": "13",
						"type": "t_uint256"
					},
					{
						"astId": 48,
						"contract": "contracts/Flashloan.sol:Flashloan",
						"label": "_sourceFactory",
						"offset": 0,
						"slot": "14",
						"type": "t_address"
					},
					{
						"astId": 50,
						"contract": "contracts/Flashloan.sol:Flashloan",
						"label": "_targetFactory",
						"offset": 0,
						"slot": "15",
						"type": "t_address"
					},
					{
						"astId": 52,
						"contract": "contracts/Flashloan.sol:Flashloan",
						"label": "_sourceRouter",
						"offset": 0,
						"slot": "16",
						"type": "t_address"
					},
					{
						"astId": 54,
						"contract": "contracts/Flashloan.sol:Flashloan",
						"label": "_targetRouter",
						"offset": 0,
						"slot": "17",
						"type": "t_address"
					}
				],
				"types": {
					"t_address": {
						"encoding": "inplace",
						"label": "address",
						"numberOfBytes": "20"
					},
					"t_contract(ILendingPoolAddressesProvider)1029": {
						"encoding": "inplace",
						"label": "contract ILendingPoolAddressesProvider",
						"numberOfBytes": "20"
					},
					"t_contract(IUniswapV2Pair)1324": {
						"encoding": "inplace",
						"label": "contract IUniswapV2Pair",
						"numberOfBytes": "20"
					},
					"t_uint256": {
						"encoding": "inplace",
						"label": "uint256",
						"numberOfBytes": "32"
					}
				}
			},
			"userdoc": {
				"methods": {}
			}
		}
	}
}