{
	"data": {
		"bytecode": {
			"linkReferences": {},
			"object": "6080604052600080546001600160a01b031990811673cc0479a98cc66e85806d0cd7970d6e07f77fd63317909155600180548216301790556004805490911673bb4cdb9cbd36b01bd1cbaebf2de08d9173bc095c17905534801561006257600080fd5b50600280546001600160a01b03191633179055611944806100846000396000f3fe6080604052600436106100915760003560e01c8063cd3293de11610059578063cd3293de14610135578063ebca64801461014a578063ee8725581461015d578063f7260d3e1461017d578063f8a4b3fa1461019257610091565b8063441b1d301461009357806370de629f146100b35780638da5cb5b146100de578063c72c4d10146100f3578063c734aa0614610115575b005b34801561009f57600080fd5b506100916100ae366004611301565b6101b2565b3480156100bf57600080fd5b506100c86101f0565b6040516100d59190611678565b60405180910390f35b3480156100ea57600080fd5b506100c8610208565b3480156100ff57600080fd5b50610108610217565b6040516100d591906116f3565b34801561012157600080fd5b5061009161013036600461124a565b610226565b34801561014157600080fd5b506100c86103b5565b610091610158366004611301565b6103c4565b34801561016957600080fd5b506100916101783660046111cc565b610428565b34801561018957600080fd5b506100c86105e3565b34801561019e57600080fd5b506100916101ad36600461133d565b6105f2565b6002546040516001600160a01b039091169082156108fc029083906000818181858888f193505050501580156101ec573d6000803e3d6000fd5b5050565b73eeeeeeeeeeeeeeeeeeeeeeeeeeeeeeeeeeeeeeee81565b6002546001600160a01b031681565b6000546001600160a01b031681565b8251610239906005906020860190610ea5565b506001600160a01b03821673bb4cdb9cbd36b01bd1cbaebf2de08d9173bc095c141561028a57600380546001600160a01b03191673eeeeeeeeeeeeeeeeeeeeeeeeeeeeeeeeeeeeeeee1790556102a6565b600380546001600160a01b0319166001600160a01b0384161790555b60008060009054906101000a90046001600160a01b03166001600160a01b0316630261bf8b6040518163ffffffff1660e01b815260040160206040518083038186803b1580156102f557600080fd5b505afa158015610309573d6000803e3d6000fd5b505050506040513d601f19601f8201168201806040525061032d91908101906111ae565b60408051602081018252600081526001546003549251632e7ff4ef60e11b815293945090926001600160a01b0380861693635cffe9de9361037c939083169290911690889087906004016116a1565b600060405180830381600087803b15801561039657600080fd5b505af11580156103aa573d6000803e3d6000fd5b505050505050505050565b6003546001600160a01b031681565b60048054604051632e1a7d4d60e01b81526001600160a01b0390911691632e1a7d4d916103f391859101611781565b600060405180830381600087803b15801561040d57600080fd5b505af1158015610421573d6000803e3d6000fd5b5050505050565b6104323086610612565b84111561045a5760405162461bcd60e51b815260040161045190611731565b60405180910390fd5b6003546001600160a01b031673eeeeeeeeeeeeeeeeeeeeeeeeeeeeeeeeeeeeeeee141561048a5761048a846106cf565b6105636005805480602002602001604051908101604052809291908181526020016000905b8282101561055a5760008481526020908190208301805460408051601f60026000196101006001871615020190941693909304928301859004850281018501909152818152928301828280156105465780601f1061051b57610100808354040283529160200191610546565b820191906000526020600020905b81548152906001019060200180831161052957829003601f168201915b5050505050815260200190600101906104af565b505050506107e8565b61056d3086610612565b506003546001600160a01b031673eeeeeeeeeeeeeeeeeeeeeeeeeeeeeeeeeeeeeeee141561059e5761059e846103c4565b60006105b0858563ffffffff610bc216565b90508085116105d15760405162461bcd60e51b815260040161045190611701565b6105db8682610be7565b505050505050565b6001546001600160a01b031681565b6002546101ec906001600160a01b0383811691168463ffffffff610c8016565b60006001600160a01b03821673eeeeeeeeeeeeeeeeeeeeeeeeeeeeeeeeeeeeeeee141561064a57506001600160a01b038216316106c9565b6040516370a0823160e01b81526001600160a01b038316906370a0823190610676908690600401611678565b60206040518083038186803b15801561068e57600080fd5b505afa1580156106a2573d6000803e3d6000fd5b505050506040513d601f19601f820116820180604052506106c6919081019061131f565b90505b92915050565b600047116106ef5760405162461bcd60e51b815260040161045190611741565b73bb4cdb9cbd36b01bd1cbaebf2de08d9173bc095c6001600160a01b031681624c4b409060405161071f9061166d565b600060405180830381858888f193505050503d806000811461075d576040519150601f19603f3d011682016040523d82523d6000602084013e610762565b606091505b50506004805460405163a9059cbb60e01b81526001600160a01b03909116925063a9059cbb91610796913091869101611686565b602060405180830381600087803b1580156107b057600080fd5b505af11580156107c4573d6000803e3d6000fd5b505050506040513d601f19601f820116820180604052506101ec91908101906112e3565b6000808080805b85518110156105db5785818151811061080457fe5b602002602001015160008151811061081857fe5b602001015160f81c60f81b6001600160f81b03191660601c925085818151811061083e57fe5b602002602001015160018151811061085257fe5b602001015160f81c60f81b6001600160f81b03191660601c6001600160a01b0316915085818151811061088157fe5b602002602001015160028151811061089557fe5b602001015160f81c60f81b6001600160f81b03191660601c94508581815181106108bb57fe5b60200260200101516003815181106108cf57fe5b60209101015160405163095ea7b360e01b815260609190911c60ff60981b1694506001600160a01b0386169063095ea7b39061091190869086906004016116e5565b602060405180830381600087803b15801561092b57600080fd5b505af115801561093f573d6000803e3d6000fd5b505050506040513d601f19601f8201168201806040525061096391908101906112e3565b61097f5760405162461bcd60e51b815260040161045190611761565b60606001600160a01b03861673bb4cdb9cbd36b01bd1cbaebf2de08d9173bc095c14806109c857506001600160a01b03851673bb4cdb9cbd36b01bd1cbaebf2de08d9173bc095c145b15610a4e57604080516002808252606082018352909160208301908038833901905050905085816000815181106109fb57fe5b60200260200101906001600160a01b031690816001600160a01b0316815250508481600181518110610a2957fe5b60200260200101906001600160a01b031690816001600160a01b031681525050610b0e565b6040805160038082526080820190925290602082016060803883390190505090508581600081518110610a7d57fe5b60200260200101906001600160a01b031690816001600160a01b03168152505073bb4cdb9cbd36b01bd1cbaebf2de08d9173bc095c81600181518110610abf57fe5b60200260200101906001600160a01b031690816001600160a01b0316815250508481600281518110610aed57fe5b60200260200101906001600160a01b031690816001600160a01b0316815250505b6040516338ed173960e01b81526060906001600160a01b038616906338ed173990610b4a9087906000908790309061012c42019060040161178f565b600060405180830381600087803b158015610b6457600080fd5b505af1158015610b78573d6000803e3d6000fd5b505050506040513d6000823e601f3d908101601f19168201604052610ba091908101906112ae565b9050600081600181518110610bb157fe5b5050600190930192506107ef915050565b6000828201838110156106c65760405162461bcd60e51b815260040161045190611711565b60008060009054906101000a90046001600160a01b03166001600160a01b031663ed6ff7606040518163ffffffff1660e01b815260040160206040518083038186803b158015610c3657600080fd5b505afa158015610c4a573d6000803e3d6000fd5b505050506040513d601f19601f82011682018060405250610c6e91908101906111ae565b9050610c7b818484610cd9565b505050565b604051610c7b90849063a9059cbb60e01b90610ca290869086906024016116e5565b60408051601f198184030181529190526020810180516001600160e01b03166001600160e01b031990931692909217909152610d7e565b6001600160a01b03821673eeeeeeeeeeeeeeeeeeeeeeeeeeeeeeeeeeeeeeee1415610d6457826001600160a01b03168161c35090604051610d199061166d565b600060405180830381858888f193505050503d8060008114610d57576040519150601f19603f3d011682016040523d82523d6000602084013e610d5c565b606091505b505050610c7b565b610c7b6001600160a01b038316848363ffffffff610c8016565b610d90826001600160a01b0316610e69565b610dac5760405162461bcd60e51b815260040161045190611771565b60006060836001600160a01b031683604051610dc8919061165a565b6000604051808303816000865af19150503d8060008114610e05576040519150601f19603f3d011682016040523d82523d6000602084013e610e0a565b606091505b509150915081610e2c5760405162461bcd60e51b815260040161045190611721565b805115610e635780806020019051610e4791908101906112e3565b610e635760405162461bcd60e51b815260040161045190611751565b50505050565b6000813f7fc5d2460186f7233c927e7db2dcc703c0e500b653ca82273b7bfad8045d85a4708115801590610e9d5750808214155b949350505050565b828054828255906000526020600020908101928215610ef2579160200282015b82811115610ef25782518051610ee2918491602090910190610f02565b5091602001919060010190610ec5565b50610efe929150610f7c565b5090565b828054600181600116156101000203166002900490600052602060002090601f016020900481019282601f10610f4357805160ff1916838001178555610f70565b82800160010185558215610f70579182015b82811115610f70578251825591602001919060010190610f55565b50610efe929150610fa2565b610f9f91905b80821115610efe576000610f968282610fbc565b50600101610f82565b90565b610f9f91905b80821115610efe5760008155600101610fa8565b50805460018160011615610100020316600290046000825580601f10610fe25750611000565b601f0160209004906000526020600020908101906110009190610fa2565b50565b80356106c9816118db565b80516106c9816118db565b600082601f83011261102a57600080fd5b813561103d611038826117ff565b6117d8565b81815260209384019390925082018360005b8381101561107b57813586016110658882611149565b845250602092830192919091019060010161104f565b5050505092915050565b600082601f83011261109657600080fd5b81516110a4611038826117ff565b915081818352602084019350602081019050838560208402820111156110c957600080fd5b60005b8381101561107b57816110df88826111a3565b84525060209283019291909101906001016110cc565b80516106c9816118ef565b60008083601f84011261111257600080fd5b50813567ffffffffffffffff81111561112a57600080fd5b60208301915083600182028301111561114257600080fd5b9250929050565b600082601f83011261115a57600080fd5b813561116861103882611820565b9150808252602083016020830185838301111561118457600080fd5b61118f838284611899565b50505092915050565b80356106c9816118f8565b80516106c9816118f8565b6000602082840312156111c057600080fd5b6000610e9d848461100e565b6000806000806000608086880312156111e457600080fd5b60006111f08888611003565b955050602061120188828901611198565b945050604061121288828901611198565b935050606086013567ffffffffffffffff81111561122f57600080fd5b61123b88828901611100565b92509250509295509295909350565b60008060006060848603121561125f57600080fd5b833567ffffffffffffffff81111561127657600080fd5b61128286828701611019565b935050602061129386828701611003565b92505060406112a486828701611198565b9150509250925092565b6000602082840312156112c057600080fd5b815167ffffffffffffffff8111156112d757600080fd5b610e9d84828501611085565b6000602082840312156112f557600080fd5b6000610e9d84846110f5565b60006020828403121561131357600080fd5b6000610e9d8484611198565b60006020828403121561133157600080fd5b6000610e9d84846111a3565b6000806040838503121561135057600080fd5b600061135c8585611198565b925050602061136d85828601611003565b9150509250929050565b6000611383838361139a565b505060200190565b6113948161187c565b82525050565b61139481611860565b60006113ae8261184e565b6113b88185611852565b93506113c383611848565b8060005b838110156113f15781516113db8882611377565b97506113e683611848565b9250506001016113c7565b509495945050505050565b60006114078261184e565b6114118185611852565b93506114218185602086016118a5565b61142a816118d1565b9093019392505050565b600061143f8261184e565b611449818561185b565b93506114598185602086016118a5565b9290920192915050565b61139481611883565b6113948161188e565b6000611482600e83611852565b6d111a59081b9bdd081c1c9bd99a5d60921b815260200192915050565b60006114ac601b83611852565b7f536166654d6174683a206164646974696f6e206f766572666c6f770000000000815260200192915050565b60006114e5602083611852565b7f5361666545524332303a206c6f772d6c6576656c2063616c6c206661696c6564815260200192915050565b600061151e602e83611852565b7f496e76616c69642062616c616e63652c207761732074686520666c6173684c6f81526d616e207375636365737366756c3f60901b602082015260400192915050565b60006106c960008361185b565b600061157b600983611852565b68037379036b7b732bc960bd1b815260200192915050565b60006115a0602a83611852565b7f5361666545524332303a204552433230206f7065726174696f6e20646964206e8152691bdd081cdd58d8d9595960b21b602082015260400192915050565b60006115ec602083611852565b7f436f756c64206e6f7420617070726f76652073656c6c206f6620746f6b656e30815260200192915050565b6000611625601f83611852565b7f5361666545524332303a2063616c6c20746f206e6f6e2d636f6e747261637400815260200192915050565b61139481610f9f565b60006116668284611434565b9392505050565b60006106c982611561565b602081016106c9828461139a565b60408101611694828561138b565b6116666020830184611651565b608081016116af828761139a565b6116bc602083018661139a565b6116c96040830185611651565b81810360608301526116db81846113fc565b9695505050505050565b60408101611694828561139a565b602081016106c98284611463565b602080825281016106c981611475565b602080825281016106c98161149f565b602080825281016106c9816114d8565b602080825281016106c981611511565b602080825281016106c98161156e565b602080825281016106c981611593565b602080825281016106c9816115df565b602080825281016106c981611618565b602081016106c98284611651565b60a0810161179d8288611651565b6117aa602083018761146c565b81810360408301526117bc81866113a3565b90506117cb606083018561138b565b6116db6080830184611651565b60405181810167ffffffffffffffff811182821017156117f757600080fd5b604052919050565b600067ffffffffffffffff82111561181657600080fd5b5060209081020190565b600067ffffffffffffffff82111561183757600080fd5b506020601f91909101601f19160190565b60200190565b5190565b90815260200190565b919050565b60006106c982611870565b151590565b6001600160a01b031690565b60006106c9825b60006106c982611860565b60006106c982610f9f565b82818337506000910152565b60005b838110156118c05781810151838201526020016118a8565b83811115610e635750506000910152565b601f01601f191690565b6118e481611860565b811461100057600080fd5b6118e48161186b565b6118e481610f9f56fea365627a7a723158201a4d3302b4bb7819a8cba869ad54dc15b93540d6f32a8bcd15b31a090c42f0376c6578706572696d656e74616cf564736f6c63430005110040",
			"opcodes": "PUSH1 0x80 PUSH1 0x40 MSTORE PUSH1 0x0 DUP1 SLOAD PUSH1 0x1 PUSH1 0x1 PUSH1 0xA0 SHL SUB NOT SWAP1 DUP2 AND PUSH20 0xCC0479A98CC66E85806D0CD7970D6E07F77FD633 OR SWAP1 SWAP2 SSTORE PUSH1 0x1 DUP1 SLOAD DUP3 AND ADDRESS OR SWAP1 SSTORE PUSH1 0x4 DUP1 SLOAD SWAP1 SWAP2 AND PUSH20 0xBB4CDB9CBD36B01BD1CBAEBF2DE08D9173BC095C OR SWAP1 SSTORE CALLVALUE DUP1 ISZERO PUSH2 0x62 JUMPI PUSH1 0x0 DUP1 REVERT JUMPDEST POP PUSH1 0x2 DUP1 SLOAD PUSH1 0x1 PUSH1 0x1 PUSH1 0xA0 SHL SUB NOT AND CALLER OR SWAP1 SSTORE PUSH2 0x1944 DUP1 PUSH2 0x84 PUSH1 0x0 CODECOPY PUSH1 0x0 RETURN INVALID PUSH1 0x80 PUSH1 0x40 MSTORE PUSH1 0x4 CALLDATASIZE LT PUSH2 0x91 JUMPI PUSH1 0x0 CALLDATALOAD PUSH1 0xE0 SHR DUP1 PUSH4 0xCD3293DE GT PUSH2 0x59 JUMPI DUP1 PUSH4 0xCD3293DE EQ PUSH2 0x135 JUMPI DUP1 PUSH4 0xEBCA6480 EQ PUSH2 0x14A JUMPI DUP1 PUSH4 0xEE872558 EQ PUSH2 0x15D JUMPI DUP1 PUSH4 0xF7260D3E EQ PUSH2 0x17D JUMPI DUP1 PUSH4 0xF8A4B3FA EQ PUSH2 0x192 JUMPI PUSH2 0x91 JUMP JUMPDEST DUP1 PUSH4 0x441B1D30 EQ PUSH2 0x93 JUMPI DUP1 PUSH4 0x70DE629F EQ PUSH2 0xB3 JUMPI DUP1 PUSH4 0x8DA5CB5B EQ PUSH2 0xDE JUMPI DUP1 PUSH4 0xC72C4D10 EQ PUSH2 0xF3 JUMPI DUP1 PUSH4 0xC734AA06 EQ PUSH2 0x115 JUMPI JUMPDEST STOP JUMPDEST CALLVALUE DUP1 ISZERO PUSH2 0x9F JUMPI PUSH1 0x0 DUP1 REVERT JUMPDEST POP PUSH2 0x91 PUSH2 0xAE CALLDATASIZE PUSH1 0x4 PUSH2 0x1301 JUMP JUMPDEST PUSH2 0x1B2 JUMP JUMPDEST CALLVALUE DUP1 ISZERO PUSH2 0xBF JUMPI PUSH1 0x0 DUP1 REVERT JUMPDEST POP PUSH2 0xC8 PUSH2 0x1F0 JUMP JUMPDEST PUSH1 0x40 MLOAD PUSH2 0xD5 SWAP2 SWAP1 PUSH2 0x1678 JUMP JUMPDEST PUSH1 0x40 MLOAD DUP1 SWAP2 SUB SWAP1 RETURN JUMPDEST CALLVALUE DUP1 ISZERO PUSH2 0xEA JUMPI PUSH1 0x0 DUP1 REVERT JUMPDEST POP PUSH2 0xC8 PUSH2 0x208 JUMP JUMPDEST CALLVALUE DUP1 ISZERO PUSH2 0xFF JUMPI PUSH1 0x0 DUP1 REVERT JUMPDEST POP PUSH2 0x108 PUSH2 0x217 JUMP JUMPDEST PUSH1 0x40 MLOAD PUSH2 0xD5 SWAP2 SWAP1 PUSH2 0x16F3 JUMP JUMPDEST CALLVALUE DUP1 ISZERO PUSH2 0x121 JUMPI PUSH1 0x0 DUP1 REVERT JUMPDEST POP PUSH2 0x91 PUSH2 0x130 CALLDATASIZE PUSH1 0x4 PUSH2 0x124A JUMP JUMPDEST PUSH2 0x226 JUMP JUMPDEST CALLVALUE DUP1 ISZERO PUSH2 0x141 JUMPI PUSH1 0x0 DUP1 REVERT JUMPDEST POP PUSH2 0xC8 PUSH2 0x3B5 JUMP JUMPDEST PUSH2 0x91 PUSH2 0x158 CALLDATASIZE PUSH1 0x4 PUSH2 0x1301 JUMP JUMPDEST PUSH2 0x3C4 JUMP JUMPDEST CALLVALUE DUP1 ISZERO PUSH2 0x169 JUMPI PUSH1 0x0 DUP1 REVERT JUMPDEST POP PUSH2 0x91 PUSH2 0x178 CALLDATASIZE PUSH1 0x4 PUSH2 0x11CC JUMP JUMPDEST PUSH2 0x428 JUMP JUMPDEST CALLVALUE DUP1 ISZERO PUSH2 0x189 JUMPI PUSH1 0x0 DUP1 REVERT JUMPDEST POP PUSH2 0xC8 PUSH2 0x5E3 JUMP JUMPDEST CALLVALUE DUP1 ISZERO PUSH2 0x19E JUMPI PUSH1 0x0 DUP1 REVERT JUMPDEST POP PUSH2 0x91 PUSH2 0x1AD CALLDATASIZE PUSH1 0x4 PUSH2 0x133D JUMP JUMPDEST PUSH2 0x5F2 JUMP JUMPDEST PUSH1 0x2 SLOAD PUSH1 0x40 MLOAD PUSH1 0x1 PUSH1 0x1 PUSH1 0xA0 SHL SUB SWAP1 SWAP2 AND SWAP1 DUP3 ISZERO PUSH2 0x8FC MUL SWAP1 DUP4 SWAP1 PUSH1 0x0 DUP2 DUP2 DUP2 DUP6 DUP9 DUP9 CALL SWAP4 POP POP POP POP ISZERO DUP1 ISZERO PUSH2 0x1EC JUMPI RETURNDATASIZE PUSH1 0x0 DUP1 RETURNDATACOPY RETURNDATASIZE PUSH1 0x0 REVERT JUMPDEST POP POP JUMP JUMPDEST PUSH20 0xEEEEEEEEEEEEEEEEEEEEEEEEEEEEEEEEEEEEEEEE DUP2 JUMP JUMPDEST PUSH1 0x2 SLOAD PUSH1 0x1 PUSH1 0x1 PUSH1 0xA0 SHL SUB AND DUP2 JUMP JUMPDEST PUSH1 0x0 SLOAD PUSH1 0x1 PUSH1 0x1 PUSH1 0xA0 SHL SUB AND DUP2 JUMP JUMPDEST DUP3 MLOAD PUSH2 0x239 SWAP1 PUSH1 0x5 SWAP1 PUSH1 0x20 DUP7 ADD SWAP1 PUSH2 0xEA5 JUMP JUMPDEST POP PUSH1 0x1 PUSH1 0x1 PUSH1 0xA0 SHL SUB DUP3 AND PUSH20 0xBB4CDB9CBD36B01BD1CBAEBF2DE08D9173BC095C EQ ISZERO PUSH2 0x28A JUMPI PUSH1 0x3 DUP1 SLOAD PUSH1 0x1 PUSH1 0x1 PUSH1 0xA0 SHL SUB NOT AND PUSH20 0xEEEEEEEEEEEEEEEEEEEEEEEEEEEEEEEEEEEEEEEE OR SWAP1 SSTORE PUSH2 0x2A6 JUMP JUMPDEST PUSH1 0x3 DUP1 SLOAD PUSH1 0x1 PUSH1 0x1 PUSH1 0xA0 SHL SUB NOT AND PUSH1 0x1 PUSH1 0x1 PUSH1 0xA0 SHL SUB DUP5 AND OR SWAP1 SSTORE JUMPDEST PUSH1 0x0 DUP1 PUSH1 0x0 SWAP1 SLOAD SWAP1 PUSH2 0x100 EXP SWAP1 DIV PUSH1 0x1 PUSH1 0x1 PUSH1 0xA0 SHL SUB AND PUSH1 0x1 PUSH1 0x1 PUSH1 0xA0 SHL SUB AND PUSH4 0x261BF8B PUSH1 0x40 MLOAD DUP2 PUSH4 0xFFFFFFFF AND PUSH1 0xE0 SHL DUP2 MSTORE PUSH1 0x4 ADD PUSH1 0x20 PUSH1 0x40 MLOAD DUP1 DUP4 SUB DUP2 DUP7 DUP1 EXTCODESIZE ISZERO DUP1 ISZERO PUSH2 0x2F5 JUMPI PUSH1 0x0 DUP1 REVERT JUMPDEST POP GAS STATICCALL ISZERO DUP1 ISZERO PUSH2 0x309 JUMPI RETURNDATASIZE PUSH1 0x0 DUP1 RETURNDATACOPY RETURNDATASIZE PUSH1 0x0 REVERT JUMPDEST POP POP POP POP PUSH1 0x40 MLOAD RETURNDATASIZE PUSH1 0x1F NOT PUSH1 0x1F DUP3 ADD AND DUP3 ADD DUP1 PUSH1 0x40 MSTORE POP PUSH2 0x32D SWAP2 SWAP1 DUP2 ADD SWAP1 PUSH2 0x11AE JUMP JUMPDEST PUSH1 0x40 DUP1 MLOAD PUSH1 0x20 DUP2 ADD DUP3 MSTORE PUSH1 0x0 DUP2 MSTORE PUSH1 0x1 SLOAD PUSH1 0x3 SLOAD SWAP3 MLOAD PUSH4 0x2E7FF4EF PUSH1 0xE1 SHL DUP2 MSTORE SWAP4 SWAP5 POP SWAP1 SWAP3 PUSH1 0x1 PUSH1 0x1 PUSH1 0xA0 SHL SUB DUP1 DUP7 AND SWAP4 PUSH4 0x5CFFE9DE SWAP4 PUSH2 0x37C SWAP4 SWAP1 DUP4 AND SWAP3 SWAP1 SWAP2 AND SWAP1 DUP9 SWAP1 DUP8 SWAP1 PUSH1 0x4 ADD PUSH2 0x16A1 JUMP JUMPDEST PUSH1 0x0 PUSH1 0x40 MLOAD DUP1 DUP4 SUB DUP2 PUSH1 0x0 DUP8 DUP1 EXTCODESIZE ISZERO DUP1 ISZERO PUSH2 0x396 JUMPI PUSH1 0x0 DUP1 REVERT JUMPDEST POP GAS CALL ISZERO DUP1 ISZERO PUSH2 0x3AA JUMPI RETURNDATASIZE PUSH1 0x0 DUP1 RETURNDATACOPY RETURNDATASIZE PUSH1 0x0 REVERT JUMPDEST POP POP POP POP POP POP POP POP POP JUMP JUMPDEST PUSH1 0x3 SLOAD PUSH1 0x1 PUSH1 0x1 PUSH1 0xA0 SHL SUB AND DUP2 JUMP JUMPDEST PUSH1 0x4 DUP1 SLOAD PUSH1 0x40 MLOAD PUSH4 0x2E1A7D4D PUSH1 0xE0 SHL DUP2 MSTORE PUSH1 0x1 PUSH1 0x1 PUSH1 0xA0 SHL SUB SWAP1 SWAP2 AND SWAP2 PUSH4 0x2E1A7D4D SWAP2 PUSH2 0x3F3 SWAP2 DUP6 SWAP2 ADD PUSH2 0x1781 JUMP JUMPDEST PUSH1 0x0 PUSH1 0x40 MLOAD DUP1 DUP4 SUB DUP2 PUSH1 0x0 DUP8 DUP1 EXTCODESIZE ISZERO DUP1 ISZERO PUSH2 0x40D JUMPI PUSH1 0x0 DUP1 REVERT JUMPDEST POP GAS CALL ISZERO DUP1 ISZERO PUSH2 0x421 JUMPI RETURNDATASIZE PUSH1 0x0 DUP1 RETURNDATACOPY RETURNDATASIZE PUSH1 0x0 REVERT JUMPDEST POP POP POP POP POP JUMP JUMPDEST PUSH2 0x432 ADDRESS DUP7 PUSH2 0x612 JUMP JUMPDEST DUP5 GT ISZERO PUSH2 0x45A JUMPI PUSH1 0x40 MLOAD PUSH3 0x461BCD PUSH1 0xE5 SHL DUP2 MSTORE PUSH1 0x4 ADD PUSH2 0x451 SWAP1 PUSH2 0x1731 JUMP JUMPDEST PUSH1 0x40 MLOAD DUP1 SWAP2 SUB SWAP1 REVERT JUMPDEST PUSH1 0x3 SLOAD PUSH1 0x1 PUSH1 0x1 PUSH1 0xA0 SHL SUB AND PUSH20 0xEEEEEEEEEEEEEEEEEEEEEEEEEEEEEEEEEEEEEEEE EQ ISZERO PUSH2 0x48A JUMPI PUSH2 0x48A DUP5 PUSH2 0x6CF JUMP JUMPDEST PUSH2 0x563 PUSH1 0x5 DUP1 SLOAD DUP1 PUSH1 0x20 MUL PUSH1 0x20 ADD PUSH1 0x40 MLOAD SWAP1 DUP2 ADD PUSH1 0x40 MSTORE DUP1 SWAP3 SWAP2 SWAP1 DUP2 DUP2 MSTORE PUSH1 0x20 ADD PUSH1 0x0 SWAP1 JUMPDEST DUP3 DUP3 LT ISZERO PUSH2 0x55A JUMPI PUSH1 0x0 DUP5 DUP2 MSTORE PUSH1 0x20 SWAP1 DUP2 SWAP1 KECCAK256 DUP4 ADD DUP1 SLOAD PUSH1 0x40 DUP1 MLOAD PUSH1 0x1F PUSH1 0x2 PUSH1 0x0 NOT PUSH2 0x100 PUSH1 0x1 DUP8 AND ISZERO MUL ADD SWAP1 SWAP5 AND SWAP4 SWAP1 SWAP4 DIV SWAP3 DUP4 ADD DUP6 SWAP1 DIV DUP6 MUL DUP2 ADD DUP6 ADD SWAP1 SWAP2 MSTORE DUP2 DUP2 MSTORE SWAP3 DUP4 ADD DUP3 DUP3 DUP1 ISZERO PUSH2 0x546 JUMPI DUP1 PUSH1 0x1F LT PUSH2 0x51B JUMPI PUSH2 0x100 DUP1 DUP4 SLOAD DIV MUL DUP4 MSTORE SWAP2 PUSH1 0x20 ADD SWAP2 PUSH2 0x546 JUMP JUMPDEST DUP3 ADD SWAP2 SWAP1 PUSH1 0x0 MSTORE PUSH1 0x20 PUSH1 0x0 KECCAK256 SWAP1 JUMPDEST DUP2 SLOAD DUP2 MSTORE SWAP1 PUSH1 0x1 ADD SWAP1 PUSH1 0x20 ADD DUP1 DUP4 GT PUSH2 0x529 JUMPI DUP3 SWAP1 SUB PUSH1 0x1F AND DUP3 ADD SWAP2 JUMPDEST POP POP POP POP POP DUP2 MSTORE PUSH1 0x20 ADD SWAP1 PUSH1 0x1 ADD SWAP1 PUSH2 0x4AF JUMP JUMPDEST POP POP POP POP PUSH2 0x7E8 JUMP JUMPDEST PUSH2 0x56D ADDRESS DUP7 PUSH2 0x612 JUMP JUMPDEST POP PUSH1 0x3 SLOAD PUSH1 0x1 PUSH1 0x1 PUSH1 0xA0 SHL SUB AND PUSH20 0xEEEEEEEEEEEEEEEEEEEEEEEEEEEEEEEEEEEEEEEE EQ ISZERO PUSH2 0x59E JUMPI PUSH2 0x59E DUP5 PUSH2 0x3C4 JUMP JUMPDEST PUSH1 0x0 PUSH2 0x5B0 DUP6 DUP6 PUSH4 0xFFFFFFFF PUSH2 0xBC2 AND JUMP JUMPDEST SWAP1 POP DUP1 DUP6 GT PUSH2 0x5D1 JUMPI PUSH1 0x40 MLOAD PUSH3 0x461BCD PUSH1 0xE5 SHL DUP2 MSTORE PUSH1 0x4 ADD PUSH2 0x451 SWAP1 PUSH2 0x1701 JUMP JUMPDEST PUSH2 0x5DB DUP7 DUP3 PUSH2 0xBE7 JUMP JUMPDEST POP POP POP POP POP POP JUMP JUMPDEST PUSH1 0x1 SLOAD PUSH1 0x1 PUSH1 0x1 PUSH1 0xA0 SHL SUB AND DUP2 JUMP JUMPDEST PUSH1 0x2 SLOAD PUSH2 0x1EC SWAP1 PUSH1 0x1 PUSH1 0x1 PUSH1 0xA0 SHL SUB DUP4 DUP2 AND SWAP2 AND DUP5 PUSH4 0xFFFFFFFF PUSH2 0xC80 AND JUMP JUMPDEST PUSH1 0x0 PUSH1 0x1 PUSH1 0x1 PUSH1 0xA0 SHL SUB DUP3 AND PUSH20 0xEEEEEEEEEEEEEEEEEEEEEEEEEEEEEEEEEEEEEEEE EQ ISZERO PUSH2 0x64A JUMPI POP PUSH1 0x1 PUSH1 0x1 PUSH1 0xA0 SHL SUB DUP3 AND BALANCE PUSH2 0x6C9 JUMP JUMPDEST PUSH1 0x40 MLOAD PUSH4 0x70A08231 PUSH1 0xE0 SHL DUP2 MSTORE PUSH1 0x1 PUSH1 0x1 PUSH1 0xA0 SHL SUB DUP4 AND SWAP1 PUSH4 0x70A08231 SWAP1 PUSH2 0x676 SWAP1 DUP7 SWAP1 PUSH1 0x4 ADD PUSH2 0x1678 JUMP JUMPDEST PUSH1 0x20 PUSH1 0x40 MLOAD DUP1 DUP4 SUB DUP2 DUP7 DUP1 EXTCODESIZE ISZERO DUP1 ISZERO PUSH2 0x68E JUMPI PUSH1 0x0 DUP1 REVERT JUMPDEST POP GAS STATICCALL ISZERO DUP1 ISZERO PUSH2 0x6A2 JUMPI RETURNDATASIZE PUSH1 0x0 DUP1 RETURNDATACOPY RETURNDATASIZE PUSH1 0x0 REVERT JUMPDEST POP POP POP POP PUSH1 0x40 MLOAD RETURNDATASIZE PUSH1 0x1F NOT PUSH1 0x1F DUP3 ADD AND DUP3 ADD DUP1 PUSH1 0x40 MSTORE POP PUSH2 0x6C6 SWAP2 SWAP1 DUP2 ADD SWAP1 PUSH2 0x131F JUMP JUMPDEST SWAP1 POP JUMPDEST SWAP3 SWAP2 POP POP JUMP JUMPDEST PUSH1 0x0 SELFBALANCE GT PUSH2 0x6EF JUMPI PUSH1 0x40 MLOAD PUSH3 0x461BCD PUSH1 0xE5 SHL DUP2 MSTORE PUSH1 0x4 ADD PUSH2 0x451 SWAP1 PUSH2 0x1741 JUMP JUMPDEST PUSH20 0xBB4CDB9CBD36B01BD1CBAEBF2DE08D9173BC095C PUSH1 0x1 PUSH1 0x1 PUSH1 0xA0 SHL SUB AND DUP2 PUSH3 0x4C4B40 SWAP1 PUSH1 0x40 MLOAD PUSH2 0x71F SWAP1 PUSH2 0x166D JUMP JUMPDEST PUSH1 0x0 PUSH1 0x40 MLOAD DUP1 DUP4 SUB DUP2 DUP6 DUP9 DUP9 CALL SWAP4 POP POP POP POP RETURNDATASIZE DUP1 PUSH1 0x0 DUP2 EQ PUSH2 0x75D JUMPI PUSH1 0x40 MLOAD SWAP2 POP PUSH1 0x1F NOT PUSH1 0x3F RETURNDATASIZE ADD AND DUP3 ADD PUSH1 0x40 MSTORE RETURNDATASIZE DUP3 MSTORE RETURNDATASIZE PUSH1 0x0 PUSH1 0x20 DUP5 ADD RETURNDATACOPY PUSH2 0x762 JUMP JUMPDEST PUSH1 0x60 SWAP2 POP JUMPDEST POP POP PUSH1 0x4 DUP1 SLOAD PUSH1 0x40 MLOAD PUSH4 0xA9059CBB PUSH1 0xE0 SHL DUP2 MSTORE PUSH1 0x1 PUSH1 0x1 PUSH1 0xA0 SHL SUB SWAP1 SWAP2 AND SWAP3 POP PUSH4 0xA9059CBB SWAP2 PUSH2 0x796 SWAP2 ADDRESS SWAP2 DUP7 SWAP2 ADD PUSH2 0x1686 JUMP JUMPDEST PUSH1 0x20 PUSH1 0x40 MLOAD DUP1 DUP4 SUB DUP2 PUSH1 0x0 DUP8 DUP1 EXTCODESIZE ISZERO DUP1 ISZERO PUSH2 0x7B0 JUMPI PUSH1 0x0 DUP1 REVERT JUMPDEST POP GAS CALL ISZERO DUP1 ISZERO PUSH2 0x7C4 JUMPI RETURNDATASIZE PUSH1 0x0 DUP1 RETURNDATACOPY RETURNDATASIZE PUSH1 0x0 REVERT JUMPDEST POP POP POP POP PUSH1 0x40 MLOAD RETURNDATASIZE PUSH1 0x1F NOT PUSH1 0x1F DUP3 ADD AND DUP3 ADD DUP1 PUSH1 0x40 MSTORE POP PUSH2 0x1EC SWAP2 SWAP1 DUP2 ADD SWAP1 PUSH2 0x12E3 JUMP JUMPDEST PUSH1 0x0 DUP1 DUP1 DUP1 DUP1 JUMPDEST DUP6 MLOAD DUP2 LT ISZERO PUSH2 0x5DB JUMPI DUP6 DUP2 DUP2 MLOAD DUP2 LT PUSH2 0x804 JUMPI INVALID JUMPDEST PUSH1 0x20 MUL PUSH1 0x20 ADD ADD MLOAD PUSH1 0x0 DUP2 MLOAD DUP2 LT PUSH2 0x818 JUMPI INVALID JUMPDEST PUSH1 0x20 ADD ADD MLOAD PUSH1 0xF8 SHR PUSH1 0xF8 SHL PUSH1 0x1 PUSH1 0x1 PUSH1 0xF8 SHL SUB NOT AND PUSH1 0x60 SHR SWAP3 POP DUP6 DUP2 DUP2 MLOAD DUP2 LT PUSH2 0x83E JUMPI INVALID JUMPDEST PUSH1 0x20 MUL PUSH1 0x20 ADD ADD MLOAD PUSH1 0x1 DUP2 MLOAD DUP2 LT PUSH2 0x852 JUMPI INVALID JUMPDEST PUSH1 0x20 ADD ADD MLOAD PUSH1 0xF8 SHR PUSH1 0xF8 SHL PUSH1 0x1 PUSH1 0x1 PUSH1 0xF8 SHL SUB NOT AND PUSH1 0x60 SHR PUSH1 0x1 PUSH1 0x1 PUSH1 0xA0 SHL SUB AND SWAP2 POP DUP6 DUP2 DUP2 MLOAD DUP2 LT PUSH2 0x881 JUMPI INVALID JUMPDEST PUSH1 0x20 MUL PUSH1 0x20 ADD ADD MLOAD PUSH1 0x2 DUP2 MLOAD DUP2 LT PUSH2 0x895 JUMPI INVALID JUMPDEST PUSH1 0x20 ADD ADD MLOAD PUSH1 0xF8 SHR PUSH1 0xF8 SHL PUSH1 0x1 PUSH1 0x1 PUSH1 0xF8 SHL SUB NOT AND PUSH1 0x60 SHR SWAP5 POP DUP6 DUP2 DUP2 MLOAD DUP2 LT PUSH2 0x8BB JUMPI INVALID JUMPDEST PUSH1 0x20 MUL PUSH1 0x20 ADD ADD MLOAD PUSH1 0x3 DUP2 MLOAD DUP2 LT PUSH2 0x8CF JUMPI INVALID JUMPDEST PUSH1 0x20 SWAP2 ADD ADD MLOAD PUSH1 0x40 MLOAD PUSH4 0x95EA7B3 PUSH1 0xE0 SHL DUP2 MSTORE PUSH1 0x60 SWAP2 SWAP1 SWAP2 SHR PUSH1 0xFF PUSH1 0x98 SHL AND SWAP5 POP PUSH1 0x1 PUSH1 0x1 PUSH1 0xA0 SHL SUB DUP7 AND SWAP1 PUSH4 0x95EA7B3 SWAP1 PUSH2 0x911 SWAP1 DUP7 SWAP1 DUP7 SWAP1 PUSH1 0x4 ADD PUSH2 0x16E5 JUMP JUMPDEST PUSH1 0x20 PUSH1 0x40 MLOAD DUP1 DUP4 SUB DUP2 PUSH1 0x0 DUP8 DUP1 EXTCODESIZE ISZERO DUP1 ISZERO PUSH2 0x92B JUMPI PUSH1 0x0 DUP1 REVERT JUMPDEST POP GAS CALL ISZERO DUP1 ISZERO PUSH2 0x93F JUMPI RETURNDATASIZE PUSH1 0x0 DUP1 RETURNDATACOPY RETURNDATASIZE PUSH1 0x0 REVERT JUMPDEST POP POP POP POP PUSH1 0x40 MLOAD RETURNDATASIZE PUSH1 0x1F NOT PUSH1 0x1F DUP3 ADD AND DUP3 ADD DUP1 PUSH1 0x40 MSTORE POP PUSH2 0x963 SWAP2 SWAP1 DUP2 ADD SWAP1 PUSH2 0x12E3 JUMP JUMPDEST PUSH2 0x97F JUMPI PUSH1 0x40 MLOAD PUSH3 0x461BCD PUSH1 0xE5 SHL DUP2 MSTORE PUSH1 0x4 ADD PUSH2 0x451 SWAP1 PUSH2 0x1761 JUMP JUMPDEST PUSH1 0x60 PUSH1 0x1 PUSH1 0x1 PUSH1 0xA0 SHL SUB DUP7 AND PUSH20 0xBB4CDB9CBD36B01BD1CBAEBF2DE08D9173BC095C EQ DUP1 PUSH2 0x9C8 JUMPI POP PUSH1 0x1 PUSH1 0x1 PUSH1 0xA0 SHL SUB DUP6 AND PUSH20 0xBB4CDB9CBD36B01BD1CBAEBF2DE08D9173BC095C EQ JUMPDEST ISZERO PUSH2 0xA4E JUMPI PUSH1 0x40 DUP1 MLOAD PUSH1 0x2 DUP1 DUP3 MSTORE PUSH1 0x60 DUP3 ADD DUP4 MSTORE SWAP1 SWAP2 PUSH1 0x20 DUP4 ADD SWAP1 DUP1 CODESIZE DUP4 CODECOPY ADD SWAP1 POP POP SWAP1 POP DUP6 DUP2 PUSH1 0x0 DUP2 MLOAD DUP2 LT PUSH2 0x9FB JUMPI INVALID JUMPDEST PUSH1 0x20 MUL PUSH1 0x20 ADD ADD SWAP1 PUSH1 0x1 PUSH1 0x1 PUSH1 0xA0 SHL SUB AND SWAP1 DUP2 PUSH1 0x1 PUSH1 0x1 PUSH1 0xA0 SHL SUB AND DUP2 MSTORE POP POP DUP5 DUP2 PUSH1 0x1 DUP2 MLOAD DUP2 LT PUSH2 0xA29 JUMPI INVALID JUMPDEST PUSH1 0x20 MUL PUSH1 0x20 ADD ADD SWAP1 PUSH1 0x1 PUSH1 0x1 PUSH1 0xA0 SHL SUB AND SWAP1 DUP2 PUSH1 0x1 PUSH1 0x1 PUSH1 0xA0 SHL SUB AND DUP2 MSTORE POP POP PUSH2 0xB0E JUMP JUMPDEST PUSH1 0x40 DUP1 MLOAD PUSH1 0x3 DUP1 DUP3 MSTORE PUSH1 0x80 DUP3 ADD SWAP1 SWAP3 MSTORE SWAP1 PUSH1 0x20 DUP3 ADD PUSH1 0x60 DUP1 CODESIZE DUP4 CODECOPY ADD SWAP1 POP POP SWAP1 POP DUP6 DUP2 PUSH1 0x0 DUP2 MLOAD DUP2 LT PUSH2 0xA7D JUMPI INVALID JUMPDEST PUSH1 0x20 MUL PUSH1 0x20 ADD ADD SWAP1 PUSH1 0x1 PUSH1 0x1 PUSH1 0xA0 SHL SUB AND SWAP1 DUP2 PUSH1 0x1 PUSH1 0x1 PUSH1 0xA0 SHL SUB AND DUP2 MSTORE POP POP PUSH20 0xBB4CDB9CBD36B01BD1CBAEBF2DE08D9173BC095C DUP2 PUSH1 0x1 DUP2 MLOAD DUP2 LT PUSH2 0xABF JUMPI INVALID JUMPDEST PUSH1 0x20 MUL PUSH1 0x20 ADD ADD SWAP1 PUSH1 0x1 PUSH1 0x1 PUSH1 0xA0 SHL SUB AND SWAP1 DUP2 PUSH1 0x1 PUSH1 0x1 PUSH1 0xA0 SHL SUB AND DUP2 MSTORE POP POP DUP5 DUP2 PUSH1 0x2 DUP2 MLOAD DUP2 LT PUSH2 0xAED JUMPI INVALID JUMPDEST PUSH1 0x20 MUL PUSH1 0x20 ADD ADD SWAP1 PUSH1 0x1 PUSH1 0x1 PUSH1 0xA0 SHL SUB AND SWAP1 DUP2 PUSH1 0x1 PUSH1 0x1 PUSH1 0xA0 SHL SUB AND DUP2 MSTORE POP POP JUMPDEST PUSH1 0x40 MLOAD PUSH4 0x38ED1739 PUSH1 0xE0 SHL DUP2 MSTORE PUSH1 0x60 SWAP1 PUSH1 0x1 PUSH1 0x1 PUSH1 0xA0 SHL SUB DUP7 AND SWAP1 PUSH4 0x38ED1739 SWAP1 PUSH2 0xB4A SWAP1 DUP8 SWAP1 PUSH1 0x0 SWAP1 DUP8 SWAP1 ADDRESS SWAP1 PUSH2 0x12C TIMESTAMP ADD SWAP1 PUSH1 0x4 ADD PUSH2 0x178F JUMP JUMPDEST PUSH1 0x0 PUSH1 0x40 MLOAD DUP1 DUP4 SUB DUP2 PUSH1 0x0 DUP8 DUP1 EXTCODESIZE ISZERO DUP1 ISZERO PUSH2 0xB64 JUMPI PUSH1 0x0 DUP1 REVERT JUMPDEST POP GAS CALL ISZERO DUP1 ISZERO PUSH2 0xB78 JUMPI RETURNDATASIZE PUSH1 0x0 DUP1 RETURNDATACOPY RETURNDATASIZE PUSH1 0x0 REVERT JUMPDEST POP POP POP POP PUSH1 0x40 MLOAD RETURNDATASIZE PUSH1 0x0 DUP3 RETURNDATACOPY PUSH1 0x1F RETURNDATASIZE SWAP1 DUP2 ADD PUSH1 0x1F NOT AND DUP3 ADD PUSH1 0x40 MSTORE PUSH2 0xBA0 SWAP2 SWAP1 DUP2 ADD SWAP1 PUSH2 0x12AE JUMP JUMPDEST SWAP1 POP PUSH1 0x0 DUP2 PUSH1 0x1 DUP2 MLOAD DUP2 LT PUSH2 0xBB1 JUMPI INVALID JUMPDEST POP POP PUSH1 0x1 SWAP1 SWAP4 ADD SWAP3 POP PUSH2 0x7EF SWAP2 POP POP JUMP JUMPDEST PUSH1 0x0 DUP3 DUP3 ADD DUP4 DUP2 LT ISZERO PUSH2 0x6C6 JUMPI PUSH1 0x40 MLOAD PUSH3 0x461BCD PUSH1 0xE5 SHL DUP2 MSTORE PUSH1 0x4 ADD PUSH2 0x451 SWAP1 PUSH2 0x1711 JUMP JUMPDEST PUSH1 0x0 DUP1 PUSH1 0x0 SWAP1 SLOAD SWAP1 PUSH2 0x100 EXP SWAP1 DIV PUSH1 0x1 PUSH1 0x1 PUSH1 0xA0 SHL SUB AND PUSH1 0x1 PUSH1 0x1 PUSH1 0xA0 SHL SUB AND PUSH4 0xED6FF760 PUSH1 0x40 MLOAD DUP2 PUSH4 0xFFFFFFFF AND PUSH1 0xE0 SHL DUP2 MSTORE PUSH1 0x4 ADD PUSH1 0x20 PUSH1 0x40 MLOAD DUP1 DUP4 SUB DUP2 DUP7 DUP1 EXTCODESIZE ISZERO DUP1 ISZERO PUSH2 0xC36 JUMPI PUSH1 0x0 DUP1 REVERT JUMPDEST POP GAS STATICCALL ISZERO DUP1 ISZERO PUSH2 0xC4A JUMPI RETURNDATASIZE PUSH1 0x0 DUP1 RETURNDATACOPY RETURNDATASIZE PUSH1 0x0 REVERT JUMPDEST POP POP POP POP PUSH1 0x40 MLOAD RETURNDATASIZE PUSH1 0x1F NOT PUSH1 0x1F DUP3 ADD AND DUP3 ADD DUP1 PUSH1 0x40 MSTORE POP PUSH2 0xC6E SWAP2 SWAP1 DUP2 ADD SWAP1 PUSH2 0x11AE JUMP JUMPDEST SWAP1 POP PUSH2 0xC7B DUP2 DUP5 DUP5 PUSH2 0xCD9 JUMP JUMPDEST POP POP POP JUMP JUMPDEST PUSH1 0x40 MLOAD PUSH2 0xC7B SWAP1 DUP5 SWAP1 PUSH4 0xA9059CBB PUSH1 0xE0 SHL SWAP1 PUSH2 0xCA2 SWAP1 DUP7 SWAP1 DUP7 SWAP1 PUSH1 0x24 ADD PUSH2 0x16E5 JUMP JUMPDEST PUSH1 0x40 DUP1 MLOAD PUSH1 0x1F NOT DUP2 DUP5 SUB ADD DUP2 MSTORE SWAP2 SWAP1 MSTORE PUSH1 0x20 DUP2 ADD DUP1 MLOAD PUSH1 0x1 PUSH1 0x1 PUSH1 0xE0 SHL SUB AND PUSH1 0x1 PUSH1 0x1 PUSH1 0xE0 SHL SUB NOT SWAP1 SWAP4 AND SWAP3 SWAP1 SWAP3 OR SWAP1 SWAP2 MSTORE PUSH2 0xD7E JUMP JUMPDEST PUSH1 0x1 PUSH1 0x1 PUSH1 0xA0 SHL SUB DUP3 AND PUSH20 0xEEEEEEEEEEEEEEEEEEEEEEEEEEEEEEEEEEEEEEEE EQ ISZERO PUSH2 0xD64 JUMPI DUP3 PUSH1 0x1 PUSH1 0x1 PUSH1 0xA0 SHL SUB AND DUP2 PUSH2 0xC350 SWAP1 PUSH1 0x40 MLOAD PUSH2 0xD19 SWAP1 PUSH2 0x166D JUMP JUMPDEST PUSH1 0x0 PUSH1 0x40 MLOAD DUP1 DUP4 SUB DUP2 DUP6 DUP9 DUP9 CALL SWAP4 POP POP POP POP RETURNDATASIZE DUP1 PUSH1 0x0 DUP2 EQ PUSH2 0xD57 JUMPI PUSH1 0x40 MLOAD SWAP2 POP PUSH1 0x1F NOT PUSH1 0x3F RETURNDATASIZE ADD AND DUP3 ADD PUSH1 0x40 MSTORE RETURNDATASIZE DUP3 MSTORE RETURNDATASIZE PUSH1 0x0 PUSH1 0x20 DUP5 ADD RETURNDATACOPY PUSH2 0xD5C JUMP JUMPDEST PUSH1 0x60 SWAP2 POP JUMPDEST POP POP POP PUSH2 0xC7B JUMP JUMPDEST PUSH2 0xC7B PUSH1 0x1 PUSH1 0x1 PUSH1 0xA0 SHL SUB DUP4 AND DUP5 DUP4 PUSH4 0xFFFFFFFF PUSH2 0xC80 AND JUMP JUMPDEST PUSH2 0xD90 DUP3 PUSH1 0x1 PUSH1 0x1 PUSH1 0xA0 SHL SUB AND PUSH2 0xE69 JUMP JUMPDEST PUSH2 0xDAC JUMPI PUSH1 0x40 MLOAD PUSH3 0x461BCD PUSH1 0xE5 SHL DUP2 MSTORE PUSH1 0x4 ADD PUSH2 0x451 SWAP1 PUSH2 0x1771 JUMP JUMPDEST PUSH1 0x0 PUSH1 0x60 DUP4 PUSH1 0x1 PUSH1 0x1 PUSH1 0xA0 SHL SUB AND DUP4 PUSH1 0x40 MLOAD PUSH2 0xDC8 SWAP2 SWAP1 PUSH2 0x165A JUMP JUMPDEST PUSH1 0x0 PUSH1 0x40 MLOAD DUP1 DUP4 SUB DUP2 PUSH1 0x0 DUP7 GAS CALL SWAP2 POP POP RETURNDATASIZE DUP1 PUSH1 0x0 DUP2 EQ PUSH2 0xE05 JUMPI PUSH1 0x40 MLOAD SWAP2 POP PUSH1 0x1F NOT PUSH1 0x3F RETURNDATASIZE ADD AND DUP3 ADD PUSH1 0x40 MSTORE RETURNDATASIZE DUP3 MSTORE RETURNDATASIZE PUSH1 0x0 PUSH1 0x20 DUP5 ADD RETURNDATACOPY PUSH2 0xE0A JUMP JUMPDEST PUSH1 0x60 SWAP2 POP JUMPDEST POP SWAP2 POP SWAP2 POP DUP2 PUSH2 0xE2C JUMPI PUSH1 0x40 MLOAD PUSH3 0x461BCD PUSH1 0xE5 SHL DUP2 MSTORE PUSH1 0x4 ADD PUSH2 0x451 SWAP1 PUSH2 0x1721 JUMP JUMPDEST DUP1 MLOAD ISZERO PUSH2 0xE63 JUMPI DUP1 DUP1 PUSH1 0x20 ADD SWAP1 MLOAD PUSH2 0xE47 SWAP2 SWAP1 DUP2 ADD SWAP1 PUSH2 0x12E3 JUMP JUMPDEST PUSH2 0xE63 JUMPI PUSH1 0x40 MLOAD PUSH3 0x461BCD PUSH1 0xE5 SHL DUP2 MSTORE PUSH1 0x4 ADD PUSH2 0x451 SWAP1 PUSH2 0x1751 JUMP JUMPDEST POP POP POP POP JUMP JUMPDEST PUSH1 0x0 DUP2 EXTCODEHASH PUSH32 0xC5D2460186F7233C927E7DB2DCC703C0E500B653CA82273B7BFAD8045D85A470 DUP2 ISZERO DUP1 ISZERO SWAP1 PUSH2 0xE9D JUMPI POP DUP1 DUP3 EQ ISZERO JUMPDEST SWAP5 SWAP4 POP POP POP POP JUMP JUMPDEST DUP3 DUP1 SLOAD DUP3 DUP3 SSTORE SWAP1 PUSH1 0x0 MSTORE PUSH1 0x20 PUSH1 0x0 KECCAK256 SWAP1 DUP2 ADD SWAP3 DUP3 ISZERO PUSH2 0xEF2 JUMPI SWAP2 PUSH1 0x20 MUL DUP3 ADD JUMPDEST DUP3 DUP2 GT ISZERO PUSH2 0xEF2 JUMPI DUP3 MLOAD DUP1 MLOAD PUSH2 0xEE2 SWAP2 DUP5 SWAP2 PUSH1 0x20 SWAP1 SWAP2 ADD SWAP1 PUSH2 0xF02 JUMP JUMPDEST POP SWAP2 PUSH1 0x20 ADD SWAP2 SWAP1 PUSH1 0x1 ADD SWAP1 PUSH2 0xEC5 JUMP JUMPDEST POP PUSH2 0xEFE SWAP3 SWAP2 POP PUSH2 0xF7C JUMP JUMPDEST POP SWAP1 JUMP JUMPDEST DUP3 DUP1 SLOAD PUSH1 0x1 DUP2 PUSH1 0x1 AND ISZERO PUSH2 0x100 MUL SUB AND PUSH1 0x2 SWAP1 DIV SWAP1 PUSH1 0x0 MSTORE PUSH1 0x20 PUSH1 0x0 KECCAK256 SWAP1 PUSH1 0x1F ADD PUSH1 0x20 SWAP1 DIV DUP2 ADD SWAP3 DUP3 PUSH1 0x1F LT PUSH2 0xF43 JUMPI DUP1 MLOAD PUSH1 0xFF NOT AND DUP4 DUP1 ADD OR DUP6 SSTORE PUSH2 0xF70 JUMP JUMPDEST DUP3 DUP1 ADD PUSH1 0x1 ADD DUP6 SSTORE DUP3 ISZERO PUSH2 0xF70 JUMPI SWAP2 DUP3 ADD JUMPDEST DUP3 DUP2 GT ISZERO PUSH2 0xF70 JUMPI DUP3 MLOAD DUP3 SSTORE SWAP2 PUSH1 0x20 ADD SWAP2 SWAP1 PUSH1 0x1 ADD SWAP1 PUSH2 0xF55 JUMP JUMPDEST POP PUSH2 0xEFE SWAP3 SWAP2 POP PUSH2 0xFA2 JUMP JUMPDEST PUSH2 0xF9F SWAP2 SWAP1 JUMPDEST DUP1 DUP3 GT ISZERO PUSH2 0xEFE JUMPI PUSH1 0x0 PUSH2 0xF96 DUP3 DUP3 PUSH2 0xFBC JUMP JUMPDEST POP PUSH1 0x1 ADD PUSH2 0xF82 JUMP JUMPDEST SWAP1 JUMP JUMPDEST PUSH2 0xF9F SWAP2 SWAP1 JUMPDEST DUP1 DUP3 GT ISZERO PUSH2 0xEFE JUMPI PUSH1 0x0 DUP2 SSTORE PUSH1 0x1 ADD PUSH2 0xFA8 JUMP JUMPDEST POP DUP1 SLOAD PUSH1 0x1 DUP2 PUSH1 0x1 AND ISZERO PUSH2 0x100 MUL SUB AND PUSH1 0x2 SWAP1 DIV PUSH1 0x0 DUP3 SSTORE DUP1 PUSH1 0x1F LT PUSH2 0xFE2 JUMPI POP PUSH2 0x1000 JUMP JUMPDEST PUSH1 0x1F ADD PUSH1 0x20 SWAP1 DIV SWAP1 PUSH1 0x0 MSTORE PUSH1 0x20 PUSH1 0x0 KECCAK256 SWAP1 DUP2 ADD SWAP1 PUSH2 0x1000 SWAP2 SWAP1 PUSH2 0xFA2 JUMP JUMPDEST POP JUMP JUMPDEST DUP1 CALLDATALOAD PUSH2 0x6C9 DUP2 PUSH2 0x18DB JUMP JUMPDEST DUP1 MLOAD PUSH2 0x6C9 DUP2 PUSH2 0x18DB JUMP JUMPDEST PUSH1 0x0 DUP3 PUSH1 0x1F DUP4 ADD SLT PUSH2 0x102A JUMPI PUSH1 0x0 DUP1 REVERT JUMPDEST DUP2 CALLDATALOAD PUSH2 0x103D PUSH2 0x1038 DUP3 PUSH2 0x17FF JUMP JUMPDEST PUSH2 0x17D8 JUMP JUMPDEST DUP2 DUP2 MSTORE PUSH1 0x20 SWAP4 DUP5 ADD SWAP4 SWAP1 SWAP3 POP DUP3 ADD DUP4 PUSH1 0x0 JUMPDEST DUP4 DUP2 LT ISZERO PUSH2 0x107B JUMPI DUP2 CALLDATALOAD DUP7 ADD PUSH2 0x1065 DUP9 DUP3 PUSH2 0x1149 JUMP JUMPDEST DUP5 MSTORE POP PUSH1 0x20 SWAP3 DUP4 ADD SWAP3 SWAP2 SWAP1 SWAP2 ADD SWAP1 PUSH1 0x1 ADD PUSH2 0x104F JUMP JUMPDEST POP POP POP POP SWAP3 SWAP2 POP POP JUMP JUMPDEST PUSH1 0x0 DUP3 PUSH1 0x1F DUP4 ADD SLT PUSH2 0x1096 JUMPI PUSH1 0x0 DUP1 REVERT JUMPDEST DUP2 MLOAD PUSH2 0x10A4 PUSH2 0x1038 DUP3 PUSH2 0x17FF JUMP JUMPDEST SWAP2 POP DUP2 DUP2 DUP4 MSTORE PUSH1 0x20 DUP5 ADD SWAP4 POP PUSH1 0x20 DUP2 ADD SWAP1 POP DUP4 DUP6 PUSH1 0x20 DUP5 MUL DUP3 ADD GT ISZERO PUSH2 0x10C9 JUMPI PUSH1 0x0 DUP1 REVERT JUMPDEST PUSH1 0x0 JUMPDEST DUP4 DUP2 LT ISZERO PUSH2 0x107B JUMPI DUP2 PUSH2 0x10DF DUP9 DUP3 PUSH2 0x11A3 JUMP JUMPDEST DUP5 MSTORE POP PUSH1 0x20 SWAP3 DUP4 ADD SWAP3 SWAP2 SWAP1 SWAP2 ADD SWAP1 PUSH1 0x1 ADD PUSH2 0x10CC JUMP JUMPDEST DUP1 MLOAD PUSH2 0x6C9 DUP2 PUSH2 0x18EF JUMP JUMPDEST PUSH1 0x0 DUP1 DUP4 PUSH1 0x1F DUP5 ADD SLT PUSH2 0x1112 JUMPI PUSH1 0x0 DUP1 REVERT JUMPDEST POP DUP2 CALLDATALOAD PUSH8 0xFFFFFFFFFFFFFFFF DUP2 GT ISZERO PUSH2 0x112A JUMPI PUSH1 0x0 DUP1 REVERT JUMPDEST PUSH1 0x20 DUP4 ADD SWAP2 POP DUP4 PUSH1 0x1 DUP3 MUL DUP4 ADD GT ISZERO PUSH2 0x1142 JUMPI PUSH1 0x0 DUP1 REVERT JUMPDEST SWAP3 POP SWAP3 SWAP1 POP JUMP JUMPDEST PUSH1 0x0 DUP3 PUSH1 0x1F DUP4 ADD SLT PUSH2 0x115A JUMPI PUSH1 0x0 DUP1 REVERT JUMPDEST DUP2 CALLDATALOAD PUSH2 0x1168 PUSH2 0x1038 DUP3 PUSH2 0x1820 JUMP JUMPDEST SWAP2 POP DUP1 DUP3 MSTORE PUSH1 0x20 DUP4 ADD PUSH1 0x20 DUP4 ADD DUP6 DUP4 DUP4 ADD GT ISZERO PUSH2 0x1184 JUMPI PUSH1 0x0 DUP1 REVERT JUMPDEST PUSH2 0x118F DUP4 DUP3 DUP5 PUSH2 0x1899 JUMP JUMPDEST POP POP POP SWAP3 SWAP2 POP POP JUMP JUMPDEST DUP1 CALLDATALOAD PUSH2 0x6C9 DUP2 PUSH2 0x18F8 JUMP JUMPDEST DUP1 MLOAD PUSH2 0x6C9 DUP2 PUSH2 0x18F8 JUMP JUMPDEST PUSH1 0x0 PUSH1 0x20 DUP3 DUP5 SUB SLT ISZERO PUSH2 0x11C0 JUMPI PUSH1 0x0 DUP1 REVERT JUMPDEST PUSH1 0x0 PUSH2 0xE9D DUP5 DUP5 PUSH2 0x100E JUMP JUMPDEST PUSH1 0x0 DUP1 PUSH1 0x0 DUP1 PUSH1 0x0 PUSH1 0x80 DUP7 DUP9 SUB SLT ISZERO PUSH2 0x11E4 JUMPI PUSH1 0x0 DUP1 REVERT JUMPDEST PUSH1 0x0 PUSH2 0x11F0 DUP9 DUP9 PUSH2 0x1003 JUMP JUMPDEST SWAP6 POP POP PUSH1 0x20 PUSH2 0x1201 DUP9 DUP3 DUP10 ADD PUSH2 0x1198 JUMP JUMPDEST SWAP5 POP POP PUSH1 0x40 PUSH2 0x1212 DUP9 DUP3 DUP10 ADD PUSH2 0x1198 JUMP JUMPDEST SWAP4 POP POP PUSH1 0x60 DUP7 ADD CALLDATALOAD PUSH8 0xFFFFFFFFFFFFFFFF DUP2 GT ISZERO PUSH2 0x122F JUMPI PUSH1 0x0 DUP1 REVERT JUMPDEST PUSH2 0x123B DUP9 DUP3 DUP10 ADD PUSH2 0x1100 JUMP JUMPDEST SWAP3 POP SWAP3 POP POP SWAP3 SWAP6 POP SWAP3 SWAP6 SWAP1 SWAP4 POP JUMP JUMPDEST PUSH1 0x0 DUP1 PUSH1 0x0 PUSH1 0x60 DUP5 DUP7 SUB SLT ISZERO PUSH2 0x125F JUMPI PUSH1 0x0 DUP1 REVERT JUMPDEST DUP4 CALLDATALOAD PUSH8 0xFFFFFFFFFFFFFFFF DUP2 GT ISZERO PUSH2 0x1276 JUMPI PUSH1 0x0 DUP1 REVERT JUMPDEST PUSH2 0x1282 DUP7 DUP3 DUP8 ADD PUSH2 0x1019 JUMP JUMPDEST SWAP4 POP POP PUSH1 0x20 PUSH2 0x1293 DUP7 DUP3 DUP8 ADD PUSH2 0x1003 JUMP JUMPDEST SWAP3 POP POP PUSH1 0x40 PUSH2 0x12A4 DUP7 DUP3 DUP8 ADD PUSH2 0x1198 JUMP JUMPDEST SWAP2 POP POP SWAP3 POP SWAP3 POP SWAP3 JUMP JUMPDEST PUSH1 0x0 PUSH1 0x20 DUP3 DUP5 SUB SLT ISZERO PUSH2 0x12C0 JUMPI PUSH1 0x0 DUP1 REVERT JUMPDEST DUP2 MLOAD PUSH8 0xFFFFFFFFFFFFFFFF DUP2 GT ISZERO PUSH2 0x12D7 JUMPI PUSH1 0x0 DUP1 REVERT JUMPDEST PUSH2 0xE9D DUP5 DUP3 DUP6 ADD PUSH2 0x1085 JUMP JUMPDEST PUSH1 0x0 PUSH1 0x20 DUP3 DUP5 SUB SLT ISZERO PUSH2 0x12F5 JUMPI PUSH1 0x0 DUP1 REVERT JUMPDEST PUSH1 0x0 PUSH2 0xE9D DUP5 DUP5 PUSH2 0x10F5 JUMP JUMPDEST PUSH1 0x0 PUSH1 0x20 DUP3 DUP5 SUB SLT ISZERO PUSH2 0x1313 JUMPI PUSH1 0x0 DUP1 REVERT JUMPDEST PUSH1 0x0 PUSH2 0xE9D DUP5 DUP5 PUSH2 0x1198 JUMP JUMPDEST PUSH1 0x0 PUSH1 0x20 DUP3 DUP5 SUB SLT ISZERO PUSH2 0x1331 JUMPI PUSH1 0x0 DUP1 REVERT JUMPDEST PUSH1 0x0 PUSH2 0xE9D DUP5 DUP5 PUSH2 0x11A3 JUMP JUMPDEST PUSH1 0x0 DUP1 PUSH1 0x40 DUP4 DUP6 SUB SLT ISZERO PUSH2 0x1350 JUMPI PUSH1 0x0 DUP1 REVERT JUMPDEST PUSH1 0x0 PUSH2 0x135C DUP6 DUP6 PUSH2 0x1198 JUMP JUMPDEST SWAP3 POP POP PUSH1 0x20 PUSH2 0x136D DUP6 DUP3 DUP7 ADD PUSH2 0x1003 JUMP JUMPDEST SWAP2 POP POP SWAP3 POP SWAP3 SWAP1 POP JUMP JUMPDEST PUSH1 0x0 PUSH2 0x1383 DUP4 DUP4 PUSH2 0x139A JUMP JUMPDEST POP POP PUSH1 0x20 ADD SWAP1 JUMP JUMPDEST PUSH2 0x1394 DUP2 PUSH2 0x187C JUMP JUMPDEST DUP3 MSTORE POP POP JUMP JUMPDEST PUSH2 0x1394 DUP2 PUSH2 0x1860 JUMP JUMPDEST PUSH1 0x0 PUSH2 0x13AE DUP3 PUSH2 0x184E JUMP JUMPDEST PUSH2 0x13B8 DUP2 DUP6 PUSH2 0x1852 JUMP JUMPDEST SWAP4 POP PUSH2 0x13C3 DUP4 PUSH2 0x1848 JUMP JUMPDEST DUP1 PUSH1 0x0 JUMPDEST DUP4 DUP2 LT ISZERO PUSH2 0x13F1 JUMPI DUP2 MLOAD PUSH2 0x13DB DUP9 DUP3 PUSH2 0x1377 JUMP JUMPDEST SWAP8 POP PUSH2 0x13E6 DUP4 PUSH2 0x1848 JUMP JUMPDEST SWAP3 POP POP PUSH1 0x1 ADD PUSH2 0x13C7 JUMP JUMPDEST POP SWAP5 SWAP6 SWAP5 POP POP POP POP POP JUMP JUMPDEST PUSH1 0x0 PUSH2 0x1407 DUP3 PUSH2 0x184E JUMP JUMPDEST PUSH2 0x1411 DUP2 DUP6 PUSH2 0x1852 JUMP JUMPDEST SWAP4 POP PUSH2 0x1421 DUP2 DUP6 PUSH1 0x20 DUP7 ADD PUSH2 0x18A5 JUMP JUMPDEST PUSH2 0x142A DUP2 PUSH2 0x18D1 JUMP JUMPDEST SWAP1 SWAP4 ADD SWAP4 SWAP3 POP POP POP JUMP JUMPDEST PUSH1 0x0 PUSH2 0x143F DUP3 PUSH2 0x184E JUMP JUMPDEST PUSH2 0x1449 DUP2 DUP6 PUSH2 0x185B JUMP JUMPDEST SWAP4 POP PUSH2 0x1459 DUP2 DUP6 PUSH1 0x20 DUP7 ADD PUSH2 0x18A5 JUMP JUMPDEST SWAP3 SWAP1 SWAP3 ADD SWAP3 SWAP2 POP POP JUMP JUMPDEST PUSH2 0x1394 DUP2 PUSH2 0x1883 JUMP JUMPDEST PUSH2 0x1394 DUP2 PUSH2 0x188E JUMP JUMPDEST PUSH1 0x0 PUSH2 0x1482 PUSH1 0xE DUP4 PUSH2 0x1852 JUMP JUMPDEST PUSH14 0x111A59081B9BDD081C1C9BD99A5D PUSH1 0x92 SHL DUP2 MSTORE PUSH1 0x20 ADD SWAP3 SWAP2 POP POP JUMP JUMPDEST PUSH1 0x0 PUSH2 0x14AC PUSH1 0x1B DUP4 PUSH2 0x1852 JUMP JUMPDEST PUSH32 0x536166654D6174683A206164646974696F6E206F766572666C6F770000000000 DUP2 MSTORE PUSH1 0x20 ADD SWAP3 SWAP2 POP POP JUMP JUMPDEST PUSH1 0x0 PUSH2 0x14E5 PUSH1 0x20 DUP4 PUSH2 0x1852 JUMP JUMPDEST PUSH32 0x5361666545524332303A206C6F772D6C6576656C2063616C6C206661696C6564 DUP2 MSTORE PUSH1 0x20 ADD SWAP3 SWAP2 POP POP JUMP JUMPDEST PUSH1 0x0 PUSH2 0x151E PUSH1 0x2E DUP4 PUSH2 0x1852 JUMP JUMPDEST PUSH32 0x496E76616C69642062616C616E63652C207761732074686520666C6173684C6F DUP2 MSTORE PUSH14 0x616E207375636365737366756C3F PUSH1 0x90 SHL PUSH1 0x20 DUP3 ADD MSTORE PUSH1 0x40 ADD SWAP3 SWAP2 POP POP JUMP JUMPDEST PUSH1 0x0 PUSH2 0x6C9 PUSH1 0x0 DUP4 PUSH2 0x185B JUMP JUMPDEST PUSH1 0x0 PUSH2 0x157B PUSH1 0x9 DUP4 PUSH2 0x1852 JUMP JUMPDEST PUSH9 0x37379036B7B732BC9 PUSH1 0xBD SHL DUP2 MSTORE PUSH1 0x20 ADD SWAP3 SWAP2 POP POP JUMP JUMPDEST PUSH1 0x0 PUSH2 0x15A0 PUSH1 0x2A DUP4 PUSH2 0x1852 JUMP JUMPDEST PUSH32 0x5361666545524332303A204552433230206F7065726174696F6E20646964206E DUP2 MSTORE PUSH10 0x1BDD081CDD58D8D95959 PUSH1 0xB2 SHL PUSH1 0x20 DUP3 ADD MSTORE PUSH1 0x40 ADD SWAP3 SWAP2 POP POP JUMP JUMPDEST PUSH1 0x0 PUSH2 0x15EC PUSH1 0x20 DUP4 PUSH2 0x1852 JUMP JUMPDEST PUSH32 0x436F756C64206E6F7420617070726F76652073656C6C206F6620746F6B656E30 DUP2 MSTORE PUSH1 0x20 ADD SWAP3 SWAP2 POP POP JUMP JUMPDEST PUSH1 0x0 PUSH2 0x1625 PUSH1 0x1F DUP4 PUSH2 0x1852 JUMP JUMPDEST PUSH32 0x5361666545524332303A2063616C6C20746F206E6F6E2D636F6E747261637400 DUP2 MSTORE PUSH1 0x20 ADD SWAP3 SWAP2 POP POP JUMP JUMPDEST PUSH2 0x1394 DUP2 PUSH2 0xF9F JUMP JUMPDEST PUSH1 0x0 PUSH2 0x1666 DUP3 DUP5 PUSH2 0x1434 JUMP JUMPDEST SWAP4 SWAP3 POP POP POP JUMP JUMPDEST PUSH1 0x0 PUSH2 0x6C9 DUP3 PUSH2 0x1561 JUMP JUMPDEST PUSH1 0x20 DUP2 ADD PUSH2 0x6C9 DUP3 DUP5 PUSH2 0x139A JUMP JUMPDEST PUSH1 0x40 DUP2 ADD PUSH2 0x1694 DUP3 DUP6 PUSH2 0x138B JUMP JUMPDEST PUSH2 0x1666 PUSH1 0x20 DUP4 ADD DUP5 PUSH2 0x1651 JUMP JUMPDEST PUSH1 0x80 DUP2 ADD PUSH2 0x16AF DUP3 DUP8 PUSH2 0x139A JUMP JUMPDEST PUSH2 0x16BC PUSH1 0x20 DUP4 ADD DUP7 PUSH2 0x139A JUMP JUMPDEST PUSH2 0x16C9 PUSH1 0x40 DUP4 ADD DUP6 PUSH2 0x1651 JUMP JUMPDEST DUP2 DUP2 SUB PUSH1 0x60 DUP4 ADD MSTORE PUSH2 0x16DB DUP2 DUP5 PUSH2 0x13FC JUMP JUMPDEST SWAP7 SWAP6 POP POP POP POP POP POP JUMP JUMPDEST PUSH1 0x40 DUP2 ADD PUSH2 0x1694 DUP3 DUP6 PUSH2 0x139A JUMP JUMPDEST PUSH1 0x20 DUP2 ADD PUSH2 0x6C9 DUP3 DUP5 PUSH2 0x1463 JUMP JUMPDEST PUSH1 0x20 DUP1 DUP3 MSTORE DUP2 ADD PUSH2 0x6C9 DUP2 PUSH2 0x1475 JUMP JUMPDEST PUSH1 0x20 DUP1 DUP3 MSTORE DUP2 ADD PUSH2 0x6C9 DUP2 PUSH2 0x149F JUMP JUMPDEST PUSH1 0x20 DUP1 DUP3 MSTORE DUP2 ADD PUSH2 0x6C9 DUP2 PUSH2 0x14D8 JUMP JUMPDEST PUSH1 0x20 DUP1 DUP3 MSTORE DUP2 ADD PUSH2 0x6C9 DUP2 PUSH2 0x1511 JUMP JUMPDEST PUSH1 0x20 DUP1 DUP3 MSTORE DUP2 ADD PUSH2 0x6C9 DUP2 PUSH2 0x156E JUMP JUMPDEST PUSH1 0x20 DUP1 DUP3 MSTORE DUP2 ADD PUSH2 0x6C9 DUP2 PUSH2 0x1593 JUMP JUMPDEST PUSH1 0x20 DUP1 DUP3 MSTORE DUP2 ADD PUSH2 0x6C9 DUP2 PUSH2 0x15DF JUMP JUMPDEST PUSH1 0x20 DUP1 DUP3 MSTORE DUP2 ADD PUSH2 0x6C9 DUP2 PUSH2 0x1618 JUMP JUMPDEST PUSH1 0x20 DUP2 ADD PUSH2 0x6C9 DUP3 DUP5 PUSH2 0x1651 JUMP JUMPDEST PUSH1 0xA0 DUP2 ADD PUSH2 0x179D DUP3 DUP9 PUSH2 0x1651 JUMP JUMPDEST PUSH2 0x17AA PUSH1 0x20 DUP4 ADD DUP8 PUSH2 0x146C JUMP JUMPDEST DUP2 DUP2 SUB PUSH1 0x40 DUP4 ADD MSTORE PUSH2 0x17BC DUP2 DUP7 PUSH2 0x13A3 JUMP JUMPDEST SWAP1 POP PUSH2 0x17CB PUSH1 0x60 DUP4 ADD DUP6 PUSH2 0x138B JUMP JUMPDEST PUSH2 0x16DB PUSH1 0x80 DUP4 ADD DUP5 PUSH2 0x1651 JUMP JUMPDEST PUSH1 0x40 MLOAD DUP2 DUP2 ADD PUSH8 0xFFFFFFFFFFFFFFFF DUP2 GT DUP3 DUP3 LT OR ISZERO PUSH2 0x17F7 JUMPI PUSH1 0x0 DUP1 REVERT JUMPDEST PUSH1 0x40 MSTORE SWAP2 SWAP1 POP JUMP JUMPDEST PUSH1 0x0 PUSH8 0xFFFFFFFFFFFFFFFF DUP3 GT ISZERO PUSH2 0x1816 JUMPI PUSH1 0x0 DUP1 REVERT JUMPDEST POP PUSH1 0x20 SWAP1 DUP2 MUL ADD SWAP1 JUMP JUMPDEST PUSH1 0x0 PUSH8 0xFFFFFFFFFFFFFFFF DUP3 GT ISZERO PUSH2 0x1837 JUMPI PUSH1 0x0 DUP1 REVERT JUMPDEST POP PUSH1 0x20 PUSH1 0x1F SWAP2 SWAP1 SWAP2 ADD PUSH1 0x1F NOT AND ADD SWAP1 JUMP JUMPDEST PUSH1 0x20 ADD SWAP1 JUMP JUMPDEST MLOAD SWAP1 JUMP JUMPDEST SWAP1 DUP2 MSTORE PUSH1 0x20 ADD SWAP1 JUMP JUMPDEST SWAP2 SWAP1 POP JUMP JUMPDEST PUSH1 0x0 PUSH2 0x6C9 DUP3 PUSH2 0x1870 JUMP JUMPDEST ISZERO ISZERO SWAP1 JUMP JUMPDEST PUSH1 0x1 PUSH1 0x1 PUSH1 0xA0 SHL SUB AND SWAP1 JUMP JUMPDEST PUSH1 0x0 PUSH2 0x6C9 DUP3 JUMPDEST PUSH1 0x0 PUSH2 0x6C9 DUP3 PUSH2 0x1860 JUMP JUMPDEST PUSH1 0x0 PUSH2 0x6C9 DUP3 PUSH2 0xF9F JUMP JUMPDEST DUP3 DUP2 DUP4 CALLDATACOPY POP PUSH1 0x0 SWAP2 ADD MSTORE JUMP JUMPDEST PUSH1 0x0 JUMPDEST DUP4 DUP2 LT ISZERO PUSH2 0x18C0 JUMPI DUP2 DUP2 ADD MLOAD DUP4 DUP3 ADD MSTORE PUSH1 0x20 ADD PUSH2 0x18A8 JUMP JUMPDEST DUP4 DUP2 GT ISZERO PUSH2 0xE63 JUMPI POP POP PUSH1 0x0 SWAP2 ADD MSTORE JUMP JUMPDEST PUSH1 0x1F ADD PUSH1 0x1F NOT AND SWAP1 JUMP JUMPDEST PUSH2 0x18E4 DUP2 PUSH2 0x1860 JUMP JUMPDEST DUP2 EQ PUSH2 0x1000 JUMPI PUSH1 0x0 DUP1 REVERT JUMPDEST PUSH2 0x18E4 DUP2 PUSH2 0x186B JUMP JUMPDEST PUSH2 0x18E4 DUP2 PUSH2 0xF9F JUMP INVALID LOG3 PUSH6 0x627A7A723158 KECCAK256 BYTE 0x4D CALLER MUL 0xB4 0xBB PUSH25 0x19A8CBA869AD54DC15B93540D6F32A8BCD15B31A090C42F037 PUSH13 0x6578706572696D656E74616CF5 PUSH5 0x736F6C6343 STOP SDIV GT STOP BLOCKHASH "
		},
		"gasEstimates": {
			"creation": {
				"codeDepositCost": "1293600",
				"executionCost": "84673",
				"totalCost": "1378273"
			},
			"external": {
				"": "185",
				"BNB_ADDRESS()": "infinite",
				"UnwrapBNB(uint256)": "infinite",
				"addressesProvider()": "infinite",
				"executeArbi(bytes[],address,uint256)": "infinite",
				"executeOperation(address,uint256,uint256,bytes)": "infinite",
				"owner()": "infinite",
				"receiver()": "infinite",
				"rescueBNB(uint256)": "infinite",
				"rescuetoken(uint256,address)": "infinite",
				"reserve()": "infinite"
			},
			"internal": {
				"MultiSwap(bytes memory[] memory)": "infinite",
				"WrapBNB(uint256)": "infinite"
			}
		},
		"methodIdentifiers": {
			"BNB_ADDRESS()": "70de629f",
			"UnwrapBNB(uint256)": "ebca6480",
			"addressesProvider()": "c72c4d10",
			"executeArbi(bytes[],address,uint256)": "c734aa06",
			"executeOperation(address,uint256,uint256,bytes)": "ee872558",
			"owner()": "8da5cb5b",
			"receiver()": "f7260d3e",
			"rescueBNB(uint256)": "441b1d30",
			"rescuetoken(uint256,address)": "f8a4b3fa",
			"reserve()": "cd3293de"
		}
	},
	"abi": [
		{
			"inputs": [],
			"payable": false,
			"stateMutability": "nonpayable",
			"type": "constructor"
		},
		{
			"payable": true,
			"stateMutability": "payable",
			"type": "fallback"
		},
		{
			"constant": true,
			"inputs": [],
			"name": "BNB_ADDRESS",
			"outputs": [
				{
					"internalType": "address",
					"name": "",
					"type": "address"
				}
			],
			"payable": false,
			"stateMutability": "view",
			"type": "function"
		},
		{
			"constant": false,
			"inputs": [
				{
					"internalType": "uint256",
					"name": "_amount",
					"type": "uint256"
				}
			],
			"name": "UnwrapBNB",
			"outputs": [],
			"payable": true,
			"stateMutability": "payable",
			"type": "function"
		},
		{
			"constant": true,
			"inputs": [],
			"name": "addressesProvider",
			"outputs": [
				{
					"internalType": "contract ILendingPoolAddressesProvider",
					"name": "",
					"type": "address"
				}
			],
			"payable": false,
			"stateMutability": "view",
			"type": "function"
		},
		{
			"constant": false,
			"inputs": [
				{
					"internalType": "bytes[]",
					"name": "paths",
					"type": "bytes[]"
				},
				{
					"internalType": "address",
					"name": "sourcetoken",
					"type": "address"
				},
				{
					"internalType": "uint256",
					"name": "amountToken",
					"type": "uint256"
				}
			],
			"name": "executeArbi",
			"outputs": [],
			"payable": false,
			"stateMutability": "nonpayable",
			"type": "function"
		},
		{
			"constant": false,
			"inputs": [
				{
					"internalType": "address",
					"name": "_reserve",
					"type": "address"
				},
				{
					"internalType": "uint256",
					"name": "_amount",
					"type": "uint256"
				},
				{
					"internalType": "uint256",
					"name": "_fee",
					"type": "uint256"
				},
				{
					"internalType": "bytes",
					"name": "_params",
					"type": "bytes"
				}
			],
			"name": "executeOperation",
			"outputs": [],
			"payable": false,
			"stateMutability": "nonpayable",
			"type": "function"
		},
		{
			"constant": true,
			"inputs": [],
			"name": "owner",
			"outputs": [
				{
					"internalType": "address payable",
					"name": "",
					"type": "address"
				}
			],
			"payable": false,
			"stateMutability": "view",
			"type": "function"
		},
		{
			"constant": true,
			"inputs": [],
			"name": "receiver",
			"outputs": [
				{
					"internalType": "address",
					"name": "",
					"type": "address"
				}
			],
			"payable": false,
			"stateMutability": "view",
			"type": "function"
		},
		{
			"constant": false,
			"inputs": [
				{
					"internalType": "uint256",
					"name": "amount",
					"type": "uint256"
				}
			],
			"name": "rescueBNB",
			"outputs": [],
			"payable": false,
			"stateMutability": "nonpayable",
			"type": "function"
		},
		{
			"constant": false,
			"inputs": [
				{
					"internalType": "uint256",
					"name": "_amount",
					"type": "uint256"
				},
				{
					"internalType": "address",
					"name": "token",
					"type": "address"
				}
			],
			"name": "rescuetoken",
			"outputs": [],
			"payable": false,
			"stateMutability": "nonpayable",
			"type": "function"
		},
		{
			"constant": true,
			"inputs": [],
			"name": "reserve",
			"outputs": [
				{
					"internalType": "address",
					"name": "",
					"type": "address"
				}
			],
			"payable": false,
			"stateMutability": "view",
			"type": "function"
		}
	]
}